{
  "_format": "hh-sol-artifact-1",
  "contractName": "Factory",
  "sourceName": "contracts/Factory.sol",
  "abi": [
    {
      "inputs": [
        {
          "internalType": "uint256",
          "name": "",
          "type": "uint256"
        }
      ],
      "name": "collections",
      "outputs": [
        {
          "internalType": "contract NFT",
          "name": "",
          "type": "address"
        }
      ],
      "stateMutability": "view",
      "type": "function"
    },
    {
      "inputs": [
        {
          "internalType": "address",
          "name": "",
          "type": "address"
        },
        {
          "internalType": "uint256",
          "name": "",
          "type": "uint256"
        }
      ],
      "name": "collectionsByArtist",
      "outputs": [
        {
          "internalType": "address",
          "name": "",
          "type": "address"
        }
      ],
      "stateMutability": "view",
      "type": "function"
    },
    {
      "inputs": [
        {
          "internalType": "uint256",
          "name": "",
          "type": "uint256"
        }
      ],
      "name": "collectionsURI",
      "outputs": [
        {
          "internalType": "string",
          "name": "",
          "type": "string"
        }
      ],
      "stateMutability": "view",
      "type": "function"
    },
    {
      "inputs": [
        {
          "internalType": "string",
          "name": "_artistName",
          "type": "string"
        },
        {
          "internalType": "string",
          "name": "_artistSymbol",
          "type": "string"
        },
        {
          "internalType": "string",
          "name": "_baseUri",
          "type": "string"
        }
      ],
      "name": "createNFTCollection",
      "outputs": [],
      "stateMutability": "payable",
      "type": "function"
    },
    {
      "inputs": [
        {
          "internalType": "uint256",
          "name": "_id",
          "type": "uint256"
        }
      ],
      "name": "getCollection",
      "outputs": [
        {
          "internalType": "contract NFT",
          "name": "",
          "type": "address"
        }
      ],
      "stateMutability": "view",
      "type": "function"
    },
    {
      "inputs": [],
      "name": "getCollectionId",
      "outputs": [
        {
          "internalType": "uint256",
          "name": "",
          "type": "uint256"
        }
      ],
      "stateMutability": "view",
      "type": "function"
    }
  ],
  "bytecode": "0x608060405234801561001057600080fd5b50614232806100206000396000f3fe6080604052600436106200005c5760003560e01c806318700ee314620000615780635a1f3c2814620000a55780637c8e7bfe14620000e9578063844af6581462000119578063d6fa98f51462000139578063fdbda0ec146200017d575b600080fd5b3480156200006e57600080fd5b506200008d60048036038101906200008791906200062b565b620001c1565b6040516200009c919062000701565b60405180910390f35b348015620000b257600080fd5b50620000d16004803603810190620000cb91906200062b565b62000269565b604051620000e09190620007b0565b60405180910390f35b348015620000f657600080fd5b5062000101620002a6565b604051620001109190620007de565b60405180910390f35b6200013760048036038101906200013191906200094c565b620002af565b005b3480156200014657600080fd5b506200016560048036038101906200015f919062000a4a565b6200049c565b60405162000174919062000aa2565b60405180910390f35b3480156200018a57600080fd5b50620001a96004803603810190620001a391906200062b565b620004eb565b604051620001b89190620007b0565b60405180910390f35b60026020528060005260406000206000915090508054620001e29062000aee565b80601f0160208091040260200160405190810160405280929190818152602001828054620002109062000aee565b8015620002615780601f10620002355761010080835404028352916020019162000261565b820191906000526020600020905b8154815290600101906020018083116200024357829003601f168201915b505050505081565b60006001600083815260200190815260200160002060009054906101000a900473ffffffffffffffffffffffffffffffffffffffff169050919050565b60008054905090565b6000838383604051620002c2906200051e565b620002d09392919062000b23565b604051809103906000f080158015620002ed573d6000803e3d6000fd5b509050600080815480929190620003049062000ba4565b9190505550600360003373ffffffffffffffffffffffffffffffffffffffff1673ffffffffffffffffffffffffffffffffffffffff168152602001908152602001600020819080600181540180825580915050600190039060005260206000200160009091909190916101000a81548173ffffffffffffffffffffffffffffffffffffffff021916908373ffffffffffffffffffffffffffffffffffffffff1602179055508073ffffffffffffffffffffffffffffffffffffffff1663f2fde38b336040518263ffffffff1660e01b8152600401620003e4919062000aa2565b600060405180830381600087803b158015620003ff57600080fd5b505af115801562000414573d6000803e3d6000fd5b5050505080600160008054815260200190815260200160002060006101000a81548173ffffffffffffffffffffffffffffffffffffffff021916908373ffffffffffffffffffffffffffffffffffffffff1602179055508160026000805481526020019081526020016000209080519060200190620004959291906200052c565b5050505050565b60036020528160005260406000208181548110620004b957600080fd5b906000526020600020016000915091509054906101000a900473ffffffffffffffffffffffffffffffffffffffff1681565b60016020528060005260406000206000915054906101000a900473ffffffffffffffffffffffffffffffffffffffff1681565b61360b8062000bf283390190565b8280546200053a9062000aee565b90600052602060002090601f0160209004810192826200055e5760008555620005aa565b82601f106200057957805160ff1916838001178555620005aa565b82800160010185558215620005aa579182015b82811115620005a95782518255916020019190600101906200058c565b5b509050620005b99190620005bd565b5090565b5b80821115620005d8576000816000905550600101620005be565b5090565b6000604051905090565b600080fd5b600080fd5b6000819050919050565b6200060581620005f0565b81146200061157600080fd5b50565b6000813590506200062581620005fa565b92915050565b600060208284031215620006445762000643620005e6565b5b6000620006548482850162000614565b91505092915050565b600081519050919050565b600082825260208201905092915050565b60005b83811015620006995780820151818401526020810190506200067c565b83811115620006a9576000848401525b50505050565b6000601f19601f8301169050919050565b6000620006cd826200065d565b620006d9818562000668565b9350620006eb81856020860162000679565b620006f681620006af565b840191505092915050565b600060208201905081810360008301526200071d8184620006c0565b905092915050565b600073ffffffffffffffffffffffffffffffffffffffff82169050919050565b6000819050919050565b6000620007706200076a620007648462000725565b62000745565b62000725565b9050919050565b600062000784826200074f565b9050919050565b6000620007988262000777565b9050919050565b620007aa816200078b565b82525050565b6000602082019050620007c760008301846200079f565b92915050565b620007d881620005f0565b82525050565b6000602082019050620007f56000830184620007cd565b92915050565b600080fd5b600080fd5b7f4e487b7100000000000000000000000000000000000000000000000000000000600052604160045260246000fd5b6200083f82620006af565b810181811067ffffffffffffffff8211171562000861576200086062000805565b5b80604052505050565b600062000876620005dc565b905062000884828262000834565b919050565b600067ffffffffffffffff821115620008a757620008a662000805565b5b620008b282620006af565b9050602081019050919050565b82818337600083830152505050565b6000620008e5620008df8462000889565b6200086a565b90508281526020810184848401111562000904576200090362000800565b5b62000911848285620008bf565b509392505050565b600082601f830112620009315762000930620007fb565b5b813562000943848260208601620008ce565b91505092915050565b600080600060608486031215620009685762000967620005e6565b5b600084013567ffffffffffffffff811115620009895762000988620005eb565b5b620009978682870162000919565b935050602084013567ffffffffffffffff811115620009bb57620009ba620005eb565b5b620009c98682870162000919565b925050604084013567ffffffffffffffff811115620009ed57620009ec620005eb565b5b620009fb8682870162000919565b9150509250925092565b600062000a128262000725565b9050919050565b62000a248162000a05565b811462000a3057600080fd5b50565b60008135905062000a448162000a19565b92915050565b6000806040838503121562000a645762000a63620005e6565b5b600062000a748582860162000a33565b925050602062000a878582860162000614565b9150509250929050565b62000a9c8162000a05565b82525050565b600060208201905062000ab9600083018462000a91565b92915050565b7f4e487b7100000000000000000000000000000000000000000000000000000000600052602260045260246000fd5b6000600282049050600182168062000b0757607f821691505b60208210810362000b1d5762000b1c62000abf565b5b50919050565b6000606082019050818103600083015262000b3f8186620006c0565b9050818103602083015262000b558185620006c0565b9050818103604083015262000b6b8184620006c0565b9050949350505050565b7f4e487b7100000000000000000000000000000000000000000000000000000000600052601160045260246000fd5b600062000bb182620005f0565b91507fffffffffffffffffffffffffffffffffffffffffffffffffffffffffffffffff820362000be65762000be562000b75565b5b60018201905091905056fe60806040523480156200001157600080fd5b506040516200360b3803806200360b83398181016040528101906200003791906200049f565b828281600090805190602001906200005192919062000252565b5080600190805190602001906200006a92919062000252565b5050506200008d62000081620000af60201b60201c565b620000b760201b60201c565b6001600781905550620000a6816200017d60201b60201c565b5050506200063f565b600033905090565b6000600660009054906101000a900473ffffffffffffffffffffffffffffffffffffffff16905081600660006101000a81548173ffffffffffffffffffffffffffffffffffffffff021916908373ffffffffffffffffffffffffffffffffffffffff1602179055508173ffffffffffffffffffffffffffffffffffffffff168173ffffffffffffffffffffffffffffffffffffffff167f8be0079c531659141344cd1fd0a4f28419497f9722a3daafe3b4186f6b6457e060405160405180910390a35050565b6200018d620000af60201b60201c565b73ffffffffffffffffffffffffffffffffffffffff16620001b36200022860201b60201c565b73ffffffffffffffffffffffffffffffffffffffff16146200020c576040517f08c379a00000000000000000000000000000000000000000000000000000000081526004016200020390620005b9565b60405180910390fd5b80600890805190602001906200022492919062000252565b5050565b6000600660009054906101000a900473ffffffffffffffffffffffffffffffffffffffff16905090565b82805462000260906200060a565b90600052602060002090601f016020900481019282620002845760008555620002d0565b82601f106200029f57805160ff1916838001178555620002d0565b82800160010185558215620002d0579182015b82811115620002cf578251825591602001919060010190620002b2565b5b509050620002df9190620002e3565b5090565b5b80821115620002fe576000816000905550600101620002e4565b5090565b6000604051905090565b600080fd5b600080fd5b600080fd5b600080fd5b6000601f19601f8301169050919050565b7f4e487b7100000000000000000000000000000000000000000000000000000000600052604160045260246000fd5b6200036b8262000320565b810181811067ffffffffffffffff821117156200038d576200038c62000331565b5b80604052505050565b6000620003a262000302565b9050620003b0828262000360565b919050565b600067ffffffffffffffff821115620003d357620003d262000331565b5b620003de8262000320565b9050602081019050919050565b60005b838110156200040b578082015181840152602081019050620003ee565b838111156200041b576000848401525b50505050565b6000620004386200043284620003b5565b62000396565b9050828152602081018484840111156200045757620004566200031b565b5b62000464848285620003eb565b509392505050565b600082601f83011262000484576200048362000316565b5b81516200049684826020860162000421565b91505092915050565b600080600060608486031215620004bb57620004ba6200030c565b5b600084015167ffffffffffffffff811115620004dc57620004db62000311565b5b620004ea868287016200046c565b935050602084015167ffffffffffffffff8111156200050e576200050d62000311565b5b6200051c868287016200046c565b925050604084015167ffffffffffffffff81111562000540576200053f62000311565b5b6200054e868287016200046c565b9150509250925092565b600082825260208201905092915050565b7f4f776e61626c653a2063616c6c6572206973206e6f7420746865206f776e6572600082015250565b6000620005a160208362000558565b9150620005ae8262000569565b602082019050919050565b60006020820190508181036000830152620005d48162000592565b9050919050565b7f4e487b7100000000000000000000000000000000000000000000000000000000600052602260045260246000fd5b600060028204905060018216806200062357607f821691505b602082108103620006395762000638620005db565b5b50919050565b612fbc806200064f6000396000f3fe608060405234801561001057600080fd5b50600436106101375760003560e01c80636c0360eb116100b85780639f181b5e1161007c5780639f181b5e14610316578063a22cb46514610334578063b88d4fde14610350578063c87b56dd1461036c578063e985e9c51461039c578063f2fde38b146103cc57610137565b80636c0360eb1461028257806370a08231146102a0578063715018a6146102d05780638da5cb5b146102da57806395d89b41146102f857610137565b806318160ddd116100ff57806318160ddd146101e057806323b872dd146101fe57806342842e0e1461021a57806355f804b3146102365780636352211e1461025257610137565b806301ffc9a71461013c57806306fdde031461016c578063081812fc1461018a578063095ea7b3146101ba5780631249c58b146101d6575b600080fd5b61015660048036038101906101519190611ced565b6103e8565b6040516101639190611d35565b60405180910390f35b6101746104ca565b6040516101819190611de9565b60405180910390f35b6101a4600480360381019061019f9190611e41565b61055c565b6040516101b19190611eaf565b60405180910390f35b6101d460048036038101906101cf9190611ef6565b6105e1565b005b6101de6106f8565b005b6101e8610773565b6040516101f59190611f45565b60405180910390f35b61021860048036038101906102139190611f60565b61077d565b005b610234600480360381019061022f9190611f60565b6107dd565b005b610250600480360381019061024b91906120e8565b6107fd565b005b61026c60048036038101906102679190611e41565b610893565b6040516102799190611eaf565b60405180910390f35b61028a610944565b6040516102979190611de9565b60405180910390f35b6102ba60048036038101906102b59190612131565b6109d2565b6040516102c79190611f45565b60405180910390f35b6102d8610a89565b005b6102e2610b11565b6040516102ef9190611eaf565b60405180910390f35b610300610b3b565b60405161030d9190611de9565b60405180910390f35b61031e610bcd565b60405161032b9190611f45565b60405180910390f35b61034e6004803603810190610349919061218a565b610bd3565b005b61036a6004803603810190610365919061226b565b610be9565b005b61038660048036038101906103819190611e41565b610c4b565b6040516103939190611de9565b60405180910390f35b6103b660048036038101906103b191906122ee565b610cf2565b6040516103c39190611d35565b60405180910390f35b6103e660048036038101906103e19190612131565b610d86565b005b60007f80ac58cd000000000000000000000000000000000000000000000000000000007bffffffffffffffffffffffffffffffffffffffffffffffffffffffff1916827bffffffffffffffffffffffffffffffffffffffffffffffffffffffff191614806104b357507f5b5e139f000000000000000000000000000000000000000000000000000000007bffffffffffffffffffffffffffffffffffffffffffffffffffffffff1916827bffffffffffffffffffffffffffffffffffffffffffffffffffffffff1916145b806104c357506104c282610e7d565b5b9050919050565b6060600080546104d99061235d565b80601f01602080910402602001604051908101604052809291908181526020018280546105059061235d565b80156105525780601f1061052757610100808354040283529160200191610552565b820191906000526020600020905b81548152906001019060200180831161053557829003601f168201915b5050505050905090565b600061056782610ee7565b6105a6576040517f08c379a000000000000000000000000000000000000000000000000000000000815260040161059d90612400565b60405180910390fd5b6004600083815260200190815260200160002060009054906101000a900473ffffffffffffffffffffffffffffffffffffffff169050919050565b60006105ec82610893565b90508073ffffffffffffffffffffffffffffffffffffffff168373ffffffffffffffffffffffffffffffffffffffff160361065c576040517f08c379a000000000000000000000000000000000000000000000000000000000815260040161065390612492565b60405180910390fd5b8073ffffffffffffffffffffffffffffffffffffffff1661067b610f53565b73ffffffffffffffffffffffffffffffffffffffff1614806106aa57506106a9816106a4610f53565b610cf2565b5b6106e9576040517f08c379a00000000000000000000000000000000000000000000000000000000081526004016106e090612524565b60405180910390fd5b6106f38383610f5b565b505050565b60026007540361073d576040517f08c379a000000000000000000000000000000000000000000000000000000000815260040161073490612590565b60405180910390fd5b600260078190555060096000815480929190610758906125df565b919050555061076933600954611014565b6001600781905550565b6000600954905090565b61078e610788610f53565b82611032565b6107cd576040517f08c379a00000000000000000000000000000000000000000000000000000000081526004016107c490612699565b60405180910390fd5b6107d8838383611110565b505050565b6107f883838360405180602001604052806000815250610be9565b505050565b610805610f53565b73ffffffffffffffffffffffffffffffffffffffff16610823610b11565b73ffffffffffffffffffffffffffffffffffffffff1614610879576040517f08c379a000000000000000000000000000000000000000000000000000000000815260040161087090612705565b60405180910390fd5b806008908051906020019061088f929190611bde565b5050565b6000806002600084815260200190815260200160002060009054906101000a900473ffffffffffffffffffffffffffffffffffffffff169050600073ffffffffffffffffffffffffffffffffffffffff168173ffffffffffffffffffffffffffffffffffffffff160361093b576040517f08c379a000000000000000000000000000000000000000000000000000000000815260040161093290612797565b60405180910390fd5b80915050919050565b600880546109519061235d565b80601f016020809104026020016040519081016040528092919081815260200182805461097d9061235d565b80156109ca5780601f1061099f576101008083540402835291602001916109ca565b820191906000526020600020905b8154815290600101906020018083116109ad57829003601f168201915b505050505081565b60008073ffffffffffffffffffffffffffffffffffffffff168273ffffffffffffffffffffffffffffffffffffffff1603610a42576040517f08c379a0000000000000000000000000000000000000000000000000000000008152600401610a3990612829565b60405180910390fd5b600360008373ffffffffffffffffffffffffffffffffffffffff1673ffffffffffffffffffffffffffffffffffffffff168152602001908152602001600020549050919050565b610a91610f53565b73ffffffffffffffffffffffffffffffffffffffff16610aaf610b11565b73ffffffffffffffffffffffffffffffffffffffff1614610b05576040517f08c379a0000000000000000000000000000000000000000000000000000000008152600401610afc90612705565b60405180910390fd5b610b0f6000611376565b565b6000600660009054906101000a900473ffffffffffffffffffffffffffffffffffffffff16905090565b606060018054610b4a9061235d565b80601f0160208091040260200160405190810160405280929190818152602001828054610b769061235d565b8015610bc35780601f10610b9857610100808354040283529160200191610bc3565b820191906000526020600020905b815481529060010190602001808311610ba657829003601f168201915b5050505050905090565b60095481565b610be5610bde610f53565b838361143c565b5050565b610bfa610bf4610f53565b83611032565b610c39576040517f08c379a0000000000000000000000000000000000000000000000000000000008152600401610c3090612699565b60405180910390fd5b610c45848484846115a8565b50505050565b6060610c5682610ee7565b610c95576040517f08c379a0000000000000000000000000000000000000000000000000000000008152600401610c8c906128bb565b60405180910390fd5b6000610c9f611604565b90506000815111610cbf5760405180602001604052806000815250610cea565b80610cc984611696565b604051602001610cda929190612917565b6040516020818303038152906040525b915050919050565b6000600560008473ffffffffffffffffffffffffffffffffffffffff1673ffffffffffffffffffffffffffffffffffffffff16815260200190815260200160002060008373ffffffffffffffffffffffffffffffffffffffff1673ffffffffffffffffffffffffffffffffffffffff16815260200190815260200160002060009054906101000a900460ff16905092915050565b610d8e610f53565b73ffffffffffffffffffffffffffffffffffffffff16610dac610b11565b73ffffffffffffffffffffffffffffffffffffffff1614610e02576040517f08c379a0000000000000000000000000000000000000000000000000000000008152600401610df990612705565b60405180910390fd5b600073ffffffffffffffffffffffffffffffffffffffff168173ffffffffffffffffffffffffffffffffffffffff1603610e71576040517f08c379a0000000000000000000000000000000000000000000000000000000008152600401610e68906129ad565b60405180910390fd5b610e7a81611376565b50565b60007f01ffc9a7000000000000000000000000000000000000000000000000000000007bffffffffffffffffffffffffffffffffffffffffffffffffffffffff1916827bffffffffffffffffffffffffffffffffffffffffffffffffffffffff1916149050919050565b60008073ffffffffffffffffffffffffffffffffffffffff166002600084815260200190815260200160002060009054906101000a900473ffffffffffffffffffffffffffffffffffffffff1673ffffffffffffffffffffffffffffffffffffffff1614159050919050565b600033905090565b816004600083815260200190815260200160002060006101000a81548173ffffffffffffffffffffffffffffffffffffffff021916908373ffffffffffffffffffffffffffffffffffffffff160217905550808273ffffffffffffffffffffffffffffffffffffffff16610fce83610893565b73ffffffffffffffffffffffffffffffffffffffff167f8c5be1e5ebec7d5bd14f71427d1e84f3dd0314c0f7b2291e5b200ac8c7c3b92560405160405180910390a45050565b61102e8282604051806020016040528060008152506117f6565b5050565b600061103d82610ee7565b61107c576040517f08c379a000000000000000000000000000000000000000000000000000000000815260040161107390612a3f565b60405180910390fd5b600061108783610893565b90508073ffffffffffffffffffffffffffffffffffffffff168473ffffffffffffffffffffffffffffffffffffffff1614806110c957506110c88185610cf2565b5b8061110757508373ffffffffffffffffffffffffffffffffffffffff166110ef8461055c565b73ffffffffffffffffffffffffffffffffffffffff16145b91505092915050565b8273ffffffffffffffffffffffffffffffffffffffff1661113082610893565b73ffffffffffffffffffffffffffffffffffffffff1614611186576040517f08c379a000000000000000000000000000000000000000000000000000000000815260040161117d90612ad1565b60405180910390fd5b600073ffffffffffffffffffffffffffffffffffffffff168273ffffffffffffffffffffffffffffffffffffffff16036111f5576040517f08c379a00000000000000000000000000000000000000000000000000000000081526004016111ec90612b63565b60405180910390fd5b611200838383611851565b61120b600082610f5b565b6001600360008573ffffffffffffffffffffffffffffffffffffffff1673ffffffffffffffffffffffffffffffffffffffff168152602001908152602001600020600082825461125b9190612b83565b925050819055506001600360008473ffffffffffffffffffffffffffffffffffffffff1673ffffffffffffffffffffffffffffffffffffffff16815260200190815260200160002060008282546112b29190612bb7565b92505081905550816002600083815260200190815260200160002060006101000a81548173ffffffffffffffffffffffffffffffffffffffff021916908373ffffffffffffffffffffffffffffffffffffffff160217905550808273ffffffffffffffffffffffffffffffffffffffff168473ffffffffffffffffffffffffffffffffffffffff167fddf252ad1be2c89b69c2b068fc378daa952ba7f163c4a11628f55a4df523b3ef60405160405180910390a4611371838383611856565b505050565b6000600660009054906101000a900473ffffffffffffffffffffffffffffffffffffffff16905081600660006101000a81548173ffffffffffffffffffffffffffffffffffffffff021916908373ffffffffffffffffffffffffffffffffffffffff1602179055508173ffffffffffffffffffffffffffffffffffffffff168173ffffffffffffffffffffffffffffffffffffffff167f8be0079c531659141344cd1fd0a4f28419497f9722a3daafe3b4186f6b6457e060405160405180910390a35050565b8173ffffffffffffffffffffffffffffffffffffffff168373ffffffffffffffffffffffffffffffffffffffff16036114aa576040517f08c379a00000000000000000000000000000000000000000000000000000000081526004016114a190612c59565b60405180910390fd5b80600560008573ffffffffffffffffffffffffffffffffffffffff1673ffffffffffffffffffffffffffffffffffffffff16815260200190815260200160002060008473ffffffffffffffffffffffffffffffffffffffff1673ffffffffffffffffffffffffffffffffffffffff16815260200190815260200160002060006101000a81548160ff0219169083151502179055508173ffffffffffffffffffffffffffffffffffffffff168373ffffffffffffffffffffffffffffffffffffffff167f17307eab39ab6107e8899845ad3d59bd9653f200f220920489ca2b5937696c318360405161159b9190611d35565b60405180910390a3505050565b6115b3848484611110565b6115bf8484848461185b565b6115fe576040517f08c379a00000000000000000000000000000000000000000000000000000000081526004016115f590612ceb565b60405180910390fd5b50505050565b6060600880546116139061235d565b80601f016020809104026020016040519081016040528092919081815260200182805461163f9061235d565b801561168c5780601f106116615761010080835404028352916020019161168c565b820191906000526020600020905b81548152906001019060200180831161166f57829003601f168201915b5050505050905090565b6060600082036116dd576040518060400160405280600181526020017f300000000000000000000000000000000000000000000000000000000000000081525090506117f1565b600082905060005b6000821461170f5780806116f8906125df565b915050600a826117089190612d3a565b91506116e5565b60008167ffffffffffffffff81111561172b5761172a611fbd565b5b6040519080825280601f01601f19166020018201604052801561175d5781602001600182028036833780820191505090505b5090505b600085146117ea576001826117769190612b83565b9150600a856117859190612d6b565b60306117919190612bb7565b60f81b8183815181106117a7576117a6612d9c565b5b60200101907effffffffffffffffffffffffffffffffffffffffffffffffffffffffffffff1916908160001a905350600a856117e39190612d3a565b9450611761565b8093505050505b919050565b61180083836119e2565b61180d600084848461185b565b61184c576040517f08c379a000000000000000000000000000000000000000000000000000000000815260040161184390612ceb565b60405180910390fd5b505050565b505050565b505050565b600061187c8473ffffffffffffffffffffffffffffffffffffffff16611bbb565b156119d5578373ffffffffffffffffffffffffffffffffffffffff1663150b7a026118a5610f53565b8786866040518563ffffffff1660e01b81526004016118c79493929190612e20565b6020604051808303816000875af192505050801561190357506040513d601f19601f820116820180604052508101906119009190612e81565b60015b611985573d8060008114611933576040519150601f19603f3d011682016040523d82523d6000602084013e611938565b606091505b50600081510361197d576040517f08c379a000000000000000000000000000000000000000000000000000000000815260040161197490612ceb565b60405180910390fd5b805181602001fd5b63150b7a0260e01b7bffffffffffffffffffffffffffffffffffffffffffffffffffffffff1916817bffffffffffffffffffffffffffffffffffffffffffffffffffffffff1916149150506119da565b600190505b949350505050565b600073ffffffffffffffffffffffffffffffffffffffff168273ffffffffffffffffffffffffffffffffffffffff1603611a51576040517f08c379a0000000000000000000000000000000000000000000000000000000008152600401611a4890612efa565b60405180910390fd5b611a5a81610ee7565b15611a9a576040517f08c379a0000000000000000000000000000000000000000000000000000000008152600401611a9190612f66565b60405180910390fd5b611aa660008383611851565b6001600360008473ffffffffffffffffffffffffffffffffffffffff1673ffffffffffffffffffffffffffffffffffffffff1681526020019081526020016000206000828254611af69190612bb7565b92505081905550816002600083815260200190815260200160002060006101000a81548173ffffffffffffffffffffffffffffffffffffffff021916908373ffffffffffffffffffffffffffffffffffffffff160217905550808273ffffffffffffffffffffffffffffffffffffffff16600073ffffffffffffffffffffffffffffffffffffffff167fddf252ad1be2c89b69c2b068fc378daa952ba7f163c4a11628f55a4df523b3ef60405160405180910390a4611bb760008383611856565b5050565b6000808273ffffffffffffffffffffffffffffffffffffffff163b119050919050565b828054611bea9061235d565b90600052602060002090601f016020900481019282611c0c5760008555611c53565b82601f10611c2557805160ff1916838001178555611c53565b82800160010185558215611c53579182015b82811115611c52578251825591602001919060010190611c37565b5b509050611c609190611c64565b5090565b5b80821115611c7d576000816000905550600101611c65565b5090565b6000604051905090565b600080fd5b600080fd5b60007fffffffff0000000000000000000000000000000000000000000000000000000082169050919050565b611cca81611c95565b8114611cd557600080fd5b50565b600081359050611ce781611cc1565b92915050565b600060208284031215611d0357611d02611c8b565b5b6000611d1184828501611cd8565b91505092915050565b60008115159050919050565b611d2f81611d1a565b82525050565b6000602082019050611d4a6000830184611d26565b92915050565b600081519050919050565b600082825260208201905092915050565b60005b83811015611d8a578082015181840152602081019050611d6f565b83811115611d99576000848401525b50505050565b6000601f19601f8301169050919050565b6000611dbb82611d50565b611dc58185611d5b565b9350611dd5818560208601611d6c565b611dde81611d9f565b840191505092915050565b60006020820190508181036000830152611e038184611db0565b905092915050565b6000819050919050565b611e1e81611e0b565b8114611e2957600080fd5b50565b600081359050611e3b81611e15565b92915050565b600060208284031215611e5757611e56611c8b565b5b6000611e6584828501611e2c565b91505092915050565b600073ffffffffffffffffffffffffffffffffffffffff82169050919050565b6000611e9982611e6e565b9050919050565b611ea981611e8e565b82525050565b6000602082019050611ec46000830184611ea0565b92915050565b611ed381611e8e565b8114611ede57600080fd5b50565b600081359050611ef081611eca565b92915050565b60008060408385031215611f0d57611f0c611c8b565b5b6000611f1b85828601611ee1565b9250506020611f2c85828601611e2c565b9150509250929050565b611f3f81611e0b565b82525050565b6000602082019050611f5a6000830184611f36565b92915050565b600080600060608486031215611f7957611f78611c8b565b5b6000611f8786828701611ee1565b9350506020611f9886828701611ee1565b9250506040611fa986828701611e2c565b9150509250925092565b600080fd5b600080fd5b7f4e487b7100000000000000000000000000000000000000000000000000000000600052604160045260246000fd5b611ff582611d9f565b810181811067ffffffffffffffff8211171561201457612013611fbd565b5b80604052505050565b6000612027611c81565b90506120338282611fec565b919050565b600067ffffffffffffffff82111561205357612052611fbd565b5b61205c82611d9f565b9050602081019050919050565b82818337600083830152505050565b600061208b61208684612038565b61201d565b9050828152602081018484840111156120a7576120a6611fb8565b5b6120b2848285612069565b509392505050565b600082601f8301126120cf576120ce611fb3565b5b81356120df848260208601612078565b91505092915050565b6000602082840312156120fe576120fd611c8b565b5b600082013567ffffffffffffffff81111561211c5761211b611c90565b5b612128848285016120ba565b91505092915050565b60006020828403121561214757612146611c8b565b5b600061215584828501611ee1565b91505092915050565b61216781611d1a565b811461217257600080fd5b50565b6000813590506121848161215e565b92915050565b600080604083850312156121a1576121a0611c8b565b5b60006121af85828601611ee1565b92505060206121c085828601612175565b9150509250929050565b600067ffffffffffffffff8211156121e5576121e4611fbd565b5b6121ee82611d9f565b9050602081019050919050565b600061220e612209846121ca565b61201d565b90508281526020810184848401111561222a57612229611fb8565b5b612235848285612069565b509392505050565b600082601f83011261225257612251611fb3565b5b81356122628482602086016121fb565b91505092915050565b6000806000806080858703121561228557612284611c8b565b5b600061229387828801611ee1565b94505060206122a487828801611ee1565b93505060406122b587828801611e2c565b925050606085013567ffffffffffffffff8111156122d6576122d5611c90565b5b6122e28782880161223d565b91505092959194509250565b6000806040838503121561230557612304611c8b565b5b600061231385828601611ee1565b925050602061232485828601611ee1565b9150509250929050565b7f4e487b7100000000000000000000000000000000000000000000000000000000600052602260045260246000fd5b6000600282049050600182168061237557607f821691505b6020821081036123885761238761232e565b5b50919050565b7f4552433732313a20617070726f76656420717565727920666f72206e6f6e657860008201527f697374656e7420746f6b656e0000000000000000000000000000000000000000602082015250565b60006123ea602c83611d5b565b91506123f58261238e565b604082019050919050565b60006020820190508181036000830152612419816123dd565b9050919050565b7f4552433732313a20617070726f76616c20746f2063757272656e74206f776e6560008201527f7200000000000000000000000000000000000000000000000000000000000000602082015250565b600061247c602183611d5b565b915061248782612420565b604082019050919050565b600060208201905081810360008301526124ab8161246f565b9050919050565b7f4552433732313a20617070726f76652063616c6c6572206973206e6f74206f7760008201527f6e6572206e6f7220617070726f76656420666f7220616c6c0000000000000000602082015250565b600061250e603883611d5b565b9150612519826124b2565b604082019050919050565b6000602082019050818103600083015261253d81612501565b9050919050565b7f5265656e7472616e637947756172643a207265656e7472616e742063616c6c00600082015250565b600061257a601f83611d5b565b915061258582612544565b602082019050919050565b600060208201905081810360008301526125a98161256d565b9050919050565b7f4e487b7100000000000000000000000000000000000000000000000000000000600052601160045260246000fd5b60006125ea82611e0b565b91507fffffffffffffffffffffffffffffffffffffffffffffffffffffffffffffffff820361261c5761261b6125b0565b5b600182019050919050565b7f4552433732313a207472616e736665722063616c6c6572206973206e6f74206f60008201527f776e6572206e6f7220617070726f766564000000000000000000000000000000602082015250565b6000612683603183611d5b565b915061268e82612627565b604082019050919050565b600060208201905081810360008301526126b281612676565b9050919050565b7f4f776e61626c653a2063616c6c6572206973206e6f7420746865206f776e6572600082015250565b60006126ef602083611d5b565b91506126fa826126b9565b602082019050919050565b6000602082019050818103600083015261271e816126e2565b9050919050565b7f4552433732313a206f776e657220717565727920666f72206e6f6e657869737460008201527f656e7420746f6b656e0000000000000000000000000000000000000000000000602082015250565b6000612781602983611d5b565b915061278c82612725565b604082019050919050565b600060208201905081810360008301526127b081612774565b9050919050565b7f4552433732313a2062616c616e636520717565727920666f7220746865207a6560008201527f726f206164647265737300000000000000000000000000000000000000000000602082015250565b6000612813602a83611d5b565b915061281e826127b7565b604082019050919050565b6000602082019050818103600083015261284281612806565b9050919050565b7f4552433732314d657461646174613a2055524920717565727920666f72206e6f60008201527f6e6578697374656e7420746f6b656e0000000000000000000000000000000000602082015250565b60006128a5602f83611d5b565b91506128b082612849565b604082019050919050565b600060208201905081810360008301526128d481612898565b9050919050565b600081905092915050565b60006128f182611d50565b6128fb81856128db565b935061290b818560208601611d6c565b80840191505092915050565b600061292382856128e6565b915061292f82846128e6565b91508190509392505050565b7f4f776e61626c653a206e6577206f776e657220697320746865207a65726f206160008201527f6464726573730000000000000000000000000000000000000000000000000000602082015250565b6000612997602683611d5b565b91506129a28261293b565b604082019050919050565b600060208201905081810360008301526129c68161298a565b9050919050565b7f4552433732313a206f70657261746f7220717565727920666f72206e6f6e657860008201527f697374656e7420746f6b656e0000000000000000000000000000000000000000602082015250565b6000612a29602c83611d5b565b9150612a34826129cd565b604082019050919050565b60006020820190508181036000830152612a5881612a1c565b9050919050565b7f4552433732313a207472616e736665722066726f6d20696e636f72726563742060008201527f6f776e6572000000000000000000000000000000000000000000000000000000602082015250565b6000612abb602583611d5b565b9150612ac682612a5f565b604082019050919050565b60006020820190508181036000830152612aea81612aae565b9050919050565b7f4552433732313a207472616e7366657220746f20746865207a65726f2061646460008201527f7265737300000000000000000000000000000000000000000000000000000000602082015250565b6000612b4d602483611d5b565b9150612b5882612af1565b604082019050919050565b60006020820190508181036000830152612b7c81612b40565b9050919050565b6000612b8e82611e0b565b9150612b9983611e0b565b925082821015612bac57612bab6125b0565b5b828203905092915050565b6000612bc282611e0b565b9150612bcd83611e0b565b9250827fffffffffffffffffffffffffffffffffffffffffffffffffffffffffffffffff03821115612c0257612c016125b0565b5b828201905092915050565b7f4552433732313a20617070726f766520746f2063616c6c657200000000000000600082015250565b6000612c43601983611d5b565b9150612c4e82612c0d565b602082019050919050565b60006020820190508181036000830152612c7281612c36565b9050919050565b7f4552433732313a207472616e7366657220746f206e6f6e20455243373231526560008201527f63656976657220696d706c656d656e7465720000000000000000000000000000602082015250565b6000612cd5603283611d5b565b9150612ce082612c79565b604082019050919050565b60006020820190508181036000830152612d0481612cc8565b9050919050565b7f4e487b7100000000000000000000000000000000000000000000000000000000600052601260045260246000fd5b6000612d4582611e0b565b9150612d5083611e0b565b925082612d6057612d5f612d0b565b5b828204905092915050565b6000612d7682611e0b565b9150612d8183611e0b565b925082612d9157612d90612d0b565b5b828206905092915050565b7f4e487b7100000000000000000000000000000000000000000000000000000000600052603260045260246000fd5b600081519050919050565b600082825260208201905092915050565b6000612df282612dcb565b612dfc8185612dd6565b9350612e0c818560208601611d6c565b612e1581611d9f565b840191505092915050565b6000608082019050612e356000830187611ea0565b612e426020830186611ea0565b612e4f6040830185611f36565b8181036060830152612e618184612de7565b905095945050505050565b600081519050612e7b81611cc1565b92915050565b600060208284031215612e9757612e96611c8b565b5b6000612ea584828501612e6c565b91505092915050565b7f4552433732313a206d696e7420746f20746865207a65726f2061646472657373600082015250565b6000612ee4602083611d5b565b9150612eef82612eae565b602082019050919050565b60006020820190508181036000830152612f1381612ed7565b9050919050565b7f4552433732313a20746f6b656e20616c7265616479206d696e74656400000000600082015250565b6000612f50601c83611d5b565b9150612f5b82612f1a565b602082019050919050565b60006020820190508181036000830152612f7f81612f43565b905091905056fea2646970667358221220bb40dd97f967ed0578b1107e18e12345f36da9aaed1f1abcb67d1586ae76c4fe64736f6c634300080d0033a26469706673582212200f3427a891b795a197b110a5aaabd6700371ad845659be5da53972e41ab5b2d364736f6c634300080d0033",
  "linkReferences": {},
  "deployedLinkReferences": {}
}