{
  "_format": "hh-sol-artifact-1",
  "contractName": "Marketplace",
  "sourceName": "contracts/Marketplace.sol",
  "abi": [
    {
      "inputs": [
        {
          "internalType": "uint256",
          "name": "_feePercent",
          "type": "uint256"
        }
      ],
      "stateMutability": "nonpayable",
      "type": "constructor"
    },
    {
      "anonymous": false,
      "inputs": [
        {
          "indexed": false,
          "internalType": "uint256",
          "name": "itemId",
          "type": "uint256"
        },
        {
          "indexed": true,
          "internalType": "address",
          "name": "nft",
          "type": "address"
        },
        {
          "indexed": false,
          "internalType": "uint256",
          "name": "tokenId",
          "type": "uint256"
        },
        {
          "indexed": false,
          "internalType": "uint256",
          "name": "price",
          "type": "uint256"
        },
        {
          "indexed": true,
          "internalType": "address",
          "name": "seller",
          "type": "address"
        },
        {
          "indexed": true,
          "internalType": "address",
          "name": "buyer",
          "type": "address"
        }
      ],
      "name": "Bought",
      "type": "event"
    },
    {
      "anonymous": false,
      "inputs": [
        {
          "indexed": false,
          "internalType": "uint256",
          "name": "collectionId",
          "type": "uint256"
        },
        {
          "indexed": true,
          "internalType": "address",
          "name": "owner",
          "type": "address"
        },
        {
          "indexed": true,
          "internalType": "address",
          "name": "collectionAddress",
          "type": "address"
        }
      ],
      "name": "Collections",
      "type": "event"
    },
    {
      "anonymous": false,
      "inputs": [
        {
          "indexed": false,
          "internalType": "uint256",
          "name": "itemId",
          "type": "uint256"
        },
        {
          "indexed": true,
          "internalType": "address",
          "name": "nft",
          "type": "address"
        },
        {
          "indexed": false,
          "internalType": "uint256",
          "name": "tokenId",
          "type": "uint256"
        },
        {
          "indexed": false,
          "internalType": "uint256",
          "name": "price",
          "type": "uint256"
        },
        {
          "indexed": true,
          "internalType": "address",
          "name": "seller",
          "type": "address"
        }
      ],
      "name": "Offered",
      "type": "event"
    },
    {
      "inputs": [
        {
          "internalType": "address",
          "name": "_collectionAddress",
          "type": "address"
        }
      ],
      "name": "addCollection",
      "outputs": [],
      "stateMutability": "nonpayable",
      "type": "function"
    },
    {
      "inputs": [
        {
          "internalType": "uint256",
          "name": "_itemId",
          "type": "uint256"
        },
        {
          "internalType": "uint256",
          "name": "_newPrice",
          "type": "uint256"
        }
      ],
      "name": "changePrice",
      "outputs": [],
      "stateMutability": "payable",
      "type": "function"
    },
    {
      "inputs": [],
      "name": "collectionCount",
      "outputs": [
        {
          "internalType": "uint256",
          "name": "",
          "type": "uint256"
        }
      ],
      "stateMutability": "view",
      "type": "function"
    },
    {
      "inputs": [
        {
          "internalType": "uint256",
          "name": "",
          "type": "uint256"
        }
      ],
      "name": "collections",
      "outputs": [
        {
          "internalType": "uint256",
          "name": "collectionId",
          "type": "uint256"
        },
        {
          "internalType": "address payable",
          "name": "owner",
          "type": "address"
        },
        {
          "internalType": "address",
          "name": "collectionAddress",
          "type": "address"
        }
      ],
      "stateMutability": "view",
      "type": "function"
    },
    {
      "inputs": [],
      "name": "feeAccount",
      "outputs": [
        {
          "internalType": "address payable",
          "name": "",
          "type": "address"
        }
      ],
      "stateMutability": "view",
      "type": "function"
    },
    {
      "inputs": [],
      "name": "feePercent",
      "outputs": [
        {
          "internalType": "uint256",
          "name": "",
          "type": "uint256"
        }
      ],
      "stateMutability": "view",
      "type": "function"
    },
    {
      "inputs": [
        {
          "internalType": "uint256",
          "name": "_itemId",
          "type": "uint256"
        }
      ],
      "name": "getTotalPrice",
      "outputs": [
        {
          "internalType": "uint256",
          "name": "",
          "type": "uint256"
        }
      ],
      "stateMutability": "view",
      "type": "function"
    },
    {
      "inputs": [],
      "name": "itemCount",
      "outputs": [
        {
          "internalType": "uint256",
          "name": "",
          "type": "uint256"
        }
      ],
      "stateMutability": "view",
      "type": "function"
    },
    {
      "inputs": [
        {
          "internalType": "uint256",
          "name": "",
          "type": "uint256"
        }
      ],
      "name": "items",
      "outputs": [
        {
          "internalType": "uint256",
          "name": "itemId",
          "type": "uint256"
        },
        {
          "internalType": "contract IERC721",
          "name": "nft",
          "type": "address"
        },
        {
          "internalType": "uint256",
          "name": "tokenId",
          "type": "uint256"
        },
        {
          "internalType": "uint256",
          "name": "price",
          "type": "uint256"
        },
        {
          "internalType": "address payable",
          "name": "owner",
          "type": "address"
        },
        {
          "internalType": "bool",
          "name": "sold",
          "type": "bool"
        },
        {
          "internalType": "string",
          "name": "uri",
          "type": "string"
        }
      ],
      "stateMutability": "view",
      "type": "function"
    },
    {
      "inputs": [
        {
          "internalType": "contract IERC721",
          "name": "_nft",
          "type": "address"
        },
        {
          "internalType": "uint256",
          "name": "_tokenId",
          "type": "uint256"
        },
        {
          "internalType": "uint256",
          "name": "_price",
          "type": "uint256"
        },
        {
          "internalType": "string",
          "name": "_uri",
          "type": "string"
        }
      ],
      "name": "makeItem",
      "outputs": [],
      "stateMutability": "nonpayable",
      "type": "function"
    },
    {
      "inputs": [
        {
          "internalType": "uint256",
          "name": "_itemId",
          "type": "uint256"
        }
      ],
      "name": "purchaseItem",
      "outputs": [],
      "stateMutability": "payable",
      "type": "function"
    },
    {
      "inputs": [],
      "name": "rate",
      "outputs": [
        {
          "internalType": "uint256",
          "name": "",
          "type": "uint256"
        }
      ],
      "stateMutability": "view",
      "type": "function"
    },
    {
      "inputs": [
        {
          "internalType": "uint256",
          "name": "_itemId",
          "type": "uint256"
        }
      ],
      "name": "removeFromMarketplace",
      "outputs": [],
      "stateMutability": "payable",
      "type": "function"
    },
    {
      "inputs": [
        {
          "internalType": "uint256",
          "name": "_itemId",
          "type": "uint256"
        },
        {
          "internalType": "uint256",
          "name": "_price",
          "type": "uint256"
        }
      ],
      "name": "sellItem",
      "outputs": [],
      "stateMutability": "payable",
      "type": "function"
    }
  ],
  "bytecode": "0x60c0604052670de0b6b3a76400006003553480156200001d57600080fd5b506040516200238e3803806200238e8339818101604052810190620000439190620000ce565b60016000819055503373ffffffffffffffffffffffffffffffffffffffff1660808173ffffffffffffffffffffffffffffffffffffffff16815250508060a081815250505062000100565b600080fd5b6000819050919050565b620000a88162000093565b8114620000b457600080fd5b50565b600081519050620000c8816200009d565b92915050565b600060208284031215620000e757620000e66200008e565b5b6000620000f784828501620000b7565b91505092915050565b60805160a05161225a62000134600039600081816106740152610e2001526000818161064a0152611045015261225a6000f3fe6080604052600436106100dd5760003560e01c8063b3de019c1161007f578063d38ea5bf11610059578063d38ea5bf1461028b578063d57f966b146102a7578063e4008437146102d2578063fdbda0ec146102fb576100dd565b8063b3de019c146101ef578063bfb231d21461020b578063ca7dd3751461024e576100dd565b80636bfb0d01116100bb5780636bfb0d01146101545780637fd6f15c1461017f578063a174e77a146101aa578063ab38cb56146101d3576100dd565b80632c4e722e146100e25780632d9235611461010d57806365e17c9d14610129575b600080fd5b3480156100ee57600080fd5b506100f761033a565b60405161010491906116c1565b60405180910390f35b6101276004803603810190610122919061171c565b610340565b005b34801561013557600080fd5b5061013e610648565b60405161014b919061179d565b60405180910390f35b34801561016057600080fd5b5061016961066c565b60405161017691906116c1565b60405180910390f35b34801561018b57600080fd5b50610194610672565b6040516101a191906116c1565b60405180910390f35b3480156101b657600080fd5b506101d160048036038101906101cc91906117f6565b610696565b005b6101ed60048036038101906101e89190611823565b610866565b005b6102096004803603810190610204919061171c565b610abf565b005b34801561021757600080fd5b50610232600480360381019061022d9190611823565b610d03565b6040516102459796959493929190611963565b60405180910390f35b34801561025a57600080fd5b5061027560048036038101906102709190611823565b610e1a565b60405161028291906116c1565b60405180910390f35b6102a560048036038101906102a09190611823565b610e7d565b005b3480156102b357600080fd5b506102bc61128d565b6040516102c991906116c1565b60405180910390f35b3480156102de57600080fd5b506102f960048036038101906102f49190611b4c565b611293565b005b34801561030757600080fd5b50610322600480360381019061031d9190611823565b61159b565b60405161033193929190611bde565b60405180910390f35b60035481565b600260005403610385576040517f08c379a000000000000000000000000000000000000000000000000000000000815260040161037c90611c61565b60405180910390fd5b600260008190555060006004600084815260200190815260200160002090503373ffffffffffffffffffffffffffffffffffffffff168160040160009054906101000a900473ffffffffffffffffffffffffffffffffffffffff1673ffffffffffffffffffffffffffffffffffffffff1614610436576040517f08c379a000000000000000000000000000000000000000000000000000000000815260040161042d90611ccd565b60405180910390fd5b60008311801561044857506001548311155b610487576040517f08c379a000000000000000000000000000000000000000000000000000000000815260040161047e90611d39565b60405180910390fd5b8060040160149054906101000a900460ff166104d8576040517f08c379a00000000000000000000000000000000000000000000000000000000081526004016104cf90611da5565b60405180910390fd5b60008160040160146101000a81548160ff021916908315150217905550600354826105039190611df4565b81600301819055508060010160009054906101000a900473ffffffffffffffffffffffffffffffffffffffff1673ffffffffffffffffffffffffffffffffffffffff166323b872dd333084600201546040518463ffffffff1660e01b815260040161057093929190611e4e565b600060405180830381600087803b15801561058a57600080fd5b505af115801561059e573d6000803e3d6000fd5b505050503373ffffffffffffffffffffffffffffffffffffffff168160010160009054906101000a900473ffffffffffffffffffffffffffffffffffffffff1673ffffffffffffffffffffffffffffffffffffffff167f655a0cf9c8db81512be9a76dc1c5ae5380b8816ce6ad659cd61b715e2999d59a83600001548460020154856003015460405161063393929190611e85565b60405180910390a35060016000819055505050565b7f000000000000000000000000000000000000000000000000000000000000000081565b60015481565b7f000000000000000000000000000000000000000000000000000000000000000081565b6002600054036106db576040517f08c379a00000000000000000000000000000000000000000000000000000000081526004016106d290611c61565b60405180910390fd5b6002600081905550600260008154809291906106f690611ebc565b9190505550604051806060016040528060025481526020013373ffffffffffffffffffffffffffffffffffffffff1681526020018273ffffffffffffffffffffffffffffffffffffffff168152506005600060025481526020019081526020016000206000820151816000015560208201518160010160006101000a81548173ffffffffffffffffffffffffffffffffffffffff021916908373ffffffffffffffffffffffffffffffffffffffff16021790555060408201518160020160006101000a81548173ffffffffffffffffffffffffffffffffffffffff021916908373ffffffffffffffffffffffffffffffffffffffff1602179055509050508073ffffffffffffffffffffffffffffffffffffffff163373ffffffffffffffffffffffffffffffffffffffff167f722469bb0a593776a7ea888977115522bbd6f749d2b0da5379a55f207c82cfaa60025460405161085391906116c1565b60405180910390a3600160008190555050565b6002600054036108ab576040517f08c379a00000000000000000000000000000000000000000000000000000000081526004016108a290611c61565b60405180910390fd5b600260008190555060006004600083815260200190815260200160002090503373ffffffffffffffffffffffffffffffffffffffff168160040160009054906101000a900473ffffffffffffffffffffffffffffffffffffffff1673ffffffffffffffffffffffffffffffffffffffff161461095c576040517f08c379a000000000000000000000000000000000000000000000000000000000815260040161095390611ccd565b60405180910390fd5b60008211801561096e57506001548211155b6109ad576040517f08c379a00000000000000000000000000000000000000000000000000000000081526004016109a490611d39565b60405180910390fd5b8060040160149054906101000a900460ff16156109ff576040517f08c379a00000000000000000000000000000000000000000000000000000000081526004016109f690611f50565b60405180910390fd5b60018160040160146101000a81548160ff0219169083151502179055508060010160009054906101000a900473ffffffffffffffffffffffffffffffffffffffff1673ffffffffffffffffffffffffffffffffffffffff166323b872dd303384600201546040518463ffffffff1660e01b8152600401610a8193929190611e4e565b600060405180830381600087803b158015610a9b57600080fd5b505af1158015610aaf573d6000803e3d6000fd5b5050505050600160008190555050565b600260005403610b04576040517f08c379a0000000000000000000000000000000000000000000000000000000008152600401610afb90611c61565b60405180910390fd5b600260008190555060006004600084815260200190815260200160002090503373ffffffffffffffffffffffffffffffffffffffff168160040160009054906101000a900473ffffffffffffffffffffffffffffffffffffffff1673ffffffffffffffffffffffffffffffffffffffff1614610bb5576040517f08c379a0000000000000000000000000000000000000000000000000000000008152600401610bac90611ccd565b60405180910390fd5b600083118015610bc757506001548311155b610c06576040517f08c379a0000000000000000000000000000000000000000000000000000000008152600401610bfd90611d39565b60405180910390fd5b8060040160149054906101000a900460ff1615610c58576040517f08c379a0000000000000000000000000000000000000000000000000000000008152600401610c4f90611f50565b60405180910390fd5b8181600301819055503373ffffffffffffffffffffffffffffffffffffffff168160010160009054906101000a900473ffffffffffffffffffffffffffffffffffffffff1673ffffffffffffffffffffffffffffffffffffffff167f655a0cf9c8db81512be9a76dc1c5ae5380b8816ce6ad659cd61b715e2999d59a8360000154846002015486604051610cee93929190611e85565b60405180910390a35060016000819055505050565b60046020528060005260406000206000915090508060000154908060010160009054906101000a900473ffffffffffffffffffffffffffffffffffffffff16908060020154908060030154908060040160009054906101000a900473ffffffffffffffffffffffffffffffffffffffff16908060040160149054906101000a900460ff1690806005018054610d9790611f9f565b80601f0160208091040260200160405190810160405280929190818152602001828054610dc390611f9f565b8015610e105780601f10610de557610100808354040283529160200191610e10565b820191906000526020600020905b815481529060010190602001808311610df357829003601f168201915b5050505050905087565b600060647f00000000000000000000000000000000000000000000000000000000000000006064610e4b9190611fd0565b6004600085815260200190815260200160002060030154610e6c9190611df4565b610e769190612055565b9050919050565b600260005403610ec2576040517f08c379a0000000000000000000000000000000000000000000000000000000008152600401610eb990611c61565b60405180910390fd5b60026000819055506000610ed582610e1a565b90506000600460008481526020019081526020016000209050600083118015610f0057506001548311155b610f3f576040517f08c379a0000000000000000000000000000000000000000000000000000000008152600401610f3690611d39565b60405180910390fd5b81341015610f82576040517f08c379a0000000000000000000000000000000000000000000000000000000008152600401610f79906120f8565b60405180910390fd5b8060040160149054906101000a900460ff1615610fd4576040517f08c379a0000000000000000000000000000000000000000000000000000000008152600401610fcb90612164565b60405180910390fd5b8060040160009054906101000a900473ffffffffffffffffffffffffffffffffffffffff1673ffffffffffffffffffffffffffffffffffffffff166108fc82600301549081150290604051600060405180830381858888f19350505050158015611042573d6000803e3d6000fd5b507f000000000000000000000000000000000000000000000000000000000000000073ffffffffffffffffffffffffffffffffffffffff166108fc82600301548461108d9190612184565b9081150290604051600060405180830381858888f193505050501580156110b8573d6000803e3d6000fd5b5060018160040160146101000a81548160ff0219169083151502179055508060010160009054906101000a900473ffffffffffffffffffffffffffffffffffffffff1673ffffffffffffffffffffffffffffffffffffffff166323b872dd303384600201546040518463ffffffff1660e01b815260040161113b93929190611e4e565b600060405180830381600087803b15801561115557600080fd5b505af1158015611169573d6000803e3d6000fd5b50505050338160040160006101000a81548173ffffffffffffffffffffffffffffffffffffffff021916908373ffffffffffffffffffffffffffffffffffffffff1602179055503373ffffffffffffffffffffffffffffffffffffffff168160040160009054906101000a900473ffffffffffffffffffffffffffffffffffffffff1673ffffffffffffffffffffffffffffffffffffffff168260010160009054906101000a900473ffffffffffffffffffffffffffffffffffffffff1673ffffffffffffffffffffffffffffffffffffffff167f8b4c9c8a607d67b321582dd8461041b1dc2ceeca70c8b7f37f8e02095cf2e76d868560020154866003015460405161127893929190611e85565b60405180910390a45050600160008190555050565b60025481565b6002600054036112d8576040517f08c379a00000000000000000000000000000000000000000000000000000000081526004016112cf90611c61565b60405180910390fd5b600260008190555060008211611323576040517f08c379a000000000000000000000000000000000000000000000000000000000815260040161131a90612204565b60405180910390fd5b6001600081548092919061133690611ebc565b919050555060006003548361134b9190611df4565b90508473ffffffffffffffffffffffffffffffffffffffff166323b872dd3330876040518463ffffffff1660e01b815260040161138a93929190611e4e565b600060405180830381600087803b1580156113a457600080fd5b505af11580156113b8573d6000803e3d6000fd5b505050506040518060e0016040528060015481526020018673ffffffffffffffffffffffffffffffffffffffff1681526020018581526020018281526020013373ffffffffffffffffffffffffffffffffffffffff168152602001600015158152602001838152506004600060015481526020019081526020016000206000820151816000015560208201518160010160006101000a81548173ffffffffffffffffffffffffffffffffffffffff021916908373ffffffffffffffffffffffffffffffffffffffff160217905550604082015181600201556060820151816003015560808201518160040160006101000a81548173ffffffffffffffffffffffffffffffffffffffff021916908373ffffffffffffffffffffffffffffffffffffffff16021790555060a08201518160040160146101000a81548160ff02191690831515021790555060c082015181600501908051906020019061151d929190611605565b509050503373ffffffffffffffffffffffffffffffffffffffff168573ffffffffffffffffffffffffffffffffffffffff167f655a0cf9c8db81512be9a76dc1c5ae5380b8816ce6ad659cd61b715e2999d59a600154878560405161158493929190611e85565b60405180910390a350600160008190555050505050565b60056020528060005260406000206000915090508060000154908060010160009054906101000a900473ffffffffffffffffffffffffffffffffffffffff16908060020160009054906101000a900473ffffffffffffffffffffffffffffffffffffffff16905083565b82805461161190611f9f565b90600052602060002090601f016020900481019282611633576000855561167a565b82601f1061164c57805160ff191683800117855561167a565b8280016001018555821561167a579182015b8281111561167957825182559160200191906001019061165e565b5b509050611687919061168b565b5090565b5b808211156116a457600081600090555060010161168c565b5090565b6000819050919050565b6116bb816116a8565b82525050565b60006020820190506116d660008301846116b2565b92915050565b6000604051905090565b600080fd5b600080fd5b6116f9816116a8565b811461170457600080fd5b50565b600081359050611716816116f0565b92915050565b60008060408385031215611733576117326116e6565b5b600061174185828601611707565b925050602061175285828601611707565b9150509250929050565b600073ffffffffffffffffffffffffffffffffffffffff82169050919050565b60006117878261175c565b9050919050565b6117978161177c565b82525050565b60006020820190506117b2600083018461178e565b92915050565b60006117c38261175c565b9050919050565b6117d3816117b8565b81146117de57600080fd5b50565b6000813590506117f0816117ca565b92915050565b60006020828403121561180c5761180b6116e6565b5b600061181a848285016117e1565b91505092915050565b600060208284031215611839576118386116e6565b5b600061184784828501611707565b91505092915050565b6000819050919050565b600061187561187061186b8461175c565b611850565b61175c565b9050919050565b60006118878261185a565b9050919050565b60006118998261187c565b9050919050565b6118a98161188e565b82525050565b60008115159050919050565b6118c4816118af565b82525050565b600081519050919050565b600082825260208201905092915050565b60005b838110156119045780820151818401526020810190506118e9565b83811115611913576000848401525b50505050565b6000601f19601f8301169050919050565b6000611935826118ca565b61193f81856118d5565b935061194f8185602086016118e6565b61195881611919565b840191505092915050565b600060e082019050611978600083018a6116b2565b61198560208301896118a0565b61199260408301886116b2565b61199f60608301876116b2565b6119ac608083018661178e565b6119b960a08301856118bb565b81810360c08301526119cb818461192a565b905098975050505050505050565b60006119e4826117b8565b9050919050565b6119f4816119d9565b81146119ff57600080fd5b50565b600081359050611a11816119eb565b92915050565b600080fd5b600080fd5b7f4e487b7100000000000000000000000000000000000000000000000000000000600052604160045260246000fd5b611a5982611919565b810181811067ffffffffffffffff82111715611a7857611a77611a21565b5b80604052505050565b6000611a8b6116dc565b9050611a978282611a50565b919050565b600067ffffffffffffffff821115611ab757611ab6611a21565b5b611ac082611919565b9050602081019050919050565b82818337600083830152505050565b6000611aef611aea84611a9c565b611a81565b905082815260208101848484011115611b0b57611b0a611a1c565b5b611b16848285611acd565b509392505050565b600082601f830112611b3357611b32611a17565b5b8135611b43848260208601611adc565b91505092915050565b60008060008060808587031215611b6657611b656116e6565b5b6000611b7487828801611a02565b9450506020611b8587828801611707565b9350506040611b9687828801611707565b925050606085013567ffffffffffffffff811115611bb757611bb66116eb565b5b611bc387828801611b1e565b91505092959194509250565b611bd8816117b8565b82525050565b6000606082019050611bf360008301866116b2565b611c00602083018561178e565b611c0d6040830184611bcf565b949350505050565b7f5265656e7472616e637947756172643a207265656e7472616e742063616c6c00600082015250565b6000611c4b601f836118d5565b9150611c5682611c15565b602082019050919050565b60006020820190508181036000830152611c7a81611c3e565b9050919050565b7f596f7520617265206e6f7420746865206f776e6572206f6620746865204e4654600082015250565b6000611cb76020836118d5565b9150611cc282611c81565b602082019050919050565b60006020820190508181036000830152611ce681611caa565b9050919050565b7f6974656d20646f65736e74206578697374730000000000000000000000000000600082015250565b6000611d236012836118d5565b9150611d2e82611ced565b602082019050919050565b60006020820190508181036000830152611d5281611d16565b9050919050565b7f6974656d20616c7265616479206f6e20746865206d61726b6574706c61636500600082015250565b6000611d8f601f836118d5565b9150611d9a82611d59565b602082019050919050565b60006020820190508181036000830152611dbe81611d82565b9050919050565b7f4e487b7100000000000000000000000000000000000000000000000000000000600052601160045260246000fd5b6000611dff826116a8565b9150611e0a836116a8565b9250817fffffffffffffffffffffffffffffffffffffffffffffffffffffffffffffffff0483118215151615611e4357611e42611dc5565b5b828202905092915050565b6000606082019050611e636000830186611bcf565b611e706020830185611bcf565b611e7d60408301846116b2565b949350505050565b6000606082019050611e9a60008301866116b2565b611ea760208301856116b2565b611eb460408301846116b2565b949350505050565b6000611ec7826116a8565b91507fffffffffffffffffffffffffffffffffffffffffffffffffffffffffffffffff8203611ef957611ef8611dc5565b5b600182019050919050565b7f6974656d206e6f74206f6e20746865206d61726b6574706c6163650000000000600082015250565b6000611f3a601b836118d5565b9150611f4582611f04565b602082019050919050565b60006020820190508181036000830152611f6981611f2d565b9050919050565b7f4e487b7100000000000000000000000000000000000000000000000000000000600052602260045260246000fd5b60006002820490506001821680611fb757607f821691505b602082108103611fca57611fc9611f70565b5b50919050565b6000611fdb826116a8565b9150611fe6836116a8565b9250827fffffffffffffffffffffffffffffffffffffffffffffffffffffffffffffffff0382111561201b5761201a611dc5565b5b828201905092915050565b7f4e487b7100000000000000000000000000000000000000000000000000000000600052601260045260246000fd5b6000612060826116a8565b915061206b836116a8565b92508261207b5761207a612026565b5b828204905092915050565b7f6e6f7420656e6f75676820657468657220746f20636f766572206974656d207060008201527f7269636520616e64206d61726b65742066656500000000000000000000000000602082015250565b60006120e26033836118d5565b91506120ed82612086565b604082019050919050565b60006020820190508181036000830152612111816120d5565b9050919050565b7f6974656d20616c726561647920736f6c64000000000000000000000000000000600082015250565b600061214e6011836118d5565b915061215982612118565b602082019050919050565b6000602082019050818103600083015261217d81612141565b9050919050565b600061218f826116a8565b915061219a836116a8565b9250828210156121ad576121ac611dc5565b5b828203905092915050565b7f7072696365206d7573742062652067726561746572207468616e207a65726f00600082015250565b60006121ee601f836118d5565b91506121f9826121b8565b602082019050919050565b6000602082019050818103600083015261221d816121e1565b905091905056fea264697066735822122035e1baf97ede7e41d92266774c8a39f310f6c82f08aaf129a83c937e20b9d96964736f6c634300080d0033",
  "linkReferences": {},
  "deployedLinkReferences": {}
}