{
  "_format": "hh-sol-artifact-1",
  "contractName": "Marketplace",
  "sourceName": "contracts/Marketplace.sol",
  "abi": [
    {
      "inputs": [
        {
          "internalType": "uint256",
          "name": "_feePercent",
          "type": "uint256"
        }
      ],
      "stateMutability": "nonpayable",
      "type": "constructor"
    },
    {
      "anonymous": false,
      "inputs": [
        {
          "indexed": false,
          "internalType": "uint256",
          "name": "itemId",
          "type": "uint256"
        },
        {
          "indexed": true,
          "internalType": "address",
          "name": "nft",
          "type": "address"
        },
        {
          "indexed": false,
          "internalType": "uint256",
          "name": "tokenId",
          "type": "uint256"
        },
        {
          "indexed": false,
          "internalType": "uint256",
          "name": "price",
          "type": "uint256"
        },
        {
          "indexed": true,
          "internalType": "address",
          "name": "seller",
          "type": "address"
        },
        {
          "indexed": true,
          "internalType": "address",
          "name": "buyer",
          "type": "address"
        }
      ],
      "name": "Bought",
      "type": "event"
    },
    {
      "anonymous": false,
      "inputs": [
        {
          "indexed": false,
          "internalType": "uint256",
          "name": "collectionId",
          "type": "uint256"
        },
        {
          "indexed": true,
          "internalType": "address",
          "name": "owner",
          "type": "address"
        },
        {
          "indexed": true,
          "internalType": "address",
          "name": "collectionAddress",
          "type": "address"
        }
      ],
      "name": "Collections",
      "type": "event"
    },
    {
      "anonymous": false,
      "inputs": [
        {
          "indexed": false,
          "internalType": "uint256",
          "name": "itemId",
          "type": "uint256"
        },
        {
          "indexed": true,
          "internalType": "address",
          "name": "nft",
          "type": "address"
        },
        {
          "indexed": false,
          "internalType": "uint256",
          "name": "tokenId",
          "type": "uint256"
        },
        {
          "indexed": false,
          "internalType": "uint256",
          "name": "price",
          "type": "uint256"
        },
        {
          "indexed": true,
          "internalType": "address",
          "name": "seller",
          "type": "address"
        }
      ],
      "name": "Offered",
      "type": "event"
    },
    {
      "inputs": [
        {
          "internalType": "address",
          "name": "_collectionAddress",
          "type": "address"
        }
      ],
      "name": "addCollection",
      "outputs": [],
      "stateMutability": "nonpayable",
      "type": "function"
    },
    {
      "inputs": [
        {
          "internalType": "uint256",
          "name": "_itemId",
          "type": "uint256"
        },
        {
          "internalType": "uint256",
          "name": "_newPrice",
          "type": "uint256"
        }
      ],
      "name": "changePrice",
      "outputs": [],
      "stateMutability": "payable",
      "type": "function"
    },
    {
      "inputs": [],
      "name": "collectionCount",
      "outputs": [
        {
          "internalType": "uint256",
          "name": "",
          "type": "uint256"
        }
      ],
      "stateMutability": "view",
      "type": "function"
    },
    {
      "inputs": [
        {
          "internalType": "uint256",
          "name": "",
          "type": "uint256"
        }
      ],
      "name": "collections",
      "outputs": [
        {
          "internalType": "uint256",
          "name": "collectionId",
          "type": "uint256"
        },
        {
          "internalType": "address payable",
          "name": "owner",
          "type": "address"
        },
        {
          "internalType": "address",
          "name": "collectionAddress",
          "type": "address"
        }
      ],
      "stateMutability": "view",
      "type": "function"
    },
    {
      "inputs": [],
      "name": "feeAccount",
      "outputs": [
        {
          "internalType": "address payable",
          "name": "",
          "type": "address"
        }
      ],
      "stateMutability": "view",
      "type": "function"
    },
    {
      "inputs": [],
      "name": "feePercent",
      "outputs": [
        {
          "internalType": "uint256",
          "name": "",
          "type": "uint256"
        }
      ],
      "stateMutability": "view",
      "type": "function"
    },
    {
      "inputs": [
        {
          "internalType": "uint256",
          "name": "_itemId",
          "type": "uint256"
        }
      ],
      "name": "getTotalPrice",
      "outputs": [
        {
          "internalType": "uint256",
          "name": "",
          "type": "uint256"
        }
      ],
      "stateMutability": "view",
      "type": "function"
    },
    {
      "inputs": [],
      "name": "itemCount",
      "outputs": [
        {
          "internalType": "uint256",
          "name": "",
          "type": "uint256"
        }
      ],
      "stateMutability": "view",
      "type": "function"
    },
    {
      "inputs": [
        {
          "internalType": "uint256",
          "name": "",
          "type": "uint256"
        }
      ],
      "name": "items",
      "outputs": [
        {
          "internalType": "uint256",
          "name": "itemId",
          "type": "uint256"
        },
        {
          "internalType": "contract NFT",
          "name": "nft",
          "type": "address"
        },
        {
          "internalType": "uint256",
          "name": "tokenId",
          "type": "uint256"
        },
        {
          "internalType": "uint256",
          "name": "price",
          "type": "uint256"
        },
        {
          "internalType": "address payable",
          "name": "owner",
          "type": "address"
        },
        {
          "internalType": "bool",
          "name": "sold",
          "type": "bool"
        },
        {
          "internalType": "string",
          "name": "uri",
          "type": "string"
        }
      ],
      "stateMutability": "view",
      "type": "function"
    },
    {
      "inputs": [
        {
          "internalType": "contract NFT",
          "name": "_nft",
          "type": "address"
        },
        {
          "internalType": "uint256",
          "name": "_tokenId",
          "type": "uint256"
        },
        {
          "internalType": "uint256",
          "name": "_price",
          "type": "uint256"
        },
        {
          "internalType": "string",
          "name": "_uri",
          "type": "string"
        }
      ],
      "name": "makeItem",
      "outputs": [],
      "stateMutability": "nonpayable",
      "type": "function"
    },
    {
      "inputs": [
        {
          "internalType": "uint256",
          "name": "_itemId",
          "type": "uint256"
        }
      ],
      "name": "purchaseItem",
      "outputs": [],
      "stateMutability": "payable",
      "type": "function"
    },
    {
      "inputs": [],
      "name": "rate",
      "outputs": [
        {
          "internalType": "uint256",
          "name": "",
          "type": "uint256"
        }
      ],
      "stateMutability": "view",
      "type": "function"
    },
    {
      "inputs": [
        {
          "internalType": "uint256",
          "name": "_itemId",
          "type": "uint256"
        }
      ],
      "name": "removeFromMarketplace",
      "outputs": [],
      "stateMutability": "payable",
      "type": "function"
    },
    {
      "inputs": [
        {
          "internalType": "uint256",
          "name": "_itemId",
          "type": "uint256"
        },
        {
          "internalType": "uint256",
          "name": "_price",
          "type": "uint256"
        }
      ],
      "name": "sellItem",
      "outputs": [],
      "stateMutability": "payable",
      "type": "function"
    }
  ],
  "bytecode": "0x60c0604052670de0b6b3a76400006003553480156200001d57600080fd5b506040516200239b3803806200239b8339818101604052810190620000439190620000ce565b60016000819055503373ffffffffffffffffffffffffffffffffffffffff1660808173ffffffffffffffffffffffffffffffffffffffff16815250508060a081815250505062000100565b600080fd5b6000819050919050565b620000a88162000093565b8114620000b457600080fd5b50565b600081519050620000c8816200009d565b92915050565b600060208284031215620000e757620000e66200008e565b5b6000620000f784828501620000b7565b91505092915050565b60805160a05161226762000134600039600081816106740152610e2d01526000818161064a015261105201526122676000f3fe6080604052600436106100dd5760003560e01c8063b3de019c1161007f578063d38ea5bf11610059578063d38ea5bf1461028b578063d57f966b146102a7578063e4008437146102d2578063fdbda0ec146102fb576100dd565b8063b3de019c146101ef578063bfb231d21461020b578063ca7dd3751461024e576100dd565b80636bfb0d01116100bb5780636bfb0d01146101545780637fd6f15c1461017f578063a174e77a146101aa578063ab38cb56146101d3576100dd565b80632c4e722e146100e25780632d9235611461010d57806365e17c9d14610129575b600080fd5b3480156100ee57600080fd5b506100f761033a565b60405161010491906116ce565b60405180910390f35b61012760048036038101906101229190611729565b610340565b005b34801561013557600080fd5b5061013e610648565b60405161014b91906117aa565b60405180910390f35b34801561016057600080fd5b5061016961066c565b60405161017691906116ce565b60405180910390f35b34801561018b57600080fd5b50610194610672565b6040516101a191906116ce565b60405180910390f35b3480156101b657600080fd5b506101d160048036038101906101cc9190611803565b610696565b005b6101ed60048036038101906101e89190611830565b610866565b005b61020960048036038101906102049190611729565b610abf565b005b34801561021757600080fd5b50610232600480360381019061022d9190611830565b610d10565b6040516102459796959493929190611970565b60405180910390f35b34801561025a57600080fd5b5061027560048036038101906102709190611830565b610e27565b60405161028291906116ce565b60405180910390f35b6102a560048036038101906102a09190611830565b610e8a565b005b3480156102b357600080fd5b506102bc61129a565b6040516102c991906116ce565b60405180910390f35b3480156102de57600080fd5b506102f960048036038101906102f49190611b59565b6112a0565b005b34801561030757600080fd5b50610322600480360381019061031d9190611830565b6115a8565b60405161033193929190611beb565b60405180910390f35b60035481565b600260005403610385576040517f08c379a000000000000000000000000000000000000000000000000000000000815260040161037c90611c6e565b60405180910390fd5b600260008190555060006004600084815260200190815260200160002090503373ffffffffffffffffffffffffffffffffffffffff168160040160009054906101000a900473ffffffffffffffffffffffffffffffffffffffff1673ffffffffffffffffffffffffffffffffffffffff1614610436576040517f08c379a000000000000000000000000000000000000000000000000000000000815260040161042d90611cda565b60405180910390fd5b60008311801561044857506001548311155b610487576040517f08c379a000000000000000000000000000000000000000000000000000000000815260040161047e90611d46565b60405180910390fd5b8060040160149054906101000a900460ff166104d8576040517f08c379a00000000000000000000000000000000000000000000000000000000081526004016104cf90611db2565b60405180910390fd5b60008160040160146101000a81548160ff021916908315150217905550600354826105039190611e01565b81600301819055508060010160009054906101000a900473ffffffffffffffffffffffffffffffffffffffff1673ffffffffffffffffffffffffffffffffffffffff166323b872dd333084600201546040518463ffffffff1660e01b815260040161057093929190611e5b565b600060405180830381600087803b15801561058a57600080fd5b505af115801561059e573d6000803e3d6000fd5b505050503373ffffffffffffffffffffffffffffffffffffffff168160010160009054906101000a900473ffffffffffffffffffffffffffffffffffffffff1673ffffffffffffffffffffffffffffffffffffffff167f655a0cf9c8db81512be9a76dc1c5ae5380b8816ce6ad659cd61b715e2999d59a83600001548460020154856003015460405161063393929190611e92565b60405180910390a35060016000819055505050565b7f000000000000000000000000000000000000000000000000000000000000000081565b60015481565b7f000000000000000000000000000000000000000000000000000000000000000081565b6002600054036106db576040517f08c379a00000000000000000000000000000000000000000000000000000000081526004016106d290611c6e565b60405180910390fd5b6002600081905550600260008154809291906106f690611ec9565b9190505550604051806060016040528060025481526020013373ffffffffffffffffffffffffffffffffffffffff1681526020018273ffffffffffffffffffffffffffffffffffffffff168152506005600060025481526020019081526020016000206000820151816000015560208201518160010160006101000a81548173ffffffffffffffffffffffffffffffffffffffff021916908373ffffffffffffffffffffffffffffffffffffffff16021790555060408201518160020160006101000a81548173ffffffffffffffffffffffffffffffffffffffff021916908373ffffffffffffffffffffffffffffffffffffffff1602179055509050508073ffffffffffffffffffffffffffffffffffffffff163373ffffffffffffffffffffffffffffffffffffffff167f722469bb0a593776a7ea888977115522bbd6f749d2b0da5379a55f207c82cfaa60025460405161085391906116ce565b60405180910390a3600160008190555050565b6002600054036108ab576040517f08c379a00000000000000000000000000000000000000000000000000000000081526004016108a290611c6e565b60405180910390fd5b600260008190555060006004600083815260200190815260200160002090503373ffffffffffffffffffffffffffffffffffffffff168160040160009054906101000a900473ffffffffffffffffffffffffffffffffffffffff1673ffffffffffffffffffffffffffffffffffffffff161461095c576040517f08c379a000000000000000000000000000000000000000000000000000000000815260040161095390611cda565b60405180910390fd5b60008211801561096e57506001548211155b6109ad576040517f08c379a00000000000000000000000000000000000000000000000000000000081526004016109a490611d46565b60405180910390fd5b8060040160149054906101000a900460ff16156109ff576040517f08c379a00000000000000000000000000000000000000000000000000000000081526004016109f690611f5d565b60405180910390fd5b60018160040160146101000a81548160ff0219169083151502179055508060010160009054906101000a900473ffffffffffffffffffffffffffffffffffffffff1673ffffffffffffffffffffffffffffffffffffffff166323b872dd303384600201546040518463ffffffff1660e01b8152600401610a8193929190611e5b565b600060405180830381600087803b158015610a9b57600080fd5b505af1158015610aaf573d6000803e3d6000fd5b5050505050600160008190555050565b600260005403610b04576040517f08c379a0000000000000000000000000000000000000000000000000000000008152600401610afb90611c6e565b60405180910390fd5b600260008190555060006004600084815260200190815260200160002090503373ffffffffffffffffffffffffffffffffffffffff168160040160009054906101000a900473ffffffffffffffffffffffffffffffffffffffff1673ffffffffffffffffffffffffffffffffffffffff1614610bb5576040517f08c379a0000000000000000000000000000000000000000000000000000000008152600401610bac90611cda565b60405180910390fd5b600083118015610bc757506001548311155b610c06576040517f08c379a0000000000000000000000000000000000000000000000000000000008152600401610bfd90611d46565b60405180910390fd5b8060040160149054906101000a900460ff1615610c58576040517f08c379a0000000000000000000000000000000000000000000000000000000008152600401610c4f90611f5d565b60405180910390fd5b60035482610c669190611e01565b81600301819055503373ffffffffffffffffffffffffffffffffffffffff168160010160009054906101000a900473ffffffffffffffffffffffffffffffffffffffff1673ffffffffffffffffffffffffffffffffffffffff167f655a0cf9c8db81512be9a76dc1c5ae5380b8816ce6ad659cd61b715e2999d59a8360000154846002015486604051610cfb93929190611e92565b60405180910390a35060016000819055505050565b60046020528060005260406000206000915090508060000154908060010160009054906101000a900473ffffffffffffffffffffffffffffffffffffffff16908060020154908060030154908060040160009054906101000a900473ffffffffffffffffffffffffffffffffffffffff16908060040160149054906101000a900460ff1690806005018054610da490611fac565b80601f0160208091040260200160405190810160405280929190818152602001828054610dd090611fac565b8015610e1d5780601f10610df257610100808354040283529160200191610e1d565b820191906000526020600020905b815481529060010190602001808311610e0057829003601f168201915b5050505050905087565b600060647f00000000000000000000000000000000000000000000000000000000000000006064610e589190611fdd565b6004600085815260200190815260200160002060030154610e799190611e01565b610e839190612062565b9050919050565b600260005403610ecf576040517f08c379a0000000000000000000000000000000000000000000000000000000008152600401610ec690611c6e565b60405180910390fd5b60026000819055506000610ee282610e27565b90506000600460008481526020019081526020016000209050600083118015610f0d57506001548311155b610f4c576040517f08c379a0000000000000000000000000000000000000000000000000000000008152600401610f4390611d46565b60405180910390fd5b81341015610f8f576040517f08c379a0000000000000000000000000000000000000000000000000000000008152600401610f8690612105565b60405180910390fd5b8060040160149054906101000a900460ff1615610fe1576040517f08c379a0000000000000000000000000000000000000000000000000000000008152600401610fd890612171565b60405180910390fd5b8060040160009054906101000a900473ffffffffffffffffffffffffffffffffffffffff1673ffffffffffffffffffffffffffffffffffffffff166108fc82600301549081150290604051600060405180830381858888f1935050505015801561104f573d6000803e3d6000fd5b507f000000000000000000000000000000000000000000000000000000000000000073ffffffffffffffffffffffffffffffffffffffff166108fc82600301548461109a9190612191565b9081150290604051600060405180830381858888f193505050501580156110c5573d6000803e3d6000fd5b5060018160040160146101000a81548160ff0219169083151502179055508060010160009054906101000a900473ffffffffffffffffffffffffffffffffffffffff1673ffffffffffffffffffffffffffffffffffffffff166323b872dd303384600201546040518463ffffffff1660e01b815260040161114893929190611e5b565b600060405180830381600087803b15801561116257600080fd5b505af1158015611176573d6000803e3d6000fd5b50505050338160040160006101000a81548173ffffffffffffffffffffffffffffffffffffffff021916908373ffffffffffffffffffffffffffffffffffffffff1602179055503373ffffffffffffffffffffffffffffffffffffffff168160040160009054906101000a900473ffffffffffffffffffffffffffffffffffffffff1673ffffffffffffffffffffffffffffffffffffffff168260010160009054906101000a900473ffffffffffffffffffffffffffffffffffffffff1673ffffffffffffffffffffffffffffffffffffffff167f8b4c9c8a607d67b321582dd8461041b1dc2ceeca70c8b7f37f8e02095cf2e76d868560020154866003015460405161128593929190611e92565b60405180910390a45050600160008190555050565b60025481565b6002600054036112e5576040517f08c379a00000000000000000000000000000000000000000000000000000000081526004016112dc90611c6e565b60405180910390fd5b600260008190555060008211611330576040517f08c379a000000000000000000000000000000000000000000000000000000000815260040161132790612211565b60405180910390fd5b6001600081548092919061134390611ec9565b91905055506000600354836113589190611e01565b90508473ffffffffffffffffffffffffffffffffffffffff166323b872dd3330876040518463ffffffff1660e01b815260040161139793929190611e5b565b600060405180830381600087803b1580156113b157600080fd5b505af11580156113c5573d6000803e3d6000fd5b505050506040518060e0016040528060015481526020018673ffffffffffffffffffffffffffffffffffffffff1681526020018581526020018281526020013373ffffffffffffffffffffffffffffffffffffffff168152602001600015158152602001838152506004600060015481526020019081526020016000206000820151816000015560208201518160010160006101000a81548173ffffffffffffffffffffffffffffffffffffffff021916908373ffffffffffffffffffffffffffffffffffffffff160217905550604082015181600201556060820151816003015560808201518160040160006101000a81548173ffffffffffffffffffffffffffffffffffffffff021916908373ffffffffffffffffffffffffffffffffffffffff16021790555060a08201518160040160146101000a81548160ff02191690831515021790555060c082015181600501908051906020019061152a929190611612565b509050503373ffffffffffffffffffffffffffffffffffffffff168573ffffffffffffffffffffffffffffffffffffffff167f655a0cf9c8db81512be9a76dc1c5ae5380b8816ce6ad659cd61b715e2999d59a600154878560405161159193929190611e92565b60405180910390a350600160008190555050505050565b60056020528060005260406000206000915090508060000154908060010160009054906101000a900473ffffffffffffffffffffffffffffffffffffffff16908060020160009054906101000a900473ffffffffffffffffffffffffffffffffffffffff16905083565b82805461161e90611fac565b90600052602060002090601f0160209004810192826116405760008555611687565b82601f1061165957805160ff1916838001178555611687565b82800160010185558215611687579182015b8281111561168657825182559160200191906001019061166b565b5b5090506116949190611698565b5090565b5b808211156116b1576000816000905550600101611699565b5090565b6000819050919050565b6116c8816116b5565b82525050565b60006020820190506116e360008301846116bf565b92915050565b6000604051905090565b600080fd5b600080fd5b611706816116b5565b811461171157600080fd5b50565b600081359050611723816116fd565b92915050565b600080604083850312156117405761173f6116f3565b5b600061174e85828601611714565b925050602061175f85828601611714565b9150509250929050565b600073ffffffffffffffffffffffffffffffffffffffff82169050919050565b600061179482611769565b9050919050565b6117a481611789565b82525050565b60006020820190506117bf600083018461179b565b92915050565b60006117d082611769565b9050919050565b6117e0816117c5565b81146117eb57600080fd5b50565b6000813590506117fd816117d7565b92915050565b600060208284031215611819576118186116f3565b5b6000611827848285016117ee565b91505092915050565b600060208284031215611846576118456116f3565b5b600061185484828501611714565b91505092915050565b6000819050919050565b600061188261187d61187884611769565b61185d565b611769565b9050919050565b600061189482611867565b9050919050565b60006118a682611889565b9050919050565b6118b68161189b565b82525050565b60008115159050919050565b6118d1816118bc565b82525050565b600081519050919050565b600082825260208201905092915050565b60005b838110156119115780820151818401526020810190506118f6565b83811115611920576000848401525b50505050565b6000601f19601f8301169050919050565b6000611942826118d7565b61194c81856118e2565b935061195c8185602086016118f3565b61196581611926565b840191505092915050565b600060e082019050611985600083018a6116bf565b61199260208301896118ad565b61199f60408301886116bf565b6119ac60608301876116bf565b6119b9608083018661179b565b6119c660a08301856118c8565b81810360c08301526119d88184611937565b905098975050505050505050565b60006119f1826117c5565b9050919050565b611a01816119e6565b8114611a0c57600080fd5b50565b600081359050611a1e816119f8565b92915050565b600080fd5b600080fd5b7f4e487b7100000000000000000000000000000000000000000000000000000000600052604160045260246000fd5b611a6682611926565b810181811067ffffffffffffffff82111715611a8557611a84611a2e565b5b80604052505050565b6000611a986116e9565b9050611aa48282611a5d565b919050565b600067ffffffffffffffff821115611ac457611ac3611a2e565b5b611acd82611926565b9050602081019050919050565b82818337600083830152505050565b6000611afc611af784611aa9565b611a8e565b905082815260208101848484011115611b1857611b17611a29565b5b611b23848285611ada565b509392505050565b600082601f830112611b4057611b3f611a24565b5b8135611b50848260208601611ae9565b91505092915050565b60008060008060808587031215611b7357611b726116f3565b5b6000611b8187828801611a0f565b9450506020611b9287828801611714565b9350506040611ba387828801611714565b925050606085013567ffffffffffffffff811115611bc457611bc36116f8565b5b611bd087828801611b2b565b91505092959194509250565b611be5816117c5565b82525050565b6000606082019050611c0060008301866116bf565b611c0d602083018561179b565b611c1a6040830184611bdc565b949350505050565b7f5265656e7472616e637947756172643a207265656e7472616e742063616c6c00600082015250565b6000611c58601f836118e2565b9150611c6382611c22565b602082019050919050565b60006020820190508181036000830152611c8781611c4b565b9050919050565b7f596f7520617265206e6f7420746865206f776e6572206f6620746865204e4654600082015250565b6000611cc46020836118e2565b9150611ccf82611c8e565b602082019050919050565b60006020820190508181036000830152611cf381611cb7565b9050919050565b7f6974656d20646f65736e74206578697374730000000000000000000000000000600082015250565b6000611d306012836118e2565b9150611d3b82611cfa565b602082019050919050565b60006020820190508181036000830152611d5f81611d23565b9050919050565b7f6974656d20616c7265616479206f6e20746865206d61726b6574706c61636500600082015250565b6000611d9c601f836118e2565b9150611da782611d66565b602082019050919050565b60006020820190508181036000830152611dcb81611d8f565b9050919050565b7f4e487b7100000000000000000000000000000000000000000000000000000000600052601160045260246000fd5b6000611e0c826116b5565b9150611e17836116b5565b9250817fffffffffffffffffffffffffffffffffffffffffffffffffffffffffffffffff0483118215151615611e5057611e4f611dd2565b5b828202905092915050565b6000606082019050611e706000830186611bdc565b611e7d6020830185611bdc565b611e8a60408301846116bf565b949350505050565b6000606082019050611ea760008301866116bf565b611eb460208301856116bf565b611ec160408301846116bf565b949350505050565b6000611ed4826116b5565b91507fffffffffffffffffffffffffffffffffffffffffffffffffffffffffffffffff8203611f0657611f05611dd2565b5b600182019050919050565b7f6974656d206e6f74206f6e20746865206d61726b6574706c6163650000000000600082015250565b6000611f47601b836118e2565b9150611f5282611f11565b602082019050919050565b60006020820190508181036000830152611f7681611f3a565b9050919050565b7f4e487b7100000000000000000000000000000000000000000000000000000000600052602260045260246000fd5b60006002820490506001821680611fc457607f821691505b602082108103611fd757611fd6611f7d565b5b50919050565b6000611fe8826116b5565b9150611ff3836116b5565b9250827fffffffffffffffffffffffffffffffffffffffffffffffffffffffffffffffff0382111561202857612027611dd2565b5b828201905092915050565b7f4e487b7100000000000000000000000000000000000000000000000000000000600052601260045260246000fd5b600061206d826116b5565b9150612078836116b5565b92508261208857612087612033565b5b828204905092915050565b7f6e6f7420656e6f75676820657468657220746f20636f766572206974656d207060008201527f7269636520616e64206d61726b65742066656500000000000000000000000000602082015250565b60006120ef6033836118e2565b91506120fa82612093565b604082019050919050565b6000602082019050818103600083015261211e816120e2565b9050919050565b7f6974656d20616c726561647920736f6c64000000000000000000000000000000600082015250565b600061215b6011836118e2565b915061216682612125565b602082019050919050565b6000602082019050818103600083015261218a8161214e565b9050919050565b600061219c826116b5565b91506121a7836116b5565b9250828210156121ba576121b9611dd2565b5b828203905092915050565b7f7072696365206d7573742062652067726561746572207468616e207a65726f00600082015250565b60006121fb601f836118e2565b9150612206826121c5565b602082019050919050565b6000602082019050818103600083015261222a816121ee565b905091905056fea2646970667358221220d5fe9cfa06d98919c0e37a0e9e03170dab324dd92a026ce21eb65b0d5134d01064736f6c634300080d0033",
  "linkReferences": {},
  "deployedLinkReferences": {}
}