{
  "_format": "hh-sol-artifact-1",
  "contractName": "Marketplace",
  "sourceName": "contracts/Marketplace.sol",
  "abi": [
    {
      "inputs": [
        {
          "internalType": "uint256",
          "name": "_feePercent",
          "type": "uint256"
        }
      ],
      "stateMutability": "nonpayable",
      "type": "constructor"
    },
    {
      "anonymous": false,
      "inputs": [
        {
          "indexed": false,
          "internalType": "uint256",
          "name": "itemId",
          "type": "uint256"
        },
        {
          "indexed": true,
          "internalType": "address",
          "name": "nft",
          "type": "address"
        },
        {
          "indexed": false,
          "internalType": "uint256",
          "name": "tokenId",
          "type": "uint256"
        },
        {
          "indexed": false,
          "internalType": "uint256",
          "name": "price",
          "type": "uint256"
        },
        {
          "indexed": true,
          "internalType": "address",
          "name": "seller",
          "type": "address"
        },
        {
          "indexed": true,
          "internalType": "address",
          "name": "buyer",
          "type": "address"
        }
      ],
      "name": "Bought",
      "type": "event"
    },
    {
      "anonymous": false,
      "inputs": [
        {
          "indexed": false,
          "internalType": "uint256",
          "name": "collectionId",
          "type": "uint256"
        },
        {
          "indexed": true,
          "internalType": "address",
          "name": "owner",
          "type": "address"
        },
        {
          "indexed": true,
          "internalType": "address",
          "name": "collectionAddress",
          "type": "address"
        }
      ],
      "name": "Collections",
      "type": "event"
    },
    {
      "anonymous": false,
      "inputs": [
        {
          "indexed": false,
          "internalType": "uint256",
          "name": "itemId",
          "type": "uint256"
        },
        {
          "indexed": true,
          "internalType": "address",
          "name": "nft",
          "type": "address"
        },
        {
          "indexed": false,
          "internalType": "uint256",
          "name": "tokenId",
          "type": "uint256"
        },
        {
          "indexed": false,
          "internalType": "uint256",
          "name": "price",
          "type": "uint256"
        },
        {
          "indexed": true,
          "internalType": "address",
          "name": "seller",
          "type": "address"
        }
      ],
      "name": "Offered",
      "type": "event"
    },
    {
      "inputs": [
        {
          "internalType": "address",
          "name": "_collectionAddress",
          "type": "address"
        }
      ],
      "name": "addCollection",
      "outputs": [],
      "stateMutability": "nonpayable",
      "type": "function"
    },
    {
      "inputs": [],
      "name": "collectionCount",
      "outputs": [
        {
          "internalType": "uint256",
          "name": "",
          "type": "uint256"
        }
      ],
      "stateMutability": "view",
      "type": "function"
    },
    {
      "inputs": [
        {
          "internalType": "uint256",
          "name": "",
          "type": "uint256"
        }
      ],
      "name": "collections",
      "outputs": [
        {
          "internalType": "uint256",
          "name": "collectionId",
          "type": "uint256"
        },
        {
          "internalType": "address payable",
          "name": "owner",
          "type": "address"
        },
        {
          "internalType": "address",
          "name": "collectionAddress",
          "type": "address"
        }
      ],
      "stateMutability": "view",
      "type": "function"
    },
    {
      "inputs": [],
      "name": "feeAccount",
      "outputs": [
        {
          "internalType": "address payable",
          "name": "",
          "type": "address"
        }
      ],
      "stateMutability": "view",
      "type": "function"
    },
    {
      "inputs": [],
      "name": "feePercent",
      "outputs": [
        {
          "internalType": "uint256",
          "name": "",
          "type": "uint256"
        }
      ],
      "stateMutability": "view",
      "type": "function"
    },
    {
      "inputs": [
        {
          "internalType": "uint256",
          "name": "_itemId",
          "type": "uint256"
        }
      ],
      "name": "getTotalPrice",
      "outputs": [
        {
          "internalType": "uint256",
          "name": "",
          "type": "uint256"
        }
      ],
      "stateMutability": "view",
      "type": "function"
    },
    {
      "inputs": [],
      "name": "itemCount",
      "outputs": [
        {
          "internalType": "uint256",
          "name": "",
          "type": "uint256"
        }
      ],
      "stateMutability": "view",
      "type": "function"
    },
    {
      "inputs": [
        {
          "internalType": "uint256",
          "name": "",
          "type": "uint256"
        }
      ],
      "name": "items",
      "outputs": [
        {
          "internalType": "uint256",
          "name": "itemId",
          "type": "uint256"
        },
        {
          "internalType": "contract IERC721",
          "name": "nft",
          "type": "address"
        },
        {
          "internalType": "uint256",
          "name": "tokenId",
          "type": "uint256"
        },
        {
          "internalType": "uint256",
          "name": "price",
          "type": "uint256"
        },
        {
          "internalType": "address payable",
          "name": "seller",
          "type": "address"
        },
        {
          "internalType": "bool",
          "name": "sold",
          "type": "bool"
        }
      ],
      "stateMutability": "view",
      "type": "function"
    },
    {
      "inputs": [
        {
          "internalType": "contract IERC721",
          "name": "_nft",
          "type": "address"
        },
        {
          "internalType": "uint256",
          "name": "_tokenId",
          "type": "uint256"
        },
        {
          "internalType": "uint256",
          "name": "_price",
          "type": "uint256"
        }
      ],
      "name": "makeItem",
      "outputs": [],
      "stateMutability": "nonpayable",
      "type": "function"
    },
    {
      "inputs": [
        {
          "internalType": "uint256",
          "name": "_itemId",
          "type": "uint256"
        }
      ],
      "name": "purchaseItem",
      "outputs": [],
      "stateMutability": "payable",
      "type": "function"
    }
  ],
  "bytecode": "0x60c06040523480156200001157600080fd5b506040516200156b3803806200156b8339818101604052810190620000379190620000c2565b60016000819055503373ffffffffffffffffffffffffffffffffffffffff1660808173ffffffffffffffffffffffffffffffffffffffff16815250508060a0818152505050620000f4565b600080fd5b6000819050919050565b6200009c8162000087565b8114620000a857600080fd5b50565b600081519050620000bc8162000091565b92915050565b600060208284031215620000db57620000da62000082565b5b6000620000eb84828501620000ab565b91505092915050565b60805160a051611443620001286000396000818161029a015261051b015260008181610270015261074001526114436000f3fe6080604052600436106100915760003560e01c8063ca7dd37511610059578063ca7dd37514610182578063d38ea5bf146101bf578063d57f966b146101db578063fa00afc714610206578063fdbda0ec1461022f57610091565b806365e17c9d146100965780636bfb0d01146100c15780637fd6f15c146100ec578063a174e77a14610117578063bfb231d214610140575b600080fd5b3480156100a257600080fd5b506100ab61026e565b6040516100b89190610cc7565b60405180910390f35b3480156100cd57600080fd5b506100d6610292565b6040516100e39190610cfb565b60405180910390f35b3480156100f857600080fd5b50610101610298565b60405161010e9190610cfb565b60405180910390f35b34801561012357600080fd5b5061013e60048036038101906101399190610d59565b6102bc565b005b34801561014c57600080fd5b5061016760048036038101906101629190610db2565b61048c565b60405161017996959493929190610e59565b60405180910390f35b34801561018e57600080fd5b506101a960048036038101906101a49190610db2565b610515565b6040516101b69190610cfb565b60405180910390f35b6101d960048036038101906101d49190610db2565b610578565b005b3480156101e757600080fd5b506101f0610945565b6040516101fd9190610cfb565b60405180910390f35b34801561021257600080fd5b5061022d60048036038101906102289190610ef8565b61094b565b005b34801561023b57600080fd5b5061025660048036038101906102519190610db2565b610c1c565b60405161026593929190610f5a565b60405180910390f35b7f000000000000000000000000000000000000000000000000000000000000000081565b60015481565b7f000000000000000000000000000000000000000000000000000000000000000081565b600260005403610301576040517f08c379a00000000000000000000000000000000000000000000000000000000081526004016102f890610fee565b60405180910390fd5b60026000819055506002600081548092919061031c9061103d565b9190505550604051806060016040528060025481526020013373ffffffffffffffffffffffffffffffffffffffff1681526020018273ffffffffffffffffffffffffffffffffffffffff168152506004600060025481526020019081526020016000206000820151816000015560208201518160010160006101000a81548173ffffffffffffffffffffffffffffffffffffffff021916908373ffffffffffffffffffffffffffffffffffffffff16021790555060408201518160020160006101000a81548173ffffffffffffffffffffffffffffffffffffffff021916908373ffffffffffffffffffffffffffffffffffffffff1602179055509050508073ffffffffffffffffffffffffffffffffffffffff163373ffffffffffffffffffffffffffffffffffffffff167f722469bb0a593776a7ea888977115522bbd6f749d2b0da5379a55f207c82cfaa6002546040516104799190610cfb565b60405180910390a3600160008190555050565b60036020528060005260406000206000915090508060000154908060010160009054906101000a900473ffffffffffffffffffffffffffffffffffffffff16908060020154908060030154908060040160009054906101000a900473ffffffffffffffffffffffffffffffffffffffff16908060040160149054906101000a900460ff16905086565b600060647f000000000000000000000000000000000000000000000000000000000000000060646105469190611085565b600360008581526020019081526020016000206003015461056791906110db565b6105719190611164565b9050919050565b6002600054036105bd576040517f08c379a00000000000000000000000000000000000000000000000000000000081526004016105b490610fee565b60405180910390fd5b600260008190555060006105d082610515565b905060006003600084815260200190815260200160002090506000831180156105fb57506001548311155b61063a576040517f08c379a0000000000000000000000000000000000000000000000000000000008152600401610631906111e1565b60405180910390fd5b8134101561067d576040517f08c379a000000000000000000000000000000000000000000000000000000000815260040161067490611273565b60405180910390fd5b8060040160149054906101000a900460ff16156106cf576040517f08c379a00000000000000000000000000000000000000000000000000000000081526004016106c6906112df565b60405180910390fd5b8060040160009054906101000a900473ffffffffffffffffffffffffffffffffffffffff1673ffffffffffffffffffffffffffffffffffffffff166108fc82600301549081150290604051600060405180830381858888f1935050505015801561073d573d6000803e3d6000fd5b507f000000000000000000000000000000000000000000000000000000000000000073ffffffffffffffffffffffffffffffffffffffff166108fc82600301548461078891906112ff565b9081150290604051600060405180830381858888f193505050501580156107b3573d6000803e3d6000fd5b5060018160040160146101000a81548160ff0219169083151502179055508060010160009054906101000a900473ffffffffffffffffffffffffffffffffffffffff1673ffffffffffffffffffffffffffffffffffffffff166323b872dd303384600201546040518463ffffffff1660e01b815260040161083693929190611333565b600060405180830381600087803b15801561085057600080fd5b505af1158015610864573d6000803e3d6000fd5b505050503373ffffffffffffffffffffffffffffffffffffffff168160040160009054906101000a900473ffffffffffffffffffffffffffffffffffffffff1673ffffffffffffffffffffffffffffffffffffffff168260010160009054906101000a900473ffffffffffffffffffffffffffffffffffffffff1673ffffffffffffffffffffffffffffffffffffffff167f8b4c9c8a607d67b321582dd8461041b1dc2ceeca70c8b7f37f8e02095cf2e76d86856002015486600301546040516109309392919061136a565b60405180910390a45050600160008190555050565b60025481565b600260005403610990576040517f08c379a000000000000000000000000000000000000000000000000000000000815260040161098790610fee565b60405180910390fd5b6002600081905550600081116109db576040517f08c379a00000000000000000000000000000000000000000000000000000000081526004016109d2906113ed565b60405180910390fd5b600160008154809291906109ee9061103d565b91905055508273ffffffffffffffffffffffffffffffffffffffff166323b872dd3330856040518463ffffffff1660e01b8152600401610a3093929190611333565b600060405180830381600087803b158015610a4a57600080fd5b505af1158015610a5e573d6000803e3d6000fd5b505050506040518060c0016040528060015481526020018473ffffffffffffffffffffffffffffffffffffffff1681526020018381526020018281526020013373ffffffffffffffffffffffffffffffffffffffff168152602001600015158152506003600060015481526020019081526020016000206000820151816000015560208201518160010160006101000a81548173ffffffffffffffffffffffffffffffffffffffff021916908373ffffffffffffffffffffffffffffffffffffffff160217905550604082015181600201556060820151816003015560808201518160040160006101000a81548173ffffffffffffffffffffffffffffffffffffffff021916908373ffffffffffffffffffffffffffffffffffffffff16021790555060a08201518160040160146101000a81548160ff0219169083151502179055509050503373ffffffffffffffffffffffffffffffffffffffff168373ffffffffffffffffffffffffffffffffffffffff167f655a0cf9c8db81512be9a76dc1c5ae5380b8816ce6ad659cd61b715e2999d59a6001548585604051610c079392919061136a565b60405180910390a36001600081905550505050565b60046020528060005260406000206000915090508060000154908060010160009054906101000a900473ffffffffffffffffffffffffffffffffffffffff16908060020160009054906101000a900473ffffffffffffffffffffffffffffffffffffffff16905083565b600073ffffffffffffffffffffffffffffffffffffffff82169050919050565b6000610cb182610c86565b9050919050565b610cc181610ca6565b82525050565b6000602082019050610cdc6000830184610cb8565b92915050565b6000819050919050565b610cf581610ce2565b82525050565b6000602082019050610d106000830184610cec565b92915050565b600080fd5b6000610d2682610c86565b9050919050565b610d3681610d1b565b8114610d4157600080fd5b50565b600081359050610d5381610d2d565b92915050565b600060208284031215610d6f57610d6e610d16565b5b6000610d7d84828501610d44565b91505092915050565b610d8f81610ce2565b8114610d9a57600080fd5b50565b600081359050610dac81610d86565b92915050565b600060208284031215610dc857610dc7610d16565b5b6000610dd684828501610d9d565b91505092915050565b6000819050919050565b6000610e04610dff610dfa84610c86565b610ddf565b610c86565b9050919050565b6000610e1682610de9565b9050919050565b6000610e2882610e0b565b9050919050565b610e3881610e1d565b82525050565b60008115159050919050565b610e5381610e3e565b82525050565b600060c082019050610e6e6000830189610cec565b610e7b6020830188610e2f565b610e886040830187610cec565b610e956060830186610cec565b610ea26080830185610cb8565b610eaf60a0830184610e4a565b979650505050505050565b6000610ec582610d1b565b9050919050565b610ed581610eba565b8114610ee057600080fd5b50565b600081359050610ef281610ecc565b92915050565b600080600060608486031215610f1157610f10610d16565b5b6000610f1f86828701610ee3565b9350506020610f3086828701610d9d565b9250506040610f4186828701610d9d565b9150509250925092565b610f5481610d1b565b82525050565b6000606082019050610f6f6000830186610cec565b610f7c6020830185610cb8565b610f896040830184610f4b565b949350505050565b600082825260208201905092915050565b7f5265656e7472616e637947756172643a207265656e7472616e742063616c6c00600082015250565b6000610fd8601f83610f91565b9150610fe382610fa2565b602082019050919050565b6000602082019050818103600083015261100781610fcb565b9050919050565b7f4e487b7100000000000000000000000000000000000000000000000000000000600052601160045260246000fd5b600061104882610ce2565b91507fffffffffffffffffffffffffffffffffffffffffffffffffffffffffffffffff820361107a5761107961100e565b5b600182019050919050565b600061109082610ce2565b915061109b83610ce2565b9250827fffffffffffffffffffffffffffffffffffffffffffffffffffffffffffffffff038211156110d0576110cf61100e565b5b828201905092915050565b60006110e682610ce2565b91506110f183610ce2565b9250817fffffffffffffffffffffffffffffffffffffffffffffffffffffffffffffffff048311821515161561112a5761112961100e565b5b828202905092915050565b7f4e487b7100000000000000000000000000000000000000000000000000000000600052601260045260246000fd5b600061116f82610ce2565b915061117a83610ce2565b92508261118a57611189611135565b5b828204905092915050565b7f6974656d20646f65736e74206578697374730000000000000000000000000000600082015250565b60006111cb601283610f91565b91506111d682611195565b602082019050919050565b600060208201905081810360008301526111fa816111be565b9050919050565b7f6e6f7420656e6f75676820657468657220746f20636f766572206974656d207060008201527f7269636520616e64206d61726b65742066656500000000000000000000000000602082015250565b600061125d603383610f91565b915061126882611201565b604082019050919050565b6000602082019050818103600083015261128c81611250565b9050919050565b7f6974656d20616c726561647920736f6c64000000000000000000000000000000600082015250565b60006112c9601183610f91565b91506112d482611293565b602082019050919050565b600060208201905081810360008301526112f8816112bc565b9050919050565b600061130a82610ce2565b915061131583610ce2565b9250828210156113285761132761100e565b5b828203905092915050565b60006060820190506113486000830186610f4b565b6113556020830185610f4b565b6113626040830184610cec565b949350505050565b600060608201905061137f6000830186610cec565b61138c6020830185610cec565b6113996040830184610cec565b949350505050565b7f7072696365206d7573742062652067726561746572207468616e207a65726f00600082015250565b60006113d7601f83610f91565b91506113e2826113a1565b602082019050919050565b60006020820190508181036000830152611406816113ca565b905091905056fea2646970667358221220daca3da78c6652fb4a4decbac42f4d3408d5581d09ea3b036c0c1eddbbbd514164736f6c634300080d0033",
  "linkReferences": {},
  "deployedLinkReferences": {}
}