{
  "_format": "hh-sol-artifact-1",
  "contractName": "Marketplace",
  "sourceName": "contracts/Marketplace.sol",
  "abi": [
    {
      "inputs": [
        {
          "internalType": "uint256",
          "name": "_feePercent",
          "type": "uint256"
        }
      ],
      "stateMutability": "nonpayable",
      "type": "constructor"
    },
    {
      "anonymous": false,
      "inputs": [
        {
          "indexed": false,
          "internalType": "uint256",
          "name": "itemId",
          "type": "uint256"
        },
        {
          "indexed": true,
          "internalType": "address",
          "name": "nft",
          "type": "address"
        },
        {
          "indexed": false,
          "internalType": "uint256",
          "name": "tokenId",
          "type": "uint256"
        },
        {
          "indexed": false,
          "internalType": "uint256",
          "name": "price",
          "type": "uint256"
        },
        {
          "indexed": true,
          "internalType": "address",
          "name": "seller",
          "type": "address"
        },
        {
          "indexed": true,
          "internalType": "address",
          "name": "buyer",
          "type": "address"
        }
      ],
      "name": "Bought",
      "type": "event"
    },
    {
      "anonymous": false,
      "inputs": [
        {
          "indexed": false,
          "internalType": "uint256",
          "name": "itemId",
          "type": "uint256"
        },
        {
          "indexed": true,
          "internalType": "address",
          "name": "nft",
          "type": "address"
        },
        {
          "indexed": false,
          "internalType": "uint256",
          "name": "tokenId",
          "type": "uint256"
        },
        {
          "indexed": false,
          "internalType": "uint256",
          "name": "price",
          "type": "uint256"
        },
        {
          "indexed": true,
          "internalType": "address",
          "name": "seller",
          "type": "address"
        }
      ],
      "name": "Offered",
      "type": "event"
    },
    {
      "inputs": [
        {
          "internalType": "address",
          "name": "_collectionAddress",
          "type": "address"
        }
      ],
      "name": "addCollection",
      "outputs": [],
      "stateMutability": "nonpayable",
      "type": "function"
    },
    {
      "inputs": [],
      "name": "collectionCount",
      "outputs": [
        {
          "internalType": "uint256",
          "name": "",
          "type": "uint256"
        }
      ],
      "stateMutability": "view",
      "type": "function"
    },
    {
      "inputs": [
        {
          "internalType": "uint256",
          "name": "",
          "type": "uint256"
        }
      ],
      "name": "collections",
      "outputs": [
        {
          "internalType": "uint256",
          "name": "collectionId",
          "type": "uint256"
        },
        {
          "internalType": "address payable",
          "name": "owner",
          "type": "address"
        },
        {
          "internalType": "address",
          "name": "collectionAddress",
          "type": "address"
        }
      ],
      "stateMutability": "view",
      "type": "function"
    },
    {
      "inputs": [],
      "name": "feeAccount",
      "outputs": [
        {
          "internalType": "address payable",
          "name": "",
          "type": "address"
        }
      ],
      "stateMutability": "view",
      "type": "function"
    },
    {
      "inputs": [],
      "name": "feePercent",
      "outputs": [
        {
          "internalType": "uint256",
          "name": "",
          "type": "uint256"
        }
      ],
      "stateMutability": "view",
      "type": "function"
    },
    {
      "inputs": [
        {
          "internalType": "uint256",
          "name": "_itemId",
          "type": "uint256"
        }
      ],
      "name": "getTotalPrice",
      "outputs": [
        {
          "internalType": "uint256",
          "name": "",
          "type": "uint256"
        }
      ],
      "stateMutability": "view",
      "type": "function"
    },
    {
      "inputs": [],
      "name": "itemCount",
      "outputs": [
        {
          "internalType": "uint256",
          "name": "",
          "type": "uint256"
        }
      ],
      "stateMutability": "view",
      "type": "function"
    },
    {
      "inputs": [
        {
          "internalType": "uint256",
          "name": "",
          "type": "uint256"
        }
      ],
      "name": "items",
      "outputs": [
        {
          "internalType": "uint256",
          "name": "itemId",
          "type": "uint256"
        },
        {
          "internalType": "contract IERC721",
          "name": "nft",
          "type": "address"
        },
        {
          "internalType": "uint256",
          "name": "tokenId",
          "type": "uint256"
        },
        {
          "internalType": "uint256",
          "name": "price",
          "type": "uint256"
        },
        {
          "internalType": "address payable",
          "name": "seller",
          "type": "address"
        },
        {
          "internalType": "bool",
          "name": "sold",
          "type": "bool"
        }
      ],
      "stateMutability": "view",
      "type": "function"
    },
    {
      "inputs": [
        {
          "internalType": "contract IERC721",
          "name": "_nft",
          "type": "address"
        },
        {
          "internalType": "uint256",
          "name": "_tokenId",
          "type": "uint256"
        },
        {
          "internalType": "uint256",
          "name": "_price",
          "type": "uint256"
        }
      ],
      "name": "makeItem",
      "outputs": [],
      "stateMutability": "nonpayable",
      "type": "function"
    },
    {
      "inputs": [
        {
          "internalType": "uint256",
          "name": "_itemId",
          "type": "uint256"
        }
      ],
      "name": "purchaseItem",
      "outputs": [],
      "stateMutability": "payable",
      "type": "function"
    }
  ],
  "bytecode": "0x60c06040523480156200001157600080fd5b5060405162001504380380620015048339818101604052810190620000379190620000c2565b60016000819055503373ffffffffffffffffffffffffffffffffffffffff1660808173ffffffffffffffffffffffffffffffffffffffff16815250508060a0818152505050620000f4565b600080fd5b6000819050919050565b6200009c8162000087565b8114620000a857600080fd5b50565b600081519050620000bc8162000091565b92915050565b600060208284031215620000db57620000da62000082565b5b6000620000eb84828501620000ab565b91505092915050565b60805160a0516113dc620001286000396000818161029a01526104b401526000818161027001526106d901526113dc6000f3fe6080604052600436106100915760003560e01c8063ca7dd37511610059578063ca7dd37514610182578063d38ea5bf146101bf578063d57f966b146101db578063fa00afc714610206578063fdbda0ec1461022f57610091565b806365e17c9d146100965780636bfb0d01146100c15780637fd6f15c146100ec578063a174e77a14610117578063bfb231d214610140575b600080fd5b3480156100a257600080fd5b506100ab61026e565b6040516100b89190610c60565b60405180910390f35b3480156100cd57600080fd5b506100d6610292565b6040516100e39190610c94565b60405180910390f35b3480156100f857600080fd5b50610101610298565b60405161010e9190610c94565b60405180910390f35b34801561012357600080fd5b5061013e60048036038101906101399190610cf2565b6102bc565b005b34801561014c57600080fd5b5061016760048036038101906101629190610d4b565b610425565b60405161017996959493929190610df2565b60405180910390f35b34801561018e57600080fd5b506101a960048036038101906101a49190610d4b565b6104ae565b6040516101b69190610c94565b60405180910390f35b6101d960048036038101906101d49190610d4b565b610511565b005b3480156101e757600080fd5b506101f06108de565b6040516101fd9190610c94565b60405180910390f35b34801561021257600080fd5b5061022d60048036038101906102289190610e91565b6108e4565b005b34801561023b57600080fd5b5061025660048036038101906102519190610d4b565b610bb5565b60405161026593929190610ef3565b60405180910390f35b7f000000000000000000000000000000000000000000000000000000000000000081565b60015481565b7f000000000000000000000000000000000000000000000000000000000000000081565b600260005403610301576040517f08c379a00000000000000000000000000000000000000000000000000000000081526004016102f890610f87565b60405180910390fd5b60026000819055506002600081548092919061031c90610fd6565b9190505550604051806060016040528060025481526020013373ffffffffffffffffffffffffffffffffffffffff1681526020018273ffffffffffffffffffffffffffffffffffffffff168152506004600060025481526020019081526020016000206000820151816000015560208201518160010160006101000a81548173ffffffffffffffffffffffffffffffffffffffff021916908373ffffffffffffffffffffffffffffffffffffffff16021790555060408201518160020160006101000a81548173ffffffffffffffffffffffffffffffffffffffff021916908373ffffffffffffffffffffffffffffffffffffffff160217905550905050600160008190555050565b60036020528060005260406000206000915090508060000154908060010160009054906101000a900473ffffffffffffffffffffffffffffffffffffffff16908060020154908060030154908060040160009054906101000a900473ffffffffffffffffffffffffffffffffffffffff16908060040160149054906101000a900460ff16905086565b600060647f000000000000000000000000000000000000000000000000000000000000000060646104df919061101e565b60036000858152602001908152602001600020600301546105009190611074565b61050a91906110fd565b9050919050565b600260005403610556576040517f08c379a000000000000000000000000000000000000000000000000000000000815260040161054d90610f87565b60405180910390fd5b60026000819055506000610569826104ae565b9050600060036000848152602001908152602001600020905060008311801561059457506001548311155b6105d3576040517f08c379a00000000000000000000000000000000000000000000000000000000081526004016105ca9061117a565b60405180910390fd5b81341015610616576040517f08c379a000000000000000000000000000000000000000000000000000000000815260040161060d9061120c565b60405180910390fd5b8060040160149054906101000a900460ff1615610668576040517f08c379a000000000000000000000000000000000000000000000000000000000815260040161065f90611278565b60405180910390fd5b8060040160009054906101000a900473ffffffffffffffffffffffffffffffffffffffff1673ffffffffffffffffffffffffffffffffffffffff166108fc82600301549081150290604051600060405180830381858888f193505050501580156106d6573d6000803e3d6000fd5b507f000000000000000000000000000000000000000000000000000000000000000073ffffffffffffffffffffffffffffffffffffffff166108fc8260030154846107219190611298565b9081150290604051600060405180830381858888f1935050505015801561074c573d6000803e3d6000fd5b5060018160040160146101000a81548160ff0219169083151502179055508060010160009054906101000a900473ffffffffffffffffffffffffffffffffffffffff1673ffffffffffffffffffffffffffffffffffffffff166323b872dd303384600201546040518463ffffffff1660e01b81526004016107cf939291906112cc565b600060405180830381600087803b1580156107e957600080fd5b505af11580156107fd573d6000803e3d6000fd5b505050503373ffffffffffffffffffffffffffffffffffffffff168160040160009054906101000a900473ffffffffffffffffffffffffffffffffffffffff1673ffffffffffffffffffffffffffffffffffffffff168260010160009054906101000a900473ffffffffffffffffffffffffffffffffffffffff1673ffffffffffffffffffffffffffffffffffffffff167f8b4c9c8a607d67b321582dd8461041b1dc2ceeca70c8b7f37f8e02095cf2e76d86856002015486600301546040516108c993929190611303565b60405180910390a45050600160008190555050565b60025481565b600260005403610929576040517f08c379a000000000000000000000000000000000000000000000000000000000815260040161092090610f87565b60405180910390fd5b600260008190555060008111610974576040517f08c379a000000000000000000000000000000000000000000000000000000000815260040161096b90611386565b60405180910390fd5b6001600081548092919061098790610fd6565b91905055508273ffffffffffffffffffffffffffffffffffffffff166323b872dd3330856040518463ffffffff1660e01b81526004016109c9939291906112cc565b600060405180830381600087803b1580156109e357600080fd5b505af11580156109f7573d6000803e3d6000fd5b505050506040518060c0016040528060015481526020018473ffffffffffffffffffffffffffffffffffffffff1681526020018381526020018281526020013373ffffffffffffffffffffffffffffffffffffffff168152602001600015158152506003600060015481526020019081526020016000206000820151816000015560208201518160010160006101000a81548173ffffffffffffffffffffffffffffffffffffffff021916908373ffffffffffffffffffffffffffffffffffffffff160217905550604082015181600201556060820151816003015560808201518160040160006101000a81548173ffffffffffffffffffffffffffffffffffffffff021916908373ffffffffffffffffffffffffffffffffffffffff16021790555060a08201518160040160146101000a81548160ff0219169083151502179055509050503373ffffffffffffffffffffffffffffffffffffffff168373ffffffffffffffffffffffffffffffffffffffff167f655a0cf9c8db81512be9a76dc1c5ae5380b8816ce6ad659cd61b715e2999d59a6001548585604051610ba093929190611303565b60405180910390a36001600081905550505050565b60046020528060005260406000206000915090508060000154908060010160009054906101000a900473ffffffffffffffffffffffffffffffffffffffff16908060020160009054906101000a900473ffffffffffffffffffffffffffffffffffffffff16905083565b600073ffffffffffffffffffffffffffffffffffffffff82169050919050565b6000610c4a82610c1f565b9050919050565b610c5a81610c3f565b82525050565b6000602082019050610c756000830184610c51565b92915050565b6000819050919050565b610c8e81610c7b565b82525050565b6000602082019050610ca96000830184610c85565b92915050565b600080fd5b6000610cbf82610c1f565b9050919050565b610ccf81610cb4565b8114610cda57600080fd5b50565b600081359050610cec81610cc6565b92915050565b600060208284031215610d0857610d07610caf565b5b6000610d1684828501610cdd565b91505092915050565b610d2881610c7b565b8114610d3357600080fd5b50565b600081359050610d4581610d1f565b92915050565b600060208284031215610d6157610d60610caf565b5b6000610d6f84828501610d36565b91505092915050565b6000819050919050565b6000610d9d610d98610d9384610c1f565b610d78565b610c1f565b9050919050565b6000610daf82610d82565b9050919050565b6000610dc182610da4565b9050919050565b610dd181610db6565b82525050565b60008115159050919050565b610dec81610dd7565b82525050565b600060c082019050610e076000830189610c85565b610e146020830188610dc8565b610e216040830187610c85565b610e2e6060830186610c85565b610e3b6080830185610c51565b610e4860a0830184610de3565b979650505050505050565b6000610e5e82610cb4565b9050919050565b610e6e81610e53565b8114610e7957600080fd5b50565b600081359050610e8b81610e65565b92915050565b600080600060608486031215610eaa57610ea9610caf565b5b6000610eb886828701610e7c565b9350506020610ec986828701610d36565b9250506040610eda86828701610d36565b9150509250925092565b610eed81610cb4565b82525050565b6000606082019050610f086000830186610c85565b610f156020830185610c51565b610f226040830184610ee4565b949350505050565b600082825260208201905092915050565b7f5265656e7472616e637947756172643a207265656e7472616e742063616c6c00600082015250565b6000610f71601f83610f2a565b9150610f7c82610f3b565b602082019050919050565b60006020820190508181036000830152610fa081610f64565b9050919050565b7f4e487b7100000000000000000000000000000000000000000000000000000000600052601160045260246000fd5b6000610fe182610c7b565b91507fffffffffffffffffffffffffffffffffffffffffffffffffffffffffffffffff820361101357611012610fa7565b5b600182019050919050565b600061102982610c7b565b915061103483610c7b565b9250827fffffffffffffffffffffffffffffffffffffffffffffffffffffffffffffffff0382111561106957611068610fa7565b5b828201905092915050565b600061107f82610c7b565b915061108a83610c7b565b9250817fffffffffffffffffffffffffffffffffffffffffffffffffffffffffffffffff04831182151516156110c3576110c2610fa7565b5b828202905092915050565b7f4e487b7100000000000000000000000000000000000000000000000000000000600052601260045260246000fd5b600061110882610c7b565b915061111383610c7b565b925082611123576111226110ce565b5b828204905092915050565b7f6974656d20646f65736e74206578697374730000000000000000000000000000600082015250565b6000611164601283610f2a565b915061116f8261112e565b602082019050919050565b6000602082019050818103600083015261119381611157565b9050919050565b7f6e6f7420656e6f75676820657468657220746f20636f766572206974656d207060008201527f7269636520616e64206d61726b65742066656500000000000000000000000000602082015250565b60006111f6603383610f2a565b91506112018261119a565b604082019050919050565b60006020820190508181036000830152611225816111e9565b9050919050565b7f6974656d20616c726561647920736f6c64000000000000000000000000000000600082015250565b6000611262601183610f2a565b915061126d8261122c565b602082019050919050565b6000602082019050818103600083015261129181611255565b9050919050565b60006112a382610c7b565b91506112ae83610c7b565b9250828210156112c1576112c0610fa7565b5b828203905092915050565b60006060820190506112e16000830186610ee4565b6112ee6020830185610ee4565b6112fb6040830184610c85565b949350505050565b60006060820190506113186000830186610c85565b6113256020830185610c85565b6113326040830184610c85565b949350505050565b7f7072696365206d7573742062652067726561746572207468616e207a65726f00600082015250565b6000611370601f83610f2a565b915061137b8261133a565b602082019050919050565b6000602082019050818103600083015261139f81611363565b905091905056fea2646970667358221220f7584e10cf5dad3006a854c072fe1bf61515b3ccb5fb527359513fa9a52497fd64736f6c634300080d0033",
  "linkReferences": {},
  "deployedLinkReferences": {}
}