{
  "_format": "hh-sol-artifact-1",
  "contractName": "Marketplace",
  "sourceName": "contracts/Marketplace.sol",
  "abi": [
    {
      "inputs": [
        {
          "internalType": "uint256",
          "name": "_feePercent",
          "type": "uint256"
        }
      ],
      "stateMutability": "nonpayable",
      "type": "constructor"
    },
    {
      "anonymous": false,
      "inputs": [
        {
          "indexed": false,
          "internalType": "uint256",
          "name": "itemId",
          "type": "uint256"
        },
        {
          "indexed": true,
          "internalType": "address",
          "name": "nft",
          "type": "address"
        },
        {
          "indexed": false,
          "internalType": "uint256",
          "name": "tokenId",
          "type": "uint256"
        },
        {
          "indexed": false,
          "internalType": "uint256",
          "name": "price",
          "type": "uint256"
        },
        {
          "indexed": true,
          "internalType": "address",
          "name": "seller",
          "type": "address"
        },
        {
          "indexed": true,
          "internalType": "address",
          "name": "buyer",
          "type": "address"
        }
      ],
      "name": "Bought",
      "type": "event"
    },
    {
      "anonymous": false,
      "inputs": [
        {
          "indexed": false,
          "internalType": "uint256",
          "name": "collectionId",
          "type": "uint256"
        },
        {
          "indexed": true,
          "internalType": "address",
          "name": "owner",
          "type": "address"
        },
        {
          "indexed": true,
          "internalType": "address",
          "name": "collectionAddress",
          "type": "address"
        },
        {
          "indexed": false,
          "internalType": "bool",
          "name": "isSFT",
          "type": "bool"
        },
        {
          "indexed": false,
          "internalType": "string",
          "name": "uri",
          "type": "string"
        }
      ],
      "name": "Collections",
      "type": "event"
    },
    {
      "anonymous": false,
      "inputs": [
        {
          "indexed": false,
          "internalType": "uint256",
          "name": "itemId",
          "type": "uint256"
        },
        {
          "indexed": true,
          "internalType": "address",
          "name": "nft",
          "type": "address"
        },
        {
          "indexed": false,
          "internalType": "uint256",
          "name": "tokenId",
          "type": "uint256"
        },
        {
          "indexed": false,
          "internalType": "uint256",
          "name": "price",
          "type": "uint256"
        },
        {
          "indexed": true,
          "internalType": "address",
          "name": "seller",
          "type": "address"
        }
      ],
      "name": "Offered",
      "type": "event"
    },
    {
      "inputs": [
        {
          "internalType": "address",
          "name": "_collectionAddress",
          "type": "address"
        },
        {
          "internalType": "string",
          "name": "_uri",
          "type": "string"
        },
        {
          "internalType": "bool",
          "name": "_isSFT",
          "type": "bool"
        }
      ],
      "name": "addCollection",
      "outputs": [],
      "stateMutability": "nonpayable",
      "type": "function"
    },
    {
      "inputs": [
        {
          "internalType": "uint256",
          "name": "_itemId",
          "type": "uint256"
        },
        {
          "internalType": "uint256",
          "name": "_newPrice",
          "type": "uint256"
        }
      ],
      "name": "changePrice",
      "outputs": [],
      "stateMutability": "payable",
      "type": "function"
    },
    {
      "inputs": [],
      "name": "collectionCount",
      "outputs": [
        {
          "internalType": "uint256",
          "name": "",
          "type": "uint256"
        }
      ],
      "stateMutability": "view",
      "type": "function"
    },
    {
      "inputs": [
        {
          "internalType": "uint256",
          "name": "",
          "type": "uint256"
        }
      ],
      "name": "collections",
      "outputs": [
        {
          "internalType": "uint256",
          "name": "collectionId",
          "type": "uint256"
        },
        {
          "internalType": "address payable",
          "name": "owner",
          "type": "address"
        },
        {
          "internalType": "address",
          "name": "collectionAddress",
          "type": "address"
        },
        {
          "internalType": "bool",
          "name": "sft",
          "type": "bool"
        },
        {
          "internalType": "string",
          "name": "uri",
          "type": "string"
        }
      ],
      "stateMutability": "view",
      "type": "function"
    },
    {
      "inputs": [
        {
          "internalType": "address",
          "name": "",
          "type": "address"
        },
        {
          "internalType": "uint256",
          "name": "",
          "type": "uint256"
        }
      ],
      "name": "collectionsByArtist",
      "outputs": [
        {
          "internalType": "address",
          "name": "",
          "type": "address"
        }
      ],
      "stateMutability": "view",
      "type": "function"
    },
    {
      "inputs": [],
      "name": "feeAccount",
      "outputs": [
        {
          "internalType": "address payable",
          "name": "",
          "type": "address"
        }
      ],
      "stateMutability": "view",
      "type": "function"
    },
    {
      "inputs": [],
      "name": "feePercent",
      "outputs": [
        {
          "internalType": "uint256",
          "name": "",
          "type": "uint256"
        }
      ],
      "stateMutability": "view",
      "type": "function"
    },
    {
      "inputs": [
        {
          "internalType": "uint16",
          "name": "_id",
          "type": "uint16"
        }
      ],
      "name": "getCollection",
      "outputs": [
        {
          "internalType": "address",
          "name": "",
          "type": "address"
        }
      ],
      "stateMutability": "view",
      "type": "function"
    },
    {
      "inputs": [],
      "name": "getCollectionId",
      "outputs": [
        {
          "internalType": "uint256",
          "name": "",
          "type": "uint256"
        }
      ],
      "stateMutability": "view",
      "type": "function"
    },
    {
      "inputs": [
        {
          "internalType": "uint256",
          "name": "_itemId",
          "type": "uint256"
        }
      ],
      "name": "getTotalPrice",
      "outputs": [
        {
          "internalType": "uint256",
          "name": "",
          "type": "uint256"
        }
      ],
      "stateMutability": "view",
      "type": "function"
    },
    {
      "inputs": [],
      "name": "itemCount",
      "outputs": [
        {
          "internalType": "uint256",
          "name": "",
          "type": "uint256"
        }
      ],
      "stateMutability": "view",
      "type": "function"
    },
    {
      "inputs": [
        {
          "internalType": "uint256",
          "name": "",
          "type": "uint256"
        }
      ],
      "name": "items",
      "outputs": [
        {
          "internalType": "uint256",
          "name": "itemId",
          "type": "uint256"
        },
        {
          "internalType": "contract NFT",
          "name": "nft",
          "type": "address"
        },
        {
          "internalType": "uint256",
          "name": "tokenId",
          "type": "uint256"
        },
        {
          "internalType": "uint256",
          "name": "price",
          "type": "uint256"
        },
        {
          "internalType": "address payable",
          "name": "owner",
          "type": "address"
        },
        {
          "internalType": "bool",
          "name": "sold",
          "type": "bool"
        },
        {
          "internalType": "string",
          "name": "uri",
          "type": "string"
        }
      ],
      "stateMutability": "view",
      "type": "function"
    },
    {
      "inputs": [
        {
          "internalType": "contract NFT",
          "name": "_nft",
          "type": "address"
        },
        {
          "internalType": "uint256",
          "name": "_tokenId",
          "type": "uint256"
        },
        {
          "internalType": "uint256",
          "name": "_price",
          "type": "uint256"
        },
        {
          "internalType": "string",
          "name": "_uri",
          "type": "string"
        }
      ],
      "name": "makeItem",
      "outputs": [],
      "stateMutability": "nonpayable",
      "type": "function"
    },
    {
      "inputs": [
        {
          "internalType": "uint256",
          "name": "_itemId",
          "type": "uint256"
        }
      ],
      "name": "purchaseItem",
      "outputs": [],
      "stateMutability": "payable",
      "type": "function"
    },
    {
      "inputs": [],
      "name": "rate",
      "outputs": [
        {
          "internalType": "uint256",
          "name": "",
          "type": "uint256"
        }
      ],
      "stateMutability": "view",
      "type": "function"
    },
    {
      "inputs": [
        {
          "internalType": "uint256",
          "name": "_itemId",
          "type": "uint256"
        }
      ],
      "name": "removeFromMarketplace",
      "outputs": [],
      "stateMutability": "payable",
      "type": "function"
    },
    {
      "inputs": [
        {
          "internalType": "uint256",
          "name": "_itemId",
          "type": "uint256"
        },
        {
          "internalType": "uint256",
          "name": "_price",
          "type": "uint256"
        }
      ],
      "name": "sellItem",
      "outputs": [],
      "stateMutability": "payable",
      "type": "function"
    }
  ],
  "bytecode": "0x60c0604052670de0b6b3a76400006003553480156200001d57600080fd5b506040516200283a3803806200283a8339818101604052810190620000439190620000ce565b60016000819055503373ffffffffffffffffffffffffffffffffffffffff1660808173ffffffffffffffffffffffffffffffffffffffff16815250508060a081815250505062000100565b600080fd5b6000819050919050565b620000a88162000093565b8114620000b457600080fd5b50565b600081519050620000c8816200009d565b92915050565b600060208284031215620000e757620000e66200008e565b5b6000620000f784828501620000b7565b91505092915050565b60805160a051612706620001346000396000818161078a015261104c015260008181610756015261127101526127066000f3fe6080604052600436106100fe5760003560e01c8063ab38cb5611610095578063d38ea5bf11610064578063d38ea5bf14610314578063d57f966b14610330578063d6fa98f51461035b578063e400843714610398578063fdbda0ec146103c1576100fe565b8063ab38cb561461025c578063b3de019c14610278578063bfb231d214610294578063ca7dd375146102d7576100fe565b80636bfb0d01116100d15780636bfb0d01146101b25780637c8e7bfe146101dd5780637fd6f15c1461020857806399be08ea14610233576100fe565b806309ee4376146101035780632c4e722e146101405780632d9235611461016b57806365e17c9d14610187575b600080fd5b34801561010f57600080fd5b5061012a60048036038101906101259190611a11565b610402565b6040516101379190611a7f565b60405180910390f35b34801561014c57600080fd5b50610155610446565b6040516101629190611ab3565b60405180910390f35b61018560048036038101906101809190611afa565b61044c565b005b34801561019357600080fd5b5061019c610754565b6040516101a99190611b5b565b60405180910390f35b3480156101be57600080fd5b506101c7610778565b6040516101d49190611ab3565b60405180910390f35b3480156101e957600080fd5b506101f261077e565b6040516101ff9190611ab3565b60405180910390f35b34801561021457600080fd5b5061021d610788565b60405161022a9190611ab3565b60405180910390f35b34801561023f57600080fd5b5061025a60048036038101906102559190611d20565b6107ac565b005b61027660048036038101906102719190611d8f565b610a85565b005b610292600480360381019061028d9190611afa565b610cde565b005b3480156102a057600080fd5b506102bb60048036038101906102b69190611d8f565b610f2f565b6040516102ce9796959493929190611eb2565b60405180910390f35b3480156102e357600080fd5b506102fe60048036038101906102f99190611d8f565b611046565b60405161030b9190611ab3565b60405180910390f35b61032e60048036038101906103299190611d8f565b6110a9565b005b34801561033c57600080fd5b506103456114b9565b6040516103529190611ab3565b60405180910390f35b34801561036757600080fd5b50610382600480360381019061037d9190611f28565b6114bf565b60405161038f9190611a7f565b60405180910390f35b3480156103a457600080fd5b506103bf60048036038101906103ba9190611fa6565b61150d565b005b3480156103cd57600080fd5b506103e860048036038101906103e39190611d8f565b611815565b6040516103f9959493929190612029565b60405180910390f35b6000600560008361ffff16815260200190815260200160002060020160009054906101000a900473ffffffffffffffffffffffffffffffffffffffff169050919050565b60035481565b600260005403610491576040517f08c379a0000000000000000000000000000000000000000000000000000000008152600401610488906120cf565b60405180910390fd5b600260008190555060006004600084815260200190815260200160002090503373ffffffffffffffffffffffffffffffffffffffff168160040160009054906101000a900473ffffffffffffffffffffffffffffffffffffffff1673ffffffffffffffffffffffffffffffffffffffff1614610542576040517f08c379a00000000000000000000000000000000000000000000000000000000081526004016105399061213b565b60405180910390fd5b60008311801561055457506001548311155b610593576040517f08c379a000000000000000000000000000000000000000000000000000000000815260040161058a906121a7565b60405180910390fd5b8060040160149054906101000a900460ff166105e4576040517f08c379a00000000000000000000000000000000000000000000000000000000081526004016105db90612213565b60405180910390fd5b60008160040160146101000a81548160ff0219169083151502179055506003548261060f9190612262565b81600301819055508060010160009054906101000a900473ffffffffffffffffffffffffffffffffffffffff1673ffffffffffffffffffffffffffffffffffffffff166323b872dd333084600201546040518463ffffffff1660e01b815260040161067c939291906122bc565b600060405180830381600087803b15801561069657600080fd5b505af11580156106aa573d6000803e3d6000fd5b505050503373ffffffffffffffffffffffffffffffffffffffff168160010160009054906101000a900473ffffffffffffffffffffffffffffffffffffffff1673ffffffffffffffffffffffffffffffffffffffff167f655a0cf9c8db81512be9a76dc1c5ae5380b8816ce6ad659cd61b715e2999d59a83600001548460020154856003015460405161073f939291906122f3565b60405180910390a35060016000819055505050565b7f000000000000000000000000000000000000000000000000000000000000000081565b60015481565b6000600254905090565b7f000000000000000000000000000000000000000000000000000000000000000081565b6002600054036107f1576040517f08c379a00000000000000000000000000000000000000000000000000000000081526004016107e8906120cf565b60405180910390fd5b6002600081905550600660003373ffffffffffffffffffffffffffffffffffffffff1673ffffffffffffffffffffffffffffffffffffffff168152602001908152602001600020839080600181540180825580915050600190039060005260206000200160009091909190916101000a81548173ffffffffffffffffffffffffffffffffffffffff021916908373ffffffffffffffffffffffffffffffffffffffff1602179055506040518060a0016040528060016002546108b3919061232a565b81526020013373ffffffffffffffffffffffffffffffffffffffff1681526020018473ffffffffffffffffffffffffffffffffffffffff16815260200182151581526020018381525060056000600160025461090f919061232a565b81526020019081526020016000206000820151816000015560208201518160010160006101000a81548173ffffffffffffffffffffffffffffffffffffffff021916908373ffffffffffffffffffffffffffffffffffffffff16021790555060408201518160020160006101000a81548173ffffffffffffffffffffffffffffffffffffffff021916908373ffffffffffffffffffffffffffffffffffffffff16021790555060608201518160020160146101000a81548160ff02191690831515021790555060808201518160030190805190602001906109f1929190611920565b509050508273ffffffffffffffffffffffffffffffffffffffff163373ffffffffffffffffffffffffffffffffffffffff167fd1d750a35b22bdfce91243b18bbd1f334e3f5028231afbf95fca42ef623cf1336002548486604051610a5893929190612380565b60405180910390a360026000815480929190610a73906123be565b91905055506001600081905550505050565b600260005403610aca576040517f08c379a0000000000000000000000000000000000000000000000000000000008152600401610ac1906120cf565b60405180910390fd5b600260008190555060006004600083815260200190815260200160002090503373ffffffffffffffffffffffffffffffffffffffff168160040160009054906101000a900473ffffffffffffffffffffffffffffffffffffffff1673ffffffffffffffffffffffffffffffffffffffff1614610b7b576040517f08c379a0000000000000000000000000000000000000000000000000000000008152600401610b729061213b565b60405180910390fd5b600082118015610b8d57506001548211155b610bcc576040517f08c379a0000000000000000000000000000000000000000000000000000000008152600401610bc3906121a7565b60405180910390fd5b8060040160149054906101000a900460ff1615610c1e576040517f08c379a0000000000000000000000000000000000000000000000000000000008152600401610c1590612452565b60405180910390fd5b60018160040160146101000a81548160ff0219169083151502179055508060010160009054906101000a900473ffffffffffffffffffffffffffffffffffffffff1673ffffffffffffffffffffffffffffffffffffffff166323b872dd303384600201546040518463ffffffff1660e01b8152600401610ca0939291906122bc565b600060405180830381600087803b158015610cba57600080fd5b505af1158015610cce573d6000803e3d6000fd5b5050505050600160008190555050565b600260005403610d23576040517f08c379a0000000000000000000000000000000000000000000000000000000008152600401610d1a906120cf565b60405180910390fd5b600260008190555060006004600084815260200190815260200160002090503373ffffffffffffffffffffffffffffffffffffffff168160040160009054906101000a900473ffffffffffffffffffffffffffffffffffffffff1673ffffffffffffffffffffffffffffffffffffffff1614610dd4576040517f08c379a0000000000000000000000000000000000000000000000000000000008152600401610dcb9061213b565b60405180910390fd5b600083118015610de657506001548311155b610e25576040517f08c379a0000000000000000000000000000000000000000000000000000000008152600401610e1c906121a7565b60405180910390fd5b8060040160149054906101000a900460ff1615610e77576040517f08c379a0000000000000000000000000000000000000000000000000000000008152600401610e6e90612452565b60405180910390fd5b60035482610e859190612262565b81600301819055503373ffffffffffffffffffffffffffffffffffffffff168160010160009054906101000a900473ffffffffffffffffffffffffffffffffffffffff1673ffffffffffffffffffffffffffffffffffffffff167f655a0cf9c8db81512be9a76dc1c5ae5380b8816ce6ad659cd61b715e2999d59a8360000154846002015486604051610f1a939291906122f3565b60405180910390a35060016000819055505050565b60046020528060005260406000206000915090508060000154908060010160009054906101000a900473ffffffffffffffffffffffffffffffffffffffff16908060020154908060030154908060040160009054906101000a900473ffffffffffffffffffffffffffffffffffffffff16908060040160149054906101000a900460ff1690806005018054610fc3906124a1565b80601f0160208091040260200160405190810160405280929190818152602001828054610fef906124a1565b801561103c5780601f106110115761010080835404028352916020019161103c565b820191906000526020600020905b81548152906001019060200180831161101f57829003601f168201915b5050505050905087565b600060647f00000000000000000000000000000000000000000000000000000000000000006064611077919061232a565b60046000858152602001908152602001600020600301546110989190612262565b6110a29190612501565b9050919050565b6002600054036110ee576040517f08c379a00000000000000000000000000000000000000000000000000000000081526004016110e5906120cf565b60405180910390fd5b6002600081905550600061110182611046565b9050600060046000848152602001908152602001600020905060008311801561112c57506001548311155b61116b576040517f08c379a0000000000000000000000000000000000000000000000000000000008152600401611162906121a7565b60405180910390fd5b813410156111ae576040517f08c379a00000000000000000000000000000000000000000000000000000000081526004016111a5906125a4565b60405180910390fd5b8060040160149054906101000a900460ff1615611200576040517f08c379a00000000000000000000000000000000000000000000000000000000081526004016111f790612610565b60405180910390fd5b8060040160009054906101000a900473ffffffffffffffffffffffffffffffffffffffff1673ffffffffffffffffffffffffffffffffffffffff166108fc82600301549081150290604051600060405180830381858888f1935050505015801561126e573d6000803e3d6000fd5b507f000000000000000000000000000000000000000000000000000000000000000073ffffffffffffffffffffffffffffffffffffffff166108fc8260030154846112b99190612630565b9081150290604051600060405180830381858888f193505050501580156112e4573d6000803e3d6000fd5b5060018160040160146101000a81548160ff0219169083151502179055508060010160009054906101000a900473ffffffffffffffffffffffffffffffffffffffff1673ffffffffffffffffffffffffffffffffffffffff166323b872dd303384600201546040518463ffffffff1660e01b8152600401611367939291906122bc565b600060405180830381600087803b15801561138157600080fd5b505af1158015611395573d6000803e3d6000fd5b50505050338160040160006101000a81548173ffffffffffffffffffffffffffffffffffffffff021916908373ffffffffffffffffffffffffffffffffffffffff1602179055503373ffffffffffffffffffffffffffffffffffffffff168160040160009054906101000a900473ffffffffffffffffffffffffffffffffffffffff1673ffffffffffffffffffffffffffffffffffffffff168260010160009054906101000a900473ffffffffffffffffffffffffffffffffffffffff1673ffffffffffffffffffffffffffffffffffffffff167f8b4c9c8a607d67b321582dd8461041b1dc2ceeca70c8b7f37f8e02095cf2e76d86856002015486600301546040516114a4939291906122f3565b60405180910390a45050600160008190555050565b60025481565b600660205281600052604060002081815481106114db57600080fd5b906000526020600020016000915091509054906101000a900473ffffffffffffffffffffffffffffffffffffffff1681565b600260005403611552576040517f08c379a0000000000000000000000000000000000000000000000000000000008152600401611549906120cf565b60405180910390fd5b60026000819055506000821161159d576040517f08c379a0000000000000000000000000000000000000000000000000000000008152600401611594906126b0565b60405180910390fd5b600160008154809291906115b0906123be565b91905055506000600354836115c59190612262565b90508473ffffffffffffffffffffffffffffffffffffffff166323b872dd3330876040518463ffffffff1660e01b8152600401611604939291906122bc565b600060405180830381600087803b15801561161e57600080fd5b505af1158015611632573d6000803e3d6000fd5b505050506040518060e0016040528060015481526020018673ffffffffffffffffffffffffffffffffffffffff1681526020018581526020018281526020013373ffffffffffffffffffffffffffffffffffffffff168152602001600015158152602001838152506004600060015481526020019081526020016000206000820151816000015560208201518160010160006101000a81548173ffffffffffffffffffffffffffffffffffffffff021916908373ffffffffffffffffffffffffffffffffffffffff160217905550604082015181600201556060820151816003015560808201518160040160006101000a81548173ffffffffffffffffffffffffffffffffffffffff021916908373ffffffffffffffffffffffffffffffffffffffff16021790555060a08201518160040160146101000a81548160ff02191690831515021790555060c0820151816005019080519060200190611797929190611920565b509050503373ffffffffffffffffffffffffffffffffffffffff168573ffffffffffffffffffffffffffffffffffffffff167f655a0cf9c8db81512be9a76dc1c5ae5380b8816ce6ad659cd61b715e2999d59a60015487856040516117fe939291906122f3565b60405180910390a350600160008190555050505050565b60056020528060005260406000206000915090508060000154908060010160009054906101000a900473ffffffffffffffffffffffffffffffffffffffff16908060020160009054906101000a900473ffffffffffffffffffffffffffffffffffffffff16908060020160149054906101000a900460ff169080600301805461189d906124a1565b80601f01602080910402602001604051908101604052809291908181526020018280546118c9906124a1565b80156119165780601f106118eb57610100808354040283529160200191611916565b820191906000526020600020905b8154815290600101906020018083116118f957829003601f168201915b5050505050905085565b82805461192c906124a1565b90600052602060002090601f01602090048101928261194e5760008555611995565b82601f1061196757805160ff1916838001178555611995565b82800160010185558215611995579182015b82811115611994578251825591602001919060010190611979565b5b5090506119a291906119a6565b5090565b5b808211156119bf5760008160009055506001016119a7565b5090565b6000604051905090565b600080fd5b600080fd5b600061ffff82169050919050565b6119ee816119d7565b81146119f957600080fd5b50565b600081359050611a0b816119e5565b92915050565b600060208284031215611a2757611a266119cd565b5b6000611a35848285016119fc565b91505092915050565b600073ffffffffffffffffffffffffffffffffffffffff82169050919050565b6000611a6982611a3e565b9050919050565b611a7981611a5e565b82525050565b6000602082019050611a946000830184611a70565b92915050565b6000819050919050565b611aad81611a9a565b82525050565b6000602082019050611ac86000830184611aa4565b92915050565b611ad781611a9a565b8114611ae257600080fd5b50565b600081359050611af481611ace565b92915050565b60008060408385031215611b1157611b106119cd565b5b6000611b1f85828601611ae5565b9250506020611b3085828601611ae5565b9150509250929050565b6000611b4582611a3e565b9050919050565b611b5581611b3a565b82525050565b6000602082019050611b706000830184611b4c565b92915050565b611b7f81611a5e565b8114611b8a57600080fd5b50565b600081359050611b9c81611b76565b92915050565b600080fd5b600080fd5b6000601f19601f8301169050919050565b7f4e487b7100000000000000000000000000000000000000000000000000000000600052604160045260246000fd5b611bf582611bac565b810181811067ffffffffffffffff82111715611c1457611c13611bbd565b5b80604052505050565b6000611c276119c3565b9050611c338282611bec565b919050565b600067ffffffffffffffff821115611c5357611c52611bbd565b5b611c5c82611bac565b9050602081019050919050565b82818337600083830152505050565b6000611c8b611c8684611c38565b611c1d565b905082815260208101848484011115611ca757611ca6611ba7565b5b611cb2848285611c69565b509392505050565b600082601f830112611ccf57611cce611ba2565b5b8135611cdf848260208601611c78565b91505092915050565b60008115159050919050565b611cfd81611ce8565b8114611d0857600080fd5b50565b600081359050611d1a81611cf4565b92915050565b600080600060608486031215611d3957611d386119cd565b5b6000611d4786828701611b8d565b935050602084013567ffffffffffffffff811115611d6857611d676119d2565b5b611d7486828701611cba565b9250506040611d8586828701611d0b565b9150509250925092565b600060208284031215611da557611da46119cd565b5b6000611db384828501611ae5565b91505092915050565b6000819050919050565b6000611de1611ddc611dd784611a3e565b611dbc565b611a3e565b9050919050565b6000611df382611dc6565b9050919050565b6000611e0582611de8565b9050919050565b611e1581611dfa565b82525050565b611e2481611ce8565b82525050565b600081519050919050565b600082825260208201905092915050565b60005b83811015611e64578082015181840152602081019050611e49565b83811115611e73576000848401525b50505050565b6000611e8482611e2a565b611e8e8185611e35565b9350611e9e818560208601611e46565b611ea781611bac565b840191505092915050565b600060e082019050611ec7600083018a611aa4565b611ed46020830189611e0c565b611ee16040830188611aa4565b611eee6060830187611aa4565b611efb6080830186611b4c565b611f0860a0830185611e1b565b81810360c0830152611f1a8184611e79565b905098975050505050505050565b60008060408385031215611f3f57611f3e6119cd565b5b6000611f4d85828601611b8d565b9250506020611f5e85828601611ae5565b9150509250929050565b6000611f7382611a5e565b9050919050565b611f8381611f68565b8114611f8e57600080fd5b50565b600081359050611fa081611f7a565b92915050565b60008060008060808587031215611fc057611fbf6119cd565b5b6000611fce87828801611f91565b9450506020611fdf87828801611ae5565b9350506040611ff087828801611ae5565b925050606085013567ffffffffffffffff811115612011576120106119d2565b5b61201d87828801611cba565b91505092959194509250565b600060a08201905061203e6000830188611aa4565b61204b6020830187611b4c565b6120586040830186611a70565b6120656060830185611e1b565b81810360808301526120778184611e79565b90509695505050505050565b7f5265656e7472616e637947756172643a207265656e7472616e742063616c6c00600082015250565b60006120b9601f83611e35565b91506120c482612083565b602082019050919050565b600060208201905081810360008301526120e8816120ac565b9050919050565b7f596f7520617265206e6f7420746865206f776e6572206f6620746865204e4654600082015250565b6000612125602083611e35565b9150612130826120ef565b602082019050919050565b6000602082019050818103600083015261215481612118565b9050919050565b7f6974656d20646f65736e74206578697374730000000000000000000000000000600082015250565b6000612191601283611e35565b915061219c8261215b565b602082019050919050565b600060208201905081810360008301526121c081612184565b9050919050565b7f6974656d20616c7265616479206f6e20746865206d61726b6574706c61636500600082015250565b60006121fd601f83611e35565b9150612208826121c7565b602082019050919050565b6000602082019050818103600083015261222c816121f0565b9050919050565b7f4e487b7100000000000000000000000000000000000000000000000000000000600052601160045260246000fd5b600061226d82611a9a565b915061227883611a9a565b9250817fffffffffffffffffffffffffffffffffffffffffffffffffffffffffffffffff04831182151516156122b1576122b0612233565b5b828202905092915050565b60006060820190506122d16000830186611a70565b6122de6020830185611a70565b6122eb6040830184611aa4565b949350505050565b60006060820190506123086000830186611aa4565b6123156020830185611aa4565b6123226040830184611aa4565b949350505050565b600061233582611a9a565b915061234083611a9a565b9250827fffffffffffffffffffffffffffffffffffffffffffffffffffffffffffffffff0382111561237557612374612233565b5b828201905092915050565b60006060820190506123956000830186611aa4565b6123a26020830185611e1b565b81810360408301526123b48184611e79565b9050949350505050565b60006123c982611a9a565b91507fffffffffffffffffffffffffffffffffffffffffffffffffffffffffffffffff82036123fb576123fa612233565b5b600182019050919050565b7f6974656d206e6f74206f6e20746865206d61726b6574706c6163650000000000600082015250565b600061243c601b83611e35565b915061244782612406565b602082019050919050565b6000602082019050818103600083015261246b8161242f565b9050919050565b7f4e487b7100000000000000000000000000000000000000000000000000000000600052602260045260246000fd5b600060028204905060018216806124b957607f821691505b6020821081036124cc576124cb612472565b5b50919050565b7f4e487b7100000000000000000000000000000000000000000000000000000000600052601260045260246000fd5b600061250c82611a9a565b915061251783611a9a565b925082612527576125266124d2565b5b828204905092915050565b7f6e6f7420656e6f75676820657468657220746f20636f766572206974656d207060008201527f7269636520616e64206d61726b65742066656500000000000000000000000000602082015250565b600061258e603383611e35565b915061259982612532565b604082019050919050565b600060208201905081810360008301526125bd81612581565b9050919050565b7f6974656d20616c726561647920736f6c64000000000000000000000000000000600082015250565b60006125fa601183611e35565b9150612605826125c4565b602082019050919050565b60006020820190508181036000830152612629816125ed565b9050919050565b600061263b82611a9a565b915061264683611a9a565b92508282101561265957612658612233565b5b828203905092915050565b7f7072696365206d7573742062652067726561746572207468616e207a65726f00600082015250565b600061269a601f83611e35565b91506126a582612664565b602082019050919050565b600060208201905081810360008301526126c98161268d565b905091905056fea2646970667358221220a475442a74eb95f8498b4eeea482d7754bd21cb93469716657ef45510d060d2a64736f6c634300080d0033",
  "linkReferences": {},
  "deployedLinkReferences": {}
}