{
  "_format": "hh-sol-artifact-1",
  "contractName": "Marketplace",
  "sourceName": "contracts/Marketplace.sol",
  "abi": [
    {
      "inputs": [
        {
          "internalType": "uint256",
          "name": "_feePercent",
          "type": "uint256"
        }
      ],
      "stateMutability": "nonpayable",
      "type": "constructor"
    },
    {
      "anonymous": false,
      "inputs": [
        {
          "indexed": false,
          "internalType": "uint256",
          "name": "itemId",
          "type": "uint256"
        },
        {
          "indexed": true,
          "internalType": "address",
          "name": "nft",
          "type": "address"
        },
        {
          "indexed": false,
          "internalType": "uint256",
          "name": "tokenId",
          "type": "uint256"
        },
        {
          "indexed": false,
          "internalType": "uint256",
          "name": "price",
          "type": "uint256"
        },
        {
          "indexed": true,
          "internalType": "address",
          "name": "seller",
          "type": "address"
        },
        {
          "indexed": true,
          "internalType": "address",
          "name": "buyer",
          "type": "address"
        }
      ],
      "name": "Bought",
      "type": "event"
    },
    {
      "anonymous": false,
      "inputs": [
        {
          "indexed": false,
          "internalType": "uint256",
          "name": "collectionId",
          "type": "uint256"
        },
        {
          "indexed": true,
          "internalType": "address",
          "name": "owner",
          "type": "address"
        },
        {
          "indexed": true,
          "internalType": "address",
          "name": "collectionAddress",
          "type": "address"
        },
        {
          "indexed": false,
          "internalType": "bool",
          "name": "isSFT",
          "type": "bool"
        },
        {
          "indexed": false,
          "internalType": "string",
          "name": "uri",
          "type": "string"
        }
      ],
      "name": "Collections",
      "type": "event"
    },
    {
      "anonymous": false,
      "inputs": [
        {
          "indexed": false,
          "internalType": "uint256",
          "name": "itemId",
          "type": "uint256"
        },
        {
          "indexed": true,
          "internalType": "address",
          "name": "nft",
          "type": "address"
        },
        {
          "indexed": false,
          "internalType": "uint256",
          "name": "collectionId",
          "type": "uint256"
        },
        {
          "indexed": false,
          "internalType": "uint256",
          "name": "tokenId",
          "type": "uint256"
        },
        {
          "indexed": false,
          "internalType": "uint256",
          "name": "price",
          "type": "uint256"
        },
        {
          "indexed": true,
          "internalType": "address",
          "name": "seller",
          "type": "address"
        }
      ],
      "name": "Offered",
      "type": "event"
    },
    {
      "inputs": [
        {
          "internalType": "address",
          "name": "_collectionAddress",
          "type": "address"
        },
        {
          "internalType": "string",
          "name": "_uri",
          "type": "string"
        },
        {
          "internalType": "bool",
          "name": "_isSFT",
          "type": "bool"
        }
      ],
      "name": "addCollection",
      "outputs": [],
      "stateMutability": "nonpayable",
      "type": "function"
    },
    {
      "inputs": [
        {
          "internalType": "uint256",
          "name": "_itemId",
          "type": "uint256"
        },
        {
          "internalType": "uint256",
          "name": "_newPrice",
          "type": "uint256"
        }
      ],
      "name": "changePrice",
      "outputs": [],
      "stateMutability": "payable",
      "type": "function"
    },
    {
      "inputs": [],
      "name": "collectionCount",
      "outputs": [
        {
          "internalType": "uint256",
          "name": "",
          "type": "uint256"
        }
      ],
      "stateMutability": "view",
      "type": "function"
    },
    {
      "inputs": [
        {
          "internalType": "uint256",
          "name": "",
          "type": "uint256"
        }
      ],
      "name": "collections",
      "outputs": [
        {
          "internalType": "uint256",
          "name": "collectionId",
          "type": "uint256"
        },
        {
          "internalType": "address payable",
          "name": "owner",
          "type": "address"
        },
        {
          "internalType": "address",
          "name": "collectionAddress",
          "type": "address"
        },
        {
          "internalType": "bool",
          "name": "sft",
          "type": "bool"
        },
        {
          "internalType": "string",
          "name": "uri",
          "type": "string"
        }
      ],
      "stateMutability": "view",
      "type": "function"
    },
    {
      "inputs": [
        {
          "internalType": "address",
          "name": "",
          "type": "address"
        },
        {
          "internalType": "uint256",
          "name": "",
          "type": "uint256"
        }
      ],
      "name": "collectionsByArtist",
      "outputs": [
        {
          "internalType": "address",
          "name": "",
          "type": "address"
        }
      ],
      "stateMutability": "view",
      "type": "function"
    },
    {
      "inputs": [],
      "name": "feeAccount",
      "outputs": [
        {
          "internalType": "address payable",
          "name": "",
          "type": "address"
        }
      ],
      "stateMutability": "view",
      "type": "function"
    },
    {
      "inputs": [],
      "name": "feePercent",
      "outputs": [
        {
          "internalType": "uint256",
          "name": "",
          "type": "uint256"
        }
      ],
      "stateMutability": "view",
      "type": "function"
    },
    {
      "inputs": [
        {
          "internalType": "uint256",
          "name": "_id",
          "type": "uint256"
        }
      ],
      "name": "getCollection",
      "outputs": [
        {
          "internalType": "address",
          "name": "",
          "type": "address"
        }
      ],
      "stateMutability": "view",
      "type": "function"
    },
    {
      "inputs": [],
      "name": "getCollectionId",
      "outputs": [
        {
          "internalType": "uint256",
          "name": "",
          "type": "uint256"
        }
      ],
      "stateMutability": "view",
      "type": "function"
    },
    {
      "inputs": [
        {
          "internalType": "uint256",
          "name": "_itemId",
          "type": "uint256"
        }
      ],
      "name": "getTotalPrice",
      "outputs": [
        {
          "internalType": "uint256",
          "name": "",
          "type": "uint256"
        }
      ],
      "stateMutability": "view",
      "type": "function"
    },
    {
      "inputs": [],
      "name": "itemCount",
      "outputs": [
        {
          "internalType": "uint256",
          "name": "",
          "type": "uint256"
        }
      ],
      "stateMutability": "view",
      "type": "function"
    },
    {
      "inputs": [
        {
          "internalType": "uint256",
          "name": "",
          "type": "uint256"
        }
      ],
      "name": "items",
      "outputs": [
        {
          "internalType": "uint256",
          "name": "itemId",
          "type": "uint256"
        },
        {
          "internalType": "uint256",
          "name": "tokenId",
          "type": "uint256"
        },
        {
          "internalType": "uint256",
          "name": "collectionId",
          "type": "uint256"
        },
        {
          "internalType": "uint256",
          "name": "price",
          "type": "uint256"
        },
        {
          "internalType": "uint256",
          "name": "amount",
          "type": "uint256"
        },
        {
          "internalType": "contract NFT",
          "name": "nft",
          "type": "address"
        },
        {
          "internalType": "address payable",
          "name": "owner",
          "type": "address"
        },
        {
          "internalType": "bool",
          "name": "sold",
          "type": "bool"
        },
        {
          "internalType": "bool",
          "name": "isSFT",
          "type": "bool"
        },
        {
          "internalType": "string",
          "name": "uri",
          "type": "string"
        }
      ],
      "stateMutability": "view",
      "type": "function"
    },
    {
      "inputs": [
        {
          "internalType": "uint256",
          "name": "_tokenId",
          "type": "uint256"
        },
        {
          "internalType": "uint256",
          "name": "_collectionId",
          "type": "uint256"
        },
        {
          "internalType": "uint256",
          "name": "_price",
          "type": "uint256"
        },
        {
          "internalType": "contract NFT",
          "name": "_nft",
          "type": "address"
        },
        {
          "internalType": "string",
          "name": "_uri",
          "type": "string"
        }
      ],
      "name": "makeItem",
      "outputs": [],
      "stateMutability": "nonpayable",
      "type": "function"
    },
    {
      "inputs": [
        {
          "internalType": "uint256",
          "name": "_tokenId",
          "type": "uint256"
        },
        {
          "internalType": "uint256",
          "name": "_collectionId",
          "type": "uint256"
        },
        {
          "internalType": "uint16",
          "name": "_amount",
          "type": "uint16"
        },
        {
          "internalType": "uint256",
          "name": "_price",
          "type": "uint256"
        },
        {
          "internalType": "contract NFT",
          "name": "_nft",
          "type": "address"
        },
        {
          "internalType": "string",
          "name": "_uri",
          "type": "string"
        }
      ],
      "name": "makeItemSFT",
      "outputs": [],
      "stateMutability": "nonpayable",
      "type": "function"
    },
    {
      "inputs": [
        {
          "internalType": "address",
          "name": "",
          "type": "address"
        },
        {
          "internalType": "address",
          "name": "",
          "type": "address"
        },
        {
          "internalType": "uint256",
          "name": "",
          "type": "uint256"
        },
        {
          "internalType": "bytes",
          "name": "",
          "type": "bytes"
        }
      ],
      "name": "onERC721Received",
      "outputs": [
        {
          "internalType": "bytes4",
          "name": "",
          "type": "bytes4"
        }
      ],
      "stateMutability": "nonpayable",
      "type": "function"
    },
    {
      "inputs": [
        {
          "internalType": "uint256",
          "name": "_itemId",
          "type": "uint256"
        }
      ],
      "name": "purchaseItem",
      "outputs": [],
      "stateMutability": "payable",
      "type": "function"
    },
    {
      "inputs": [],
      "name": "rate",
      "outputs": [
        {
          "internalType": "uint256",
          "name": "",
          "type": "uint256"
        }
      ],
      "stateMutability": "view",
      "type": "function"
    },
    {
      "inputs": [
        {
          "internalType": "uint256",
          "name": "_itemId",
          "type": "uint256"
        }
      ],
      "name": "removeFromMarketplace",
      "outputs": [],
      "stateMutability": "payable",
      "type": "function"
    },
    {
      "inputs": [
        {
          "internalType": "uint256",
          "name": "_itemId",
          "type": "uint256"
        },
        {
          "internalType": "uint256",
          "name": "_price",
          "type": "uint256"
        }
      ],
      "name": "sellItem",
      "outputs": [],
      "stateMutability": "payable",
      "type": "function"
    }
  ],
  "bytecode": "0x60c0604052670de0b6b3a76400006003553480156200001d57600080fd5b5060405162003049380380620030498339818101604052810190620000439190620000ce565b60016000819055503373ffffffffffffffffffffffffffffffffffffffff1660808173ffffffffffffffffffffffffffffffffffffffff16815250508060a081815250505062000100565b600080fd5b6000819050919050565b620000a88162000093565b8114620000b457600080fd5b50565b600081519050620000c8816200009d565b92915050565b600060208284031215620000e757620000e66200008e565b5b6000620000f784828501620000b7565b91505092915050565b60805160a051612f156200013460003960008181610bd40152611854015260008181610ba00152611a2c0152612f156000f3fe6080604052600436106101145760003560e01c806399be08ea116100a0578063ca7dd37511610064578063ca7dd3751461037f578063d38ea5bf146103bc578063d57f966b146103d8578063d6fa98f514610403578063fdbda0ec1461044057610114565b806399be08ea146102af578063ab38cb56146102d8578063ac23c08c146102f4578063b3de019c1461031d578063bfb231d21461033957610114565b80635a1f3c28116100e75780635a1f3c28146101c657806365e17c9d146102035780636bfb0d011461022e5780637c8e7bfe146102595780637fd6f15c1461028457610114565b8063150b7a02146101195780632c4e722e146101565780632d923561146101815780633eb12c021461019d575b600080fd5b34801561012557600080fd5b50610140600480360381019061013b9190612080565b610481565b60405161014d919061213e565b60405180910390f35b34801561016257600080fd5b5061016b610495565b6040516101789190612168565b60405180910390f35b61019b60048036038101906101969190612183565b61049b565b005b3480156101a957600080fd5b506101c460048036038101906101bf91906122dc565b6107cd565b005b3480156101d257600080fd5b506101ed60048036038101906101e89190612385565b610b5e565b6040516101fa91906123c1565b60405180910390f35b34801561020f57600080fd5b50610218610b9e565b60405161022591906123fd565b60405180910390f35b34801561023a57600080fd5b50610243610bc2565b6040516102509190612168565b60405180910390f35b34801561026557600080fd5b5061026e610bc8565b60405161027b9190612168565b60405180910390f35b34801561029057600080fd5b50610299610bd2565b6040516102a69190612168565b60405180910390f35b3480156102bb57600080fd5b506102d660048036038101906102d19190612450565b610bf6565b005b6102f260048036038101906102ed9190612385565b610eb7565b005b34801561030057600080fd5b5061031b600480360381019061031691906124bf565b611134565b005b61033760048036038101906103329190612183565b6114c1565b005b34801561034557600080fd5b50610360600480360381019061035b9190612385565b611718565b6040516103769a9998979695949392919061264c565b60405180910390f35b34801561038b57600080fd5b506103a660048036038101906103a19190612385565b61184e565b6040516103b39190612168565b60405180910390f35b6103d660048036038101906103d19190612385565b6118b1565b005b3480156103e457600080fd5b506103ed611c90565b6040516103fa9190612168565b60405180910390f35b34801561040f57600080fd5b5061042a600480360381019061042591906126ef565b611c96565b60405161043791906123c1565b60405180910390f35b34801561044c57600080fd5b5061046760048036038101906104629190612385565b611ce4565b60405161047895949392919061272f565b60405180910390f35b600063150b7a0260e01b9050949350505050565b60035481565b6002600054036104e0576040517f08c379a00000000000000000000000000000000000000000000000000000000081526004016104d7906127d5565b60405180910390fd5b600260008190555060006004600084815260200190815260200160002090503373ffffffffffffffffffffffffffffffffffffffff168160060160009054906101000a900473ffffffffffffffffffffffffffffffffffffffff1673ffffffffffffffffffffffffffffffffffffffff1614610591576040517f08c379a000000000000000000000000000000000000000000000000000000000815260040161058890612841565b60405180910390fd5b6000831180156105a357506001548311155b6105e2576040517f08c379a00000000000000000000000000000000000000000000000000000000081526004016105d9906128ad565b60405180910390fd5b8060060160149054906101000a900460ff16610633576040517f08c379a000000000000000000000000000000000000000000000000000000000815260040161062a90612919565b60405180910390fd5b60008160060160146101000a81548160ff0219169083151502179055506003548261065e9190612968565b81600301819055508060050160009054906101000a900473ffffffffffffffffffffffffffffffffffffffff1673ffffffffffffffffffffffffffffffffffffffff166323b872dd8260060160009054906101000a900473ffffffffffffffffffffffffffffffffffffffff163084600101546040518463ffffffff1660e01b81526004016106ef939291906129e3565b600060405180830381600087803b15801561070957600080fd5b505af115801561071d573d6000803e3d6000fd5b505050503373ffffffffffffffffffffffffffffffffffffffff168160050160009054906101000a900473ffffffffffffffffffffffffffffffffffffffff1673ffffffffffffffffffffffffffffffffffffffff167f8a7207dec41e68d1fbb358baac1c6ead9b1741d156d9bb551ae56d77c4a04e9383600001548460020154856001015486600301546040516107b89493929190612a1a565b60405180910390a35060016000819055505050565b600260005403610812576040517f08c379a0000000000000000000000000000000000000000000000000000000008152600401610809906127d5565b60405180910390fd5b60026000819055506000831161085d576040517f08c379a000000000000000000000000000000000000000000000000000000000815260040161085490612aab565b60405180910390fd5b3373ffffffffffffffffffffffffffffffffffffffff166005600087815260200190815260200160002060010160009054906101000a900473ffffffffffffffffffffffffffffffffffffffff1673ffffffffffffffffffffffffffffffffffffffff1614610901576040517f08c379a00000000000000000000000000000000000000000000000000000000081526004016108f890612b17565b60405180910390fd5b6001600081548092919061091490612b37565b91905055506000600354846109299190612968565b905060405180610140016040528060015481526020018881526020018781526020018281526020018661ffff1681526020018473ffffffffffffffffffffffffffffffffffffffff1681526020013373ffffffffffffffffffffffffffffffffffffffff16815260200160001515815260200160011515815260200183815250600460006001548152602001908152602001600020600082015181600001556020820151816001015560408201518160020155606082015181600301556080820151816004015560a08201518160050160006101000a81548173ffffffffffffffffffffffffffffffffffffffff021916908373ffffffffffffffffffffffffffffffffffffffff16021790555060c08201518160060160006101000a81548173ffffffffffffffffffffffffffffffffffffffff021916908373ffffffffffffffffffffffffffffffffffffffff16021790555060e08201518160060160146101000a81548160ff0219169083151502179055506101008201518160060160156101000a81548160ff021916908315150217905550610120820151816007019080519060200190610adc929190611def565b509050503373ffffffffffffffffffffffffffffffffffffffff168373ffffffffffffffffffffffffffffffffffffffff167f8a7207dec41e68d1fbb358baac1c6ead9b1741d156d9bb551ae56d77c4a04e93600154898b86604051610b459493929190612a1a565b60405180910390a3506001600081905550505050505050565b60006005600083815260200190815260200160002060020160009054906101000a900473ffffffffffffffffffffffffffffffffffffffff169050919050565b7f000000000000000000000000000000000000000000000000000000000000000081565b60015481565b6000600254905090565b7f000000000000000000000000000000000000000000000000000000000000000081565b600260005403610c3b576040517f08c379a0000000000000000000000000000000000000000000000000000000008152600401610c32906127d5565b60405180910390fd5b6002600081905550600660003373ffffffffffffffffffffffffffffffffffffffff1673ffffffffffffffffffffffffffffffffffffffff168152602001908152602001600020839080600181540180825580915050600190039060005260206000200160009091909190916101000a81548173ffffffffffffffffffffffffffffffffffffffff021916908373ffffffffffffffffffffffffffffffffffffffff16021790555060026000815480929190610cf690612b37565b91905055506040518060a0016040528060025481526020013373ffffffffffffffffffffffffffffffffffffffff1681526020018473ffffffffffffffffffffffffffffffffffffffff1681526020018215158152602001838152506005600060025481526020019081526020016000206000820151816000015560208201518160010160006101000a81548173ffffffffffffffffffffffffffffffffffffffff021916908373ffffffffffffffffffffffffffffffffffffffff16021790555060408201518160020160006101000a81548173ffffffffffffffffffffffffffffffffffffffff021916908373ffffffffffffffffffffffffffffffffffffffff16021790555060608201518160020160146101000a81548160ff0219169083151502179055506080820151816003019080519060200190610e3b929190611def565b509050508273ffffffffffffffffffffffffffffffffffffffff163373ffffffffffffffffffffffffffffffffffffffff167fd1d750a35b22bdfce91243b18bbd1f334e3f5028231afbf95fca42ef623cf1336002548486604051610ea293929190612b7f565b60405180910390a36001600081905550505050565b600260005403610efc576040517f08c379a0000000000000000000000000000000000000000000000000000000008152600401610ef3906127d5565b60405180910390fd5b600260008190555060006004600083815260200190815260200160002090503373ffffffffffffffffffffffffffffffffffffffff168160060160009054906101000a900473ffffffffffffffffffffffffffffffffffffffff1673ffffffffffffffffffffffffffffffffffffffff1614610fad576040517f08c379a0000000000000000000000000000000000000000000000000000000008152600401610fa490612841565b60405180910390fd5b600082118015610fbf57506001548211155b610ffe576040517f08c379a0000000000000000000000000000000000000000000000000000000008152600401610ff5906128ad565b60405180910390fd5b8060060160149054906101000a900460ff1615611050576040517f08c379a000000000000000000000000000000000000000000000000000000000815260040161104790612c09565b60405180910390fd5b8060050160009054906101000a900473ffffffffffffffffffffffffffffffffffffffff1673ffffffffffffffffffffffffffffffffffffffff166323b872dd308360060160009054906101000a900473ffffffffffffffffffffffffffffffffffffffff1684600101546040518463ffffffff1660e01b81526004016110d993929190612c29565b600060405180830381600087803b1580156110f357600080fd5b505af1158015611107573d6000803e3d6000fd5b5050505060018160060160146101000a81548160ff02191690831515021790555050600160008190555050565b600260005403611179576040517f08c379a0000000000000000000000000000000000000000000000000000000008152600401611170906127d5565b60405180910390fd5b6002600081905550600083116111c4576040517f08c379a00000000000000000000000000000000000000000000000000000000081526004016111bb90612aab565b60405180910390fd5b3373ffffffffffffffffffffffffffffffffffffffff166005600086815260200190815260200160002060010160009054906101000a900473ffffffffffffffffffffffffffffffffffffffff1673ffffffffffffffffffffffffffffffffffffffff1614611268576040517f08c379a000000000000000000000000000000000000000000000000000000000815260040161125f90612b17565b60405180910390fd5b6001600081548092919061127b90612b37565b91905055506000600354846112909190612968565b90506040518061014001604052806001548152602001878152602001868152602001828152602001600181526020018473ffffffffffffffffffffffffffffffffffffffff1681526020013373ffffffffffffffffffffffffffffffffffffffff16815260200160001515815260200160001515815260200183815250600460006001548152602001908152602001600020600082015181600001556020820151816001015560408201518160020155606082015181600301556080820151816004015560a08201518160050160006101000a81548173ffffffffffffffffffffffffffffffffffffffff021916908373ffffffffffffffffffffffffffffffffffffffff16021790555060c08201518160060160006101000a81548173ffffffffffffffffffffffffffffffffffffffff021916908373ffffffffffffffffffffffffffffffffffffffff16021790555060e08201518160060160146101000a81548160ff0219169083151502179055506101008201518160060160156101000a81548160ff021916908315150217905550610120820151816007019080519060200190611440929190611def565b509050503373ffffffffffffffffffffffffffffffffffffffff168373ffffffffffffffffffffffffffffffffffffffff167f8a7207dec41e68d1fbb358baac1c6ead9b1741d156d9bb551ae56d77c4a04e93600154888a866040516114a99493929190612a1a565b60405180910390a35060016000819055505050505050565b600260005403611506576040517f08c379a00000000000000000000000000000000000000000000000000000000081526004016114fd906127d5565b60405180910390fd5b600260008190555060006004600084815260200190815260200160002090503373ffffffffffffffffffffffffffffffffffffffff168160060160009054906101000a900473ffffffffffffffffffffffffffffffffffffffff1673ffffffffffffffffffffffffffffffffffffffff16146115b7576040517f08c379a00000000000000000000000000000000000000000000000000000000081526004016115ae90612841565b60405180910390fd5b6000831180156115c957506001548311155b611608576040517f08c379a00000000000000000000000000000000000000000000000000000000081526004016115ff906128ad565b60405180910390fd5b8060060160149054906101000a900460ff161561165a576040517f08c379a000000000000000000000000000000000000000000000000000000000815260040161165190612c09565b60405180910390fd5b600354826116689190612968565b81600301819055503373ffffffffffffffffffffffffffffffffffffffff168160050160009054906101000a900473ffffffffffffffffffffffffffffffffffffffff1673ffffffffffffffffffffffffffffffffffffffff167f8a7207dec41e68d1fbb358baac1c6ead9b1741d156d9bb551ae56d77c4a04e93836000015484600201548560010154876040516117039493929190612a1a565b60405180910390a35060016000819055505050565b60046020528060005260406000206000915090508060000154908060010154908060020154908060030154908060040154908060050160009054906101000a900473ffffffffffffffffffffffffffffffffffffffff16908060060160009054906101000a900473ffffffffffffffffffffffffffffffffffffffff16908060060160149054906101000a900460ff16908060060160159054906101000a900460ff16908060070180546117cb90612c8f565b80601f01602080910402602001604051908101604052809291908181526020018280546117f790612c8f565b80156118445780601f1061181957610100808354040283529160200191611844565b820191906000526020600020905b81548152906001019060200180831161182757829003601f168201915b505050505090508a565b600060647f0000000000000000000000000000000000000000000000000000000000000000606461187f9190612cc0565b60046000858152602001908152602001600020600301546118a09190612968565b6118aa9190612d45565b9050919050565b60006118bc8261184e565b905060006004600084815260200190815260200160002090506000831180156118e757506001548311155b611926576040517f08c379a000000000000000000000000000000000000000000000000000000000815260040161191d906128ad565b60405180910390fd5b81341015611969576040517f08c379a000000000000000000000000000000000000000000000000000000000815260040161196090612de8565b60405180910390fd5b8060060160149054906101000a900460ff16156119bb576040517f08c379a00000000000000000000000000000000000000000000000000000000081526004016119b290612e54565b60405180910390fd5b8060060160009054906101000a900473ffffffffffffffffffffffffffffffffffffffff1673ffffffffffffffffffffffffffffffffffffffff166108fc82600301549081150290604051600060405180830381858888f19350505050158015611a29573d6000803e3d6000fd5b507f000000000000000000000000000000000000000000000000000000000000000073ffffffffffffffffffffffffffffffffffffffff166108fc826003015484611a749190612e74565b9081150290604051600060405180830381858888f19350505050158015611a9f573d6000803e3d6000fd5b5060018160060160146101000a81548160ff0219169083151502179055508060050160009054906101000a900473ffffffffffffffffffffffffffffffffffffffff1673ffffffffffffffffffffffffffffffffffffffff166323b872dd8260060160009054906101000a900473ffffffffffffffffffffffffffffffffffffffff163384600101546040518463ffffffff1660e01b8152600401611b46939291906129e3565b600060405180830381600087803b158015611b6057600080fd5b505af1158015611b74573d6000803e3d6000fd5b50505050338160060160006101000a81548173ffffffffffffffffffffffffffffffffffffffff021916908373ffffffffffffffffffffffffffffffffffffffff1602179055503373ffffffffffffffffffffffffffffffffffffffff168160060160009054906101000a900473ffffffffffffffffffffffffffffffffffffffff1673ffffffffffffffffffffffffffffffffffffffff168260050160009054906101000a900473ffffffffffffffffffffffffffffffffffffffff1673ffffffffffffffffffffffffffffffffffffffff167f8b4c9c8a607d67b321582dd8461041b1dc2ceeca70c8b7f37f8e02095cf2e76d8685600101548660030154604051611c8393929190612ea8565b60405180910390a4505050565b60025481565b60066020528160005260406000208181548110611cb257600080fd5b906000526020600020016000915091509054906101000a900473ffffffffffffffffffffffffffffffffffffffff1681565b60056020528060005260406000206000915090508060000154908060010160009054906101000a900473ffffffffffffffffffffffffffffffffffffffff16908060020160009054906101000a900473ffffffffffffffffffffffffffffffffffffffff16908060020160149054906101000a900460ff1690806003018054611d6c90612c8f565b80601f0160208091040260200160405190810160405280929190818152602001828054611d9890612c8f565b8015611de55780601f10611dba57610100808354040283529160200191611de5565b820191906000526020600020905b815481529060010190602001808311611dc857829003601f168201915b5050505050905085565b828054611dfb90612c8f565b90600052602060002090601f016020900481019282611e1d5760008555611e64565b82601f10611e3657805160ff1916838001178555611e64565b82800160010185558215611e64579182015b82811115611e63578251825591602001919060010190611e48565b5b509050611e719190611e75565b5090565b5b80821115611e8e576000816000905550600101611e76565b5090565b6000604051905090565b600080fd5b600080fd5b600073ffffffffffffffffffffffffffffffffffffffff82169050919050565b6000611ed182611ea6565b9050919050565b611ee181611ec6565b8114611eec57600080fd5b50565b600081359050611efe81611ed8565b92915050565b6000819050919050565b611f1781611f04565b8114611f2257600080fd5b50565b600081359050611f3481611f0e565b92915050565b600080fd5b600080fd5b6000601f19601f8301169050919050565b7f4e487b7100000000000000000000000000000000000000000000000000000000600052604160045260246000fd5b611f8d82611f44565b810181811067ffffffffffffffff82111715611fac57611fab611f55565b5b80604052505050565b6000611fbf611e92565b9050611fcb8282611f84565b919050565b600067ffffffffffffffff821115611feb57611fea611f55565b5b611ff482611f44565b9050602081019050919050565b82818337600083830152505050565b600061202361201e84611fd0565b611fb5565b90508281526020810184848401111561203f5761203e611f3f565b5b61204a848285612001565b509392505050565b600082601f83011261206757612066611f3a565b5b8135612077848260208601612010565b91505092915050565b6000806000806080858703121561209a57612099611e9c565b5b60006120a887828801611eef565b94505060206120b987828801611eef565b93505060406120ca87828801611f25565b925050606085013567ffffffffffffffff8111156120eb576120ea611ea1565b5b6120f787828801612052565b91505092959194509250565b60007fffffffff0000000000000000000000000000000000000000000000000000000082169050919050565b61213881612103565b82525050565b6000602082019050612153600083018461212f565b92915050565b61216281611f04565b82525050565b600060208201905061217d6000830184612159565b92915050565b6000806040838503121561219a57612199611e9c565b5b60006121a885828601611f25565b92505060206121b985828601611f25565b9150509250929050565b600061ffff82169050919050565b6121da816121c3565b81146121e557600080fd5b50565b6000813590506121f7816121d1565b92915050565b600061220882611ec6565b9050919050565b612218816121fd565b811461222357600080fd5b50565b6000813590506122358161220f565b92915050565b600067ffffffffffffffff82111561225657612255611f55565b5b61225f82611f44565b9050602081019050919050565b600061227f61227a8461223b565b611fb5565b90508281526020810184848401111561229b5761229a611f3f565b5b6122a6848285612001565b509392505050565b600082601f8301126122c3576122c2611f3a565b5b81356122d384826020860161226c565b91505092915050565b60008060008060008060c087890312156122f9576122f8611e9c565b5b600061230789828a01611f25565b965050602061231889828a01611f25565b955050604061232989828a016121e8565b945050606061233a89828a01611f25565b935050608061234b89828a01612226565b92505060a087013567ffffffffffffffff81111561236c5761236b611ea1565b5b61237889828a016122ae565b9150509295509295509295565b60006020828403121561239b5761239a611e9c565b5b60006123a984828501611f25565b91505092915050565b6123bb81611ec6565b82525050565b60006020820190506123d660008301846123b2565b92915050565b60006123e782611ea6565b9050919050565b6123f7816123dc565b82525050565b600060208201905061241260008301846123ee565b92915050565b60008115159050919050565b61242d81612418565b811461243857600080fd5b50565b60008135905061244a81612424565b92915050565b60008060006060848603121561246957612468611e9c565b5b600061247786828701611eef565b935050602084013567ffffffffffffffff81111561249857612497611ea1565b5b6124a4868287016122ae565b92505060406124b58682870161243b565b9150509250925092565b600080600080600060a086880312156124db576124da611e9c565b5b60006124e988828901611f25565b95505060206124fa88828901611f25565b945050604061250b88828901611f25565b935050606061251c88828901612226565b925050608086013567ffffffffffffffff81111561253d5761253c611ea1565b5b612549888289016122ae565b9150509295509295909350565b6000819050919050565b600061257b61257661257184611ea6565b612556565b611ea6565b9050919050565b600061258d82612560565b9050919050565b600061259f82612582565b9050919050565b6125af81612594565b82525050565b6125be81612418565b82525050565b600081519050919050565b600082825260208201905092915050565b60005b838110156125fe5780820151818401526020810190506125e3565b8381111561260d576000848401525b50505050565b600061261e826125c4565b61262881856125cf565b93506126388185602086016125e0565b61264181611f44565b840191505092915050565b600061014082019050612662600083018d612159565b61266f602083018c612159565b61267c604083018b612159565b612689606083018a612159565b6126966080830189612159565b6126a360a08301886125a6565b6126b060c08301876123ee565b6126bd60e08301866125b5565b6126cb6101008301856125b5565b8181036101208301526126de8184612613565b90509b9a5050505050505050505050565b6000806040838503121561270657612705611e9c565b5b600061271485828601611eef565b925050602061272585828601611f25565b9150509250929050565b600060a0820190506127446000830188612159565b61275160208301876123ee565b61275e60408301866123b2565b61276b60608301856125b5565b818103608083015261277d8184612613565b90509695505050505050565b7f5265656e7472616e637947756172643a207265656e7472616e742063616c6c00600082015250565b60006127bf601f836125cf565b91506127ca82612789565b602082019050919050565b600060208201905081810360008301526127ee816127b2565b9050919050565b7f596f7520617265206e6f7420746865206f776e6572206f6620746865204e4654600082015250565b600061282b6020836125cf565b9150612836826127f5565b602082019050919050565b6000602082019050818103600083015261285a8161281e565b9050919050565b7f6974656d20646f65736e74206578697374730000000000000000000000000000600082015250565b60006128976012836125cf565b91506128a282612861565b602082019050919050565b600060208201905081810360008301526128c68161288a565b9050919050565b7f6974656d20616c7265616479206f6e20746865206d61726b6574706c61636500600082015250565b6000612903601f836125cf565b915061290e826128cd565b602082019050919050565b60006020820190508181036000830152612932816128f6565b9050919050565b7f4e487b7100000000000000000000000000000000000000000000000000000000600052601160045260246000fd5b600061297382611f04565b915061297e83611f04565b9250817fffffffffffffffffffffffffffffffffffffffffffffffffffffffffffffffff04831182151516156129b7576129b6612939565b5b828202905092915050565b60006129cd82612582565b9050919050565b6129dd816129c2565b82525050565b60006060820190506129f860008301866129d4565b612a0560208301856123b2565b612a126040830184612159565b949350505050565b6000608082019050612a2f6000830187612159565b612a3c6020830186612159565b612a496040830185612159565b612a566060830184612159565b95945050505050565b7f7072696365206d7573742062652067726561746572207468616e207a65726f00600082015250565b6000612a95601f836125cf565b9150612aa082612a5f565b602082019050919050565b60006020820190508181036000830152612ac481612a88565b9050919050565b7f796f7520617265206e6f742074686520636f6c6c656374696f6e206f776e6572600082015250565b6000612b016020836125cf565b9150612b0c82612acb565b602082019050919050565b60006020820190508181036000830152612b3081612af4565b9050919050565b6000612b4282611f04565b91507fffffffffffffffffffffffffffffffffffffffffffffffffffffffffffffffff8203612b7457612b73612939565b5b600182019050919050565b6000606082019050612b946000830186612159565b612ba160208301856125b5565b8181036040830152612bb38184612613565b9050949350505050565b7f6974656d206e6f74206f6e20746865206d61726b6574706c6163650000000000600082015250565b6000612bf3601b836125cf565b9150612bfe82612bbd565b602082019050919050565b60006020820190508181036000830152612c2281612be6565b9050919050565b6000606082019050612c3e60008301866123b2565b612c4b60208301856129d4565b612c586040830184612159565b949350505050565b7f4e487b7100000000000000000000000000000000000000000000000000000000600052602260045260246000fd5b60006002820490506001821680612ca757607f821691505b602082108103612cba57612cb9612c60565b5b50919050565b6000612ccb82611f04565b9150612cd683611f04565b9250827fffffffffffffffffffffffffffffffffffffffffffffffffffffffffffffffff03821115612d0b57612d0a612939565b5b828201905092915050565b7f4e487b7100000000000000000000000000000000000000000000000000000000600052601260045260246000fd5b6000612d5082611f04565b9150612d5b83611f04565b925082612d6b57612d6a612d16565b5b828204905092915050565b7f6e6f7420656e6f75676820657468657220746f20636f766572206974656d207060008201527f7269636520616e64206d61726b65742066656500000000000000000000000000602082015250565b6000612dd26033836125cf565b9150612ddd82612d76565b604082019050919050565b60006020820190508181036000830152612e0181612dc5565b9050919050565b7f6974656d20616c726561647920736f6c64000000000000000000000000000000600082015250565b6000612e3e6011836125cf565b9150612e4982612e08565b602082019050919050565b60006020820190508181036000830152612e6d81612e31565b9050919050565b6000612e7f82611f04565b9150612e8a83611f04565b925082821015612e9d57612e9c612939565b5b828203905092915050565b6000606082019050612ebd6000830186612159565b612eca6020830185612159565b612ed76040830184612159565b94935050505056fea2646970667358221220ac821c15cbb1d2dfad0ed1713f10d281024d7466c56f094a943f38e70033ad3b64736f6c634300080d0033",
  "linkReferences": {},
  "deployedLinkReferences": {}
}