{
  "_format": "hh-sol-artifact-1",
  "contractName": "NFT",
  "sourceName": "contracts/NFT.sol",
  "abi": [
    {
      "inputs": [
        {
          "internalType": "string",
          "name": "_name",
          "type": "string"
        },
        {
          "internalType": "string",
          "name": "_symbol",
          "type": "string"
        },
        {
          "internalType": "string",
          "name": "_baseUri",
          "type": "string"
        }
      ],
      "stateMutability": "nonpayable",
      "type": "constructor"
    },
    {
      "anonymous": false,
      "inputs": [
        {
          "indexed": true,
          "internalType": "address",
          "name": "owner",
          "type": "address"
        },
        {
          "indexed": true,
          "internalType": "address",
          "name": "approved",
          "type": "address"
        },
        {
          "indexed": true,
          "internalType": "uint256",
          "name": "tokenId",
          "type": "uint256"
        }
      ],
      "name": "Approval",
      "type": "event"
    },
    {
      "anonymous": false,
      "inputs": [
        {
          "indexed": true,
          "internalType": "address",
          "name": "owner",
          "type": "address"
        },
        {
          "indexed": true,
          "internalType": "address",
          "name": "operator",
          "type": "address"
        },
        {
          "indexed": false,
          "internalType": "bool",
          "name": "approved",
          "type": "bool"
        }
      ],
      "name": "ApprovalForAll",
      "type": "event"
    },
    {
      "anonymous": false,
      "inputs": [
        {
          "indexed": true,
          "internalType": "address",
          "name": "previousOwner",
          "type": "address"
        },
        {
          "indexed": true,
          "internalType": "address",
          "name": "newOwner",
          "type": "address"
        }
      ],
      "name": "OwnershipTransferred",
      "type": "event"
    },
    {
      "anonymous": false,
      "inputs": [
        {
          "indexed": true,
          "internalType": "address",
          "name": "from",
          "type": "address"
        },
        {
          "indexed": true,
          "internalType": "address",
          "name": "to",
          "type": "address"
        },
        {
          "indexed": true,
          "internalType": "uint256",
          "name": "tokenId",
          "type": "uint256"
        }
      ],
      "name": "Transfer",
      "type": "event"
    },
    {
      "inputs": [
        {
          "internalType": "address",
          "name": "to",
          "type": "address"
        },
        {
          "internalType": "uint256",
          "name": "tokenId",
          "type": "uint256"
        }
      ],
      "name": "approve",
      "outputs": [],
      "stateMutability": "nonpayable",
      "type": "function"
    },
    {
      "inputs": [
        {
          "internalType": "address",
          "name": "owner",
          "type": "address"
        }
      ],
      "name": "balanceOf",
      "outputs": [
        {
          "internalType": "uint256",
          "name": "",
          "type": "uint256"
        }
      ],
      "stateMutability": "view",
      "type": "function"
    },
    {
      "inputs": [],
      "name": "baseURI",
      "outputs": [
        {
          "internalType": "string",
          "name": "",
          "type": "string"
        }
      ],
      "stateMutability": "view",
      "type": "function"
    },
    {
      "inputs": [
        {
          "internalType": "uint256",
          "name": "tokenId",
          "type": "uint256"
        }
      ],
      "name": "getApproved",
      "outputs": [
        {
          "internalType": "address",
          "name": "",
          "type": "address"
        }
      ],
      "stateMutability": "view",
      "type": "function"
    },
    {
      "inputs": [],
      "name": "getCount",
      "outputs": [
        {
          "internalType": "uint256",
          "name": "",
          "type": "uint256"
        }
      ],
      "stateMutability": "view",
      "type": "function"
    },
    {
      "inputs": [
        {
          "internalType": "address",
          "name": "owner",
          "type": "address"
        },
        {
          "internalType": "address",
          "name": "operator",
          "type": "address"
        }
      ],
      "name": "isApprovedForAll",
      "outputs": [
        {
          "internalType": "bool",
          "name": "",
          "type": "bool"
        }
      ],
      "stateMutability": "view",
      "type": "function"
    },
    {
      "inputs": [],
      "name": "mint",
      "outputs": [],
      "stateMutability": "nonpayable",
      "type": "function"
    },
    {
      "inputs": [],
      "name": "name",
      "outputs": [
        {
          "internalType": "string",
          "name": "",
          "type": "string"
        }
      ],
      "stateMutability": "view",
      "type": "function"
    },
    {
      "inputs": [],
      "name": "owner",
      "outputs": [
        {
          "internalType": "address",
          "name": "",
          "type": "address"
        }
      ],
      "stateMutability": "view",
      "type": "function"
    },
    {
      "inputs": [
        {
          "internalType": "uint256",
          "name": "tokenId",
          "type": "uint256"
        }
      ],
      "name": "ownerOf",
      "outputs": [
        {
          "internalType": "address",
          "name": "",
          "type": "address"
        }
      ],
      "stateMutability": "view",
      "type": "function"
    },
    {
      "inputs": [],
      "name": "renounceOwnership",
      "outputs": [],
      "stateMutability": "nonpayable",
      "type": "function"
    },
    {
      "inputs": [
        {
          "internalType": "address",
          "name": "from",
          "type": "address"
        },
        {
          "internalType": "address",
          "name": "to",
          "type": "address"
        },
        {
          "internalType": "uint256",
          "name": "tokenId",
          "type": "uint256"
        }
      ],
      "name": "safeTransferFrom",
      "outputs": [],
      "stateMutability": "nonpayable",
      "type": "function"
    },
    {
      "inputs": [
        {
          "internalType": "address",
          "name": "from",
          "type": "address"
        },
        {
          "internalType": "address",
          "name": "to",
          "type": "address"
        },
        {
          "internalType": "uint256",
          "name": "tokenId",
          "type": "uint256"
        },
        {
          "internalType": "bytes",
          "name": "_data",
          "type": "bytes"
        }
      ],
      "name": "safeTransferFrom",
      "outputs": [],
      "stateMutability": "nonpayable",
      "type": "function"
    },
    {
      "inputs": [
        {
          "internalType": "address",
          "name": "operator",
          "type": "address"
        },
        {
          "internalType": "bool",
          "name": "approved",
          "type": "bool"
        }
      ],
      "name": "setApprovalForAll",
      "outputs": [],
      "stateMutability": "nonpayable",
      "type": "function"
    },
    {
      "inputs": [
        {
          "internalType": "string",
          "name": "_uri",
          "type": "string"
        }
      ],
      "name": "setBaseURI",
      "outputs": [],
      "stateMutability": "nonpayable",
      "type": "function"
    },
    {
      "inputs": [
        {
          "internalType": "bytes4",
          "name": "interfaceId",
          "type": "bytes4"
        }
      ],
      "name": "supportsInterface",
      "outputs": [
        {
          "internalType": "bool",
          "name": "",
          "type": "bool"
        }
      ],
      "stateMutability": "view",
      "type": "function"
    },
    {
      "inputs": [],
      "name": "symbol",
      "outputs": [
        {
          "internalType": "string",
          "name": "",
          "type": "string"
        }
      ],
      "stateMutability": "view",
      "type": "function"
    },
    {
      "inputs": [],
      "name": "tokenCount",
      "outputs": [
        {
          "internalType": "uint256",
          "name": "",
          "type": "uint256"
        }
      ],
      "stateMutability": "view",
      "type": "function"
    },
    {
      "inputs": [
        {
          "internalType": "uint256",
          "name": "tokenId",
          "type": "uint256"
        }
      ],
      "name": "tokenURI",
      "outputs": [
        {
          "internalType": "string",
          "name": "",
          "type": "string"
        }
      ],
      "stateMutability": "view",
      "type": "function"
    },
    {
      "inputs": [],
      "name": "totalSupply",
      "outputs": [
        {
          "internalType": "uint256",
          "name": "",
          "type": "uint256"
        }
      ],
      "stateMutability": "view",
      "type": "function"
    },
    {
      "inputs": [
        {
          "internalType": "address",
          "name": "from",
          "type": "address"
        },
        {
          "internalType": "address",
          "name": "to",
          "type": "address"
        },
        {
          "internalType": "uint256",
          "name": "tokenId",
          "type": "uint256"
        }
      ],
      "name": "transferFrom",
      "outputs": [],
      "stateMutability": "nonpayable",
      "type": "function"
    },
    {
      "inputs": [
        {
          "internalType": "address",
          "name": "newOwner",
          "type": "address"
        }
      ],
      "name": "transferOwnership",
      "outputs": [],
      "stateMutability": "nonpayable",
      "type": "function"
    }
  ],
  "bytecode": "0x60806040523480156200001157600080fd5b50604051620036ba380380620036ba83398181016040528101906200003791906200049f565b828281600090805190602001906200005192919062000252565b5080600190805190602001906200006a92919062000252565b5050506200008d62000081620000af60201b60201c565b620000b760201b60201c565b6001600781905550620000a6816200017d60201b60201c565b5050506200063f565b600033905090565b6000600660009054906101000a900473ffffffffffffffffffffffffffffffffffffffff16905081600660006101000a81548173ffffffffffffffffffffffffffffffffffffffff021916908373ffffffffffffffffffffffffffffffffffffffff1602179055508173ffffffffffffffffffffffffffffffffffffffff168173ffffffffffffffffffffffffffffffffffffffff167f8be0079c531659141344cd1fd0a4f28419497f9722a3daafe3b4186f6b6457e060405160405180910390a35050565b6200018d620000af60201b60201c565b73ffffffffffffffffffffffffffffffffffffffff16620001b36200022860201b60201c565b73ffffffffffffffffffffffffffffffffffffffff16146200020c576040517f08c379a00000000000000000000000000000000000000000000000000000000081526004016200020390620005b9565b60405180910390fd5b80600890805190602001906200022492919062000252565b5050565b6000600660009054906101000a900473ffffffffffffffffffffffffffffffffffffffff16905090565b82805462000260906200060a565b90600052602060002090601f016020900481019282620002845760008555620002d0565b82601f106200029f57805160ff1916838001178555620002d0565b82800160010185558215620002d0579182015b82811115620002cf578251825591602001919060010190620002b2565b5b509050620002df9190620002e3565b5090565b5b80821115620002fe576000816000905550600101620002e4565b5090565b6000604051905090565b600080fd5b600080fd5b600080fd5b600080fd5b6000601f19601f8301169050919050565b7f4e487b7100000000000000000000000000000000000000000000000000000000600052604160045260246000fd5b6200036b8262000320565b810181811067ffffffffffffffff821117156200038d576200038c62000331565b5b80604052505050565b6000620003a262000302565b9050620003b0828262000360565b919050565b600067ffffffffffffffff821115620003d357620003d262000331565b5b620003de8262000320565b9050602081019050919050565b60005b838110156200040b578082015181840152602081019050620003ee565b838111156200041b576000848401525b50505050565b6000620004386200043284620003b5565b62000396565b9050828152602081018484840111156200045757620004566200031b565b5b62000464848285620003eb565b509392505050565b600082601f83011262000484576200048362000316565b5b81516200049684826020860162000421565b91505092915050565b600080600060608486031215620004bb57620004ba6200030c565b5b600084015167ffffffffffffffff811115620004dc57620004db62000311565b5b620004ea868287016200046c565b935050602084015167ffffffffffffffff8111156200050e576200050d62000311565b5b6200051c868287016200046c565b925050604084015167ffffffffffffffff81111562000540576200053f62000311565b5b6200054e868287016200046c565b9150509250925092565b600082825260208201905092915050565b7f4f776e61626c653a2063616c6c6572206973206e6f7420746865206f776e6572600082015250565b6000620005a160208362000558565b9150620005ae8262000569565b602082019050919050565b60006020820190508181036000830152620005d48162000592565b9050919050565b7f4e487b7100000000000000000000000000000000000000000000000000000000600052602260045260246000fd5b600060028204905060018216806200062357607f821691505b602082108103620006395762000638620005db565b5b50919050565b61306b806200064f6000396000f3fe608060405234801561001057600080fd5b50600436106101425760003560e01c806370a08231116100b8578063a22cb4651161007c578063a22cb4651461033f578063a87d942c1461035b578063b88d4fde14610379578063c87b56dd14610395578063e985e9c5146103c5578063f2fde38b146103f557610142565b806370a08231146102ab578063715018a6146102db5780638da5cb5b146102e557806395d89b41146103035780639f181b5e1461032157610142565b806318160ddd1161010a57806318160ddd146101eb57806323b872dd1461020957806342842e0e1461022557806355f804b3146102415780636352211e1461025d5780636c0360eb1461028d57610142565b806301ffc9a71461014757806306fdde0314610177578063081812fc14610195578063095ea7b3146101c55780631249c58b146101e1575b600080fd5b610161600480360381019061015c9190611d9c565b610411565b60405161016e9190611de4565b60405180910390f35b61017f6104f3565b60405161018c9190611e98565b60405180910390f35b6101af60048036038101906101aa9190611ef0565b610585565b6040516101bc9190611f5e565b60405180910390f35b6101df60048036038101906101da9190611fa5565b61060a565b005b6101e9610721565b005b6101f3610818565b6040516102009190611ff4565b60405180910390f35b610223600480360381019061021e919061200f565b610822565b005b61023f600480360381019061023a919061200f565b610882565b005b61025b60048036038101906102569190612197565b6108a2565b005b61027760048036038101906102729190611ef0565b610938565b6040516102849190611f5e565b60405180910390f35b6102956109e9565b6040516102a29190611e98565b60405180910390f35b6102c560048036038101906102c091906121e0565b610a77565b6040516102d29190611ff4565b60405180910390f35b6102e3610b2e565b005b6102ed610bb6565b6040516102fa9190611f5e565b60405180910390f35b61030b610be0565b6040516103189190611e98565b60405180910390f35b610329610c72565b6040516103369190611ff4565b60405180910390f35b61035960048036038101906103549190612239565b610c78565b005b610363610c8e565b6040516103709190611ff4565b60405180910390f35b610393600480360381019061038e919061231a565b610c98565b005b6103af60048036038101906103aa9190611ef0565b610cfa565b6040516103bc9190611e98565b60405180910390f35b6103df60048036038101906103da919061239d565b610da1565b6040516103ec9190611de4565b60405180910390f35b61040f600480360381019061040a91906121e0565b610e35565b005b60007f80ac58cd000000000000000000000000000000000000000000000000000000007bffffffffffffffffffffffffffffffffffffffffffffffffffffffff1916827bffffffffffffffffffffffffffffffffffffffffffffffffffffffff191614806104dc57507f5b5e139f000000000000000000000000000000000000000000000000000000007bffffffffffffffffffffffffffffffffffffffffffffffffffffffff1916827bffffffffffffffffffffffffffffffffffffffffffffffffffffffff1916145b806104ec57506104eb82610f2c565b5b9050919050565b6060600080546105029061240c565b80601f016020809104026020016040519081016040528092919081815260200182805461052e9061240c565b801561057b5780601f106105505761010080835404028352916020019161057b565b820191906000526020600020905b81548152906001019060200180831161055e57829003601f168201915b5050505050905090565b600061059082610f96565b6105cf576040517f08c379a00000000000000000000000000000000000000000000000000000000081526004016105c6906124af565b60405180910390fd5b6004600083815260200190815260200160002060009054906101000a900473ffffffffffffffffffffffffffffffffffffffff169050919050565b600061061582610938565b90508073ffffffffffffffffffffffffffffffffffffffff168373ffffffffffffffffffffffffffffffffffffffff1603610685576040517f08c379a000000000000000000000000000000000000000000000000000000000815260040161067c90612541565b60405180910390fd5b8073ffffffffffffffffffffffffffffffffffffffff166106a4611002565b73ffffffffffffffffffffffffffffffffffffffff1614806106d357506106d2816106cd611002565b610da1565b5b610712576040517f08c379a0000000000000000000000000000000000000000000000000000000008152600401610709906125d3565b60405180910390fd5b61071c838361100a565b505050565b600260075403610766576040517f08c379a000000000000000000000000000000000000000000000000000000000815260040161075d9061263f565b60405180910390fd5b6002600781905550610776611002565b73ffffffffffffffffffffffffffffffffffffffff16610794610bb6565b73ffffffffffffffffffffffffffffffffffffffff16146107ea576040517f08c379a00000000000000000000000000000000000000000000000000000000081526004016107e1906126ab565b60405180910390fd5b600960008154809291906107fd906126fa565b919050555061080e336009546110c3565b6001600781905550565b6000600954905090565b61083361082d611002565b826110e1565b610872576040517f08c379a0000000000000000000000000000000000000000000000000000000008152600401610869906127b4565b60405180910390fd5b61087d8383836111bf565b505050565b61089d83838360405180602001604052806000815250610c98565b505050565b6108aa611002565b73ffffffffffffffffffffffffffffffffffffffff166108c8610bb6565b73ffffffffffffffffffffffffffffffffffffffff161461091e576040517f08c379a0000000000000000000000000000000000000000000000000000000008152600401610915906126ab565b60405180910390fd5b8060089080519060200190610934929190611c8d565b5050565b6000806002600084815260200190815260200160002060009054906101000a900473ffffffffffffffffffffffffffffffffffffffff169050600073ffffffffffffffffffffffffffffffffffffffff168173ffffffffffffffffffffffffffffffffffffffff16036109e0576040517f08c379a00000000000000000000000000000000000000000000000000000000081526004016109d790612846565b60405180910390fd5b80915050919050565b600880546109f69061240c565b80601f0160208091040260200160405190810160405280929190818152602001828054610a229061240c565b8015610a6f5780601f10610a4457610100808354040283529160200191610a6f565b820191906000526020600020905b815481529060010190602001808311610a5257829003601f168201915b505050505081565b60008073ffffffffffffffffffffffffffffffffffffffff168273ffffffffffffffffffffffffffffffffffffffff1603610ae7576040517f08c379a0000000000000000000000000000000000000000000000000000000008152600401610ade906128d8565b60405180910390fd5b600360008373ffffffffffffffffffffffffffffffffffffffff1673ffffffffffffffffffffffffffffffffffffffff168152602001908152602001600020549050919050565b610b36611002565b73ffffffffffffffffffffffffffffffffffffffff16610b54610bb6565b73ffffffffffffffffffffffffffffffffffffffff1614610baa576040517f08c379a0000000000000000000000000000000000000000000000000000000008152600401610ba1906126ab565b60405180910390fd5b610bb46000611425565b565b6000600660009054906101000a900473ffffffffffffffffffffffffffffffffffffffff16905090565b606060018054610bef9061240c565b80601f0160208091040260200160405190810160405280929190818152602001828054610c1b9061240c565b8015610c685780601f10610c3d57610100808354040283529160200191610c68565b820191906000526020600020905b815481529060010190602001808311610c4b57829003601f168201915b5050505050905090565b60095481565b610c8a610c83611002565b83836114eb565b5050565b6000600954905090565b610ca9610ca3611002565b836110e1565b610ce8576040517f08c379a0000000000000000000000000000000000000000000000000000000008152600401610cdf906127b4565b60405180910390fd5b610cf484848484611657565b50505050565b6060610d0582610f96565b610d44576040517f08c379a0000000000000000000000000000000000000000000000000000000008152600401610d3b9061296a565b60405180910390fd5b6000610d4e6116b3565b90506000815111610d6e5760405180602001604052806000815250610d99565b80610d7884611745565b604051602001610d899291906129c6565b6040516020818303038152906040525b915050919050565b6000600560008473ffffffffffffffffffffffffffffffffffffffff1673ffffffffffffffffffffffffffffffffffffffff16815260200190815260200160002060008373ffffffffffffffffffffffffffffffffffffffff1673ffffffffffffffffffffffffffffffffffffffff16815260200190815260200160002060009054906101000a900460ff16905092915050565b610e3d611002565b73ffffffffffffffffffffffffffffffffffffffff16610e5b610bb6565b73ffffffffffffffffffffffffffffffffffffffff1614610eb1576040517f08c379a0000000000000000000000000000000000000000000000000000000008152600401610ea8906126ab565b60405180910390fd5b600073ffffffffffffffffffffffffffffffffffffffff168173ffffffffffffffffffffffffffffffffffffffff1603610f20576040517f08c379a0000000000000000000000000000000000000000000000000000000008152600401610f1790612a5c565b60405180910390fd5b610f2981611425565b50565b60007f01ffc9a7000000000000000000000000000000000000000000000000000000007bffffffffffffffffffffffffffffffffffffffffffffffffffffffff1916827bffffffffffffffffffffffffffffffffffffffffffffffffffffffff1916149050919050565b60008073ffffffffffffffffffffffffffffffffffffffff166002600084815260200190815260200160002060009054906101000a900473ffffffffffffffffffffffffffffffffffffffff1673ffffffffffffffffffffffffffffffffffffffff1614159050919050565b600033905090565b816004600083815260200190815260200160002060006101000a81548173ffffffffffffffffffffffffffffffffffffffff021916908373ffffffffffffffffffffffffffffffffffffffff160217905550808273ffffffffffffffffffffffffffffffffffffffff1661107d83610938565b73ffffffffffffffffffffffffffffffffffffffff167f8c5be1e5ebec7d5bd14f71427d1e84f3dd0314c0f7b2291e5b200ac8c7c3b92560405160405180910390a45050565b6110dd8282604051806020016040528060008152506118a5565b5050565b60006110ec82610f96565b61112b576040517f08c379a000000000000000000000000000000000000000000000000000000000815260040161112290612aee565b60405180910390fd5b600061113683610938565b90508073ffffffffffffffffffffffffffffffffffffffff168473ffffffffffffffffffffffffffffffffffffffff16148061117857506111778185610da1565b5b806111b657508373ffffffffffffffffffffffffffffffffffffffff1661119e84610585565b73ffffffffffffffffffffffffffffffffffffffff16145b91505092915050565b8273ffffffffffffffffffffffffffffffffffffffff166111df82610938565b73ffffffffffffffffffffffffffffffffffffffff1614611235576040517f08c379a000000000000000000000000000000000000000000000000000000000815260040161122c90612b80565b60405180910390fd5b600073ffffffffffffffffffffffffffffffffffffffff168273ffffffffffffffffffffffffffffffffffffffff16036112a4576040517f08c379a000000000000000000000000000000000000000000000000000000000815260040161129b90612c12565b60405180910390fd5b6112af838383611900565b6112ba60008261100a565b6001600360008573ffffffffffffffffffffffffffffffffffffffff1673ffffffffffffffffffffffffffffffffffffffff168152602001908152602001600020600082825461130a9190612c32565b925050819055506001600360008473ffffffffffffffffffffffffffffffffffffffff1673ffffffffffffffffffffffffffffffffffffffff16815260200190815260200160002060008282546113619190612c66565b92505081905550816002600083815260200190815260200160002060006101000a81548173ffffffffffffffffffffffffffffffffffffffff021916908373ffffffffffffffffffffffffffffffffffffffff160217905550808273ffffffffffffffffffffffffffffffffffffffff168473ffffffffffffffffffffffffffffffffffffffff167fddf252ad1be2c89b69c2b068fc378daa952ba7f163c4a11628f55a4df523b3ef60405160405180910390a4611420838383611905565b505050565b6000600660009054906101000a900473ffffffffffffffffffffffffffffffffffffffff16905081600660006101000a81548173ffffffffffffffffffffffffffffffffffffffff021916908373ffffffffffffffffffffffffffffffffffffffff1602179055508173ffffffffffffffffffffffffffffffffffffffff168173ffffffffffffffffffffffffffffffffffffffff167f8be0079c531659141344cd1fd0a4f28419497f9722a3daafe3b4186f6b6457e060405160405180910390a35050565b8173ffffffffffffffffffffffffffffffffffffffff168373ffffffffffffffffffffffffffffffffffffffff1603611559576040517f08c379a000000000000000000000000000000000000000000000000000000000815260040161155090612d08565b60405180910390fd5b80600560008573ffffffffffffffffffffffffffffffffffffffff1673ffffffffffffffffffffffffffffffffffffffff16815260200190815260200160002060008473ffffffffffffffffffffffffffffffffffffffff1673ffffffffffffffffffffffffffffffffffffffff16815260200190815260200160002060006101000a81548160ff0219169083151502179055508173ffffffffffffffffffffffffffffffffffffffff168373ffffffffffffffffffffffffffffffffffffffff167f17307eab39ab6107e8899845ad3d59bd9653f200f220920489ca2b5937696c318360405161164a9190611de4565b60405180910390a3505050565b6116628484846111bf565b61166e8484848461190a565b6116ad576040517f08c379a00000000000000000000000000000000000000000000000000000000081526004016116a490612d9a565b60405180910390fd5b50505050565b6060600880546116c29061240c565b80601f01602080910402602001604051908101604052809291908181526020018280546116ee9061240c565b801561173b5780601f106117105761010080835404028352916020019161173b565b820191906000526020600020905b81548152906001019060200180831161171e57829003601f168201915b5050505050905090565b60606000820361178c576040518060400160405280600181526020017f300000000000000000000000000000000000000000000000000000000000000081525090506118a0565b600082905060005b600082146117be5780806117a7906126fa565b915050600a826117b79190612de9565b9150611794565b60008167ffffffffffffffff8111156117da576117d961206c565b5b6040519080825280601f01601f19166020018201604052801561180c5781602001600182028036833780820191505090505b5090505b60008514611899576001826118259190612c32565b9150600a856118349190612e1a565b60306118409190612c66565b60f81b81838151811061185657611855612e4b565b5b60200101907effffffffffffffffffffffffffffffffffffffffffffffffffffffffffffff1916908160001a905350600a856118929190612de9565b9450611810565b8093505050505b919050565b6118af8383611a91565b6118bc600084848461190a565b6118fb576040517f08c379a00000000000000000000000000000000000000000000000000000000081526004016118f290612d9a565b60405180910390fd5b505050565b505050565b505050565b600061192b8473ffffffffffffffffffffffffffffffffffffffff16611c6a565b15611a84578373ffffffffffffffffffffffffffffffffffffffff1663150b7a02611954611002565b8786866040518563ffffffff1660e01b81526004016119769493929190612ecf565b6020604051808303816000875af19250505080156119b257506040513d601f19601f820116820180604052508101906119af9190612f30565b60015b611a34573d80600081146119e2576040519150601f19603f3d011682016040523d82523d6000602084013e6119e7565b606091505b506000815103611a2c576040517f08c379a0000000000000000000000000000000000000000000000000000000008152600401611a2390612d9a565b60405180910390fd5b805181602001fd5b63150b7a0260e01b7bffffffffffffffffffffffffffffffffffffffffffffffffffffffff1916817bffffffffffffffffffffffffffffffffffffffffffffffffffffffff191614915050611a89565b600190505b949350505050565b600073ffffffffffffffffffffffffffffffffffffffff168273ffffffffffffffffffffffffffffffffffffffff1603611b00576040517f08c379a0000000000000000000000000000000000000000000000000000000008152600401611af790612fa9565b60405180910390fd5b611b0981610f96565b15611b49576040517f08c379a0000000000000000000000000000000000000000000000000000000008152600401611b4090613015565b60405180910390fd5b611b5560008383611900565b6001600360008473ffffffffffffffffffffffffffffffffffffffff1673ffffffffffffffffffffffffffffffffffffffff1681526020019081526020016000206000828254611ba59190612c66565b92505081905550816002600083815260200190815260200160002060006101000a81548173ffffffffffffffffffffffffffffffffffffffff021916908373ffffffffffffffffffffffffffffffffffffffff160217905550808273ffffffffffffffffffffffffffffffffffffffff16600073ffffffffffffffffffffffffffffffffffffffff167fddf252ad1be2c89b69c2b068fc378daa952ba7f163c4a11628f55a4df523b3ef60405160405180910390a4611c6660008383611905565b5050565b6000808273ffffffffffffffffffffffffffffffffffffffff163b119050919050565b828054611c999061240c565b90600052602060002090601f016020900481019282611cbb5760008555611d02565b82601f10611cd457805160ff1916838001178555611d02565b82800160010185558215611d02579182015b82811115611d01578251825591602001919060010190611ce6565b5b509050611d0f9190611d13565b5090565b5b80821115611d2c576000816000905550600101611d14565b5090565b6000604051905090565b600080fd5b600080fd5b60007fffffffff0000000000000000000000000000000000000000000000000000000082169050919050565b611d7981611d44565b8114611d8457600080fd5b50565b600081359050611d9681611d70565b92915050565b600060208284031215611db257611db1611d3a565b5b6000611dc084828501611d87565b91505092915050565b60008115159050919050565b611dde81611dc9565b82525050565b6000602082019050611df96000830184611dd5565b92915050565b600081519050919050565b600082825260208201905092915050565b60005b83811015611e39578082015181840152602081019050611e1e565b83811115611e48576000848401525b50505050565b6000601f19601f8301169050919050565b6000611e6a82611dff565b611e748185611e0a565b9350611e84818560208601611e1b565b611e8d81611e4e565b840191505092915050565b60006020820190508181036000830152611eb28184611e5f565b905092915050565b6000819050919050565b611ecd81611eba565b8114611ed857600080fd5b50565b600081359050611eea81611ec4565b92915050565b600060208284031215611f0657611f05611d3a565b5b6000611f1484828501611edb565b91505092915050565b600073ffffffffffffffffffffffffffffffffffffffff82169050919050565b6000611f4882611f1d565b9050919050565b611f5881611f3d565b82525050565b6000602082019050611f736000830184611f4f565b92915050565b611f8281611f3d565b8114611f8d57600080fd5b50565b600081359050611f9f81611f79565b92915050565b60008060408385031215611fbc57611fbb611d3a565b5b6000611fca85828601611f90565b9250506020611fdb85828601611edb565b9150509250929050565b611fee81611eba565b82525050565b60006020820190506120096000830184611fe5565b92915050565b60008060006060848603121561202857612027611d3a565b5b600061203686828701611f90565b935050602061204786828701611f90565b925050604061205886828701611edb565b9150509250925092565b600080fd5b600080fd5b7f4e487b7100000000000000000000000000000000000000000000000000000000600052604160045260246000fd5b6120a482611e4e565b810181811067ffffffffffffffff821117156120c3576120c261206c565b5b80604052505050565b60006120d6611d30565b90506120e2828261209b565b919050565b600067ffffffffffffffff8211156121025761210161206c565b5b61210b82611e4e565b9050602081019050919050565b82818337600083830152505050565b600061213a612135846120e7565b6120cc565b90508281526020810184848401111561215657612155612067565b5b612161848285612118565b509392505050565b600082601f83011261217e5761217d612062565b5b813561218e848260208601612127565b91505092915050565b6000602082840312156121ad576121ac611d3a565b5b600082013567ffffffffffffffff8111156121cb576121ca611d3f565b5b6121d784828501612169565b91505092915050565b6000602082840312156121f6576121f5611d3a565b5b600061220484828501611f90565b91505092915050565b61221681611dc9565b811461222157600080fd5b50565b6000813590506122338161220d565b92915050565b600080604083850312156122505761224f611d3a565b5b600061225e85828601611f90565b925050602061226f85828601612224565b9150509250929050565b600067ffffffffffffffff8211156122945761229361206c565b5b61229d82611e4e565b9050602081019050919050565b60006122bd6122b884612279565b6120cc565b9050828152602081018484840111156122d9576122d8612067565b5b6122e4848285612118565b509392505050565b600082601f83011261230157612300612062565b5b81356123118482602086016122aa565b91505092915050565b6000806000806080858703121561233457612333611d3a565b5b600061234287828801611f90565b945050602061235387828801611f90565b935050604061236487828801611edb565b925050606085013567ffffffffffffffff81111561238557612384611d3f565b5b612391878288016122ec565b91505092959194509250565b600080604083850312156123b4576123b3611d3a565b5b60006123c285828601611f90565b92505060206123d385828601611f90565b9150509250929050565b7f4e487b7100000000000000000000000000000000000000000000000000000000600052602260045260246000fd5b6000600282049050600182168061242457607f821691505b602082108103612437576124366123dd565b5b50919050565b7f4552433732313a20617070726f76656420717565727920666f72206e6f6e657860008201527f697374656e7420746f6b656e0000000000000000000000000000000000000000602082015250565b6000612499602c83611e0a565b91506124a48261243d565b604082019050919050565b600060208201905081810360008301526124c88161248c565b9050919050565b7f4552433732313a20617070726f76616c20746f2063757272656e74206f776e6560008201527f7200000000000000000000000000000000000000000000000000000000000000602082015250565b600061252b602183611e0a565b9150612536826124cf565b604082019050919050565b6000602082019050818103600083015261255a8161251e565b9050919050565b7f4552433732313a20617070726f76652063616c6c6572206973206e6f74206f7760008201527f6e6572206e6f7220617070726f76656420666f7220616c6c0000000000000000602082015250565b60006125bd603883611e0a565b91506125c882612561565b604082019050919050565b600060208201905081810360008301526125ec816125b0565b9050919050565b7f5265656e7472616e637947756172643a207265656e7472616e742063616c6c00600082015250565b6000612629601f83611e0a565b9150612634826125f3565b602082019050919050565b600060208201905081810360008301526126588161261c565b9050919050565b7f4f776e61626c653a2063616c6c6572206973206e6f7420746865206f776e6572600082015250565b6000612695602083611e0a565b91506126a08261265f565b602082019050919050565b600060208201905081810360008301526126c481612688565b9050919050565b7f4e487b7100000000000000000000000000000000000000000000000000000000600052601160045260246000fd5b600061270582611eba565b91507fffffffffffffffffffffffffffffffffffffffffffffffffffffffffffffffff8203612737576127366126cb565b5b600182019050919050565b7f4552433732313a207472616e736665722063616c6c6572206973206e6f74206f60008201527f776e6572206e6f7220617070726f766564000000000000000000000000000000602082015250565b600061279e603183611e0a565b91506127a982612742565b604082019050919050565b600060208201905081810360008301526127cd81612791565b9050919050565b7f4552433732313a206f776e657220717565727920666f72206e6f6e657869737460008201527f656e7420746f6b656e0000000000000000000000000000000000000000000000602082015250565b6000612830602983611e0a565b915061283b826127d4565b604082019050919050565b6000602082019050818103600083015261285f81612823565b9050919050565b7f4552433732313a2062616c616e636520717565727920666f7220746865207a6560008201527f726f206164647265737300000000000000000000000000000000000000000000602082015250565b60006128c2602a83611e0a565b91506128cd82612866565b604082019050919050565b600060208201905081810360008301526128f1816128b5565b9050919050565b7f4552433732314d657461646174613a2055524920717565727920666f72206e6f60008201527f6e6578697374656e7420746f6b656e0000000000000000000000000000000000602082015250565b6000612954602f83611e0a565b915061295f826128f8565b604082019050919050565b6000602082019050818103600083015261298381612947565b9050919050565b600081905092915050565b60006129a082611dff565b6129aa818561298a565b93506129ba818560208601611e1b565b80840191505092915050565b60006129d28285612995565b91506129de8284612995565b91508190509392505050565b7f4f776e61626c653a206e6577206f776e657220697320746865207a65726f206160008201527f6464726573730000000000000000000000000000000000000000000000000000602082015250565b6000612a46602683611e0a565b9150612a51826129ea565b604082019050919050565b60006020820190508181036000830152612a7581612a39565b9050919050565b7f4552433732313a206f70657261746f7220717565727920666f72206e6f6e657860008201527f697374656e7420746f6b656e0000000000000000000000000000000000000000602082015250565b6000612ad8602c83611e0a565b9150612ae382612a7c565b604082019050919050565b60006020820190508181036000830152612b0781612acb565b9050919050565b7f4552433732313a207472616e736665722066726f6d20696e636f72726563742060008201527f6f776e6572000000000000000000000000000000000000000000000000000000602082015250565b6000612b6a602583611e0a565b9150612b7582612b0e565b604082019050919050565b60006020820190508181036000830152612b9981612b5d565b9050919050565b7f4552433732313a207472616e7366657220746f20746865207a65726f2061646460008201527f7265737300000000000000000000000000000000000000000000000000000000602082015250565b6000612bfc602483611e0a565b9150612c0782612ba0565b604082019050919050565b60006020820190508181036000830152612c2b81612bef565b9050919050565b6000612c3d82611eba565b9150612c4883611eba565b925082821015612c5b57612c5a6126cb565b5b828203905092915050565b6000612c7182611eba565b9150612c7c83611eba565b9250827fffffffffffffffffffffffffffffffffffffffffffffffffffffffffffffffff03821115612cb157612cb06126cb565b5b828201905092915050565b7f4552433732313a20617070726f766520746f2063616c6c657200000000000000600082015250565b6000612cf2601983611e0a565b9150612cfd82612cbc565b602082019050919050565b60006020820190508181036000830152612d2181612ce5565b9050919050565b7f4552433732313a207472616e7366657220746f206e6f6e20455243373231526560008201527f63656976657220696d706c656d656e7465720000000000000000000000000000602082015250565b6000612d84603283611e0a565b9150612d8f82612d28565b604082019050919050565b60006020820190508181036000830152612db381612d77565b9050919050565b7f4e487b7100000000000000000000000000000000000000000000000000000000600052601260045260246000fd5b6000612df482611eba565b9150612dff83611eba565b925082612e0f57612e0e612dba565b5b828204905092915050565b6000612e2582611eba565b9150612e3083611eba565b925082612e4057612e3f612dba565b5b828206905092915050565b7f4e487b7100000000000000000000000000000000000000000000000000000000600052603260045260246000fd5b600081519050919050565b600082825260208201905092915050565b6000612ea182612e7a565b612eab8185612e85565b9350612ebb818560208601611e1b565b612ec481611e4e565b840191505092915050565b6000608082019050612ee46000830187611f4f565b612ef16020830186611f4f565b612efe6040830185611fe5565b8181036060830152612f108184612e96565b905095945050505050565b600081519050612f2a81611d70565b92915050565b600060208284031215612f4657612f45611d3a565b5b6000612f5484828501612f1b565b91505092915050565b7f4552433732313a206d696e7420746f20746865207a65726f2061646472657373600082015250565b6000612f93602083611e0a565b9150612f9e82612f5d565b602082019050919050565b60006020820190508181036000830152612fc281612f86565b9050919050565b7f4552433732313a20746f6b656e20616c7265616479206d696e74656400000000600082015250565b6000612fff601c83611e0a565b915061300a82612fc9565b602082019050919050565b6000602082019050818103600083015261302e81612ff2565b905091905056fea2646970667358221220a34e6babf7a8e3849f00867b6a439f044b42cc91ed5df32d6929745afd1a2fae64736f6c634300080d0033",
  "linkReferences": {},
  "deployedLinkReferences": {}
}