{
  "_format": "hh-sol-artifact-1",
  "contractName": "NFT",
  "sourceName": "contracts/NFT.sol",
  "abi": [
    {
      "inputs": [
        {
          "internalType": "string",
          "name": "_name",
          "type": "string"
        },
        {
          "internalType": "string",
          "name": "_symbol",
          "type": "string"
        },
        {
          "internalType": "string",
          "name": "_baseUri",
          "type": "string"
        }
      ],
      "stateMutability": "nonpayable",
      "type": "constructor"
    },
    {
      "anonymous": false,
      "inputs": [
        {
          "indexed": true,
          "internalType": "address",
          "name": "owner",
          "type": "address"
        },
        {
          "indexed": true,
          "internalType": "address",
          "name": "approved",
          "type": "address"
        },
        {
          "indexed": true,
          "internalType": "uint256",
          "name": "tokenId",
          "type": "uint256"
        }
      ],
      "name": "Approval",
      "type": "event"
    },
    {
      "anonymous": false,
      "inputs": [
        {
          "indexed": true,
          "internalType": "address",
          "name": "owner",
          "type": "address"
        },
        {
          "indexed": true,
          "internalType": "address",
          "name": "operator",
          "type": "address"
        },
        {
          "indexed": false,
          "internalType": "bool",
          "name": "approved",
          "type": "bool"
        }
      ],
      "name": "ApprovalForAll",
      "type": "event"
    },
    {
      "anonymous": false,
      "inputs": [
        {
          "indexed": true,
          "internalType": "address",
          "name": "previousOwner",
          "type": "address"
        },
        {
          "indexed": true,
          "internalType": "address",
          "name": "newOwner",
          "type": "address"
        }
      ],
      "name": "OwnershipTransferred",
      "type": "event"
    },
    {
      "anonymous": false,
      "inputs": [
        {
          "indexed": true,
          "internalType": "address",
          "name": "from",
          "type": "address"
        },
        {
          "indexed": true,
          "internalType": "address",
          "name": "to",
          "type": "address"
        },
        {
          "indexed": true,
          "internalType": "uint256",
          "name": "tokenId",
          "type": "uint256"
        }
      ],
      "name": "Transfer",
      "type": "event"
    },
    {
      "inputs": [
        {
          "internalType": "address",
          "name": "to",
          "type": "address"
        },
        {
          "internalType": "uint256",
          "name": "tokenId",
          "type": "uint256"
        }
      ],
      "name": "approve",
      "outputs": [],
      "stateMutability": "nonpayable",
      "type": "function"
    },
    {
      "inputs": [
        {
          "internalType": "address",
          "name": "owner",
          "type": "address"
        }
      ],
      "name": "balanceOf",
      "outputs": [
        {
          "internalType": "uint256",
          "name": "",
          "type": "uint256"
        }
      ],
      "stateMutability": "view",
      "type": "function"
    },
    {
      "inputs": [],
      "name": "baseURI",
      "outputs": [
        {
          "internalType": "string",
          "name": "",
          "type": "string"
        }
      ],
      "stateMutability": "view",
      "type": "function"
    },
    {
      "inputs": [
        {
          "internalType": "uint256",
          "name": "tokenId",
          "type": "uint256"
        }
      ],
      "name": "getApproved",
      "outputs": [
        {
          "internalType": "address",
          "name": "",
          "type": "address"
        }
      ],
      "stateMutability": "view",
      "type": "function"
    },
    {
      "inputs": [],
      "name": "getCount",
      "outputs": [
        {
          "internalType": "uint256",
          "name": "",
          "type": "uint256"
        }
      ],
      "stateMutability": "view",
      "type": "function"
    },
    {
      "inputs": [
        {
          "internalType": "address",
          "name": "owner",
          "type": "address"
        },
        {
          "internalType": "address",
          "name": "operator",
          "type": "address"
        }
      ],
      "name": "isApprovedForAll",
      "outputs": [
        {
          "internalType": "bool",
          "name": "",
          "type": "bool"
        }
      ],
      "stateMutability": "view",
      "type": "function"
    },
    {
      "inputs": [],
      "name": "mint",
      "outputs": [],
      "stateMutability": "nonpayable",
      "type": "function"
    },
    {
      "inputs": [],
      "name": "name",
      "outputs": [
        {
          "internalType": "string",
          "name": "",
          "type": "string"
        }
      ],
      "stateMutability": "view",
      "type": "function"
    },
    {
      "inputs": [],
      "name": "owner",
      "outputs": [
        {
          "internalType": "address",
          "name": "",
          "type": "address"
        }
      ],
      "stateMutability": "view",
      "type": "function"
    },
    {
      "inputs": [
        {
          "internalType": "uint256",
          "name": "tokenId",
          "type": "uint256"
        }
      ],
      "name": "ownerOf",
      "outputs": [
        {
          "internalType": "address",
          "name": "",
          "type": "address"
        }
      ],
      "stateMutability": "view",
      "type": "function"
    },
    {
      "inputs": [],
      "name": "renounceOwnership",
      "outputs": [],
      "stateMutability": "nonpayable",
      "type": "function"
    },
    {
      "inputs": [
        {
          "internalType": "address",
          "name": "from",
          "type": "address"
        },
        {
          "internalType": "address",
          "name": "to",
          "type": "address"
        },
        {
          "internalType": "uint256",
          "name": "tokenId",
          "type": "uint256"
        }
      ],
      "name": "safeTransferFrom",
      "outputs": [],
      "stateMutability": "nonpayable",
      "type": "function"
    },
    {
      "inputs": [
        {
          "internalType": "address",
          "name": "from",
          "type": "address"
        },
        {
          "internalType": "address",
          "name": "to",
          "type": "address"
        },
        {
          "internalType": "uint256",
          "name": "tokenId",
          "type": "uint256"
        },
        {
          "internalType": "bytes",
          "name": "_data",
          "type": "bytes"
        }
      ],
      "name": "safeTransferFrom",
      "outputs": [],
      "stateMutability": "nonpayable",
      "type": "function"
    },
    {
      "inputs": [
        {
          "internalType": "address",
          "name": "operator",
          "type": "address"
        },
        {
          "internalType": "bool",
          "name": "approved",
          "type": "bool"
        }
      ],
      "name": "setApprovalForAll",
      "outputs": [],
      "stateMutability": "nonpayable",
      "type": "function"
    },
    {
      "inputs": [
        {
          "internalType": "string",
          "name": "_uri",
          "type": "string"
        }
      ],
      "name": "setBaseURI",
      "outputs": [],
      "stateMutability": "nonpayable",
      "type": "function"
    },
    {
      "inputs": [
        {
          "internalType": "bytes4",
          "name": "interfaceId",
          "type": "bytes4"
        }
      ],
      "name": "supportsInterface",
      "outputs": [
        {
          "internalType": "bool",
          "name": "",
          "type": "bool"
        }
      ],
      "stateMutability": "view",
      "type": "function"
    },
    {
      "inputs": [],
      "name": "symbol",
      "outputs": [
        {
          "internalType": "string",
          "name": "",
          "type": "string"
        }
      ],
      "stateMutability": "view",
      "type": "function"
    },
    {
      "inputs": [],
      "name": "tokenCount",
      "outputs": [
        {
          "internalType": "uint256",
          "name": "",
          "type": "uint256"
        }
      ],
      "stateMutability": "view",
      "type": "function"
    },
    {
      "inputs": [
        {
          "internalType": "uint256",
          "name": "tokenId",
          "type": "uint256"
        }
      ],
      "name": "tokenURI",
      "outputs": [
        {
          "internalType": "string",
          "name": "",
          "type": "string"
        }
      ],
      "stateMutability": "view",
      "type": "function"
    },
    {
      "inputs": [
        {
          "internalType": "address",
          "name": "from",
          "type": "address"
        },
        {
          "internalType": "address",
          "name": "to",
          "type": "address"
        },
        {
          "internalType": "uint256",
          "name": "tokenId",
          "type": "uint256"
        }
      ],
      "name": "transferFrom",
      "outputs": [],
      "stateMutability": "nonpayable",
      "type": "function"
    },
    {
      "inputs": [
        {
          "internalType": "address",
          "name": "newOwner",
          "type": "address"
        }
      ],
      "name": "transferOwnership",
      "outputs": [],
      "stateMutability": "nonpayable",
      "type": "function"
    }
  ],
  "bytecode": "0x60806040523480156200001157600080fd5b50604051620036873803806200368783398181016040528101906200003791906200049f565b828281600090805190602001906200005192919062000252565b5080600190805190602001906200006a92919062000252565b5050506200008d62000081620000af60201b60201c565b620000b760201b60201c565b6001600781905550620000a6816200017d60201b60201c565b5050506200063f565b600033905090565b6000600660009054906101000a900473ffffffffffffffffffffffffffffffffffffffff16905081600660006101000a81548173ffffffffffffffffffffffffffffffffffffffff021916908373ffffffffffffffffffffffffffffffffffffffff1602179055508173ffffffffffffffffffffffffffffffffffffffff168173ffffffffffffffffffffffffffffffffffffffff167f8be0079c531659141344cd1fd0a4f28419497f9722a3daafe3b4186f6b6457e060405160405180910390a35050565b6200018d620000af60201b60201c565b73ffffffffffffffffffffffffffffffffffffffff16620001b36200022860201b60201c565b73ffffffffffffffffffffffffffffffffffffffff16146200020c576040517f08c379a00000000000000000000000000000000000000000000000000000000081526004016200020390620005b9565b60405180910390fd5b80600890805190602001906200022492919062000252565b5050565b6000600660009054906101000a900473ffffffffffffffffffffffffffffffffffffffff16905090565b82805462000260906200060a565b90600052602060002090601f016020900481019282620002845760008555620002d0565b82601f106200029f57805160ff1916838001178555620002d0565b82800160010185558215620002d0579182015b82811115620002cf578251825591602001919060010190620002b2565b5b509050620002df9190620002e3565b5090565b5b80821115620002fe576000816000905550600101620002e4565b5090565b6000604051905090565b600080fd5b600080fd5b600080fd5b600080fd5b6000601f19601f8301169050919050565b7f4e487b7100000000000000000000000000000000000000000000000000000000600052604160045260246000fd5b6200036b8262000320565b810181811067ffffffffffffffff821117156200038d576200038c62000331565b5b80604052505050565b6000620003a262000302565b9050620003b0828262000360565b919050565b600067ffffffffffffffff821115620003d357620003d262000331565b5b620003de8262000320565b9050602081019050919050565b60005b838110156200040b578082015181840152602081019050620003ee565b838111156200041b576000848401525b50505050565b6000620004386200043284620003b5565b62000396565b9050828152602081018484840111156200045757620004566200031b565b5b62000464848285620003eb565b509392505050565b600082601f83011262000484576200048362000316565b5b81516200049684826020860162000421565b91505092915050565b600080600060608486031215620004bb57620004ba6200030c565b5b600084015167ffffffffffffffff811115620004dc57620004db62000311565b5b620004ea868287016200046c565b935050602084015167ffffffffffffffff8111156200050e576200050d62000311565b5b6200051c868287016200046c565b925050604084015167ffffffffffffffff81111562000540576200053f62000311565b5b6200054e868287016200046c565b9150509250925092565b600082825260208201905092915050565b7f4f776e61626c653a2063616c6c6572206973206e6f7420746865206f776e6572600082015250565b6000620005a160208362000558565b9150620005ae8262000569565b602082019050919050565b60006020820190508181036000830152620005d48162000592565b9050919050565b7f4e487b7100000000000000000000000000000000000000000000000000000000600052602260045260246000fd5b600060028204905060018216806200062357607f821691505b602082108103620006395762000638620005db565b5b50919050565b613038806200064f6000396000f3fe608060405234801561001057600080fd5b50600436106101375760003560e01c806370a08231116100b8578063a22cb4651161007c578063a22cb46514610316578063a87d942c14610332578063b88d4fde14610350578063c87b56dd1461036c578063e985e9c51461039c578063f2fde38b146103cc57610137565b806370a0823114610282578063715018a6146102b25780638da5cb5b146102bc57806395d89b41146102da5780639f181b5e146102f857610137565b806323b872dd116100ff57806323b872dd146101e057806342842e0e146101fc57806355f804b3146102185780636352211e146102345780636c0360eb1461026457610137565b806301ffc9a71461013c57806306fdde031461016c578063081812fc1461018a578063095ea7b3146101ba5780631249c58b146101d6575b600080fd5b61015660048036038101906101519190611d69565b6103e8565b6040516101639190611db1565b60405180910390f35b6101746104ca565b6040516101819190611e65565b60405180910390f35b6101a4600480360381019061019f9190611ebd565b61055c565b6040516101b19190611f2b565b60405180910390f35b6101d460048036038101906101cf9190611f72565b6105e1565b005b6101de6106f8565b005b6101fa60048036038101906101f59190611fb2565b6107ef565b005b61021660048036038101906102119190611fb2565b61084f565b005b610232600480360381019061022d919061213a565b61086f565b005b61024e60048036038101906102499190611ebd565b610905565b60405161025b9190611f2b565b60405180910390f35b61026c6109b6565b6040516102799190611e65565b60405180910390f35b61029c60048036038101906102979190612183565b610a44565b6040516102a991906121bf565b60405180910390f35b6102ba610afb565b005b6102c4610b83565b6040516102d19190611f2b565b60405180910390f35b6102e2610bad565b6040516102ef9190611e65565b60405180910390f35b610300610c3f565b60405161030d91906121bf565b60405180910390f35b610330600480360381019061032b9190612206565b610c45565b005b61033a610c5b565b60405161034791906121bf565b60405180910390f35b61036a600480360381019061036591906122e7565b610c65565b005b61038660048036038101906103819190611ebd565b610cc7565b6040516103939190611e65565b60405180910390f35b6103b660048036038101906103b1919061236a565b610d6e565b6040516103c39190611db1565b60405180910390f35b6103e660048036038101906103e19190612183565b610e02565b005b60007f80ac58cd000000000000000000000000000000000000000000000000000000007bffffffffffffffffffffffffffffffffffffffffffffffffffffffff1916827bffffffffffffffffffffffffffffffffffffffffffffffffffffffff191614806104b357507f5b5e139f000000000000000000000000000000000000000000000000000000007bffffffffffffffffffffffffffffffffffffffffffffffffffffffff1916827bffffffffffffffffffffffffffffffffffffffffffffffffffffffff1916145b806104c357506104c282610ef9565b5b9050919050565b6060600080546104d9906123d9565b80601f0160208091040260200160405190810160405280929190818152602001828054610505906123d9565b80156105525780601f1061052757610100808354040283529160200191610552565b820191906000526020600020905b81548152906001019060200180831161053557829003601f168201915b5050505050905090565b600061056782610f63565b6105a6576040517f08c379a000000000000000000000000000000000000000000000000000000000815260040161059d9061247c565b60405180910390fd5b6004600083815260200190815260200160002060009054906101000a900473ffffffffffffffffffffffffffffffffffffffff169050919050565b60006105ec82610905565b90508073ffffffffffffffffffffffffffffffffffffffff168373ffffffffffffffffffffffffffffffffffffffff160361065c576040517f08c379a00000000000000000000000000000000000000000000000000000000081526004016106539061250e565b60405180910390fd5b8073ffffffffffffffffffffffffffffffffffffffff1661067b610fcf565b73ffffffffffffffffffffffffffffffffffffffff1614806106aa57506106a9816106a4610fcf565b610d6e565b5b6106e9576040517f08c379a00000000000000000000000000000000000000000000000000000000081526004016106e0906125a0565b60405180910390fd5b6106f38383610fd7565b505050565b60026007540361073d576040517f08c379a00000000000000000000000000000000000000000000000000000000081526004016107349061260c565b60405180910390fd5b600260078190555061074d610fcf565b73ffffffffffffffffffffffffffffffffffffffff1661076b610b83565b73ffffffffffffffffffffffffffffffffffffffff16146107c1576040517f08c379a00000000000000000000000000000000000000000000000000000000081526004016107b890612678565b60405180910390fd5b600960008154809291906107d4906126c7565b91905055506107e533600954611090565b6001600781905550565b6108006107fa610fcf565b826110ae565b61083f576040517f08c379a000000000000000000000000000000000000000000000000000000000815260040161083690612781565b60405180910390fd5b61084a83838361118c565b505050565b61086a83838360405180602001604052806000815250610c65565b505050565b610877610fcf565b73ffffffffffffffffffffffffffffffffffffffff16610895610b83565b73ffffffffffffffffffffffffffffffffffffffff16146108eb576040517f08c379a00000000000000000000000000000000000000000000000000000000081526004016108e290612678565b60405180910390fd5b8060089080519060200190610901929190611c5a565b5050565b6000806002600084815260200190815260200160002060009054906101000a900473ffffffffffffffffffffffffffffffffffffffff169050600073ffffffffffffffffffffffffffffffffffffffff168173ffffffffffffffffffffffffffffffffffffffff16036109ad576040517f08c379a00000000000000000000000000000000000000000000000000000000081526004016109a490612813565b60405180910390fd5b80915050919050565b600880546109c3906123d9565b80601f01602080910402602001604051908101604052809291908181526020018280546109ef906123d9565b8015610a3c5780601f10610a1157610100808354040283529160200191610a3c565b820191906000526020600020905b815481529060010190602001808311610a1f57829003601f168201915b505050505081565b60008073ffffffffffffffffffffffffffffffffffffffff168273ffffffffffffffffffffffffffffffffffffffff1603610ab4576040517f08c379a0000000000000000000000000000000000000000000000000000000008152600401610aab906128a5565b60405180910390fd5b600360008373ffffffffffffffffffffffffffffffffffffffff1673ffffffffffffffffffffffffffffffffffffffff168152602001908152602001600020549050919050565b610b03610fcf565b73ffffffffffffffffffffffffffffffffffffffff16610b21610b83565b73ffffffffffffffffffffffffffffffffffffffff1614610b77576040517f08c379a0000000000000000000000000000000000000000000000000000000008152600401610b6e90612678565b60405180910390fd5b610b8160006113f2565b565b6000600660009054906101000a900473ffffffffffffffffffffffffffffffffffffffff16905090565b606060018054610bbc906123d9565b80601f0160208091040260200160405190810160405280929190818152602001828054610be8906123d9565b8015610c355780601f10610c0a57610100808354040283529160200191610c35565b820191906000526020600020905b815481529060010190602001808311610c1857829003601f168201915b5050505050905090565b60095481565b610c57610c50610fcf565b83836114b8565b5050565b6000600954905090565b610c76610c70610fcf565b836110ae565b610cb5576040517f08c379a0000000000000000000000000000000000000000000000000000000008152600401610cac90612781565b60405180910390fd5b610cc184848484611624565b50505050565b6060610cd282610f63565b610d11576040517f08c379a0000000000000000000000000000000000000000000000000000000008152600401610d0890612937565b60405180910390fd5b6000610d1b611680565b90506000815111610d3b5760405180602001604052806000815250610d66565b80610d4584611712565b604051602001610d56929190612993565b6040516020818303038152906040525b915050919050565b6000600560008473ffffffffffffffffffffffffffffffffffffffff1673ffffffffffffffffffffffffffffffffffffffff16815260200190815260200160002060008373ffffffffffffffffffffffffffffffffffffffff1673ffffffffffffffffffffffffffffffffffffffff16815260200190815260200160002060009054906101000a900460ff16905092915050565b610e0a610fcf565b73ffffffffffffffffffffffffffffffffffffffff16610e28610b83565b73ffffffffffffffffffffffffffffffffffffffff1614610e7e576040517f08c379a0000000000000000000000000000000000000000000000000000000008152600401610e7590612678565b60405180910390fd5b600073ffffffffffffffffffffffffffffffffffffffff168173ffffffffffffffffffffffffffffffffffffffff1603610eed576040517f08c379a0000000000000000000000000000000000000000000000000000000008152600401610ee490612a29565b60405180910390fd5b610ef6816113f2565b50565b60007f01ffc9a7000000000000000000000000000000000000000000000000000000007bffffffffffffffffffffffffffffffffffffffffffffffffffffffff1916827bffffffffffffffffffffffffffffffffffffffffffffffffffffffff1916149050919050565b60008073ffffffffffffffffffffffffffffffffffffffff166002600084815260200190815260200160002060009054906101000a900473ffffffffffffffffffffffffffffffffffffffff1673ffffffffffffffffffffffffffffffffffffffff1614159050919050565b600033905090565b816004600083815260200190815260200160002060006101000a81548173ffffffffffffffffffffffffffffffffffffffff021916908373ffffffffffffffffffffffffffffffffffffffff160217905550808273ffffffffffffffffffffffffffffffffffffffff1661104a83610905565b73ffffffffffffffffffffffffffffffffffffffff167f8c5be1e5ebec7d5bd14f71427d1e84f3dd0314c0f7b2291e5b200ac8c7c3b92560405160405180910390a45050565b6110aa828260405180602001604052806000815250611872565b5050565b60006110b982610f63565b6110f8576040517f08c379a00000000000000000000000000000000000000000000000000000000081526004016110ef90612abb565b60405180910390fd5b600061110383610905565b90508073ffffffffffffffffffffffffffffffffffffffff168473ffffffffffffffffffffffffffffffffffffffff16148061114557506111448185610d6e565b5b8061118357508373ffffffffffffffffffffffffffffffffffffffff1661116b8461055c565b73ffffffffffffffffffffffffffffffffffffffff16145b91505092915050565b8273ffffffffffffffffffffffffffffffffffffffff166111ac82610905565b73ffffffffffffffffffffffffffffffffffffffff1614611202576040517f08c379a00000000000000000000000000000000000000000000000000000000081526004016111f990612b4d565b60405180910390fd5b600073ffffffffffffffffffffffffffffffffffffffff168273ffffffffffffffffffffffffffffffffffffffff1603611271576040517f08c379a000000000000000000000000000000000000000000000000000000000815260040161126890612bdf565b60405180910390fd5b61127c8383836118cd565b611287600082610fd7565b6001600360008573ffffffffffffffffffffffffffffffffffffffff1673ffffffffffffffffffffffffffffffffffffffff16815260200190815260200160002060008282546112d79190612bff565b925050819055506001600360008473ffffffffffffffffffffffffffffffffffffffff1673ffffffffffffffffffffffffffffffffffffffff168152602001908152602001600020600082825461132e9190612c33565b92505081905550816002600083815260200190815260200160002060006101000a81548173ffffffffffffffffffffffffffffffffffffffff021916908373ffffffffffffffffffffffffffffffffffffffff160217905550808273ffffffffffffffffffffffffffffffffffffffff168473ffffffffffffffffffffffffffffffffffffffff167fddf252ad1be2c89b69c2b068fc378daa952ba7f163c4a11628f55a4df523b3ef60405160405180910390a46113ed8383836118d2565b505050565b6000600660009054906101000a900473ffffffffffffffffffffffffffffffffffffffff16905081600660006101000a81548173ffffffffffffffffffffffffffffffffffffffff021916908373ffffffffffffffffffffffffffffffffffffffff1602179055508173ffffffffffffffffffffffffffffffffffffffff168173ffffffffffffffffffffffffffffffffffffffff167f8be0079c531659141344cd1fd0a4f28419497f9722a3daafe3b4186f6b6457e060405160405180910390a35050565b8173ffffffffffffffffffffffffffffffffffffffff168373ffffffffffffffffffffffffffffffffffffffff1603611526576040517f08c379a000000000000000000000000000000000000000000000000000000000815260040161151d90612cd5565b60405180910390fd5b80600560008573ffffffffffffffffffffffffffffffffffffffff1673ffffffffffffffffffffffffffffffffffffffff16815260200190815260200160002060008473ffffffffffffffffffffffffffffffffffffffff1673ffffffffffffffffffffffffffffffffffffffff16815260200190815260200160002060006101000a81548160ff0219169083151502179055508173ffffffffffffffffffffffffffffffffffffffff168373ffffffffffffffffffffffffffffffffffffffff167f17307eab39ab6107e8899845ad3d59bd9653f200f220920489ca2b5937696c31836040516116179190611db1565b60405180910390a3505050565b61162f84848461118c565b61163b848484846118d7565b61167a576040517f08c379a000000000000000000000000000000000000000000000000000000000815260040161167190612d67565b60405180910390fd5b50505050565b60606008805461168f906123d9565b80601f01602080910402602001604051908101604052809291908181526020018280546116bb906123d9565b80156117085780601f106116dd57610100808354040283529160200191611708565b820191906000526020600020905b8154815290600101906020018083116116eb57829003601f168201915b5050505050905090565b606060008203611759576040518060400160405280600181526020017f3000000000000000000000000000000000000000000000000000000000000000815250905061186d565b600082905060005b6000821461178b578080611774906126c7565b915050600a826117849190612db6565b9150611761565b60008167ffffffffffffffff8111156117a7576117a661200f565b5b6040519080825280601f01601f1916602001820160405280156117d95781602001600182028036833780820191505090505b5090505b60008514611866576001826117f29190612bff565b9150600a856118019190612de7565b603061180d9190612c33565b60f81b81838151811061182357611822612e18565b5b60200101907effffffffffffffffffffffffffffffffffffffffffffffffffffffffffffff1916908160001a905350600a8561185f9190612db6565b94506117dd565b8093505050505b919050565b61187c8383611a5e565b61188960008484846118d7565b6118c8576040517f08c379a00000000000000000000000000000000000000000000000000000000081526004016118bf90612d67565b60405180910390fd5b505050565b505050565b505050565b60006118f88473ffffffffffffffffffffffffffffffffffffffff16611c37565b15611a51578373ffffffffffffffffffffffffffffffffffffffff1663150b7a02611921610fcf565b8786866040518563ffffffff1660e01b81526004016119439493929190612e9c565b6020604051808303816000875af192505050801561197f57506040513d601f19601f8201168201806040525081019061197c9190612efd565b60015b611a01573d80600081146119af576040519150601f19603f3d011682016040523d82523d6000602084013e6119b4565b606091505b5060008151036119f9576040517f08c379a00000000000000000000000000000000000000000000000000000000081526004016119f090612d67565b60405180910390fd5b805181602001fd5b63150b7a0260e01b7bffffffffffffffffffffffffffffffffffffffffffffffffffffffff1916817bffffffffffffffffffffffffffffffffffffffffffffffffffffffff191614915050611a56565b600190505b949350505050565b600073ffffffffffffffffffffffffffffffffffffffff168273ffffffffffffffffffffffffffffffffffffffff1603611acd576040517f08c379a0000000000000000000000000000000000000000000000000000000008152600401611ac490612f76565b60405180910390fd5b611ad681610f63565b15611b16576040517f08c379a0000000000000000000000000000000000000000000000000000000008152600401611b0d90612fe2565b60405180910390fd5b611b22600083836118cd565b6001600360008473ffffffffffffffffffffffffffffffffffffffff1673ffffffffffffffffffffffffffffffffffffffff1681526020019081526020016000206000828254611b729190612c33565b92505081905550816002600083815260200190815260200160002060006101000a81548173ffffffffffffffffffffffffffffffffffffffff021916908373ffffffffffffffffffffffffffffffffffffffff160217905550808273ffffffffffffffffffffffffffffffffffffffff16600073ffffffffffffffffffffffffffffffffffffffff167fddf252ad1be2c89b69c2b068fc378daa952ba7f163c4a11628f55a4df523b3ef60405160405180910390a4611c33600083836118d2565b5050565b6000808273ffffffffffffffffffffffffffffffffffffffff163b119050919050565b828054611c66906123d9565b90600052602060002090601f016020900481019282611c885760008555611ccf565b82601f10611ca157805160ff1916838001178555611ccf565b82800160010185558215611ccf579182015b82811115611cce578251825591602001919060010190611cb3565b5b509050611cdc9190611ce0565b5090565b5b80821115611cf9576000816000905550600101611ce1565b5090565b6000604051905090565b600080fd5b600080fd5b60007fffffffff0000000000000000000000000000000000000000000000000000000082169050919050565b611d4681611d11565b8114611d5157600080fd5b50565b600081359050611d6381611d3d565b92915050565b600060208284031215611d7f57611d7e611d07565b5b6000611d8d84828501611d54565b91505092915050565b60008115159050919050565b611dab81611d96565b82525050565b6000602082019050611dc66000830184611da2565b92915050565b600081519050919050565b600082825260208201905092915050565b60005b83811015611e06578082015181840152602081019050611deb565b83811115611e15576000848401525b50505050565b6000601f19601f8301169050919050565b6000611e3782611dcc565b611e418185611dd7565b9350611e51818560208601611de8565b611e5a81611e1b565b840191505092915050565b60006020820190508181036000830152611e7f8184611e2c565b905092915050565b6000819050919050565b611e9a81611e87565b8114611ea557600080fd5b50565b600081359050611eb781611e91565b92915050565b600060208284031215611ed357611ed2611d07565b5b6000611ee184828501611ea8565b91505092915050565b600073ffffffffffffffffffffffffffffffffffffffff82169050919050565b6000611f1582611eea565b9050919050565b611f2581611f0a565b82525050565b6000602082019050611f406000830184611f1c565b92915050565b611f4f81611f0a565b8114611f5a57600080fd5b50565b600081359050611f6c81611f46565b92915050565b60008060408385031215611f8957611f88611d07565b5b6000611f9785828601611f5d565b9250506020611fa885828601611ea8565b9150509250929050565b600080600060608486031215611fcb57611fca611d07565b5b6000611fd986828701611f5d565b9350506020611fea86828701611f5d565b9250506040611ffb86828701611ea8565b9150509250925092565b600080fd5b600080fd5b7f4e487b7100000000000000000000000000000000000000000000000000000000600052604160045260246000fd5b61204782611e1b565b810181811067ffffffffffffffff821117156120665761206561200f565b5b80604052505050565b6000612079611cfd565b9050612085828261203e565b919050565b600067ffffffffffffffff8211156120a5576120a461200f565b5b6120ae82611e1b565b9050602081019050919050565b82818337600083830152505050565b60006120dd6120d88461208a565b61206f565b9050828152602081018484840111156120f9576120f861200a565b5b6121048482856120bb565b509392505050565b600082601f83011261212157612120612005565b5b81356121318482602086016120ca565b91505092915050565b6000602082840312156121505761214f611d07565b5b600082013567ffffffffffffffff81111561216e5761216d611d0c565b5b61217a8482850161210c565b91505092915050565b60006020828403121561219957612198611d07565b5b60006121a784828501611f5d565b91505092915050565b6121b981611e87565b82525050565b60006020820190506121d460008301846121b0565b92915050565b6121e381611d96565b81146121ee57600080fd5b50565b600081359050612200816121da565b92915050565b6000806040838503121561221d5761221c611d07565b5b600061222b85828601611f5d565b925050602061223c858286016121f1565b9150509250929050565b600067ffffffffffffffff8211156122615761226061200f565b5b61226a82611e1b565b9050602081019050919050565b600061228a61228584612246565b61206f565b9050828152602081018484840111156122a6576122a561200a565b5b6122b18482856120bb565b509392505050565b600082601f8301126122ce576122cd612005565b5b81356122de848260208601612277565b91505092915050565b6000806000806080858703121561230157612300611d07565b5b600061230f87828801611f5d565b945050602061232087828801611f5d565b935050604061233187828801611ea8565b925050606085013567ffffffffffffffff81111561235257612351611d0c565b5b61235e878288016122b9565b91505092959194509250565b6000806040838503121561238157612380611d07565b5b600061238f85828601611f5d565b92505060206123a085828601611f5d565b9150509250929050565b7f4e487b7100000000000000000000000000000000000000000000000000000000600052602260045260246000fd5b600060028204905060018216806123f157607f821691505b602082108103612404576124036123aa565b5b50919050565b7f4552433732313a20617070726f76656420717565727920666f72206e6f6e657860008201527f697374656e7420746f6b656e0000000000000000000000000000000000000000602082015250565b6000612466602c83611dd7565b91506124718261240a565b604082019050919050565b6000602082019050818103600083015261249581612459565b9050919050565b7f4552433732313a20617070726f76616c20746f2063757272656e74206f776e6560008201527f7200000000000000000000000000000000000000000000000000000000000000602082015250565b60006124f8602183611dd7565b91506125038261249c565b604082019050919050565b60006020820190508181036000830152612527816124eb565b9050919050565b7f4552433732313a20617070726f76652063616c6c6572206973206e6f74206f7760008201527f6e6572206e6f7220617070726f76656420666f7220616c6c0000000000000000602082015250565b600061258a603883611dd7565b91506125958261252e565b604082019050919050565b600060208201905081810360008301526125b98161257d565b9050919050565b7f5265656e7472616e637947756172643a207265656e7472616e742063616c6c00600082015250565b60006125f6601f83611dd7565b9150612601826125c0565b602082019050919050565b60006020820190508181036000830152612625816125e9565b9050919050565b7f4f776e61626c653a2063616c6c6572206973206e6f7420746865206f776e6572600082015250565b6000612662602083611dd7565b915061266d8261262c565b602082019050919050565b6000602082019050818103600083015261269181612655565b9050919050565b7f4e487b7100000000000000000000000000000000000000000000000000000000600052601160045260246000fd5b60006126d282611e87565b91507fffffffffffffffffffffffffffffffffffffffffffffffffffffffffffffffff820361270457612703612698565b5b600182019050919050565b7f4552433732313a207472616e736665722063616c6c6572206973206e6f74206f60008201527f776e6572206e6f7220617070726f766564000000000000000000000000000000602082015250565b600061276b603183611dd7565b91506127768261270f565b604082019050919050565b6000602082019050818103600083015261279a8161275e565b9050919050565b7f4552433732313a206f776e657220717565727920666f72206e6f6e657869737460008201527f656e7420746f6b656e0000000000000000000000000000000000000000000000602082015250565b60006127fd602983611dd7565b9150612808826127a1565b604082019050919050565b6000602082019050818103600083015261282c816127f0565b9050919050565b7f4552433732313a2062616c616e636520717565727920666f7220746865207a6560008201527f726f206164647265737300000000000000000000000000000000000000000000602082015250565b600061288f602a83611dd7565b915061289a82612833565b604082019050919050565b600060208201905081810360008301526128be81612882565b9050919050565b7f4552433732314d657461646174613a2055524920717565727920666f72206e6f60008201527f6e6578697374656e7420746f6b656e0000000000000000000000000000000000602082015250565b6000612921602f83611dd7565b915061292c826128c5565b604082019050919050565b6000602082019050818103600083015261295081612914565b9050919050565b600081905092915050565b600061296d82611dcc565b6129778185612957565b9350612987818560208601611de8565b80840191505092915050565b600061299f8285612962565b91506129ab8284612962565b91508190509392505050565b7f4f776e61626c653a206e6577206f776e657220697320746865207a65726f206160008201527f6464726573730000000000000000000000000000000000000000000000000000602082015250565b6000612a13602683611dd7565b9150612a1e826129b7565b604082019050919050565b60006020820190508181036000830152612a4281612a06565b9050919050565b7f4552433732313a206f70657261746f7220717565727920666f72206e6f6e657860008201527f697374656e7420746f6b656e0000000000000000000000000000000000000000602082015250565b6000612aa5602c83611dd7565b9150612ab082612a49565b604082019050919050565b60006020820190508181036000830152612ad481612a98565b9050919050565b7f4552433732313a207472616e736665722066726f6d20696e636f72726563742060008201527f6f776e6572000000000000000000000000000000000000000000000000000000602082015250565b6000612b37602583611dd7565b9150612b4282612adb565b604082019050919050565b60006020820190508181036000830152612b6681612b2a565b9050919050565b7f4552433732313a207472616e7366657220746f20746865207a65726f2061646460008201527f7265737300000000000000000000000000000000000000000000000000000000602082015250565b6000612bc9602483611dd7565b9150612bd482612b6d565b604082019050919050565b60006020820190508181036000830152612bf881612bbc565b9050919050565b6000612c0a82611e87565b9150612c1583611e87565b925082821015612c2857612c27612698565b5b828203905092915050565b6000612c3e82611e87565b9150612c4983611e87565b9250827fffffffffffffffffffffffffffffffffffffffffffffffffffffffffffffffff03821115612c7e57612c7d612698565b5b828201905092915050565b7f4552433732313a20617070726f766520746f2063616c6c657200000000000000600082015250565b6000612cbf601983611dd7565b9150612cca82612c89565b602082019050919050565b60006020820190508181036000830152612cee81612cb2565b9050919050565b7f4552433732313a207472616e7366657220746f206e6f6e20455243373231526560008201527f63656976657220696d706c656d656e7465720000000000000000000000000000602082015250565b6000612d51603283611dd7565b9150612d5c82612cf5565b604082019050919050565b60006020820190508181036000830152612d8081612d44565b9050919050565b7f4e487b7100000000000000000000000000000000000000000000000000000000600052601260045260246000fd5b6000612dc182611e87565b9150612dcc83611e87565b925082612ddc57612ddb612d87565b5b828204905092915050565b6000612df282611e87565b9150612dfd83611e87565b925082612e0d57612e0c612d87565b5b828206905092915050565b7f4e487b7100000000000000000000000000000000000000000000000000000000600052603260045260246000fd5b600081519050919050565b600082825260208201905092915050565b6000612e6e82612e47565b612e788185612e52565b9350612e88818560208601611de8565b612e9181611e1b565b840191505092915050565b6000608082019050612eb16000830187611f1c565b612ebe6020830186611f1c565b612ecb60408301856121b0565b8181036060830152612edd8184612e63565b905095945050505050565b600081519050612ef781611d3d565b92915050565b600060208284031215612f1357612f12611d07565b5b6000612f2184828501612ee8565b91505092915050565b7f4552433732313a206d696e7420746f20746865207a65726f2061646472657373600082015250565b6000612f60602083611dd7565b9150612f6b82612f2a565b602082019050919050565b60006020820190508181036000830152612f8f81612f53565b9050919050565b7f4552433732313a20746f6b656e20616c7265616479206d696e74656400000000600082015250565b6000612fcc601c83611dd7565b9150612fd782612f96565b602082019050919050565b60006020820190508181036000830152612ffb81612fbf565b905091905056fea2646970667358221220a694610ba519678068e03641db427cb6bf21ed3cce66cb3dfdf75abf4f71bfe264736f6c634300080d0033",
  "linkReferences": {},
  "deployedLinkReferences": {}
}