{
  "_format": "hh-sol-artifact-1",
  "contractName": "SFT",
  "sourceName": "contracts/SFT.sol",
  "abi": [
    {
      "inputs": [
        {
          "internalType": "string",
          "name": "_baseUri",
          "type": "string"
        }
      ],
      "stateMutability": "nonpayable",
      "type": "constructor"
    },
    {
      "anonymous": false,
      "inputs": [
        {
          "indexed": true,
          "internalType": "address",
          "name": "account",
          "type": "address"
        },
        {
          "indexed": true,
          "internalType": "address",
          "name": "operator",
          "type": "address"
        },
        {
          "indexed": false,
          "internalType": "bool",
          "name": "approved",
          "type": "bool"
        }
      ],
      "name": "ApprovalForAll",
      "type": "event"
    },
    {
      "anonymous": false,
      "inputs": [
        {
          "indexed": true,
          "internalType": "address",
          "name": "previousOwner",
          "type": "address"
        },
        {
          "indexed": true,
          "internalType": "address",
          "name": "newOwner",
          "type": "address"
        }
      ],
      "name": "OwnershipTransferred",
      "type": "event"
    },
    {
      "anonymous": false,
      "inputs": [
        {
          "indexed": true,
          "internalType": "address",
          "name": "operator",
          "type": "address"
        },
        {
          "indexed": true,
          "internalType": "address",
          "name": "from",
          "type": "address"
        },
        {
          "indexed": true,
          "internalType": "address",
          "name": "to",
          "type": "address"
        },
        {
          "indexed": false,
          "internalType": "uint256[]",
          "name": "ids",
          "type": "uint256[]"
        },
        {
          "indexed": false,
          "internalType": "uint256[]",
          "name": "values",
          "type": "uint256[]"
        }
      ],
      "name": "TransferBatch",
      "type": "event"
    },
    {
      "anonymous": false,
      "inputs": [
        {
          "indexed": true,
          "internalType": "address",
          "name": "operator",
          "type": "address"
        },
        {
          "indexed": true,
          "internalType": "address",
          "name": "from",
          "type": "address"
        },
        {
          "indexed": true,
          "internalType": "address",
          "name": "to",
          "type": "address"
        },
        {
          "indexed": false,
          "internalType": "uint256",
          "name": "id",
          "type": "uint256"
        },
        {
          "indexed": false,
          "internalType": "uint256",
          "name": "value",
          "type": "uint256"
        }
      ],
      "name": "TransferSingle",
      "type": "event"
    },
    {
      "anonymous": false,
      "inputs": [
        {
          "indexed": false,
          "internalType": "string",
          "name": "value",
          "type": "string"
        },
        {
          "indexed": true,
          "internalType": "uint256",
          "name": "id",
          "type": "uint256"
        }
      ],
      "name": "URI",
      "type": "event"
    },
    {
      "inputs": [
        {
          "internalType": "address",
          "name": "account",
          "type": "address"
        },
        {
          "internalType": "uint256",
          "name": "id",
          "type": "uint256"
        }
      ],
      "name": "balanceOf",
      "outputs": [
        {
          "internalType": "uint256",
          "name": "",
          "type": "uint256"
        }
      ],
      "stateMutability": "view",
      "type": "function"
    },
    {
      "inputs": [
        {
          "internalType": "address[]",
          "name": "accounts",
          "type": "address[]"
        },
        {
          "internalType": "uint256[]",
          "name": "ids",
          "type": "uint256[]"
        }
      ],
      "name": "balanceOfBatch",
      "outputs": [
        {
          "internalType": "uint256[]",
          "name": "",
          "type": "uint256[]"
        }
      ],
      "stateMutability": "view",
      "type": "function"
    },
    {
      "inputs": [],
      "name": "baseURI",
      "outputs": [
        {
          "internalType": "string",
          "name": "",
          "type": "string"
        }
      ],
      "stateMutability": "view",
      "type": "function"
    },
    {
      "inputs": [],
      "name": "getCount",
      "outputs": [
        {
          "internalType": "uint256",
          "name": "",
          "type": "uint256"
        }
      ],
      "stateMutability": "view",
      "type": "function"
    },
    {
      "inputs": [
        {
          "internalType": "address",
          "name": "account",
          "type": "address"
        },
        {
          "internalType": "address",
          "name": "operator",
          "type": "address"
        }
      ],
      "name": "isApprovedForAll",
      "outputs": [
        {
          "internalType": "bool",
          "name": "",
          "type": "bool"
        }
      ],
      "stateMutability": "view",
      "type": "function"
    },
    {
      "inputs": [
        {
          "internalType": "uint256",
          "name": "_amount",
          "type": "uint256"
        }
      ],
      "name": "mint",
      "outputs": [],
      "stateMutability": "nonpayable",
      "type": "function"
    },
    {
      "inputs": [],
      "name": "owner",
      "outputs": [
        {
          "internalType": "address",
          "name": "",
          "type": "address"
        }
      ],
      "stateMutability": "view",
      "type": "function"
    },
    {
      "inputs": [],
      "name": "renounceOwnership",
      "outputs": [],
      "stateMutability": "nonpayable",
      "type": "function"
    },
    {
      "inputs": [
        {
          "internalType": "address",
          "name": "from",
          "type": "address"
        },
        {
          "internalType": "address",
          "name": "to",
          "type": "address"
        },
        {
          "internalType": "uint256[]",
          "name": "ids",
          "type": "uint256[]"
        },
        {
          "internalType": "uint256[]",
          "name": "amounts",
          "type": "uint256[]"
        },
        {
          "internalType": "bytes",
          "name": "data",
          "type": "bytes"
        }
      ],
      "name": "safeBatchTransferFrom",
      "outputs": [],
      "stateMutability": "nonpayable",
      "type": "function"
    },
    {
      "inputs": [
        {
          "internalType": "address",
          "name": "from",
          "type": "address"
        },
        {
          "internalType": "address",
          "name": "to",
          "type": "address"
        },
        {
          "internalType": "uint256",
          "name": "id",
          "type": "uint256"
        },
        {
          "internalType": "uint256",
          "name": "amount",
          "type": "uint256"
        },
        {
          "internalType": "bytes",
          "name": "data",
          "type": "bytes"
        }
      ],
      "name": "safeTransferFrom",
      "outputs": [],
      "stateMutability": "nonpayable",
      "type": "function"
    },
    {
      "inputs": [
        {
          "internalType": "address",
          "name": "operator",
          "type": "address"
        },
        {
          "internalType": "bool",
          "name": "approved",
          "type": "bool"
        }
      ],
      "name": "setApprovalForAll",
      "outputs": [],
      "stateMutability": "nonpayable",
      "type": "function"
    },
    {
      "inputs": [
        {
          "internalType": "bytes4",
          "name": "interfaceId",
          "type": "bytes4"
        }
      ],
      "name": "supportsInterface",
      "outputs": [
        {
          "internalType": "bool",
          "name": "",
          "type": "bool"
        }
      ],
      "stateMutability": "view",
      "type": "function"
    },
    {
      "inputs": [],
      "name": "tokenCount",
      "outputs": [
        {
          "internalType": "uint256",
          "name": "",
          "type": "uint256"
        }
      ],
      "stateMutability": "view",
      "type": "function"
    },
    {
      "inputs": [
        {
          "internalType": "address",
          "name": "newOwner",
          "type": "address"
        }
      ],
      "name": "transferOwnership",
      "outputs": [],
      "stateMutability": "nonpayable",
      "type": "function"
    },
    {
      "inputs": [
        {
          "internalType": "uint256",
          "name": "",
          "type": "uint256"
        }
      ],
      "name": "uri",
      "outputs": [
        {
          "internalType": "string",
          "name": "",
          "type": "string"
        }
      ],
      "stateMutability": "view",
      "type": "function"
    }
  ],
  "bytecode": "0x60806040523480156200001157600080fd5b506040516200336c3803806200336c8339818101604052810190620000379190620003b0565b8062000049816200007960201b60201c565b506200006a6200005e6200009560201b60201c565b6200009d60201b60201c565b60016004819055505062000465565b80600290805190602001906200009192919062000163565b5050565b600033905090565b6000600360009054906101000a900473ffffffffffffffffffffffffffffffffffffffff16905081600360006101000a81548173ffffffffffffffffffffffffffffffffffffffff021916908373ffffffffffffffffffffffffffffffffffffffff1602179055508173ffffffffffffffffffffffffffffffffffffffff168173ffffffffffffffffffffffffffffffffffffffff167f8be0079c531659141344cd1fd0a4f28419497f9722a3daafe3b4186f6b6457e060405160405180910390a35050565b828054620001719062000430565b90600052602060002090601f016020900481019282620001955760008555620001e1565b82601f10620001b057805160ff1916838001178555620001e1565b82800160010185558215620001e1579182015b82811115620001e0578251825591602001919060010190620001c3565b5b509050620001f09190620001f4565b5090565b5b808211156200020f576000816000905550600101620001f5565b5090565b6000604051905090565b600080fd5b600080fd5b600080fd5b600080fd5b6000601f19601f8301169050919050565b7f4e487b7100000000000000000000000000000000000000000000000000000000600052604160045260246000fd5b6200027c8262000231565b810181811067ffffffffffffffff821117156200029e576200029d62000242565b5b80604052505050565b6000620002b362000213565b9050620002c1828262000271565b919050565b600067ffffffffffffffff821115620002e457620002e362000242565b5b620002ef8262000231565b9050602081019050919050565b60005b838110156200031c578082015181840152602081019050620002ff565b838111156200032c576000848401525b50505050565b6000620003496200034384620002c6565b620002a7565b9050828152602081018484840111156200036857620003676200022c565b5b62000375848285620002fc565b509392505050565b600082601f83011262000395576200039462000227565b5b8151620003a784826020860162000332565b91505092915050565b600060208284031215620003c957620003c86200021d565b5b600082015167ffffffffffffffff811115620003ea57620003e962000222565b5b620003f8848285016200037d565b91505092915050565b7f4e487b7100000000000000000000000000000000000000000000000000000000600052602260045260246000fd5b600060028204905060018216806200044957607f821691505b6020821081036200045f576200045e62000401565b5b50919050565b612ef780620004756000396000f3fe608060405234801561001057600080fd5b50600436106100f45760003560e01c80638da5cb5b11610097578063a87d942c11610066578063a87d942c14610271578063e985e9c51461028f578063f242432a146102bf578063f2fde38b146102db576100f4565b80638da5cb5b146101fd5780639f181b5e1461021b578063a0712d6814610239578063a22cb46514610255576100f4565b80632eb2c2d6116100d35780632eb2c2d6146101895780634e1273f4146101a55780636c0360eb146101d5578063715018a6146101f3576100f4565b8062fdd58e146100f957806301ffc9a7146101295780630e89341c14610159575b600080fd5b610113600480360381019061010e9190611aaf565b6102f7565b6040516101209190611afe565b60405180910390f35b610143600480360381019061013e9190611b71565b6103bf565b6040516101509190611bb9565b60405180910390f35b610173600480360381019061016e9190611bd4565b6103d1565b6040516101809190611c9a565b60405180910390f35b6101a3600480360381019061019e9190611eb9565b610465565b005b6101bf60048036038101906101ba919061204b565b610506565b6040516101cc9190612181565b60405180910390f35b6101dd61061f565b6040516101ea9190611c9a565b60405180910390f35b6101fb6106ad565b005b610205610735565b60405161021291906121b2565b60405180910390f35b61022361075f565b6040516102309190611afe565b60405180910390f35b610253600480360381019061024e9190611bd4565b610765565b005b61026f600480360381019061026a91906121f9565b61086e565b005b610279610884565b6040516102869190611afe565b60405180910390f35b6102a960048036038101906102a49190612239565b61088e565b6040516102b69190611bb9565b60405180910390f35b6102d960048036038101906102d49190612279565b610922565b005b6102f560048036038101906102f09190612310565b6109c3565b005b60008073ffffffffffffffffffffffffffffffffffffffff168373ffffffffffffffffffffffffffffffffffffffff1603610367576040517f08c379a000000000000000000000000000000000000000000000000000000000815260040161035e906123af565b60405180910390fd5b60008083815260200190815260200160002060008473ffffffffffffffffffffffffffffffffffffffff1673ffffffffffffffffffffffffffffffffffffffff16815260200190815260200160002054905092915050565b60006103ca82610aba565b9050919050565b6060600280546103e0906123fe565b80601f016020809104026020016040519081016040528092919081815260200182805461040c906123fe565b80156104595780601f1061042e57610100808354040283529160200191610459565b820191906000526020600020905b81548152906001019060200180831161043c57829003601f168201915b50505050509050919050565b61046d610b9c565b73ffffffffffffffffffffffffffffffffffffffff168573ffffffffffffffffffffffffffffffffffffffff1614806104b357506104b2856104ad610b9c565b61088e565b5b6104f2576040517f08c379a00000000000000000000000000000000000000000000000000000000081526004016104e9906124a1565b60405180910390fd5b6104ff8585858585610ba4565b5050505050565b6060815183511461054c576040517f08c379a000000000000000000000000000000000000000000000000000000000815260040161054390612533565b60405180910390fd5b6000835167ffffffffffffffff81111561056957610568611cc1565b5b6040519080825280602002602001820160405280156105975781602001602082028036833780820191505090505b50905060005b8451811015610614576105e48582815181106105bc576105bb612553565b5b60200260200101518583815181106105d7576105d6612553565b5b60200260200101516102f7565b8282815181106105f7576105f6612553565b5b6020026020010181815250508061060d906125b1565b905061059d565b508091505092915050565b6005805461062c906123fe565b80601f0160208091040260200160405190810160405280929190818152602001828054610658906123fe565b80156106a55780601f1061067a576101008083540402835291602001916106a5565b820191906000526020600020905b81548152906001019060200180831161068857829003601f168201915b505050505081565b6106b5610b9c565b73ffffffffffffffffffffffffffffffffffffffff166106d3610735565b73ffffffffffffffffffffffffffffffffffffffff1614610729576040517f08c379a000000000000000000000000000000000000000000000000000000000815260040161072090612645565b60405180910390fd5b6107336000610ec5565b565b6000600360009054906101000a900473ffffffffffffffffffffffffffffffffffffffff16905090565b60065481565b6002600454036107aa576040517f08c379a00000000000000000000000000000000000000000000000000000000081526004016107a1906126b1565b60405180910390fd5b60026004819055506107ba610b9c565b73ffffffffffffffffffffffffffffffffffffffff166107d8610735565b73ffffffffffffffffffffffffffffffffffffffff161461082e576040517f08c379a000000000000000000000000000000000000000000000000000000000815260040161082590612645565b60405180910390fd5b60066000815480929190610841906125b1565b9190505550610863336006548360405180602001604052806000815250610f8b565b600160048190555050565b610880610879610b9c565b838361113b565b5050565b6000600654905090565b6000600160008473ffffffffffffffffffffffffffffffffffffffff1673ffffffffffffffffffffffffffffffffffffffff16815260200190815260200160002060008373ffffffffffffffffffffffffffffffffffffffff1673ffffffffffffffffffffffffffffffffffffffff16815260200190815260200160002060009054906101000a900460ff16905092915050565b61092a610b9c565b73ffffffffffffffffffffffffffffffffffffffff168573ffffffffffffffffffffffffffffffffffffffff161480610970575061096f8561096a610b9c565b61088e565b5b6109af576040517f08c379a00000000000000000000000000000000000000000000000000000000081526004016109a690612743565b60405180910390fd5b6109bc85858585856112a7565b5050505050565b6109cb610b9c565b73ffffffffffffffffffffffffffffffffffffffff166109e9610735565b73ffffffffffffffffffffffffffffffffffffffff1614610a3f576040517f08c379a0000000000000000000000000000000000000000000000000000000008152600401610a3690612645565b60405180910390fd5b600073ffffffffffffffffffffffffffffffffffffffff168173ffffffffffffffffffffffffffffffffffffffff1603610aae576040517f08c379a0000000000000000000000000000000000000000000000000000000008152600401610aa5906127d5565b60405180910390fd5b610ab781610ec5565b50565b60007fd9b67a26000000000000000000000000000000000000000000000000000000007bffffffffffffffffffffffffffffffffffffffffffffffffffffffff1916827bffffffffffffffffffffffffffffffffffffffffffffffffffffffff19161480610b8557507f0e89341c000000000000000000000000000000000000000000000000000000007bffffffffffffffffffffffffffffffffffffffffffffffffffffffff1916827bffffffffffffffffffffffffffffffffffffffffffffffffffffffff1916145b80610b955750610b9482611542565b5b9050919050565b600033905090565b8151835114610be8576040517f08c379a0000000000000000000000000000000000000000000000000000000008152600401610bdf90612867565b60405180910390fd5b600073ffffffffffffffffffffffffffffffffffffffff168473ffffffffffffffffffffffffffffffffffffffff1603610c57576040517f08c379a0000000000000000000000000000000000000000000000000000000008152600401610c4e906128f9565b60405180910390fd5b6000610c61610b9c565b9050610c718187878787876115ac565b60005b8451811015610e22576000858281518110610c9257610c91612553565b5b602002602001015190506000858381518110610cb157610cb0612553565b5b60200260200101519050600080600084815260200190815260200160002060008b73ffffffffffffffffffffffffffffffffffffffff1673ffffffffffffffffffffffffffffffffffffffff16815260200190815260200160002054905081811015610d52576040517f08c379a0000000000000000000000000000000000000000000000000000000008152600401610d499061298b565b60405180910390fd5b81810360008085815260200190815260200160002060008c73ffffffffffffffffffffffffffffffffffffffff1673ffffffffffffffffffffffffffffffffffffffff168152602001908152602001600020819055508160008085815260200190815260200160002060008b73ffffffffffffffffffffffffffffffffffffffff1673ffffffffffffffffffffffffffffffffffffffff1681526020019081526020016000206000828254610e0791906129ab565b9250508190555050505080610e1b906125b1565b9050610c74565b508473ffffffffffffffffffffffffffffffffffffffff168673ffffffffffffffffffffffffffffffffffffffff168273ffffffffffffffffffffffffffffffffffffffff167f4a39dc06d4c0dbc64b70af90fd698a233a518aa5d07e595d983b8c0526c8f7fb8787604051610e99929190612a01565b60405180910390a4610eaf8187878787876115b4565b610ebd8187878787876115bc565b505050505050565b6000600360009054906101000a900473ffffffffffffffffffffffffffffffffffffffff16905081600360006101000a81548173ffffffffffffffffffffffffffffffffffffffff021916908373ffffffffffffffffffffffffffffffffffffffff1602179055508173ffffffffffffffffffffffffffffffffffffffff168173ffffffffffffffffffffffffffffffffffffffff167f8be0079c531659141344cd1fd0a4f28419497f9722a3daafe3b4186f6b6457e060405160405180910390a35050565b600073ffffffffffffffffffffffffffffffffffffffff168473ffffffffffffffffffffffffffffffffffffffff1603610ffa576040517f08c379a0000000000000000000000000000000000000000000000000000000008152600401610ff190612aaa565b60405180910390fd5b6000611004610b9c565b9050600061101185611793565b9050600061101e85611793565b905061102f836000898585896115ac565b8460008088815260200190815260200160002060008973ffffffffffffffffffffffffffffffffffffffff1673ffffffffffffffffffffffffffffffffffffffff168152602001908152602001600020600082825461108e91906129ab565b925050819055508673ffffffffffffffffffffffffffffffffffffffff16600073ffffffffffffffffffffffffffffffffffffffff168473ffffffffffffffffffffffffffffffffffffffff167fc3d58168c5ae7397731d063d5bbf3d657854427343f4c083240f7aacaa2d0f62898960405161110c929190612aca565b60405180910390a4611123836000898585896115b4565b6111328360008989898961180d565b50505050505050565b8173ffffffffffffffffffffffffffffffffffffffff168373ffffffffffffffffffffffffffffffffffffffff16036111a9576040517f08c379a00000000000000000000000000000000000000000000000000000000081526004016111a090612b65565b60405180910390fd5b80600160008573ffffffffffffffffffffffffffffffffffffffff1673ffffffffffffffffffffffffffffffffffffffff16815260200190815260200160002060008473ffffffffffffffffffffffffffffffffffffffff1673ffffffffffffffffffffffffffffffffffffffff16815260200190815260200160002060006101000a81548160ff0219169083151502179055508173ffffffffffffffffffffffffffffffffffffffff168373ffffffffffffffffffffffffffffffffffffffff167f17307eab39ab6107e8899845ad3d59bd9653f200f220920489ca2b5937696c318360405161129a9190611bb9565b60405180910390a3505050565b600073ffffffffffffffffffffffffffffffffffffffff168473ffffffffffffffffffffffffffffffffffffffff1603611316576040517f08c379a000000000000000000000000000000000000000000000000000000000815260040161130d906128f9565b60405180910390fd5b6000611320610b9c565b9050600061132d85611793565b9050600061133a85611793565b905061134a8389898585896115ac565b600080600088815260200190815260200160002060008a73ffffffffffffffffffffffffffffffffffffffff1673ffffffffffffffffffffffffffffffffffffffff168152602001908152602001600020549050858110156113e1576040517f08c379a00000000000000000000000000000000000000000000000000000000081526004016113d89061298b565b60405180910390fd5b85810360008089815260200190815260200160002060008b73ffffffffffffffffffffffffffffffffffffffff1673ffffffffffffffffffffffffffffffffffffffff168152602001908152602001600020819055508560008089815260200190815260200160002060008a73ffffffffffffffffffffffffffffffffffffffff1673ffffffffffffffffffffffffffffffffffffffff168152602001908152602001600020600082825461149691906129ab565b925050819055508773ffffffffffffffffffffffffffffffffffffffff168973ffffffffffffffffffffffffffffffffffffffff168573ffffffffffffffffffffffffffffffffffffffff167fc3d58168c5ae7397731d063d5bbf3d657854427343f4c083240f7aacaa2d0f628a8a604051611513929190612aca565b60405180910390a4611529848a8a86868a6115b4565b611537848a8a8a8a8a61180d565b505050505050505050565b60007f01ffc9a7000000000000000000000000000000000000000000000000000000007bffffffffffffffffffffffffffffffffffffffffffffffffffffffff1916827bffffffffffffffffffffffffffffffffffffffffffffffffffffffff1916149050919050565b505050505050565b505050505050565b6115db8473ffffffffffffffffffffffffffffffffffffffff166119e4565b1561178b578373ffffffffffffffffffffffffffffffffffffffff1663bc197c8187878686866040518663ffffffff1660e01b8152600401611621959493929190612bda565b6020604051808303816000875af192505050801561165d57506040513d601f19601f8201168201806040525081019061165a9190612c57565b60015b61170257611669612c91565b806308c379a0036116c5575061167d612cb3565b8061168857506116c7565b806040517f08c379a00000000000000000000000000000000000000000000000000000000081526004016116bc9190611c9a565b60405180910390fd5b505b6040517f08c379a00000000000000000000000000000000000000000000000000000000081526004016116f990612db5565b60405180910390fd5b63bc197c8160e01b7bffffffffffffffffffffffffffffffffffffffffffffffffffffffff1916817bffffffffffffffffffffffffffffffffffffffffffffffffffffffff191614611789576040517f08c379a000000000000000000000000000000000000000000000000000000000815260040161178090612e47565b60405180910390fd5b505b505050505050565b60606000600167ffffffffffffffff8111156117b2576117b1611cc1565b5b6040519080825280602002602001820160405280156117e05781602001602082028036833780820191505090505b50905082816000815181106117f8576117f7612553565b5b60200260200101818152505080915050919050565b61182c8473ffffffffffffffffffffffffffffffffffffffff166119e4565b156119dc578373ffffffffffffffffffffffffffffffffffffffff1663f23a6e6187878686866040518663ffffffff1660e01b8152600401611872959493929190612e67565b6020604051808303816000875af19250505080156118ae57506040513d601f19601f820116820180604052508101906118ab9190612c57565b60015b611953576118ba612c91565b806308c379a00361191657506118ce612cb3565b806118d95750611918565b806040517f08c379a000000000000000000000000000000000000000000000000000000000815260040161190d9190611c9a565b60405180910390fd5b505b6040517f08c379a000000000000000000000000000000000000000000000000000000000815260040161194a90612db5565b60405180910390fd5b63f23a6e6160e01b7bffffffffffffffffffffffffffffffffffffffffffffffffffffffff1916817bffffffffffffffffffffffffffffffffffffffffffffffffffffffff1916146119da576040517f08c379a00000000000000000000000000000000000000000000000000000000081526004016119d190612e47565b60405180910390fd5b505b505050505050565b6000808273ffffffffffffffffffffffffffffffffffffffff163b119050919050565b6000604051905090565b600080fd5b600080fd5b600073ffffffffffffffffffffffffffffffffffffffff82169050919050565b6000611a4682611a1b565b9050919050565b611a5681611a3b565b8114611a6157600080fd5b50565b600081359050611a7381611a4d565b92915050565b6000819050919050565b611a8c81611a79565b8114611a9757600080fd5b50565b600081359050611aa981611a83565b92915050565b60008060408385031215611ac657611ac5611a11565b5b6000611ad485828601611a64565b9250506020611ae585828601611a9a565b9150509250929050565b611af881611a79565b82525050565b6000602082019050611b136000830184611aef565b92915050565b60007fffffffff0000000000000000000000000000000000000000000000000000000082169050919050565b611b4e81611b19565b8114611b5957600080fd5b50565b600081359050611b6b81611b45565b92915050565b600060208284031215611b8757611b86611a11565b5b6000611b9584828501611b5c565b91505092915050565b60008115159050919050565b611bb381611b9e565b82525050565b6000602082019050611bce6000830184611baa565b92915050565b600060208284031215611bea57611be9611a11565b5b6000611bf884828501611a9a565b91505092915050565b600081519050919050565b600082825260208201905092915050565b60005b83811015611c3b578082015181840152602081019050611c20565b83811115611c4a576000848401525b50505050565b6000601f19601f8301169050919050565b6000611c6c82611c01565b611c768185611c0c565b9350611c86818560208601611c1d565b611c8f81611c50565b840191505092915050565b60006020820190508181036000830152611cb48184611c61565b905092915050565b600080fd5b7f4e487b7100000000000000000000000000000000000000000000000000000000600052604160045260246000fd5b611cf982611c50565b810181811067ffffffffffffffff82111715611d1857611d17611cc1565b5b80604052505050565b6000611d2b611a07565b9050611d378282611cf0565b919050565b600067ffffffffffffffff821115611d5757611d56611cc1565b5b602082029050602081019050919050565b600080fd5b6000611d80611d7b84611d3c565b611d21565b90508083825260208201905060208402830185811115611da357611da2611d68565b5b835b81811015611dcc5780611db88882611a9a565b845260208401935050602081019050611da5565b5050509392505050565b600082601f830112611deb57611dea611cbc565b5b8135611dfb848260208601611d6d565b91505092915050565b600080fd5b600067ffffffffffffffff821115611e2457611e23611cc1565b5b611e2d82611c50565b9050602081019050919050565b82818337600083830152505050565b6000611e5c611e5784611e09565b611d21565b905082815260208101848484011115611e7857611e77611e04565b5b611e83848285611e3a565b509392505050565b600082601f830112611ea057611e9f611cbc565b5b8135611eb0848260208601611e49565b91505092915050565b600080600080600060a08688031215611ed557611ed4611a11565b5b6000611ee388828901611a64565b9550506020611ef488828901611a64565b945050604086013567ffffffffffffffff811115611f1557611f14611a16565b5b611f2188828901611dd6565b935050606086013567ffffffffffffffff811115611f4257611f41611a16565b5b611f4e88828901611dd6565b925050608086013567ffffffffffffffff811115611f6f57611f6e611a16565b5b611f7b88828901611e8b565b9150509295509295909350565b600067ffffffffffffffff821115611fa357611fa2611cc1565b5b602082029050602081019050919050565b6000611fc7611fc284611f88565b611d21565b90508083825260208201905060208402830185811115611fea57611fe9611d68565b5b835b818110156120135780611fff8882611a64565b845260208401935050602081019050611fec565b5050509392505050565b600082601f83011261203257612031611cbc565b5b8135612042848260208601611fb4565b91505092915050565b6000806040838503121561206257612061611a11565b5b600083013567ffffffffffffffff8111156120805761207f611a16565b5b61208c8582860161201d565b925050602083013567ffffffffffffffff8111156120ad576120ac611a16565b5b6120b985828601611dd6565b9150509250929050565b600081519050919050565b600082825260208201905092915050565b6000819050602082019050919050565b6120f881611a79565b82525050565b600061210a83836120ef565b60208301905092915050565b6000602082019050919050565b600061212e826120c3565b61213881856120ce565b9350612143836120df565b8060005b8381101561217457815161215b88826120fe565b975061216683612116565b925050600181019050612147565b5085935050505092915050565b6000602082019050818103600083015261219b8184612123565b905092915050565b6121ac81611a3b565b82525050565b60006020820190506121c760008301846121a3565b92915050565b6121d681611b9e565b81146121e157600080fd5b50565b6000813590506121f3816121cd565b92915050565b600080604083850312156122105761220f611a11565b5b600061221e85828601611a64565b925050602061222f858286016121e4565b9150509250929050565b600080604083850312156122505761224f611a11565b5b600061225e85828601611a64565b925050602061226f85828601611a64565b9150509250929050565b600080600080600060a0868803121561229557612294611a11565b5b60006122a388828901611a64565b95505060206122b488828901611a64565b94505060406122c588828901611a9a565b93505060606122d688828901611a9a565b925050608086013567ffffffffffffffff8111156122f7576122f6611a16565b5b61230388828901611e8b565b9150509295509295909350565b60006020828403121561232657612325611a11565b5b600061233484828501611a64565b91505092915050565b7f455243313135353a2062616c616e636520717565727920666f7220746865207a60008201527f65726f2061646472657373000000000000000000000000000000000000000000602082015250565b6000612399602b83611c0c565b91506123a48261233d565b604082019050919050565b600060208201905081810360008301526123c88161238c565b9050919050565b7f4e487b7100000000000000000000000000000000000000000000000000000000600052602260045260246000fd5b6000600282049050600182168061241657607f821691505b602082108103612429576124286123cf565b5b50919050565b7f455243313135353a207472616e736665722063616c6c6572206973206e6f742060008201527f6f776e6572206e6f7220617070726f7665640000000000000000000000000000602082015250565b600061248b603283611c0c565b91506124968261242f565b604082019050919050565b600060208201905081810360008301526124ba8161247e565b9050919050565b7f455243313135353a206163636f756e747320616e6420696473206c656e67746860008201527f206d69736d617463680000000000000000000000000000000000000000000000602082015250565b600061251d602983611c0c565b9150612528826124c1565b604082019050919050565b6000602082019050818103600083015261254c81612510565b9050919050565b7f4e487b7100000000000000000000000000000000000000000000000000000000600052603260045260246000fd5b7f4e487b7100000000000000000000000000000000000000000000000000000000600052601160045260246000fd5b60006125bc82611a79565b91507fffffffffffffffffffffffffffffffffffffffffffffffffffffffffffffffff82036125ee576125ed612582565b5b600182019050919050565b7f4f776e61626c653a2063616c6c6572206973206e6f7420746865206f776e6572600082015250565b600061262f602083611c0c565b915061263a826125f9565b602082019050919050565b6000602082019050818103600083015261265e81612622565b9050919050565b7f5265656e7472616e637947756172643a207265656e7472616e742063616c6c00600082015250565b600061269b601f83611c0c565b91506126a682612665565b602082019050919050565b600060208201905081810360008301526126ca8161268e565b9050919050565b7f455243313135353a2063616c6c6572206973206e6f74206f776e6572206e6f7260008201527f20617070726f7665640000000000000000000000000000000000000000000000602082015250565b600061272d602983611c0c565b9150612738826126d1565b604082019050919050565b6000602082019050818103600083015261275c81612720565b9050919050565b7f4f776e61626c653a206e6577206f776e657220697320746865207a65726f206160008201527f6464726573730000000000000000000000000000000000000000000000000000602082015250565b60006127bf602683611c0c565b91506127ca82612763565b604082019050919050565b600060208201905081810360008301526127ee816127b2565b9050919050565b7f455243313135353a2069647320616e6420616d6f756e7473206c656e6774682060008201527f6d69736d61746368000000000000000000000000000000000000000000000000602082015250565b6000612851602883611c0c565b915061285c826127f5565b604082019050919050565b6000602082019050818103600083015261288081612844565b9050919050565b7f455243313135353a207472616e7366657220746f20746865207a65726f20616460008201527f6472657373000000000000000000000000000000000000000000000000000000602082015250565b60006128e3602583611c0c565b91506128ee82612887565b604082019050919050565b60006020820190508181036000830152612912816128d6565b9050919050565b7f455243313135353a20696e73756666696369656e742062616c616e636520666f60008201527f72207472616e7366657200000000000000000000000000000000000000000000602082015250565b6000612975602a83611c0c565b915061298082612919565b604082019050919050565b600060208201905081810360008301526129a481612968565b9050919050565b60006129b682611a79565b91506129c183611a79565b9250827fffffffffffffffffffffffffffffffffffffffffffffffffffffffffffffffff038211156129f6576129f5612582565b5b828201905092915050565b60006040820190508181036000830152612a1b8185612123565b90508181036020830152612a2f8184612123565b90509392505050565b7f455243313135353a206d696e7420746f20746865207a65726f2061646472657360008201527f7300000000000000000000000000000000000000000000000000000000000000602082015250565b6000612a94602183611c0c565b9150612a9f82612a38565b604082019050919050565b60006020820190508181036000830152612ac381612a87565b9050919050565b6000604082019050612adf6000830185611aef565b612aec6020830184611aef565b9392505050565b7f455243313135353a2073657474696e6720617070726f76616c2073746174757360008201527f20666f722073656c660000000000000000000000000000000000000000000000602082015250565b6000612b4f602983611c0c565b9150612b5a82612af3565b604082019050919050565b60006020820190508181036000830152612b7e81612b42565b9050919050565b600081519050919050565b600082825260208201905092915050565b6000612bac82612b85565b612bb68185612b90565b9350612bc6818560208601611c1d565b612bcf81611c50565b840191505092915050565b600060a082019050612bef60008301886121a3565b612bfc60208301876121a3565b8181036040830152612c0e8186612123565b90508181036060830152612c228185612123565b90508181036080830152612c368184612ba1565b90509695505050505050565b600081519050612c5181611b45565b92915050565b600060208284031215612c6d57612c6c611a11565b5b6000612c7b84828501612c42565b91505092915050565b60008160e01c9050919050565b600060033d1115612cb05760046000803e612cad600051612c84565b90505b90565b600060443d10612d4057612cc5611a07565b60043d036004823e80513d602482011167ffffffffffffffff82111715612ced575050612d40565b808201805167ffffffffffffffff811115612d0b5750505050612d40565b80602083010160043d038501811115612d28575050505050612d40565b612d3782602001850186611cf0565b82955050505050505b90565b7f455243313135353a207472616e7366657220746f206e6f6e204552433131353560008201527f526563656976657220696d706c656d656e746572000000000000000000000000602082015250565b6000612d9f603483611c0c565b9150612daa82612d43565b604082019050919050565b60006020820190508181036000830152612dce81612d92565b9050919050565b7f455243313135353a204552433131353552656365697665722072656a6563746560008201527f6420746f6b656e73000000000000000000000000000000000000000000000000602082015250565b6000612e31602883611c0c565b9150612e3c82612dd5565b604082019050919050565b60006020820190508181036000830152612e6081612e24565b9050919050565b600060a082019050612e7c60008301886121a3565b612e8960208301876121a3565b612e966040830186611aef565b612ea36060830185611aef565b8181036080830152612eb58184612ba1565b9050969550505050505056fea2646970667358221220fb876196bf2bdc39b2842bb5dc93699d077a00d46fd2e7f4c9155e3f00079a9b64736f6c634300080d0033",
  "linkReferences": {},
  "deployedLinkReferences": {}
}