{
  "_format": "hh-sol-artifact-1",
  "contractName": "Factory",
  "sourceName": "contracts/Factory.sol",
  "abi": [
    {
      "inputs": [
        {
          "internalType": "string",
          "name": "_artistName",
          "type": "string"
        },
        {
          "internalType": "string",
          "name": "_artistSymbol",
          "type": "string"
        },
        {
          "internalType": "string",
          "name": "_baseUri",
          "type": "string"
        }
      ],
      "name": "createNFTCollection",
      "outputs": [],
      "stateMutability": "payable",
      "type": "function"
    },
    {
      "inputs": [
        {
          "internalType": "uint256",
          "name": "_id",
          "type": "uint256"
        }
      ],
      "name": "getCollection",
      "outputs": [
        {
          "internalType": "address",
          "name": "",
          "type": "address"
        }
      ],
      "stateMutability": "view",
      "type": "function"
    },
    {
      "inputs": [
        {
          "internalType": "address",
          "name": "_address",
          "type": "address"
        }
      ],
      "name": "getCollectionsByArtist",
      "outputs": [
        {
          "internalType": "address[]",
          "name": "",
          "type": "address[]"
        }
      ],
      "stateMutability": "view",
      "type": "function"
    }
  ],
  "bytecode": "0x608060405234801561001057600080fd5b50615eab806100206000396000f3fe608060405260043610620000385760003560e01c806345bfd405146200003d5780635a1f3c281462000081578063844af65814620000c5575b600080fd5b3480156200004a57600080fd5b50620000696004803603810190620000639190620003cb565b620000e5565b604051620000789190620004cb565b60405180910390f35b3480156200008e57600080fd5b50620000ad6004803603810190620000a791906200052a565b620001b4565b604051620000bc91906200056d565b60405180910390f35b620000e36004803603810190620000dd9190620006ec565b620001f1565b005b6060600260008373ffffffffffffffffffffffffffffffffffffffff1673ffffffffffffffffffffffffffffffffffffffff168152602001908152602001600020805480602002602001604051908101604052809291908181526020018280548015620001a857602002820191906000526020600020905b8160009054906101000a900473ffffffffffffffffffffffffffffffffffffffff1673ffffffffffffffffffffffffffffffffffffffff16815260200190600101908083116200015d575b50505050509050919050565b60006001600083815260200190815260200160002060009054906101000a900473ffffffffffffffffffffffffffffffffffffffff169050919050565b6000838383604051620002049062000344565b620002129392919062000838565b604051809103906000f0801580156200022f573d6000803e3d6000fd5b509050600260003373ffffffffffffffffffffffffffffffffffffffff1673ffffffffffffffffffffffffffffffffffffffff168152602001908152602001600020819080600181540180825580915050600190039060005260206000200160009091909190916101000a81548173ffffffffffffffffffffffffffffffffffffffff021916908373ffffffffffffffffffffffffffffffffffffffff160217905550600080815480929190620002e690620008b9565b919050555080600160008054815260200190815260200160002060006101000a81548173ffffffffffffffffffffffffffffffffffffffff021916908373ffffffffffffffffffffffffffffffffffffffff16021790555050505050565b61556f806200090783390190565b6000604051905090565b600080fd5b600080fd5b600073ffffffffffffffffffffffffffffffffffffffff82169050919050565b6000620003938262000366565b9050919050565b620003a58162000386565b8114620003b157600080fd5b50565b600081359050620003c5816200039a565b92915050565b600060208284031215620003e457620003e36200035c565b5b6000620003f484828501620003b4565b91505092915050565b600081519050919050565b600082825260208201905092915050565b6000819050602082019050919050565b620004348162000386565b82525050565b600062000448838362000429565b60208301905092915050565b6000602082019050919050565b60006200046e82620003fd565b6200047a818562000408565b9350620004878362000419565b8060005b83811015620004be578151620004a288826200043a565b9750620004af8362000454565b9250506001810190506200048b565b5085935050505092915050565b60006020820190508181036000830152620004e7818462000461565b905092915050565b6000819050919050565b6200050481620004ef565b81146200051057600080fd5b50565b6000813590506200052481620004f9565b92915050565b6000602082840312156200054357620005426200035c565b5b6000620005538482850162000513565b91505092915050565b620005678162000386565b82525050565b60006020820190506200058460008301846200055c565b92915050565b600080fd5b600080fd5b6000601f19601f8301169050919050565b7f4e487b7100000000000000000000000000000000000000000000000000000000600052604160045260246000fd5b620005df8262000594565b810181811067ffffffffffffffff82111715620006015762000600620005a5565b5b80604052505050565b60006200061662000352565b9050620006248282620005d4565b919050565b600067ffffffffffffffff821115620006475762000646620005a5565b5b620006528262000594565b9050602081019050919050565b82818337600083830152505050565b6000620006856200067f8462000629565b6200060a565b905082815260208101848484011115620006a457620006a36200058f565b5b620006b18482856200065f565b509392505050565b600082601f830112620006d157620006d06200058a565b5b8135620006e38482602086016200066e565b91505092915050565b6000806000606084860312156200070857620007076200035c565b5b600084013567ffffffffffffffff81111562000729576200072862000361565b5b6200073786828701620006b9565b935050602084013567ffffffffffffffff8111156200075b576200075a62000361565b5b6200076986828701620006b9565b925050604084013567ffffffffffffffff8111156200078d576200078c62000361565b5b6200079b86828701620006b9565b9150509250925092565b600081519050919050565b600082825260208201905092915050565b60005b83811015620007e1578082015181840152602081019050620007c4565b83811115620007f1576000848401525b50505050565b60006200080482620007a5565b620008108185620007b0565b935062000822818560208601620007c1565b6200082d8162000594565b840191505092915050565b60006060820190508181036000830152620008548186620007f7565b905081810360208301526200086a8185620007f7565b90508181036040830152620008808184620007f7565b9050949350505050565b7f4e487b7100000000000000000000000000000000000000000000000000000000600052601160045260246000fd5b6000620008c682620004ef565b91507fffffffffffffffffffffffffffffffffffffffffffffffffffffffffffffffff8203620008fb57620008fa6200088a565b5b60018201905091905056fe60806040526040518060600160405280602160ff168152602001602160ff168152602001602260ff1681525060119060036200003d9291906200078f565b50604051806060016040528073594db4be0477a6835aa2608119ea5dd6f45f1c9473ffffffffffffffffffffffffffffffffffffffff1673ffffffffffffffffffffffffffffffffffffffff16815260200173594db4be0477a6835aa2608119ea5dd6f45f1c9473ffffffffffffffffffffffffffffffffffffffff1673ffffffffffffffffffffffffffffffffffffffff16815260200173594db4be0477a6835aa2608119ea5dd6f45f1c9473ffffffffffffffffffffffffffffffffffffffff1673ffffffffffffffffffffffffffffffffffffffff1681525060129060036200012b929190620007e6565b503480156200013957600080fd5b506040516200556f3803806200556f83398181016040528101906200015f919062000ac2565b6012805480602002602001604051908101604052809291908181526020018280548015620001e357602002820191906000526020600020905b8160009054906101000a900473ffffffffffffffffffffffffffffffffffffffff1673ffffffffffffffffffffffffffffffffffffffff168152602001906001019080831162000198575b505050505060118054806020026020016040519081016040528092919081815260200182805480156200023657602002820191906000526020600020905b81548152602001906001019080831162000221575b5050505050848481600090805190602001906200025592919062000875565b5080600190805190602001906200026e92919062000875565b5050506200029162000285620003b360201b60201c565b620003bb60201b60201c565b60016007819055508051825114620002e0576040517f08c379a0000000000000000000000000000000000000000000000000000000008152600401620002d79062000c02565b60405180910390fd5b600082511162000327576040517f08c379a00000000000000000000000000000000000000000000000000000000081526004016200031e9062000c74565b60405180910390fd5b60005b82518110156200039657620003808382815181106200034e576200034d62000c96565b5b60200260200101518383815181106200036c576200036b62000c96565b5b60200260200101516200048160201b60201c565b80806200038d9062000cfe565b9150506200032a565b505050620003aa81620006ba60201b60201c565b505050620010a3565b600033905090565b6000600660009054906101000a900473ffffffffffffffffffffffffffffffffffffffff16905081600660006101000a81548173ffffffffffffffffffffffffffffffffffffffff021916908373ffffffffffffffffffffffffffffffffffffffff1602179055508173ffffffffffffffffffffffffffffffffffffffff168173ffffffffffffffffffffffffffffffffffffffff167f8be0079c531659141344cd1fd0a4f28419497f9722a3daafe3b4186f6b6457e060405160405180910390a35050565b600073ffffffffffffffffffffffffffffffffffffffff168273ffffffffffffffffffffffffffffffffffffffff1603620004f3576040517f08c379a0000000000000000000000000000000000000000000000000000000008152600401620004ea9062000dc1565b60405180910390fd5b6000811162000539576040517f08c379a0000000000000000000000000000000000000000000000000000000008152600401620005309062000e33565b60405180910390fd5b6000600a60008473ffffffffffffffffffffffffffffffffffffffff1673ffffffffffffffffffffffffffffffffffffffff1681526020019081526020016000205414620005be576040517f08c379a0000000000000000000000000000000000000000000000000000000008152600401620005b59062000ecb565b60405180910390fd5b600c829080600181540180825580915050600190039060005260206000200160009091909190916101000a81548173ffffffffffffffffffffffffffffffffffffffff021916908373ffffffffffffffffffffffffffffffffffffffff16021790555080600a60008473ffffffffffffffffffffffffffffffffffffffff1673ffffffffffffffffffffffffffffffffffffffff168152602001908152602001600020819055508060085462000675919062000eed565b6008819055507f40c340f65e17194d14ddddb073d3c9f888e3cb52b5aae0c6c7706b4fbc905fac8282604051620006ae92919062000fa0565b60405180910390a15050565b620006ca620003b360201b60201c565b73ffffffffffffffffffffffffffffffffffffffff16620006f06200076560201b60201c565b73ffffffffffffffffffffffffffffffffffffffff161462000749576040517f08c379a000000000000000000000000000000000000000000000000000000000815260040162000740906200101d565b60405180910390fd5b80600f90805190602001906200076192919062000875565b5050565b6000600660009054906101000a900473ffffffffffffffffffffffffffffffffffffffff16905090565b828054828255906000526020600020908101928215620007d3579160200282015b82811115620007d2578251829060ff16905591602001919060010190620007b0565b5b509050620007e2919062000906565b5090565b82805482825590600052602060002090810192821562000862579160200282015b82811115620008615782518260006101000a81548173ffffffffffffffffffffffffffffffffffffffff021916908373ffffffffffffffffffffffffffffffffffffffff1602179055509160200191906001019062000807565b5b50905062000871919062000906565b5090565b82805462000883906200106e565b90600052602060002090601f016020900481019282620008a75760008555620008f3565b82601f10620008c257805160ff1916838001178555620008f3565b82800160010185558215620008f3579182015b82811115620008f2578251825591602001919060010190620008d5565b5b50905062000902919062000906565b5090565b5b808211156200092157600081600090555060010162000907565b5090565b6000604051905090565b600080fd5b600080fd5b600080fd5b600080fd5b6000601f19601f8301169050919050565b7f4e487b7100000000000000000000000000000000000000000000000000000000600052604160045260246000fd5b6200098e8262000943565b810181811067ffffffffffffffff82111715620009b057620009af62000954565b5b80604052505050565b6000620009c562000925565b9050620009d3828262000983565b919050565b600067ffffffffffffffff821115620009f657620009f562000954565b5b62000a018262000943565b9050602081019050919050565b60005b8381101562000a2e57808201518184015260208101905062000a11565b8381111562000a3e576000848401525b50505050565b600062000a5b62000a5584620009d8565b620009b9565b90508281526020810184848401111562000a7a5762000a796200093e565b5b62000a8784828562000a0e565b509392505050565b600082601f83011262000aa75762000aa662000939565b5b815162000ab984826020860162000a44565b91505092915050565b60008060006060848603121562000ade5762000add6200092f565b5b600084015167ffffffffffffffff81111562000aff5762000afe62000934565b5b62000b0d8682870162000a8f565b935050602084015167ffffffffffffffff81111562000b315762000b3062000934565b5b62000b3f8682870162000a8f565b925050604084015167ffffffffffffffff81111562000b635762000b6262000934565b5b62000b718682870162000a8f565b9150509250925092565b600082825260208201905092915050565b7f5061796d656e7453706c69747465723a2070617965657320616e64207368617260008201527f6573206c656e677468206d69736d617463680000000000000000000000000000602082015250565b600062000bea60328362000b7b565b915062000bf78262000b8c565b604082019050919050565b6000602082019050818103600083015262000c1d8162000bdb565b9050919050565b7f5061796d656e7453706c69747465723a206e6f20706179656573000000000000600082015250565b600062000c5c601a8362000b7b565b915062000c698262000c24565b602082019050919050565b6000602082019050818103600083015262000c8f8162000c4d565b9050919050565b7f4e487b7100000000000000000000000000000000000000000000000000000000600052603260045260246000fd5b7f4e487b7100000000000000000000000000000000000000000000000000000000600052601160045260246000fd5b6000819050919050565b600062000d0b8262000cf4565b91507fffffffffffffffffffffffffffffffffffffffffffffffffffffffffffffffff820362000d405762000d3f62000cc5565b5b600182019050919050565b7f5061796d656e7453706c69747465723a206163636f756e74206973207468652060008201527f7a65726f20616464726573730000000000000000000000000000000000000000602082015250565b600062000da9602c8362000b7b565b915062000db68262000d4b565b604082019050919050565b6000602082019050818103600083015262000ddc8162000d9a565b9050919050565b7f5061796d656e7453706c69747465723a20736861726573206172652030000000600082015250565b600062000e1b601d8362000b7b565b915062000e288262000de3565b602082019050919050565b6000602082019050818103600083015262000e4e8162000e0c565b9050919050565b7f5061796d656e7453706c69747465723a206163636f756e7420616c726561647960008201527f2068617320736861726573000000000000000000000000000000000000000000602082015250565b600062000eb3602b8362000b7b565b915062000ec08262000e55565b604082019050919050565b6000602082019050818103600083015262000ee68162000ea4565b9050919050565b600062000efa8262000cf4565b915062000f078362000cf4565b9250827fffffffffffffffffffffffffffffffffffffffffffffffffffffffffffffffff0382111562000f3f5762000f3e62000cc5565b5b828201905092915050565b600073ffffffffffffffffffffffffffffffffffffffff82169050919050565b600062000f778262000f4a565b9050919050565b62000f898162000f6a565b82525050565b62000f9a8162000cf4565b82525050565b600060408201905062000fb7600083018562000f7e565b62000fc6602083018462000f8f565b9392505050565b7f4f776e61626c653a2063616c6c6572206973206e6f7420746865206f776e6572600082015250565b60006200100560208362000b7b565b9150620010128262000fcd565b602082019050919050565b60006020820190508181036000830152620010388162000ff6565b9050919050565b7f4e487b7100000000000000000000000000000000000000000000000000000000600052602260045260246000fd5b600060028204905060018216806200108757607f821691505b6020821081036200109d576200109c6200103f565b5b50919050565b6144bc80620010b36000396000f3fe6080604052600436106101c65760003560e01c80636c0360eb116100f7578063a22cb46511610095578063d79779b211610064578063d79779b2146106af578063e33b7de3146106ec578063e985e9c514610717578063f2fde38b146107545761020d565b8063a22cb465146105e3578063b88d4fde1461060c578063c87b56dd14610635578063ce7c2ac2146106725761020d565b80638b83209b116100d15780638b83209b146105135780638da5cb5b1461055057806395d89b411461057b5780639852595c146105a65761020d565b80636c0360eb1461049457806370a08231146104bf578063715018a6146104fc5761020d565b806323b872dd1161016457806342842e0e1161013e57806342842e0e146103dc57806348b750441461040557806355f804b31461042e5780636352211e146104575761020d565b806323b872dd1461034b5780633a98ef3914610374578063406072a91461039f5761020d565b8063095ea7b3116101a0578063095ea7b3146102b75780631249c58b146102e057806318160ddd146102f757806319165587146103225761020d565b806301ffc9a71461021257806306fdde031461024f578063081812fc1461027a5761020d565b3661020d577f6ef95f06320e7a25a04a175ca677b7052bdd97131872c2192525a629f51be7706101f461077d565b34604051610203929190612af6565b60405180910390a1005b600080fd5b34801561021e57600080fd5b5061023960048036038101906102349190612b8b565b610785565b6040516102469190612bd3565b60405180910390f35b34801561025b57600080fd5b50610264610867565b6040516102719190612c87565b60405180910390f35b34801561028657600080fd5b506102a1600480360381019061029c9190612cd5565b6108f9565b6040516102ae9190612d02565b60405180910390f35b3480156102c357600080fd5b506102de60048036038101906102d99190612d49565b61097e565b005b3480156102ec57600080fd5b506102f5610a95565b005b34801561030357600080fd5b5061030c610b0f565b6040516103199190612d89565b60405180910390f35b34801561032e57600080fd5b5061034960048036038101906103449190612de2565b610b20565b005b34801561035757600080fd5b50610372600480360381019061036d9190612e0f565b610cca565b005b34801561038057600080fd5b50610389610d2a565b6040516103969190612d89565b60405180910390f35b3480156103ab57600080fd5b506103c660048036038101906103c19190612ea0565b610d34565b6040516103d39190612d89565b60405180910390f35b3480156103e857600080fd5b5061040360048036038101906103fe9190612e0f565b610dbb565b005b34801561041157600080fd5b5061042c60048036038101906104279190612ea0565b610ddb565b005b34801561043a57600080fd5b5061045560048036038101906104509190613015565b611093565b005b34801561046357600080fd5b5061047e60048036038101906104799190612cd5565b611129565b60405161048b9190612d02565b60405180910390f35b3480156104a057600080fd5b506104a96111da565b6040516104b69190612c87565b60405180910390f35b3480156104cb57600080fd5b506104e660048036038101906104e1919061305e565b611268565b6040516104f39190612d89565b60405180910390f35b34801561050857600080fd5b5061051161131f565b005b34801561051f57600080fd5b5061053a60048036038101906105359190612cd5565b6113a7565b6040516105479190612d02565b60405180910390f35b34801561055c57600080fd5b506105656113ef565b6040516105729190612d02565b60405180910390f35b34801561058757600080fd5b50610590611419565b60405161059d9190612c87565b60405180910390f35b3480156105b257600080fd5b506105cd60048036038101906105c8919061305e565b6114ab565b6040516105da9190612d89565b60405180910390f35b3480156105ef57600080fd5b5061060a600480360381019061060591906130b7565b6114f4565b005b34801561061857600080fd5b50610633600480360381019061062e9190613198565b61150a565b005b34801561064157600080fd5b5061065c60048036038101906106579190612cd5565b61156c565b6040516106699190612c87565b60405180910390f35b34801561067e57600080fd5b506106996004803603810190610694919061305e565b611613565b6040516106a69190612d89565b60405180910390f35b3480156106bb57600080fd5b506106d660048036038101906106d1919061321b565b61165c565b6040516106e39190612d89565b60405180910390f35b3480156106f857600080fd5b506107016116a5565b60405161070e9190612d89565b60405180910390f35b34801561072357600080fd5b5061073e60048036038101906107399190613248565b6116af565b60405161074b9190612bd3565b60405180910390f35b34801561076057600080fd5b5061077b6004803603810190610776919061305e565b611743565b005b600033905090565b60007f80ac58cd000000000000000000000000000000000000000000000000000000007bffffffffffffffffffffffffffffffffffffffffffffffffffffffff1916827bffffffffffffffffffffffffffffffffffffffffffffffffffffffff1916148061085057507f5b5e139f000000000000000000000000000000000000000000000000000000007bffffffffffffffffffffffffffffffffffffffffffffffffffffffff1916827bffffffffffffffffffffffffffffffffffffffffffffffffffffffff1916145b80610860575061085f8261183a565b5b9050919050565b606060008054610876906132b7565b80601f01602080910402602001604051908101604052809291908181526020018280546108a2906132b7565b80156108ef5780601f106108c4576101008083540402835291602001916108ef565b820191906000526020600020905b8154815290600101906020018083116108d257829003601f168201915b5050505050905090565b6000610904826118a4565b610943576040517f08c379a000000000000000000000000000000000000000000000000000000000815260040161093a9061335a565b60405180910390fd5b6004600083815260200190815260200160002060009054906101000a900473ffffffffffffffffffffffffffffffffffffffff169050919050565b600061098982611129565b90508073ffffffffffffffffffffffffffffffffffffffff168373ffffffffffffffffffffffffffffffffffffffff16036109f9576040517f08c379a00000000000000000000000000000000000000000000000000000000081526004016109f0906133ec565b60405180910390fd5b8073ffffffffffffffffffffffffffffffffffffffff16610a1861077d565b73ffffffffffffffffffffffffffffffffffffffff161480610a475750610a4681610a4161077d565b6116af565b5b610a86576040517f08c379a0000000000000000000000000000000000000000000000000000000008152600401610a7d9061347e565b60405180910390fd5b610a908383611910565b505050565b600260075403610ada576040517f08c379a0000000000000000000000000000000000000000000000000000000008152600401610ad1906134ea565b60405180910390fd5b6002600781905550610aec60106119c9565b6000610af860106119df565b9050610b0433826119ed565b506001600781905550565b6000610b1b60106119df565b905090565b6000600a60008373ffffffffffffffffffffffffffffffffffffffff1673ffffffffffffffffffffffffffffffffffffffff1681526020019081526020016000205411610ba2576040517f08c379a0000000000000000000000000000000000000000000000000000000008152600401610b999061357c565b60405180910390fd5b6000610bac6116a5565b47610bb791906135cb565b90506000610bce8383610bc9866114ab565b611a0b565b905060008103610c13576040517f08c379a0000000000000000000000000000000000000000000000000000000008152600401610c0a90613693565b60405180910390fd5b80600b60008573ffffffffffffffffffffffffffffffffffffffff1673ffffffffffffffffffffffffffffffffffffffff1681526020019081526020016000206000828254610c6291906135cb565b925050819055508060096000828254610c7b91906135cb565b92505081905550610c8c8382611a79565b7fdf20fd1e76bc69d672e4814fafb2c449bba3a5369d8359adf9e05e6fde87b0568382604051610cbd929190613712565b60405180910390a1505050565b610cdb610cd561077d565b82611b6d565b610d1a576040517f08c379a0000000000000000000000000000000000000000000000000000000008152600401610d11906137ad565b60405180910390fd5b610d25838383611c4b565b505050565b6000600854905090565b6000600e60008473ffffffffffffffffffffffffffffffffffffffff1673ffffffffffffffffffffffffffffffffffffffff16815260200190815260200160002060008373ffffffffffffffffffffffffffffffffffffffff1673ffffffffffffffffffffffffffffffffffffffff16815260200190815260200160002054905092915050565b610dd68383836040518060200160405280600081525061150a565b505050565b6000600a60008373ffffffffffffffffffffffffffffffffffffffff1673ffffffffffffffffffffffffffffffffffffffff1681526020019081526020016000205411610e5d576040517f08c379a0000000000000000000000000000000000000000000000000000000008152600401610e549061357c565b60405180910390fd5b6000610e688361165c565b8373ffffffffffffffffffffffffffffffffffffffff166370a08231306040518263ffffffff1660e01b8152600401610ea19190612d02565b602060405180830381865afa158015610ebe573d6000803e3d6000fd5b505050506040513d601f19601f82011682018060405250810190610ee291906137e2565b610eec91906135cb565b90506000610f048383610eff8787610d34565b611a0b565b905060008103610f49576040517f08c379a0000000000000000000000000000000000000000000000000000000008152600401610f4090613693565b60405180910390fd5b80600e60008673ffffffffffffffffffffffffffffffffffffffff1673ffffffffffffffffffffffffffffffffffffffff16815260200190815260200160002060008573ffffffffffffffffffffffffffffffffffffffff1673ffffffffffffffffffffffffffffffffffffffff1681526020019081526020016000206000828254610fd591906135cb565b9250508190555080600d60008673ffffffffffffffffffffffffffffffffffffffff1673ffffffffffffffffffffffffffffffffffffffff168152602001908152602001600020600082825461102b91906135cb565b9250508190555061103d848483611eb1565b8373ffffffffffffffffffffffffffffffffffffffff167f3be5b7a71e84ed12875d241991c70855ac5817d847039e17a9d895c1ceb0f18a8483604051611085929190612af6565b60405180910390a250505050565b61109b61077d565b73ffffffffffffffffffffffffffffffffffffffff166110b96113ef565b73ffffffffffffffffffffffffffffffffffffffff161461110f576040517f08c379a00000000000000000000000000000000000000000000000000000000081526004016111069061385b565b60405180910390fd5b80600f90805190602001906111259291906129f9565b5050565b6000806002600084815260200190815260200160002060009054906101000a900473ffffffffffffffffffffffffffffffffffffffff169050600073ffffffffffffffffffffffffffffffffffffffff168173ffffffffffffffffffffffffffffffffffffffff16036111d1576040517f08c379a00000000000000000000000000000000000000000000000000000000081526004016111c8906138ed565b60405180910390fd5b80915050919050565b600f80546111e7906132b7565b80601f0160208091040260200160405190810160405280929190818152602001828054611213906132b7565b80156112605780601f1061123557610100808354040283529160200191611260565b820191906000526020600020905b81548152906001019060200180831161124357829003601f168201915b505050505081565b60008073ffffffffffffffffffffffffffffffffffffffff168273ffffffffffffffffffffffffffffffffffffffff16036112d8576040517f08c379a00000000000000000000000000000000000000000000000000000000081526004016112cf9061397f565b60405180910390fd5b600360008373ffffffffffffffffffffffffffffffffffffffff1673ffffffffffffffffffffffffffffffffffffffff168152602001908152602001600020549050919050565b61132761077d565b73ffffffffffffffffffffffffffffffffffffffff166113456113ef565b73ffffffffffffffffffffffffffffffffffffffff161461139b576040517f08c379a00000000000000000000000000000000000000000000000000000000081526004016113929061385b565b60405180910390fd5b6113a56000611f37565b565b6000600c82815481106113bd576113bc61399f565b5b9060005260206000200160009054906101000a900473ffffffffffffffffffffffffffffffffffffffff169050919050565b6000600660009054906101000a900473ffffffffffffffffffffffffffffffffffffffff16905090565b606060018054611428906132b7565b80601f0160208091040260200160405190810160405280929190818152602001828054611454906132b7565b80156114a15780601f10611476576101008083540402835291602001916114a1565b820191906000526020600020905b81548152906001019060200180831161148457829003601f168201915b5050505050905090565b6000600b60008373ffffffffffffffffffffffffffffffffffffffff1673ffffffffffffffffffffffffffffffffffffffff168152602001908152602001600020549050919050565b6115066114ff61077d565b8383611ffd565b5050565b61151b61151561077d565b83611b6d565b61155a576040517f08c379a0000000000000000000000000000000000000000000000000000000008152600401611551906137ad565b60405180910390fd5b61156684848484612169565b50505050565b6060611577826118a4565b6115b6576040517f08c379a00000000000000000000000000000000000000000000000000000000081526004016115ad90613a40565b60405180910390fd5b60006115c06121c5565b905060008151116115e0576040518060200160405280600081525061160b565b806115ea84612257565b6040516020016115fb929190613a9c565b6040516020818303038152906040525b915050919050565b6000600a60008373ffffffffffffffffffffffffffffffffffffffff1673ffffffffffffffffffffffffffffffffffffffff168152602001908152602001600020549050919050565b6000600d60008373ffffffffffffffffffffffffffffffffffffffff1673ffffffffffffffffffffffffffffffffffffffff168152602001908152602001600020549050919050565b6000600954905090565b6000600560008473ffffffffffffffffffffffffffffffffffffffff1673ffffffffffffffffffffffffffffffffffffffff16815260200190815260200160002060008373ffffffffffffffffffffffffffffffffffffffff1673ffffffffffffffffffffffffffffffffffffffff16815260200190815260200160002060009054906101000a900460ff16905092915050565b61174b61077d565b73ffffffffffffffffffffffffffffffffffffffff166117696113ef565b73ffffffffffffffffffffffffffffffffffffffff16146117bf576040517f08c379a00000000000000000000000000000000000000000000000000000000081526004016117b69061385b565b60405180910390fd5b600073ffffffffffffffffffffffffffffffffffffffff168173ffffffffffffffffffffffffffffffffffffffff160361182e576040517f08c379a000000000000000000000000000000000000000000000000000000000815260040161182590613b32565b60405180910390fd5b61183781611f37565b50565b60007f01ffc9a7000000000000000000000000000000000000000000000000000000007bffffffffffffffffffffffffffffffffffffffffffffffffffffffff1916827bffffffffffffffffffffffffffffffffffffffffffffffffffffffff1916149050919050565b60008073ffffffffffffffffffffffffffffffffffffffff166002600084815260200190815260200160002060009054906101000a900473ffffffffffffffffffffffffffffffffffffffff1673ffffffffffffffffffffffffffffffffffffffff1614159050919050565b816004600083815260200190815260200160002060006101000a81548173ffffffffffffffffffffffffffffffffffffffff021916908373ffffffffffffffffffffffffffffffffffffffff160217905550808273ffffffffffffffffffffffffffffffffffffffff1661198383611129565b73ffffffffffffffffffffffffffffffffffffffff167f8c5be1e5ebec7d5bd14f71427d1e84f3dd0314c0f7b2291e5b200ac8c7c3b92560405160405180910390a45050565b6001816000016000828254019250508190555050565b600081600001549050919050565b611a078282604051806020016040528060008152506123b7565b5050565b600081600854600a60008773ffffffffffffffffffffffffffffffffffffffff1673ffffffffffffffffffffffffffffffffffffffff1681526020019081526020016000205485611a5c9190613b52565b611a669190613bdb565b611a709190613c0c565b90509392505050565b80471015611abc576040517f08c379a0000000000000000000000000000000000000000000000000000000008152600401611ab390613c8c565b60405180910390fd5b60008273ffffffffffffffffffffffffffffffffffffffff1682604051611ae290613cdd565b60006040518083038185875af1925050503d8060008114611b1f576040519150601f19603f3d011682016040523d82523d6000602084013e611b24565b606091505b5050905080611b68576040517f08c379a0000000000000000000000000000000000000000000000000000000008152600401611b5f90613d64565b60405180910390fd5b505050565b6000611b78826118a4565b611bb7576040517f08c379a0000000000000000000000000000000000000000000000000000000008152600401611bae90613df6565b60405180910390fd5b6000611bc283611129565b90508073ffffffffffffffffffffffffffffffffffffffff168473ffffffffffffffffffffffffffffffffffffffff161480611c045750611c0381856116af565b5b80611c4257508373ffffffffffffffffffffffffffffffffffffffff16611c2a846108f9565b73ffffffffffffffffffffffffffffffffffffffff16145b91505092915050565b8273ffffffffffffffffffffffffffffffffffffffff16611c6b82611129565b73ffffffffffffffffffffffffffffffffffffffff1614611cc1576040517f08c379a0000000000000000000000000000000000000000000000000000000008152600401611cb890613e88565b60405180910390fd5b600073ffffffffffffffffffffffffffffffffffffffff168273ffffffffffffffffffffffffffffffffffffffff1603611d30576040517f08c379a0000000000000000000000000000000000000000000000000000000008152600401611d2790613f1a565b60405180910390fd5b611d3b838383612412565b611d46600082611910565b6001600360008573ffffffffffffffffffffffffffffffffffffffff1673ffffffffffffffffffffffffffffffffffffffff1681526020019081526020016000206000828254611d969190613c0c565b925050819055506001600360008473ffffffffffffffffffffffffffffffffffffffff1673ffffffffffffffffffffffffffffffffffffffff1681526020019081526020016000206000828254611ded91906135cb565b92505081905550816002600083815260200190815260200160002060006101000a81548173ffffffffffffffffffffffffffffffffffffffff021916908373ffffffffffffffffffffffffffffffffffffffff160217905550808273ffffffffffffffffffffffffffffffffffffffff168473ffffffffffffffffffffffffffffffffffffffff167fddf252ad1be2c89b69c2b068fc378daa952ba7f163c4a11628f55a4df523b3ef60405160405180910390a4611eac838383612417565b505050565b611f328363a9059cbb60e01b8484604051602401611ed0929190612af6565b604051602081830303815290604052907bffffffffffffffffffffffffffffffffffffffffffffffffffffffff19166020820180517bffffffffffffffffffffffffffffffffffffffffffffffffffffffff838183161783525050505061241c565b505050565b6000600660009054906101000a900473ffffffffffffffffffffffffffffffffffffffff16905081600660006101000a81548173ffffffffffffffffffffffffffffffffffffffff021916908373ffffffffffffffffffffffffffffffffffffffff1602179055508173ffffffffffffffffffffffffffffffffffffffff168173ffffffffffffffffffffffffffffffffffffffff167f8be0079c531659141344cd1fd0a4f28419497f9722a3daafe3b4186f6b6457e060405160405180910390a35050565b8173ffffffffffffffffffffffffffffffffffffffff168373ffffffffffffffffffffffffffffffffffffffff160361206b576040517f08c379a000000000000000000000000000000000000000000000000000000000815260040161206290613f86565b60405180910390fd5b80600560008573ffffffffffffffffffffffffffffffffffffffff1673ffffffffffffffffffffffffffffffffffffffff16815260200190815260200160002060008473ffffffffffffffffffffffffffffffffffffffff1673ffffffffffffffffffffffffffffffffffffffff16815260200190815260200160002060006101000a81548160ff0219169083151502179055508173ffffffffffffffffffffffffffffffffffffffff168373ffffffffffffffffffffffffffffffffffffffff167f17307eab39ab6107e8899845ad3d59bd9653f200f220920489ca2b5937696c318360405161215c9190612bd3565b60405180910390a3505050565b612174848484611c4b565b612180848484846124e3565b6121bf576040517f08c379a00000000000000000000000000000000000000000000000000000000081526004016121b690614018565b60405180910390fd5b50505050565b6060600f80546121d4906132b7565b80601f0160208091040260200160405190810160405280929190818152602001828054612200906132b7565b801561224d5780601f106122225761010080835404028352916020019161224d565b820191906000526020600020905b81548152906001019060200180831161223057829003601f168201915b5050505050905090565b60606000820361229e576040518060400160405280600181526020017f300000000000000000000000000000000000000000000000000000000000000081525090506123b2565b600082905060005b600082146122d05780806122b990614038565b915050600a826122c99190613bdb565b91506122a6565b60008167ffffffffffffffff8111156122ec576122eb612eea565b5b6040519080825280601f01601f19166020018201604052801561231e5781602001600182028036833780820191505090505b5090505b600085146123ab576001826123379190613c0c565b9150600a856123469190614080565b603061235291906135cb565b60f81b8183815181106123685761236761399f565b5b60200101907effffffffffffffffffffffffffffffffffffffffffffffffffffffffffffff1916908160001a905350600a856123a49190613bdb565b9450612322565b8093505050505b919050565b6123c1838361266a565b6123ce60008484846124e3565b61240d576040517f08c379a000000000000000000000000000000000000000000000000000000000815260040161240490614018565b60405180910390fd5b505050565b505050565b505050565b600061247e826040518060400160405280602081526020017f5361666545524332303a206c6f772d6c6576656c2063616c6c206661696c65648152508573ffffffffffffffffffffffffffffffffffffffff166128439092919063ffffffff16565b90506000815111156124de578080602001905181019061249e91906140c6565b6124dd576040517f08c379a00000000000000000000000000000000000000000000000000000000081526004016124d490614165565b60405180910390fd5b5b505050565b60006125048473ffffffffffffffffffffffffffffffffffffffff1661285b565b1561265d578373ffffffffffffffffffffffffffffffffffffffff1663150b7a0261252d61077d565b8786866040518563ffffffff1660e01b815260040161254f94939291906141da565b6020604051808303816000875af192505050801561258b57506040513d601f19601f82011682018060405250810190612588919061423b565b60015b61260d573d80600081146125bb576040519150601f19603f3d011682016040523d82523d6000602084013e6125c0565b606091505b506000815103612605576040517f08c379a00000000000000000000000000000000000000000000000000000000081526004016125fc90614018565b60405180910390fd5b805181602001fd5b63150b7a0260e01b7bffffffffffffffffffffffffffffffffffffffffffffffffffffffff1916817bffffffffffffffffffffffffffffffffffffffffffffffffffffffff191614915050612662565b600190505b949350505050565b600073ffffffffffffffffffffffffffffffffffffffff168273ffffffffffffffffffffffffffffffffffffffff16036126d9576040517f08c379a00000000000000000000000000000000000000000000000000000000081526004016126d0906142b4565b60405180910390fd5b6126e2816118a4565b15612722576040517f08c379a000000000000000000000000000000000000000000000000000000000815260040161271990614320565b60405180910390fd5b61272e60008383612412565b6001600360008473ffffffffffffffffffffffffffffffffffffffff1673ffffffffffffffffffffffffffffffffffffffff168152602001908152602001600020600082825461277e91906135cb565b92505081905550816002600083815260200190815260200160002060006101000a81548173ffffffffffffffffffffffffffffffffffffffff021916908373ffffffffffffffffffffffffffffffffffffffff160217905550808273ffffffffffffffffffffffffffffffffffffffff16600073ffffffffffffffffffffffffffffffffffffffff167fddf252ad1be2c89b69c2b068fc378daa952ba7f163c4a11628f55a4df523b3ef60405160405180910390a461283f60008383612417565b5050565b6060612852848460008561287e565b90509392505050565b6000808273ffffffffffffffffffffffffffffffffffffffff163b119050919050565b6060824710156128c3576040517f08c379a00000000000000000000000000000000000000000000000000000000081526004016128ba906143b2565b60405180910390fd5b6128cc8561285b565b61290b576040517f08c379a00000000000000000000000000000000000000000000000000000000081526004016129029061441e565b60405180910390fd5b6000808673ffffffffffffffffffffffffffffffffffffffff168587604051612934919061446f565b60006040518083038185875af1925050503d8060008114612971576040519150601f19603f3d011682016040523d82523d6000602084013e612976565b606091505b5091509150612986828286612992565b92505050949350505050565b606083156129a2578290506129f2565b6000835111156129b55782518084602001fd5b816040517f08c379a00000000000000000000000000000000000000000000000000000000081526004016129e99190612c87565b60405180910390fd5b9392505050565b828054612a05906132b7565b90600052602060002090601f016020900481019282612a275760008555612a6e565b82601f10612a4057805160ff1916838001178555612a6e565b82800160010185558215612a6e579182015b82811115612a6d578251825591602001919060010190612a52565b5b509050612a7b9190612a7f565b5090565b5b80821115612a98576000816000905550600101612a80565b5090565b600073ffffffffffffffffffffffffffffffffffffffff82169050919050565b6000612ac782612a9c565b9050919050565b612ad781612abc565b82525050565b6000819050919050565b612af081612add565b82525050565b6000604082019050612b0b6000830185612ace565b612b186020830184612ae7565b9392505050565b6000604051905090565b600080fd5b600080fd5b60007fffffffff0000000000000000000000000000000000000000000000000000000082169050919050565b612b6881612b33565b8114612b7357600080fd5b50565b600081359050612b8581612b5f565b92915050565b600060208284031215612ba157612ba0612b29565b5b6000612baf84828501612b76565b91505092915050565b60008115159050919050565b612bcd81612bb8565b82525050565b6000602082019050612be86000830184612bc4565b92915050565b600081519050919050565b600082825260208201905092915050565b60005b83811015612c28578082015181840152602081019050612c0d565b83811115612c37576000848401525b50505050565b6000601f19601f8301169050919050565b6000612c5982612bee565b612c638185612bf9565b9350612c73818560208601612c0a565b612c7c81612c3d565b840191505092915050565b60006020820190508181036000830152612ca18184612c4e565b905092915050565b612cb281612add565b8114612cbd57600080fd5b50565b600081359050612ccf81612ca9565b92915050565b600060208284031215612ceb57612cea612b29565b5b6000612cf984828501612cc0565b91505092915050565b6000602082019050612d176000830184612ace565b92915050565b612d2681612abc565b8114612d3157600080fd5b50565b600081359050612d4381612d1d565b92915050565b60008060408385031215612d6057612d5f612b29565b5b6000612d6e85828601612d34565b9250506020612d7f85828601612cc0565b9150509250929050565b6000602082019050612d9e6000830184612ae7565b92915050565b6000612daf82612a9c565b9050919050565b612dbf81612da4565b8114612dca57600080fd5b50565b600081359050612ddc81612db6565b92915050565b600060208284031215612df857612df7612b29565b5b6000612e0684828501612dcd565b91505092915050565b600080600060608486031215612e2857612e27612b29565b5b6000612e3686828701612d34565b9350506020612e4786828701612d34565b9250506040612e5886828701612cc0565b9150509250925092565b6000612e6d82612abc565b9050919050565b612e7d81612e62565b8114612e8857600080fd5b50565b600081359050612e9a81612e74565b92915050565b60008060408385031215612eb757612eb6612b29565b5b6000612ec585828601612e8b565b9250506020612ed685828601612d34565b9150509250929050565b600080fd5b600080fd5b7f4e487b7100000000000000000000000000000000000000000000000000000000600052604160045260246000fd5b612f2282612c3d565b810181811067ffffffffffffffff82111715612f4157612f40612eea565b5b80604052505050565b6000612f54612b1f565b9050612f608282612f19565b919050565b600067ffffffffffffffff821115612f8057612f7f612eea565b5b612f8982612c3d565b9050602081019050919050565b82818337600083830152505050565b6000612fb8612fb384612f65565b612f4a565b905082815260208101848484011115612fd457612fd3612ee5565b5b612fdf848285612f96565b509392505050565b600082601f830112612ffc57612ffb612ee0565b5b813561300c848260208601612fa5565b91505092915050565b60006020828403121561302b5761302a612b29565b5b600082013567ffffffffffffffff81111561304957613048612b2e565b5b61305584828501612fe7565b91505092915050565b60006020828403121561307457613073612b29565b5b600061308284828501612d34565b91505092915050565b61309481612bb8565b811461309f57600080fd5b50565b6000813590506130b18161308b565b92915050565b600080604083850312156130ce576130cd612b29565b5b60006130dc85828601612d34565b92505060206130ed858286016130a2565b9150509250929050565b600067ffffffffffffffff82111561311257613111612eea565b5b61311b82612c3d565b9050602081019050919050565b600061313b613136846130f7565b612f4a565b90508281526020810184848401111561315757613156612ee5565b5b613162848285612f96565b509392505050565b600082601f83011261317f5761317e612ee0565b5b813561318f848260208601613128565b91505092915050565b600080600080608085870312156131b2576131b1612b29565b5b60006131c087828801612d34565b94505060206131d187828801612d34565b93505060406131e287828801612cc0565b925050606085013567ffffffffffffffff81111561320357613202612b2e565b5b61320f8782880161316a565b91505092959194509250565b60006020828403121561323157613230612b29565b5b600061323f84828501612e8b565b91505092915050565b6000806040838503121561325f5761325e612b29565b5b600061326d85828601612d34565b925050602061327e85828601612d34565b9150509250929050565b7f4e487b7100000000000000000000000000000000000000000000000000000000600052602260045260246000fd5b600060028204905060018216806132cf57607f821691505b6020821081036132e2576132e1613288565b5b50919050565b7f4552433732313a20617070726f76656420717565727920666f72206e6f6e657860008201527f697374656e7420746f6b656e0000000000000000000000000000000000000000602082015250565b6000613344602c83612bf9565b915061334f826132e8565b604082019050919050565b6000602082019050818103600083015261337381613337565b9050919050565b7f4552433732313a20617070726f76616c20746f2063757272656e74206f776e6560008201527f7200000000000000000000000000000000000000000000000000000000000000602082015250565b60006133d6602183612bf9565b91506133e18261337a565b604082019050919050565b60006020820190508181036000830152613405816133c9565b9050919050565b7f4552433732313a20617070726f76652063616c6c6572206973206e6f74206f7760008201527f6e6572206e6f7220617070726f76656420666f7220616c6c0000000000000000602082015250565b6000613468603883612bf9565b91506134738261340c565b604082019050919050565b600060208201905081810360008301526134978161345b565b9050919050565b7f5265656e7472616e637947756172643a207265656e7472616e742063616c6c00600082015250565b60006134d4601f83612bf9565b91506134df8261349e565b602082019050919050565b60006020820190508181036000830152613503816134c7565b9050919050565b7f5061796d656e7453706c69747465723a206163636f756e7420686173206e6f2060008201527f7368617265730000000000000000000000000000000000000000000000000000602082015250565b6000613566602683612bf9565b91506135718261350a565b604082019050919050565b6000602082019050818103600083015261359581613559565b9050919050565b7f4e487b7100000000000000000000000000000000000000000000000000000000600052601160045260246000fd5b60006135d682612add565b91506135e183612add565b9250827fffffffffffffffffffffffffffffffffffffffffffffffffffffffffffffffff038211156136165761361561359c565b5b828201905092915050565b7f5061796d656e7453706c69747465723a206163636f756e74206973206e6f742060008201527f647565207061796d656e74000000000000000000000000000000000000000000602082015250565b600061367d602b83612bf9565b915061368882613621565b604082019050919050565b600060208201905081810360008301526136ac81613670565b9050919050565b6000819050919050565b60006136d86136d36136ce84612a9c565b6136b3565b612a9c565b9050919050565b60006136ea826136bd565b9050919050565b60006136fc826136df565b9050919050565b61370c816136f1565b82525050565b60006040820190506137276000830185613703565b6137346020830184612ae7565b9392505050565b7f4552433732313a207472616e736665722063616c6c6572206973206e6f74206f60008201527f776e6572206e6f7220617070726f766564000000000000000000000000000000602082015250565b6000613797603183612bf9565b91506137a28261373b565b604082019050919050565b600060208201905081810360008301526137c68161378a565b9050919050565b6000815190506137dc81612ca9565b92915050565b6000602082840312156137f8576137f7612b29565b5b6000613806848285016137cd565b91505092915050565b7f4f776e61626c653a2063616c6c6572206973206e6f7420746865206f776e6572600082015250565b6000613845602083612bf9565b91506138508261380f565b602082019050919050565b6000602082019050818103600083015261387481613838565b9050919050565b7f4552433732313a206f776e657220717565727920666f72206e6f6e657869737460008201527f656e7420746f6b656e0000000000000000000000000000000000000000000000602082015250565b60006138d7602983612bf9565b91506138e28261387b565b604082019050919050565b60006020820190508181036000830152613906816138ca565b9050919050565b7f4552433732313a2062616c616e636520717565727920666f7220746865207a6560008201527f726f206164647265737300000000000000000000000000000000000000000000602082015250565b6000613969602a83612bf9565b91506139748261390d565b604082019050919050565b600060208201905081810360008301526139988161395c565b9050919050565b7f4e487b7100000000000000000000000000000000000000000000000000000000600052603260045260246000fd5b7f4552433732314d657461646174613a2055524920717565727920666f72206e6f60008201527f6e6578697374656e7420746f6b656e0000000000000000000000000000000000602082015250565b6000613a2a602f83612bf9565b9150613a35826139ce565b604082019050919050565b60006020820190508181036000830152613a5981613a1d565b9050919050565b600081905092915050565b6000613a7682612bee565b613a808185613a60565b9350613a90818560208601612c0a565b80840191505092915050565b6000613aa88285613a6b565b9150613ab48284613a6b565b91508190509392505050565b7f4f776e61626c653a206e6577206f776e657220697320746865207a65726f206160008201527f6464726573730000000000000000000000000000000000000000000000000000602082015250565b6000613b1c602683612bf9565b9150613b2782613ac0565b604082019050919050565b60006020820190508181036000830152613b4b81613b0f565b9050919050565b6000613b5d82612add565b9150613b6883612add565b9250817fffffffffffffffffffffffffffffffffffffffffffffffffffffffffffffffff0483118215151615613ba157613ba061359c565b5b828202905092915050565b7f4e487b7100000000000000000000000000000000000000000000000000000000600052601260045260246000fd5b6000613be682612add565b9150613bf183612add565b925082613c0157613c00613bac565b5b828204905092915050565b6000613c1782612add565b9150613c2283612add565b925082821015613c3557613c3461359c565b5b828203905092915050565b7f416464726573733a20696e73756666696369656e742062616c616e6365000000600082015250565b6000613c76601d83612bf9565b9150613c8182613c40565b602082019050919050565b60006020820190508181036000830152613ca581613c69565b9050919050565b600081905092915050565b50565b6000613cc7600083613cac565b9150613cd282613cb7565b600082019050919050565b6000613ce882613cba565b9150819050919050565b7f416464726573733a20756e61626c6520746f2073656e642076616c75652c207260008201527f6563697069656e74206d61792068617665207265766572746564000000000000602082015250565b6000613d4e603a83612bf9565b9150613d5982613cf2565b604082019050919050565b60006020820190508181036000830152613d7d81613d41565b9050919050565b7f4552433732313a206f70657261746f7220717565727920666f72206e6f6e657860008201527f697374656e7420746f6b656e0000000000000000000000000000000000000000602082015250565b6000613de0602c83612bf9565b9150613deb82613d84565b604082019050919050565b60006020820190508181036000830152613e0f81613dd3565b9050919050565b7f4552433732313a207472616e736665722066726f6d20696e636f72726563742060008201527f6f776e6572000000000000000000000000000000000000000000000000000000602082015250565b6000613e72602583612bf9565b9150613e7d82613e16565b604082019050919050565b60006020820190508181036000830152613ea181613e65565b9050919050565b7f4552433732313a207472616e7366657220746f20746865207a65726f2061646460008201527f7265737300000000000000000000000000000000000000000000000000000000602082015250565b6000613f04602483612bf9565b9150613f0f82613ea8565b604082019050919050565b60006020820190508181036000830152613f3381613ef7565b9050919050565b7f4552433732313a20617070726f766520746f2063616c6c657200000000000000600082015250565b6000613f70601983612bf9565b9150613f7b82613f3a565b602082019050919050565b60006020820190508181036000830152613f9f81613f63565b9050919050565b7f4552433732313a207472616e7366657220746f206e6f6e20455243373231526560008201527f63656976657220696d706c656d656e7465720000000000000000000000000000602082015250565b6000614002603283612bf9565b915061400d82613fa6565b604082019050919050565b6000602082019050818103600083015261403181613ff5565b9050919050565b600061404382612add565b91507fffffffffffffffffffffffffffffffffffffffffffffffffffffffffffffffff82036140755761407461359c565b5b600182019050919050565b600061408b82612add565b915061409683612add565b9250826140a6576140a5613bac565b5b828206905092915050565b6000815190506140c08161308b565b92915050565b6000602082840312156140dc576140db612b29565b5b60006140ea848285016140b1565b91505092915050565b7f5361666545524332303a204552433230206f7065726174696f6e20646964206e60008201527f6f74207375636365656400000000000000000000000000000000000000000000602082015250565b600061414f602a83612bf9565b915061415a826140f3565b604082019050919050565b6000602082019050818103600083015261417e81614142565b9050919050565b600081519050919050565b600082825260208201905092915050565b60006141ac82614185565b6141b68185614190565b93506141c6818560208601612c0a565b6141cf81612c3d565b840191505092915050565b60006080820190506141ef6000830187612ace565b6141fc6020830186612ace565b6142096040830185612ae7565b818103606083015261421b81846141a1565b905095945050505050565b60008151905061423581612b5f565b92915050565b60006020828403121561425157614250612b29565b5b600061425f84828501614226565b91505092915050565b7f4552433732313a206d696e7420746f20746865207a65726f2061646472657373600082015250565b600061429e602083612bf9565b91506142a982614268565b602082019050919050565b600060208201905081810360008301526142cd81614291565b9050919050565b7f4552433732313a20746f6b656e20616c7265616479206d696e74656400000000600082015250565b600061430a601c83612bf9565b9150614315826142d4565b602082019050919050565b60006020820190508181036000830152614339816142fd565b9050919050565b7f416464726573733a20696e73756666696369656e742062616c616e636520666f60008201527f722063616c6c0000000000000000000000000000000000000000000000000000602082015250565b600061439c602683612bf9565b91506143a782614340565b604082019050919050565b600060208201905081810360008301526143cb8161438f565b9050919050565b7f416464726573733a2063616c6c20746f206e6f6e2d636f6e7472616374000000600082015250565b6000614408601d83612bf9565b9150614413826143d2565b602082019050919050565b60006020820190508181036000830152614437816143fb565b9050919050565b600061444982614185565b6144538185613cac565b9350614463818560208601612c0a565b80840191505092915050565b600061447b828461443e565b91508190509291505056fea26469706673582212208ff7d4dc6c58680f87ec51e6c0e49d3a93076751d4ab6f057358d001312c402164736f6c634300080d0033a264697066735822122075846ba4165d0cdcbedcda59d023d0d8b0d8733bba33687935ff4e940c15f7d164736f6c634300080d0033",
  "linkReferences": {},
  "deployedLinkReferences": {}
}