{
  "_format": "hh-sol-artifact-1",
  "contractName": "Factory",
  "sourceName": "contracts/Factory.sol",
  "abi": [
    {
      "inputs": [
        {
          "internalType": "string",
          "name": "_artistName",
          "type": "string"
        },
        {
          "internalType": "string",
          "name": "_artistSymbol",
          "type": "string"
        },
        {
          "internalType": "string",
          "name": "_baseUri",
          "type": "string"
        }
      ],
      "name": "createNFTCollection",
      "outputs": [],
      "stateMutability": "payable",
      "type": "function"
    },
    {
      "inputs": [
        {
          "internalType": "uint256",
          "name": "_id",
          "type": "uint256"
        }
      ],
      "name": "getCollection",
      "outputs": [
        {
          "internalType": "contract NFT",
          "name": "",
          "type": "address"
        }
      ],
      "stateMutability": "view",
      "type": "function"
    },
    {
      "inputs": [],
      "name": "getCollectionId",
      "outputs": [
        {
          "internalType": "uint256",
          "name": "",
          "type": "uint256"
        }
      ],
      "stateMutability": "view",
      "type": "function"
    }
  ],
  "bytecode": "0x608060405234801561001057600080fd5b50613ce7806100206000396000f3fe608060405260043610620000385760003560e01c80635a1f3c28146200003d5780637c8e7bfe1462000081578063844af65814620000b1575b600080fd5b3480156200004a57600080fd5b5062000069600480360381019062000063919062000227565b620000d1565b604051620000789190620002e4565b60405180910390f35b3480156200008e57600080fd5b50620000996200010e565b604051620000a8919062000312565b60405180910390f35b620000cf6004803603810190620000c9919062000491565b62000117565b005b60006001600083815260200190815260200160002060009054906101000a900473ffffffffffffffffffffffffffffffffffffffff169050919050565b60008054905090565b60008383836040516200012a90620001ca565b6200013893929190620005dd565b604051809103906000f08015801562000155573d6000803e3d6000fd5b5090506000808154809291906200016c906200065e565b919050555080600160008054815260200190815260200160002060006101000a81548173ffffffffffffffffffffffffffffffffffffffff021916908373ffffffffffffffffffffffffffffffffffffffff16021790555050505050565b61360680620006ac83390190565b6000604051905090565b600080fd5b600080fd5b6000819050919050565b6200020181620001ec565b81146200020d57600080fd5b50565b6000813590506200022181620001f6565b92915050565b60006020828403121562000240576200023f620001e2565b5b6000620002508482850162000210565b91505092915050565b600073ffffffffffffffffffffffffffffffffffffffff82169050919050565b6000819050919050565b6000620002a46200029e620002988462000259565b62000279565b62000259565b9050919050565b6000620002b88262000283565b9050919050565b6000620002cc82620002ab565b9050919050565b620002de81620002bf565b82525050565b6000602082019050620002fb6000830184620002d3565b92915050565b6200030c81620001ec565b82525050565b600060208201905062000329600083018462000301565b92915050565b600080fd5b600080fd5b6000601f19601f8301169050919050565b7f4e487b7100000000000000000000000000000000000000000000000000000000600052604160045260246000fd5b620003848262000339565b810181811067ffffffffffffffff82111715620003a657620003a56200034a565b5b80604052505050565b6000620003bb620001d8565b9050620003c9828262000379565b919050565b600067ffffffffffffffff821115620003ec57620003eb6200034a565b5b620003f78262000339565b9050602081019050919050565b82818337600083830152505050565b60006200042a6200042484620003ce565b620003af565b90508281526020810184848401111562000449576200044862000334565b5b6200045684828562000404565b509392505050565b600082601f8301126200047657620004756200032f565b5b81356200048884826020860162000413565b91505092915050565b600080600060608486031215620004ad57620004ac620001e2565b5b600084013567ffffffffffffffff811115620004ce57620004cd620001e7565b5b620004dc868287016200045e565b935050602084013567ffffffffffffffff8111156200050057620004ff620001e7565b5b6200050e868287016200045e565b925050604084013567ffffffffffffffff811115620005325762000531620001e7565b5b62000540868287016200045e565b9150509250925092565b600081519050919050565b600082825260208201905092915050565b60005b838110156200058657808201518184015260208101905062000569565b8381111562000596576000848401525b50505050565b6000620005a9826200054a565b620005b5818562000555565b9350620005c781856020860162000566565b620005d28162000339565b840191505092915050565b60006060820190508181036000830152620005f981866200059c565b905081810360208301526200060f81856200059c565b905081810360408301526200062581846200059c565b9050949350505050565b7f4e487b7100000000000000000000000000000000000000000000000000000000600052601160045260246000fd5b60006200066b82620001ec565b91507fffffffffffffffffffffffffffffffffffffffffffffffffffffffffffffffff8203620006a0576200069f6200062f565b5b60018201905091905056fe60806040523480156200001157600080fd5b50604051620036063803806200360683398181016040528101906200003791906200049f565b828281600090805190602001906200005192919062000252565b5080600190805190602001906200006a92919062000252565b5050506200008d62000081620000af60201b60201c565b620000b760201b60201c565b6001600781905550620000a6816200017d60201b60201c565b5050506200063f565b600033905090565b6000600660009054906101000a900473ffffffffffffffffffffffffffffffffffffffff16905081600660006101000a81548173ffffffffffffffffffffffffffffffffffffffff021916908373ffffffffffffffffffffffffffffffffffffffff1602179055508173ffffffffffffffffffffffffffffffffffffffff168173ffffffffffffffffffffffffffffffffffffffff167f8be0079c531659141344cd1fd0a4f28419497f9722a3daafe3b4186f6b6457e060405160405180910390a35050565b6200018d620000af60201b60201c565b73ffffffffffffffffffffffffffffffffffffffff16620001b36200022860201b60201c565b73ffffffffffffffffffffffffffffffffffffffff16146200020c576040517f08c379a00000000000000000000000000000000000000000000000000000000081526004016200020390620005b9565b60405180910390fd5b80600890805190602001906200022492919062000252565b5050565b6000600660009054906101000a900473ffffffffffffffffffffffffffffffffffffffff16905090565b82805462000260906200060a565b90600052602060002090601f016020900481019282620002845760008555620002d0565b82601f106200029f57805160ff1916838001178555620002d0565b82800160010185558215620002d0579182015b82811115620002cf578251825591602001919060010190620002b2565b5b509050620002df9190620002e3565b5090565b5b80821115620002fe576000816000905550600101620002e4565b5090565b6000604051905090565b600080fd5b600080fd5b600080fd5b600080fd5b6000601f19601f8301169050919050565b7f4e487b7100000000000000000000000000000000000000000000000000000000600052604160045260246000fd5b6200036b8262000320565b810181811067ffffffffffffffff821117156200038d576200038c62000331565b5b80604052505050565b6000620003a262000302565b9050620003b0828262000360565b919050565b600067ffffffffffffffff821115620003d357620003d262000331565b5b620003de8262000320565b9050602081019050919050565b60005b838110156200040b578082015181840152602081019050620003ee565b838111156200041b576000848401525b50505050565b6000620004386200043284620003b5565b62000396565b9050828152602081018484840111156200045757620004566200031b565b5b62000464848285620003eb565b509392505050565b600082601f83011262000484576200048362000316565b5b81516200049684826020860162000421565b91505092915050565b600080600060608486031215620004bb57620004ba6200030c565b5b600084015167ffffffffffffffff811115620004dc57620004db62000311565b5b620004ea868287016200046c565b935050602084015167ffffffffffffffff8111156200050e576200050d62000311565b5b6200051c868287016200046c565b925050604084015167ffffffffffffffff81111562000540576200053f62000311565b5b6200054e868287016200046c565b9150509250925092565b600082825260208201905092915050565b7f4f776e61626c653a2063616c6c6572206973206e6f7420746865206f776e6572600082015250565b6000620005a160208362000558565b9150620005ae8262000569565b602082019050919050565b60006020820190508181036000830152620005d48162000592565b9050919050565b7f4e487b7100000000000000000000000000000000000000000000000000000000600052602260045260246000fd5b600060028204905060018216806200062357607f821691505b602082108103620006395762000638620005db565b5b50919050565b612fb7806200064f6000396000f3fe608060405234801561001057600080fd5b506004361061012c5760003560e01c80636c0360eb116100ad578063a22cb46511610071578063a22cb4651461030b578063b88d4fde14610327578063c87b56dd14610343578063e985e9c514610373578063f2fde38b146103a35761012c565b80636c0360eb1461027757806370a0823114610295578063715018a6146102c55780638da5cb5b146102cf57806395d89b41146102ed5761012c565b806318160ddd116100f457806318160ddd146101d557806323b872dd146101f357806342842e0e1461020f57806355f804b31461022b5780636352211e146102475761012c565b806301ffc9a71461013157806306fdde0314610161578063081812fc1461017f578063095ea7b3146101af5780631249c58b146101cb575b600080fd5b61014b60048036038101906101469190611ce8565b6103bf565b6040516101589190611d30565b60405180910390f35b6101696104a1565b6040516101769190611de4565b60405180910390f35b61019960048036038101906101949190611e3c565b610533565b6040516101a69190611eaa565b60405180910390f35b6101c960048036038101906101c49190611ef1565b6105b8565b005b6101d36106cf565b005b6101dd610749565b6040516101ea9190611f40565b60405180910390f35b61020d60048036038101906102089190611f5b565b61075a565b005b61022960048036038101906102249190611f5b565b6107ba565b005b610245600480360381019061024091906120e3565b6107da565b005b610261600480360381019061025c9190611e3c565b610870565b60405161026e9190611eaa565b60405180910390f35b61027f610921565b60405161028c9190611de4565b60405180910390f35b6102af60048036038101906102aa919061212c565b6109af565b6040516102bc9190611f40565b60405180910390f35b6102cd610a66565b005b6102d7610aee565b6040516102e49190611eaa565b60405180910390f35b6102f5610b18565b6040516103029190611de4565b60405180910390f35b61032560048036038101906103209190612185565b610baa565b005b610341600480360381019061033c9190612266565b610bc0565b005b61035d60048036038101906103589190611e3c565b610c22565b60405161036a9190611de4565b60405180910390f35b61038d600480360381019061038891906122e9565b610cc9565b60405161039a9190611d30565b60405180910390f35b6103bd60048036038101906103b8919061212c565b610d5d565b005b60007f80ac58cd000000000000000000000000000000000000000000000000000000007bffffffffffffffffffffffffffffffffffffffffffffffffffffffff1916827bffffffffffffffffffffffffffffffffffffffffffffffffffffffff1916148061048a57507f5b5e139f000000000000000000000000000000000000000000000000000000007bffffffffffffffffffffffffffffffffffffffffffffffffffffffff1916827bffffffffffffffffffffffffffffffffffffffffffffffffffffffff1916145b8061049a575061049982610e54565b5b9050919050565b6060600080546104b090612358565b80601f01602080910402602001604051908101604052809291908181526020018280546104dc90612358565b80156105295780601f106104fe57610100808354040283529160200191610529565b820191906000526020600020905b81548152906001019060200180831161050c57829003601f168201915b5050505050905090565b600061053e82610ebe565b61057d576040517f08c379a0000000000000000000000000000000000000000000000000000000008152600401610574906123fb565b60405180910390fd5b6004600083815260200190815260200160002060009054906101000a900473ffffffffffffffffffffffffffffffffffffffff169050919050565b60006105c382610870565b90508073ffffffffffffffffffffffffffffffffffffffff168373ffffffffffffffffffffffffffffffffffffffff1603610633576040517f08c379a000000000000000000000000000000000000000000000000000000000815260040161062a9061248d565b60405180910390fd5b8073ffffffffffffffffffffffffffffffffffffffff16610652610f2a565b73ffffffffffffffffffffffffffffffffffffffff16148061068157506106808161067b610f2a565b610cc9565b5b6106c0576040517f08c379a00000000000000000000000000000000000000000000000000000000081526004016106b79061251f565b60405180910390fd5b6106ca8383610f32565b505050565b600260075403610714576040517f08c379a000000000000000000000000000000000000000000000000000000000815260040161070b9061258b565b60405180910390fd5b60026007819055506107266009610feb565b60006107326009611001565b905061073e338261100f565b506001600781905550565b60006107556009611001565b905090565b61076b610765610f2a565b8261102d565b6107aa576040517f08c379a00000000000000000000000000000000000000000000000000000000081526004016107a19061261d565b60405180910390fd5b6107b583838361110b565b505050565b6107d583838360405180602001604052806000815250610bc0565b505050565b6107e2610f2a565b73ffffffffffffffffffffffffffffffffffffffff16610800610aee565b73ffffffffffffffffffffffffffffffffffffffff1614610856576040517f08c379a000000000000000000000000000000000000000000000000000000000815260040161084d90612689565b60405180910390fd5b806008908051906020019061086c929190611bd9565b5050565b6000806002600084815260200190815260200160002060009054906101000a900473ffffffffffffffffffffffffffffffffffffffff169050600073ffffffffffffffffffffffffffffffffffffffff168173ffffffffffffffffffffffffffffffffffffffff1603610918576040517f08c379a000000000000000000000000000000000000000000000000000000000815260040161090f9061271b565b60405180910390fd5b80915050919050565b6008805461092e90612358565b80601f016020809104026020016040519081016040528092919081815260200182805461095a90612358565b80156109a75780601f1061097c576101008083540402835291602001916109a7565b820191906000526020600020905b81548152906001019060200180831161098a57829003601f168201915b505050505081565b60008073ffffffffffffffffffffffffffffffffffffffff168273ffffffffffffffffffffffffffffffffffffffff1603610a1f576040517f08c379a0000000000000000000000000000000000000000000000000000000008152600401610a16906127ad565b60405180910390fd5b600360008373ffffffffffffffffffffffffffffffffffffffff1673ffffffffffffffffffffffffffffffffffffffff168152602001908152602001600020549050919050565b610a6e610f2a565b73ffffffffffffffffffffffffffffffffffffffff16610a8c610aee565b73ffffffffffffffffffffffffffffffffffffffff1614610ae2576040517f08c379a0000000000000000000000000000000000000000000000000000000008152600401610ad990612689565b60405180910390fd5b610aec6000611371565b565b6000600660009054906101000a900473ffffffffffffffffffffffffffffffffffffffff16905090565b606060018054610b2790612358565b80601f0160208091040260200160405190810160405280929190818152602001828054610b5390612358565b8015610ba05780601f10610b7557610100808354040283529160200191610ba0565b820191906000526020600020905b815481529060010190602001808311610b8357829003601f168201915b5050505050905090565b610bbc610bb5610f2a565b8383611437565b5050565b610bd1610bcb610f2a565b8361102d565b610c10576040517f08c379a0000000000000000000000000000000000000000000000000000000008152600401610c079061261d565b60405180910390fd5b610c1c848484846115a3565b50505050565b6060610c2d82610ebe565b610c6c576040517f08c379a0000000000000000000000000000000000000000000000000000000008152600401610c639061283f565b60405180910390fd5b6000610c766115ff565b90506000815111610c965760405180602001604052806000815250610cc1565b80610ca084611691565b604051602001610cb192919061289b565b6040516020818303038152906040525b915050919050565b6000600560008473ffffffffffffffffffffffffffffffffffffffff1673ffffffffffffffffffffffffffffffffffffffff16815260200190815260200160002060008373ffffffffffffffffffffffffffffffffffffffff1673ffffffffffffffffffffffffffffffffffffffff16815260200190815260200160002060009054906101000a900460ff16905092915050565b610d65610f2a565b73ffffffffffffffffffffffffffffffffffffffff16610d83610aee565b73ffffffffffffffffffffffffffffffffffffffff1614610dd9576040517f08c379a0000000000000000000000000000000000000000000000000000000008152600401610dd090612689565b60405180910390fd5b600073ffffffffffffffffffffffffffffffffffffffff168173ffffffffffffffffffffffffffffffffffffffff1603610e48576040517f08c379a0000000000000000000000000000000000000000000000000000000008152600401610e3f90612931565b60405180910390fd5b610e5181611371565b50565b60007f01ffc9a7000000000000000000000000000000000000000000000000000000007bffffffffffffffffffffffffffffffffffffffffffffffffffffffff1916827bffffffffffffffffffffffffffffffffffffffffffffffffffffffff1916149050919050565b60008073ffffffffffffffffffffffffffffffffffffffff166002600084815260200190815260200160002060009054906101000a900473ffffffffffffffffffffffffffffffffffffffff1673ffffffffffffffffffffffffffffffffffffffff1614159050919050565b600033905090565b816004600083815260200190815260200160002060006101000a81548173ffffffffffffffffffffffffffffffffffffffff021916908373ffffffffffffffffffffffffffffffffffffffff160217905550808273ffffffffffffffffffffffffffffffffffffffff16610fa583610870565b73ffffffffffffffffffffffffffffffffffffffff167f8c5be1e5ebec7d5bd14f71427d1e84f3dd0314c0f7b2291e5b200ac8c7c3b92560405160405180910390a45050565b6001816000016000828254019250508190555050565b600081600001549050919050565b6110298282604051806020016040528060008152506117f1565b5050565b600061103882610ebe565b611077576040517f08c379a000000000000000000000000000000000000000000000000000000000815260040161106e906129c3565b60405180910390fd5b600061108283610870565b90508073ffffffffffffffffffffffffffffffffffffffff168473ffffffffffffffffffffffffffffffffffffffff1614806110c457506110c38185610cc9565b5b8061110257508373ffffffffffffffffffffffffffffffffffffffff166110ea84610533565b73ffffffffffffffffffffffffffffffffffffffff16145b91505092915050565b8273ffffffffffffffffffffffffffffffffffffffff1661112b82610870565b73ffffffffffffffffffffffffffffffffffffffff1614611181576040517f08c379a000000000000000000000000000000000000000000000000000000000815260040161117890612a55565b60405180910390fd5b600073ffffffffffffffffffffffffffffffffffffffff168273ffffffffffffffffffffffffffffffffffffffff16036111f0576040517f08c379a00000000000000000000000000000000000000000000000000000000081526004016111e790612ae7565b60405180910390fd5b6111fb83838361184c565b611206600082610f32565b6001600360008573ffffffffffffffffffffffffffffffffffffffff1673ffffffffffffffffffffffffffffffffffffffff16815260200190815260200160002060008282546112569190612b36565b925050819055506001600360008473ffffffffffffffffffffffffffffffffffffffff1673ffffffffffffffffffffffffffffffffffffffff16815260200190815260200160002060008282546112ad9190612b6a565b92505081905550816002600083815260200190815260200160002060006101000a81548173ffffffffffffffffffffffffffffffffffffffff021916908373ffffffffffffffffffffffffffffffffffffffff160217905550808273ffffffffffffffffffffffffffffffffffffffff168473ffffffffffffffffffffffffffffffffffffffff167fddf252ad1be2c89b69c2b068fc378daa952ba7f163c4a11628f55a4df523b3ef60405160405180910390a461136c838383611851565b505050565b6000600660009054906101000a900473ffffffffffffffffffffffffffffffffffffffff16905081600660006101000a81548173ffffffffffffffffffffffffffffffffffffffff021916908373ffffffffffffffffffffffffffffffffffffffff1602179055508173ffffffffffffffffffffffffffffffffffffffff168173ffffffffffffffffffffffffffffffffffffffff167f8be0079c531659141344cd1fd0a4f28419497f9722a3daafe3b4186f6b6457e060405160405180910390a35050565b8173ffffffffffffffffffffffffffffffffffffffff168373ffffffffffffffffffffffffffffffffffffffff16036114a5576040517f08c379a000000000000000000000000000000000000000000000000000000000815260040161149c90612c0c565b60405180910390fd5b80600560008573ffffffffffffffffffffffffffffffffffffffff1673ffffffffffffffffffffffffffffffffffffffff16815260200190815260200160002060008473ffffffffffffffffffffffffffffffffffffffff1673ffffffffffffffffffffffffffffffffffffffff16815260200190815260200160002060006101000a81548160ff0219169083151502179055508173ffffffffffffffffffffffffffffffffffffffff168373ffffffffffffffffffffffffffffffffffffffff167f17307eab39ab6107e8899845ad3d59bd9653f200f220920489ca2b5937696c31836040516115969190611d30565b60405180910390a3505050565b6115ae84848461110b565b6115ba84848484611856565b6115f9576040517f08c379a00000000000000000000000000000000000000000000000000000000081526004016115f090612c9e565b60405180910390fd5b50505050565b60606008805461160e90612358565b80601f016020809104026020016040519081016040528092919081815260200182805461163a90612358565b80156116875780601f1061165c57610100808354040283529160200191611687565b820191906000526020600020905b81548152906001019060200180831161166a57829003601f168201915b5050505050905090565b6060600082036116d8576040518060400160405280600181526020017f300000000000000000000000000000000000000000000000000000000000000081525090506117ec565b600082905060005b6000821461170a5780806116f390612cbe565b915050600a826117039190612d35565b91506116e0565b60008167ffffffffffffffff81111561172657611725611fb8565b5b6040519080825280601f01601f1916602001820160405280156117585781602001600182028036833780820191505090505b5090505b600085146117e5576001826117719190612b36565b9150600a856117809190612d66565b603061178c9190612b6a565b60f81b8183815181106117a2576117a1612d97565b5b60200101907effffffffffffffffffffffffffffffffffffffffffffffffffffffffffffff1916908160001a905350600a856117de9190612d35565b945061175c565b8093505050505b919050565b6117fb83836119dd565b6118086000848484611856565b611847576040517f08c379a000000000000000000000000000000000000000000000000000000000815260040161183e90612c9e565b60405180910390fd5b505050565b505050565b505050565b60006118778473ffffffffffffffffffffffffffffffffffffffff16611bb6565b156119d0578373ffffffffffffffffffffffffffffffffffffffff1663150b7a026118a0610f2a565b8786866040518563ffffffff1660e01b81526004016118c29493929190612e1b565b6020604051808303816000875af19250505080156118fe57506040513d601f19601f820116820180604052508101906118fb9190612e7c565b60015b611980573d806000811461192e576040519150601f19603f3d011682016040523d82523d6000602084013e611933565b606091505b506000815103611978576040517f08c379a000000000000000000000000000000000000000000000000000000000815260040161196f90612c9e565b60405180910390fd5b805181602001fd5b63150b7a0260e01b7bffffffffffffffffffffffffffffffffffffffffffffffffffffffff1916817bffffffffffffffffffffffffffffffffffffffffffffffffffffffff1916149150506119d5565b600190505b949350505050565b600073ffffffffffffffffffffffffffffffffffffffff168273ffffffffffffffffffffffffffffffffffffffff1603611a4c576040517f08c379a0000000000000000000000000000000000000000000000000000000008152600401611a4390612ef5565b60405180910390fd5b611a5581610ebe565b15611a95576040517f08c379a0000000000000000000000000000000000000000000000000000000008152600401611a8c90612f61565b60405180910390fd5b611aa16000838361184c565b6001600360008473ffffffffffffffffffffffffffffffffffffffff1673ffffffffffffffffffffffffffffffffffffffff1681526020019081526020016000206000828254611af19190612b6a565b92505081905550816002600083815260200190815260200160002060006101000a81548173ffffffffffffffffffffffffffffffffffffffff021916908373ffffffffffffffffffffffffffffffffffffffff160217905550808273ffffffffffffffffffffffffffffffffffffffff16600073ffffffffffffffffffffffffffffffffffffffff167fddf252ad1be2c89b69c2b068fc378daa952ba7f163c4a11628f55a4df523b3ef60405160405180910390a4611bb260008383611851565b5050565b6000808273ffffffffffffffffffffffffffffffffffffffff163b119050919050565b828054611be590612358565b90600052602060002090601f016020900481019282611c075760008555611c4e565b82601f10611c2057805160ff1916838001178555611c4e565b82800160010185558215611c4e579182015b82811115611c4d578251825591602001919060010190611c32565b5b509050611c5b9190611c5f565b5090565b5b80821115611c78576000816000905550600101611c60565b5090565b6000604051905090565b600080fd5b600080fd5b60007fffffffff0000000000000000000000000000000000000000000000000000000082169050919050565b611cc581611c90565b8114611cd057600080fd5b50565b600081359050611ce281611cbc565b92915050565b600060208284031215611cfe57611cfd611c86565b5b6000611d0c84828501611cd3565b91505092915050565b60008115159050919050565b611d2a81611d15565b82525050565b6000602082019050611d456000830184611d21565b92915050565b600081519050919050565b600082825260208201905092915050565b60005b83811015611d85578082015181840152602081019050611d6a565b83811115611d94576000848401525b50505050565b6000601f19601f8301169050919050565b6000611db682611d4b565b611dc08185611d56565b9350611dd0818560208601611d67565b611dd981611d9a565b840191505092915050565b60006020820190508181036000830152611dfe8184611dab565b905092915050565b6000819050919050565b611e1981611e06565b8114611e2457600080fd5b50565b600081359050611e3681611e10565b92915050565b600060208284031215611e5257611e51611c86565b5b6000611e6084828501611e27565b91505092915050565b600073ffffffffffffffffffffffffffffffffffffffff82169050919050565b6000611e9482611e69565b9050919050565b611ea481611e89565b82525050565b6000602082019050611ebf6000830184611e9b565b92915050565b611ece81611e89565b8114611ed957600080fd5b50565b600081359050611eeb81611ec5565b92915050565b60008060408385031215611f0857611f07611c86565b5b6000611f1685828601611edc565b9250506020611f2785828601611e27565b9150509250929050565b611f3a81611e06565b82525050565b6000602082019050611f556000830184611f31565b92915050565b600080600060608486031215611f7457611f73611c86565b5b6000611f8286828701611edc565b9350506020611f9386828701611edc565b9250506040611fa486828701611e27565b9150509250925092565b600080fd5b600080fd5b7f4e487b7100000000000000000000000000000000000000000000000000000000600052604160045260246000fd5b611ff082611d9a565b810181811067ffffffffffffffff8211171561200f5761200e611fb8565b5b80604052505050565b6000612022611c7c565b905061202e8282611fe7565b919050565b600067ffffffffffffffff82111561204e5761204d611fb8565b5b61205782611d9a565b9050602081019050919050565b82818337600083830152505050565b600061208661208184612033565b612018565b9050828152602081018484840111156120a2576120a1611fb3565b5b6120ad848285612064565b509392505050565b600082601f8301126120ca576120c9611fae565b5b81356120da848260208601612073565b91505092915050565b6000602082840312156120f9576120f8611c86565b5b600082013567ffffffffffffffff81111561211757612116611c8b565b5b612123848285016120b5565b91505092915050565b60006020828403121561214257612141611c86565b5b600061215084828501611edc565b91505092915050565b61216281611d15565b811461216d57600080fd5b50565b60008135905061217f81612159565b92915050565b6000806040838503121561219c5761219b611c86565b5b60006121aa85828601611edc565b92505060206121bb85828601612170565b9150509250929050565b600067ffffffffffffffff8211156121e0576121df611fb8565b5b6121e982611d9a565b9050602081019050919050565b6000612209612204846121c5565b612018565b90508281526020810184848401111561222557612224611fb3565b5b612230848285612064565b509392505050565b600082601f83011261224d5761224c611fae565b5b813561225d8482602086016121f6565b91505092915050565b600080600080608085870312156122805761227f611c86565b5b600061228e87828801611edc565b945050602061229f87828801611edc565b93505060406122b087828801611e27565b925050606085013567ffffffffffffffff8111156122d1576122d0611c8b565b5b6122dd87828801612238565b91505092959194509250565b60008060408385031215612300576122ff611c86565b5b600061230e85828601611edc565b925050602061231f85828601611edc565b9150509250929050565b7f4e487b7100000000000000000000000000000000000000000000000000000000600052602260045260246000fd5b6000600282049050600182168061237057607f821691505b60208210810361238357612382612329565b5b50919050565b7f4552433732313a20617070726f76656420717565727920666f72206e6f6e657860008201527f697374656e7420746f6b656e0000000000000000000000000000000000000000602082015250565b60006123e5602c83611d56565b91506123f082612389565b604082019050919050565b60006020820190508181036000830152612414816123d8565b9050919050565b7f4552433732313a20617070726f76616c20746f2063757272656e74206f776e6560008201527f7200000000000000000000000000000000000000000000000000000000000000602082015250565b6000612477602183611d56565b91506124828261241b565b604082019050919050565b600060208201905081810360008301526124a68161246a565b9050919050565b7f4552433732313a20617070726f76652063616c6c6572206973206e6f74206f7760008201527f6e6572206e6f7220617070726f76656420666f7220616c6c0000000000000000602082015250565b6000612509603883611d56565b9150612514826124ad565b604082019050919050565b60006020820190508181036000830152612538816124fc565b9050919050565b7f5265656e7472616e637947756172643a207265656e7472616e742063616c6c00600082015250565b6000612575601f83611d56565b91506125808261253f565b602082019050919050565b600060208201905081810360008301526125a481612568565b9050919050565b7f4552433732313a207472616e736665722063616c6c6572206973206e6f74206f60008201527f776e6572206e6f7220617070726f766564000000000000000000000000000000602082015250565b6000612607603183611d56565b9150612612826125ab565b604082019050919050565b60006020820190508181036000830152612636816125fa565b9050919050565b7f4f776e61626c653a2063616c6c6572206973206e6f7420746865206f776e6572600082015250565b6000612673602083611d56565b915061267e8261263d565b602082019050919050565b600060208201905081810360008301526126a281612666565b9050919050565b7f4552433732313a206f776e657220717565727920666f72206e6f6e657869737460008201527f656e7420746f6b656e0000000000000000000000000000000000000000000000602082015250565b6000612705602983611d56565b9150612710826126a9565b604082019050919050565b60006020820190508181036000830152612734816126f8565b9050919050565b7f4552433732313a2062616c616e636520717565727920666f7220746865207a6560008201527f726f206164647265737300000000000000000000000000000000000000000000602082015250565b6000612797602a83611d56565b91506127a28261273b565b604082019050919050565b600060208201905081810360008301526127c68161278a565b9050919050565b7f4552433732314d657461646174613a2055524920717565727920666f72206e6f60008201527f6e6578697374656e7420746f6b656e0000000000000000000000000000000000602082015250565b6000612829602f83611d56565b9150612834826127cd565b604082019050919050565b600060208201905081810360008301526128588161281c565b9050919050565b600081905092915050565b600061287582611d4b565b61287f818561285f565b935061288f818560208601611d67565b80840191505092915050565b60006128a7828561286a565b91506128b3828461286a565b91508190509392505050565b7f4f776e61626c653a206e6577206f776e657220697320746865207a65726f206160008201527f6464726573730000000000000000000000000000000000000000000000000000602082015250565b600061291b602683611d56565b9150612926826128bf565b604082019050919050565b6000602082019050818103600083015261294a8161290e565b9050919050565b7f4552433732313a206f70657261746f7220717565727920666f72206e6f6e657860008201527f697374656e7420746f6b656e0000000000000000000000000000000000000000602082015250565b60006129ad602c83611d56565b91506129b882612951565b604082019050919050565b600060208201905081810360008301526129dc816129a0565b9050919050565b7f4552433732313a207472616e736665722066726f6d20696e636f72726563742060008201527f6f776e6572000000000000000000000000000000000000000000000000000000602082015250565b6000612a3f602583611d56565b9150612a4a826129e3565b604082019050919050565b60006020820190508181036000830152612a6e81612a32565b9050919050565b7f4552433732313a207472616e7366657220746f20746865207a65726f2061646460008201527f7265737300000000000000000000000000000000000000000000000000000000602082015250565b6000612ad1602483611d56565b9150612adc82612a75565b604082019050919050565b60006020820190508181036000830152612b0081612ac4565b9050919050565b7f4e487b7100000000000000000000000000000000000000000000000000000000600052601160045260246000fd5b6000612b4182611e06565b9150612b4c83611e06565b925082821015612b5f57612b5e612b07565b5b828203905092915050565b6000612b7582611e06565b9150612b8083611e06565b9250827fffffffffffffffffffffffffffffffffffffffffffffffffffffffffffffffff03821115612bb557612bb4612b07565b5b828201905092915050565b7f4552433732313a20617070726f766520746f2063616c6c657200000000000000600082015250565b6000612bf6601983611d56565b9150612c0182612bc0565b602082019050919050565b60006020820190508181036000830152612c2581612be9565b9050919050565b7f4552433732313a207472616e7366657220746f206e6f6e20455243373231526560008201527f63656976657220696d706c656d656e7465720000000000000000000000000000602082015250565b6000612c88603283611d56565b9150612c9382612c2c565b604082019050919050565b60006020820190508181036000830152612cb781612c7b565b9050919050565b6000612cc982611e06565b91507fffffffffffffffffffffffffffffffffffffffffffffffffffffffffffffffff8203612cfb57612cfa612b07565b5b600182019050919050565b7f4e487b7100000000000000000000000000000000000000000000000000000000600052601260045260246000fd5b6000612d4082611e06565b9150612d4b83611e06565b925082612d5b57612d5a612d06565b5b828204905092915050565b6000612d7182611e06565b9150612d7c83611e06565b925082612d8c57612d8b612d06565b5b828206905092915050565b7f4e487b7100000000000000000000000000000000000000000000000000000000600052603260045260246000fd5b600081519050919050565b600082825260208201905092915050565b6000612ded82612dc6565b612df78185612dd1565b9350612e07818560208601611d67565b612e1081611d9a565b840191505092915050565b6000608082019050612e306000830187611e9b565b612e3d6020830186611e9b565b612e4a6040830185611f31565b8181036060830152612e5c8184612de2565b905095945050505050565b600081519050612e7681611cbc565b92915050565b600060208284031215612e9257612e91611c86565b5b6000612ea084828501612e67565b91505092915050565b7f4552433732313a206d696e7420746f20746865207a65726f2061646472657373600082015250565b6000612edf602083611d56565b9150612eea82612ea9565b602082019050919050565b60006020820190508181036000830152612f0e81612ed2565b9050919050565b7f4552433732313a20746f6b656e20616c7265616479206d696e74656400000000600082015250565b6000612f4b601c83611d56565b9150612f5682612f15565b602082019050919050565b60006020820190508181036000830152612f7a81612f3e565b905091905056fea2646970667358221220708a75d4e719eb5bbce6fefdcb107e889a4e65bb1cc514a6253fe08b600cbb2464736f6c634300080d0033a26469706673582212205cddfac3a3cdbdf5c48c8b82921291012b360e67e496ea92e59385e118470b4b64736f6c634300080d0033",
  "linkReferences": {},
  "deployedLinkReferences": {}
}