{
  "_format": "hh-sol-artifact-1",
  "contractName": "Factory",
  "sourceName": "contracts/Factory.sol",
  "abi": [
    {
      "inputs": [],
      "name": "collectionCount",
      "outputs": [
        {
          "internalType": "uint256",
          "name": "",
          "type": "uint256"
        }
      ],
      "stateMutability": "view",
      "type": "function"
    },
    {
      "inputs": [
        {
          "internalType": "uint256",
          "name": "",
          "type": "uint256"
        }
      ],
      "name": "collections",
      "outputs": [
        {
          "internalType": "address",
          "name": "",
          "type": "address"
        }
      ],
      "stateMutability": "view",
      "type": "function"
    },
    {
      "inputs": [
        {
          "internalType": "string",
          "name": "_artistName",
          "type": "string"
        },
        {
          "internalType": "string",
          "name": "_artistSymbol",
          "type": "string"
        },
        {
          "internalType": "string",
          "name": "_baseUri",
          "type": "string"
        }
      ],
      "name": "createNFTCollection",
      "outputs": [],
      "stateMutability": "nonpayable",
      "type": "function"
    },
    {
      "inputs": [
        {
          "internalType": "uint256",
          "name": "_id",
          "type": "uint256"
        }
      ],
      "name": "getCollection",
      "outputs": [
        {
          "internalType": "address",
          "name": "",
          "type": "address"
        }
      ],
      "stateMutability": "view",
      "type": "function"
    },
    {
      "inputs": [],
      "name": "getCount",
      "outputs": [
        {
          "internalType": "uint256",
          "name": "",
          "type": "uint256"
        }
      ],
      "stateMutability": "view",
      "type": "function"
    }
  ],
  "bytecode": "0x608060405234801561001057600080fd5b50613de8806100206000396000f3fe60806040523480156200001157600080fd5b50600436106200005e5760003560e01c80635a1f3c281462000063578063844af6581462000099578063a87d942c14620000b9578063d57f966b14620000db578063fdbda0ec14620000fd575b600080fd5b6200008160048036038101906200007b919062000331565b62000133565b604051620000909190620003a8565b60405180910390f35b620000b76004803603810190620000b1919062000527565b62000170565b005b620000c362000292565b604051620000d29190620005f1565b60405180910390f35b620000e56200029b565b604051620000f49190620005f1565b60405180910390f35b6200011b600480360381019062000115919062000331565b620002a1565b6040516200012a9190620003a8565b60405180910390f35b60006001600083815260200190815260200160002060009054906101000a900473ffffffffffffffffffffffffffffffffffffffff169050919050565b60008383836040516200018390620002d4565b6200019193929190620006a1565b604051809103906000f080158015620001ae573d6000803e3d6000fd5b509050600080815480929190620001c59062000722565b919050555080600160008054815260200190815260200160002060006101000a81548173ffffffffffffffffffffffffffffffffffffffff021916908373ffffffffffffffffffffffffffffffffffffffff1602179055508073ffffffffffffffffffffffffffffffffffffffff1663f2fde38b336040518263ffffffff1660e01b8152600401620002589190620003a8565b600060405180830381600087803b1580156200027357600080fd5b505af115801562000288573d6000803e3d6000fd5b5050505050505050565b60008054905090565b60005481565b60016020528060005260406000206000915054906101000a900473ffffffffffffffffffffffffffffffffffffffff1681565b613643806200077083390190565b6000604051905090565b600080fd5b600080fd5b6000819050919050565b6200030b81620002f6565b81146200031757600080fd5b50565b6000813590506200032b8162000300565b92915050565b6000602082840312156200034a5762000349620002ec565b5b60006200035a848285016200031a565b91505092915050565b600073ffffffffffffffffffffffffffffffffffffffff82169050919050565b6000620003908262000363565b9050919050565b620003a28162000383565b82525050565b6000602082019050620003bf600083018462000397565b92915050565b600080fd5b600080fd5b6000601f19601f8301169050919050565b7f4e487b7100000000000000000000000000000000000000000000000000000000600052604160045260246000fd5b6200041a82620003cf565b810181811067ffffffffffffffff821117156200043c576200043b620003e0565b5b80604052505050565b600062000451620002e2565b90506200045f82826200040f565b919050565b600067ffffffffffffffff821115620004825762000481620003e0565b5b6200048d82620003cf565b9050602081019050919050565b82818337600083830152505050565b6000620004c0620004ba8462000464565b62000445565b905082815260208101848484011115620004df57620004de620003ca565b5b620004ec8482856200049a565b509392505050565b600082601f8301126200050c576200050b620003c5565b5b81356200051e848260208601620004a9565b91505092915050565b600080600060608486031215620005435762000542620002ec565b5b600084013567ffffffffffffffff811115620005645762000563620002f1565b5b6200057286828701620004f4565b935050602084013567ffffffffffffffff811115620005965762000595620002f1565b5b620005a486828701620004f4565b925050604084013567ffffffffffffffff811115620005c857620005c7620002f1565b5b620005d686828701620004f4565b9150509250925092565b620005eb81620002f6565b82525050565b6000602082019050620006086000830184620005e0565b92915050565b600081519050919050565b600082825260208201905092915050565b60005b838110156200064a5780820151818401526020810190506200062d565b838111156200065a576000848401525b50505050565b60006200066d826200060e565b62000679818562000619565b93506200068b8185602086016200062a565b6200069681620003cf565b840191505092915050565b60006060820190508181036000830152620006bd818662000660565b90508181036020830152620006d3818562000660565b90508181036040830152620006e9818462000660565b9050949350505050565b7f4e487b7100000000000000000000000000000000000000000000000000000000600052601160045260246000fd5b60006200072f82620002f6565b91507fffffffffffffffffffffffffffffffffffffffffffffffffffffffffffffffff8203620007645762000763620006f3565b5b60018201905091905056fe608060405260016009553480156200001657600080fd5b50604051620036433803806200364383398181016040528101906200003c9190620004a4565b828281600090805190602001906200005692919062000257565b5080600190805190602001906200006f92919062000257565b5050506200009262000086620000b460201b60201c565b620000bc60201b60201c565b6001600781905550620000ab816200018260201b60201c565b50505062000644565b600033905090565b6000600660009054906101000a900473ffffffffffffffffffffffffffffffffffffffff16905081600660006101000a81548173ffffffffffffffffffffffffffffffffffffffff021916908373ffffffffffffffffffffffffffffffffffffffff1602179055508173ffffffffffffffffffffffffffffffffffffffff168173ffffffffffffffffffffffffffffffffffffffff167f8be0079c531659141344cd1fd0a4f28419497f9722a3daafe3b4186f6b6457e060405160405180910390a35050565b62000192620000b460201b60201c565b73ffffffffffffffffffffffffffffffffffffffff16620001b86200022d60201b60201c565b73ffffffffffffffffffffffffffffffffffffffff161462000211576040517f08c379a00000000000000000000000000000000000000000000000000000000081526004016200020890620005be565b60405180910390fd5b80600890805190602001906200022992919062000257565b5050565b6000600660009054906101000a900473ffffffffffffffffffffffffffffffffffffffff16905090565b82805462000265906200060f565b90600052602060002090601f016020900481019282620002895760008555620002d5565b82601f10620002a457805160ff1916838001178555620002d5565b82800160010185558215620002d5579182015b82811115620002d4578251825591602001919060010190620002b7565b5b509050620002e49190620002e8565b5090565b5b8082111562000303576000816000905550600101620002e9565b5090565b6000604051905090565b600080fd5b600080fd5b600080fd5b600080fd5b6000601f19601f8301169050919050565b7f4e487b7100000000000000000000000000000000000000000000000000000000600052604160045260246000fd5b620003708262000325565b810181811067ffffffffffffffff8211171562000392576200039162000336565b5b80604052505050565b6000620003a762000307565b9050620003b5828262000365565b919050565b600067ffffffffffffffff821115620003d857620003d762000336565b5b620003e38262000325565b9050602081019050919050565b60005b8381101562000410578082015181840152602081019050620003f3565b8381111562000420576000848401525b50505050565b60006200043d6200043784620003ba565b6200039b565b9050828152602081018484840111156200045c576200045b62000320565b5b62000469848285620003f0565b509392505050565b600082601f8301126200048957620004886200031b565b5b81516200049b84826020860162000426565b91505092915050565b600080600060608486031215620004c057620004bf62000311565b5b600084015167ffffffffffffffff811115620004e157620004e062000316565b5b620004ef8682870162000471565b935050602084015167ffffffffffffffff81111562000513576200051262000316565b5b620005218682870162000471565b925050604084015167ffffffffffffffff81111562000545576200054462000316565b5b620005538682870162000471565b9150509250925092565b600082825260208201905092915050565b7f4f776e61626c653a2063616c6c6572206973206e6f7420746865206f776e6572600082015250565b6000620005a66020836200055d565b9150620005b3826200056e565b602082019050919050565b60006020820190508181036000830152620005d98162000597565b9050919050565b7f4e487b7100000000000000000000000000000000000000000000000000000000600052602260045260246000fd5b600060028204905060018216806200062857607f821691505b6020821081036200063e576200063d620005e0565b5b50919050565b612fef80620006546000396000f3fe608060405234801561001057600080fd5b50600436106101425760003560e01c806370a08231116100b8578063a22cb4651161007c578063a22cb4651461033f578063a87d942c1461035b578063b88d4fde14610379578063c87b56dd14610395578063e985e9c5146103c5578063f2fde38b146103f557610142565b806370a08231146102ab578063715018a6146102db5780638da5cb5b146102e557806395d89b41146103035780639f181b5e1461032157610142565b806318160ddd1161010a57806318160ddd146101eb57806323b872dd1461020957806342842e0e1461022557806355f804b3146102415780636352211e1461025d5780636c0360eb1461028d57610142565b806301ffc9a71461014757806306fdde0314610177578063081812fc14610195578063095ea7b3146101c55780631249c58b146101e1575b600080fd5b610161600480360381019061015c9190611d20565b610411565b60405161016e9190611d68565b60405180910390f35b61017f6104f3565b60405161018c9190611e1c565b60405180910390f35b6101af60048036038101906101aa9190611e74565b610585565b6040516101bc9190611ee2565b60405180910390f35b6101df60048036038101906101da9190611f29565b61060a565b005b6101e9610721565b005b6101f361079c565b6040516102009190611f78565b60405180910390f35b610223600480360381019061021e9190611f93565b6107a6565b005b61023f600480360381019061023a9190611f93565b610806565b005b61025b6004803603810190610256919061211b565b610826565b005b61027760048036038101906102729190611e74565b6108bc565b6040516102849190611ee2565b60405180910390f35b61029561096d565b6040516102a29190611e1c565b60405180910390f35b6102c560048036038101906102c09190612164565b6109fb565b6040516102d29190611f78565b60405180910390f35b6102e3610ab2565b005b6102ed610b3a565b6040516102fa9190611ee2565b60405180910390f35b61030b610b64565b6040516103189190611e1c565b60405180910390f35b610329610bf6565b6040516103369190611f78565b60405180910390f35b610359600480360381019061035491906121bd565b610bfc565b005b610363610c12565b6040516103709190611f78565b60405180910390f35b610393600480360381019061038e919061229e565b610c1c565b005b6103af60048036038101906103aa9190611e74565b610c7e565b6040516103bc9190611e1c565b60405180910390f35b6103df60048036038101906103da9190612321565b610d25565b6040516103ec9190611d68565b60405180910390f35b61040f600480360381019061040a9190612164565b610db9565b005b60007f80ac58cd000000000000000000000000000000000000000000000000000000007bffffffffffffffffffffffffffffffffffffffffffffffffffffffff1916827bffffffffffffffffffffffffffffffffffffffffffffffffffffffff191614806104dc57507f5b5e139f000000000000000000000000000000000000000000000000000000007bffffffffffffffffffffffffffffffffffffffffffffffffffffffff1916827bffffffffffffffffffffffffffffffffffffffffffffffffffffffff1916145b806104ec57506104eb82610eb0565b5b9050919050565b60606000805461050290612390565b80601f016020809104026020016040519081016040528092919081815260200182805461052e90612390565b801561057b5780601f106105505761010080835404028352916020019161057b565b820191906000526020600020905b81548152906001019060200180831161055e57829003601f168201915b5050505050905090565b600061059082610f1a565b6105cf576040517f08c379a00000000000000000000000000000000000000000000000000000000081526004016105c690612433565b60405180910390fd5b6004600083815260200190815260200160002060009054906101000a900473ffffffffffffffffffffffffffffffffffffffff169050919050565b6000610615826108bc565b90508073ffffffffffffffffffffffffffffffffffffffff168373ffffffffffffffffffffffffffffffffffffffff1603610685576040517f08c379a000000000000000000000000000000000000000000000000000000000815260040161067c906124c5565b60405180910390fd5b8073ffffffffffffffffffffffffffffffffffffffff166106a4610f86565b73ffffffffffffffffffffffffffffffffffffffff1614806106d357506106d2816106cd610f86565b610d25565b5b610712576040517f08c379a000000000000000000000000000000000000000000000000000000000815260040161070990612557565b60405180910390fd5b61071c8383610f8e565b505050565b600260075403610766576040517f08c379a000000000000000000000000000000000000000000000000000000000815260040161075d906125c3565b60405180910390fd5b60026007819055506009600081548092919061078190612612565b919050555061079233600954611047565b6001600781905550565b6000600954905090565b6107b76107b1610f86565b82611065565b6107f6576040517f08c379a00000000000000000000000000000000000000000000000000000000081526004016107ed906126cc565b60405180910390fd5b610801838383611143565b505050565b61082183838360405180602001604052806000815250610c1c565b505050565b61082e610f86565b73ffffffffffffffffffffffffffffffffffffffff1661084c610b3a565b73ffffffffffffffffffffffffffffffffffffffff16146108a2576040517f08c379a000000000000000000000000000000000000000000000000000000000815260040161089990612738565b60405180910390fd5b80600890805190602001906108b8929190611c11565b5050565b6000806002600084815260200190815260200160002060009054906101000a900473ffffffffffffffffffffffffffffffffffffffff169050600073ffffffffffffffffffffffffffffffffffffffff168173ffffffffffffffffffffffffffffffffffffffff1603610964576040517f08c379a000000000000000000000000000000000000000000000000000000000815260040161095b906127ca565b60405180910390fd5b80915050919050565b6008805461097a90612390565b80601f01602080910402602001604051908101604052809291908181526020018280546109a690612390565b80156109f35780601f106109c8576101008083540402835291602001916109f3565b820191906000526020600020905b8154815290600101906020018083116109d657829003601f168201915b505050505081565b60008073ffffffffffffffffffffffffffffffffffffffff168273ffffffffffffffffffffffffffffffffffffffff1603610a6b576040517f08c379a0000000000000000000000000000000000000000000000000000000008152600401610a629061285c565b60405180910390fd5b600360008373ffffffffffffffffffffffffffffffffffffffff1673ffffffffffffffffffffffffffffffffffffffff168152602001908152602001600020549050919050565b610aba610f86565b73ffffffffffffffffffffffffffffffffffffffff16610ad8610b3a565b73ffffffffffffffffffffffffffffffffffffffff1614610b2e576040517f08c379a0000000000000000000000000000000000000000000000000000000008152600401610b2590612738565b60405180910390fd5b610b3860006113a9565b565b6000600660009054906101000a900473ffffffffffffffffffffffffffffffffffffffff16905090565b606060018054610b7390612390565b80601f0160208091040260200160405190810160405280929190818152602001828054610b9f90612390565b8015610bec5780601f10610bc157610100808354040283529160200191610bec565b820191906000526020600020905b815481529060010190602001808311610bcf57829003601f168201915b5050505050905090565b60095481565b610c0e610c07610f86565b838361146f565b5050565b6000600954905090565b610c2d610c27610f86565b83611065565b610c6c576040517f08c379a0000000000000000000000000000000000000000000000000000000008152600401610c63906126cc565b60405180910390fd5b610c78848484846115db565b50505050565b6060610c8982610f1a565b610cc8576040517f08c379a0000000000000000000000000000000000000000000000000000000008152600401610cbf906128ee565b60405180910390fd5b6000610cd2611637565b90506000815111610cf25760405180602001604052806000815250610d1d565b80610cfc846116c9565b604051602001610d0d92919061294a565b6040516020818303038152906040525b915050919050565b6000600560008473ffffffffffffffffffffffffffffffffffffffff1673ffffffffffffffffffffffffffffffffffffffff16815260200190815260200160002060008373ffffffffffffffffffffffffffffffffffffffff1673ffffffffffffffffffffffffffffffffffffffff16815260200190815260200160002060009054906101000a900460ff16905092915050565b610dc1610f86565b73ffffffffffffffffffffffffffffffffffffffff16610ddf610b3a565b73ffffffffffffffffffffffffffffffffffffffff1614610e35576040517f08c379a0000000000000000000000000000000000000000000000000000000008152600401610e2c90612738565b60405180910390fd5b600073ffffffffffffffffffffffffffffffffffffffff168173ffffffffffffffffffffffffffffffffffffffff1603610ea4576040517f08c379a0000000000000000000000000000000000000000000000000000000008152600401610e9b906129e0565b60405180910390fd5b610ead816113a9565b50565b60007f01ffc9a7000000000000000000000000000000000000000000000000000000007bffffffffffffffffffffffffffffffffffffffffffffffffffffffff1916827bffffffffffffffffffffffffffffffffffffffffffffffffffffffff1916149050919050565b60008073ffffffffffffffffffffffffffffffffffffffff166002600084815260200190815260200160002060009054906101000a900473ffffffffffffffffffffffffffffffffffffffff1673ffffffffffffffffffffffffffffffffffffffff1614159050919050565b600033905090565b816004600083815260200190815260200160002060006101000a81548173ffffffffffffffffffffffffffffffffffffffff021916908373ffffffffffffffffffffffffffffffffffffffff160217905550808273ffffffffffffffffffffffffffffffffffffffff16611001836108bc565b73ffffffffffffffffffffffffffffffffffffffff167f8c5be1e5ebec7d5bd14f71427d1e84f3dd0314c0f7b2291e5b200ac8c7c3b92560405160405180910390a45050565b611061828260405180602001604052806000815250611829565b5050565b600061107082610f1a565b6110af576040517f08c379a00000000000000000000000000000000000000000000000000000000081526004016110a690612a72565b60405180910390fd5b60006110ba836108bc565b90508073ffffffffffffffffffffffffffffffffffffffff168473ffffffffffffffffffffffffffffffffffffffff1614806110fc57506110fb8185610d25565b5b8061113a57508373ffffffffffffffffffffffffffffffffffffffff1661112284610585565b73ffffffffffffffffffffffffffffffffffffffff16145b91505092915050565b8273ffffffffffffffffffffffffffffffffffffffff16611163826108bc565b73ffffffffffffffffffffffffffffffffffffffff16146111b9576040517f08c379a00000000000000000000000000000000000000000000000000000000081526004016111b090612b04565b60405180910390fd5b600073ffffffffffffffffffffffffffffffffffffffff168273ffffffffffffffffffffffffffffffffffffffff1603611228576040517f08c379a000000000000000000000000000000000000000000000000000000000815260040161121f90612b96565b60405180910390fd5b611233838383611884565b61123e600082610f8e565b6001600360008573ffffffffffffffffffffffffffffffffffffffff1673ffffffffffffffffffffffffffffffffffffffff168152602001908152602001600020600082825461128e9190612bb6565b925050819055506001600360008473ffffffffffffffffffffffffffffffffffffffff1673ffffffffffffffffffffffffffffffffffffffff16815260200190815260200160002060008282546112e59190612bea565b92505081905550816002600083815260200190815260200160002060006101000a81548173ffffffffffffffffffffffffffffffffffffffff021916908373ffffffffffffffffffffffffffffffffffffffff160217905550808273ffffffffffffffffffffffffffffffffffffffff168473ffffffffffffffffffffffffffffffffffffffff167fddf252ad1be2c89b69c2b068fc378daa952ba7f163c4a11628f55a4df523b3ef60405160405180910390a46113a4838383611889565b505050565b6000600660009054906101000a900473ffffffffffffffffffffffffffffffffffffffff16905081600660006101000a81548173ffffffffffffffffffffffffffffffffffffffff021916908373ffffffffffffffffffffffffffffffffffffffff1602179055508173ffffffffffffffffffffffffffffffffffffffff168173ffffffffffffffffffffffffffffffffffffffff167f8be0079c531659141344cd1fd0a4f28419497f9722a3daafe3b4186f6b6457e060405160405180910390a35050565b8173ffffffffffffffffffffffffffffffffffffffff168373ffffffffffffffffffffffffffffffffffffffff16036114dd576040517f08c379a00000000000000000000000000000000000000000000000000000000081526004016114d490612c8c565b60405180910390fd5b80600560008573ffffffffffffffffffffffffffffffffffffffff1673ffffffffffffffffffffffffffffffffffffffff16815260200190815260200160002060008473ffffffffffffffffffffffffffffffffffffffff1673ffffffffffffffffffffffffffffffffffffffff16815260200190815260200160002060006101000a81548160ff0219169083151502179055508173ffffffffffffffffffffffffffffffffffffffff168373ffffffffffffffffffffffffffffffffffffffff167f17307eab39ab6107e8899845ad3d59bd9653f200f220920489ca2b5937696c31836040516115ce9190611d68565b60405180910390a3505050565b6115e6848484611143565b6115f28484848461188e565b611631576040517f08c379a000000000000000000000000000000000000000000000000000000000815260040161162890612d1e565b60405180910390fd5b50505050565b60606008805461164690612390565b80601f016020809104026020016040519081016040528092919081815260200182805461167290612390565b80156116bf5780601f10611694576101008083540402835291602001916116bf565b820191906000526020600020905b8154815290600101906020018083116116a257829003601f168201915b5050505050905090565b606060008203611710576040518060400160405280600181526020017f30000000000000000000000000000000000000000000000000000000000000008152509050611824565b600082905060005b6000821461174257808061172b90612612565b915050600a8261173b9190612d6d565b9150611718565b60008167ffffffffffffffff81111561175e5761175d611ff0565b5b6040519080825280601f01601f1916602001820160405280156117905781602001600182028036833780820191505090505b5090505b6000851461181d576001826117a99190612bb6565b9150600a856117b89190612d9e565b60306117c49190612bea565b60f81b8183815181106117da576117d9612dcf565b5b60200101907effffffffffffffffffffffffffffffffffffffffffffffffffffffffffffff1916908160001a905350600a856118169190612d6d565b9450611794565b8093505050505b919050565b6118338383611a15565b611840600084848461188e565b61187f576040517f08c379a000000000000000000000000000000000000000000000000000000000815260040161187690612d1e565b60405180910390fd5b505050565b505050565b505050565b60006118af8473ffffffffffffffffffffffffffffffffffffffff16611bee565b15611a08578373ffffffffffffffffffffffffffffffffffffffff1663150b7a026118d8610f86565b8786866040518563ffffffff1660e01b81526004016118fa9493929190612e53565b6020604051808303816000875af192505050801561193657506040513d601f19601f820116820180604052508101906119339190612eb4565b60015b6119b8573d8060008114611966576040519150601f19603f3d011682016040523d82523d6000602084013e61196b565b606091505b5060008151036119b0576040517f08c379a00000000000000000000000000000000000000000000000000000000081526004016119a790612d1e565b60405180910390fd5b805181602001fd5b63150b7a0260e01b7bffffffffffffffffffffffffffffffffffffffffffffffffffffffff1916817bffffffffffffffffffffffffffffffffffffffffffffffffffffffff191614915050611a0d565b600190505b949350505050565b600073ffffffffffffffffffffffffffffffffffffffff168273ffffffffffffffffffffffffffffffffffffffff1603611a84576040517f08c379a0000000000000000000000000000000000000000000000000000000008152600401611a7b90612f2d565b60405180910390fd5b611a8d81610f1a565b15611acd576040517f08c379a0000000000000000000000000000000000000000000000000000000008152600401611ac490612f99565b60405180910390fd5b611ad960008383611884565b6001600360008473ffffffffffffffffffffffffffffffffffffffff1673ffffffffffffffffffffffffffffffffffffffff1681526020019081526020016000206000828254611b299190612bea565b92505081905550816002600083815260200190815260200160002060006101000a81548173ffffffffffffffffffffffffffffffffffffffff021916908373ffffffffffffffffffffffffffffffffffffffff160217905550808273ffffffffffffffffffffffffffffffffffffffff16600073ffffffffffffffffffffffffffffffffffffffff167fddf252ad1be2c89b69c2b068fc378daa952ba7f163c4a11628f55a4df523b3ef60405160405180910390a4611bea60008383611889565b5050565b6000808273ffffffffffffffffffffffffffffffffffffffff163b119050919050565b828054611c1d90612390565b90600052602060002090601f016020900481019282611c3f5760008555611c86565b82601f10611c5857805160ff1916838001178555611c86565b82800160010185558215611c86579182015b82811115611c85578251825591602001919060010190611c6a565b5b509050611c939190611c97565b5090565b5b80821115611cb0576000816000905550600101611c98565b5090565b6000604051905090565b600080fd5b600080fd5b60007fffffffff0000000000000000000000000000000000000000000000000000000082169050919050565b611cfd81611cc8565b8114611d0857600080fd5b50565b600081359050611d1a81611cf4565b92915050565b600060208284031215611d3657611d35611cbe565b5b6000611d4484828501611d0b565b91505092915050565b60008115159050919050565b611d6281611d4d565b82525050565b6000602082019050611d7d6000830184611d59565b92915050565b600081519050919050565b600082825260208201905092915050565b60005b83811015611dbd578082015181840152602081019050611da2565b83811115611dcc576000848401525b50505050565b6000601f19601f8301169050919050565b6000611dee82611d83565b611df88185611d8e565b9350611e08818560208601611d9f565b611e1181611dd2565b840191505092915050565b60006020820190508181036000830152611e368184611de3565b905092915050565b6000819050919050565b611e5181611e3e565b8114611e5c57600080fd5b50565b600081359050611e6e81611e48565b92915050565b600060208284031215611e8a57611e89611cbe565b5b6000611e9884828501611e5f565b91505092915050565b600073ffffffffffffffffffffffffffffffffffffffff82169050919050565b6000611ecc82611ea1565b9050919050565b611edc81611ec1565b82525050565b6000602082019050611ef76000830184611ed3565b92915050565b611f0681611ec1565b8114611f1157600080fd5b50565b600081359050611f2381611efd565b92915050565b60008060408385031215611f4057611f3f611cbe565b5b6000611f4e85828601611f14565b9250506020611f5f85828601611e5f565b9150509250929050565b611f7281611e3e565b82525050565b6000602082019050611f8d6000830184611f69565b92915050565b600080600060608486031215611fac57611fab611cbe565b5b6000611fba86828701611f14565b9350506020611fcb86828701611f14565b9250506040611fdc86828701611e5f565b9150509250925092565b600080fd5b600080fd5b7f4e487b7100000000000000000000000000000000000000000000000000000000600052604160045260246000fd5b61202882611dd2565b810181811067ffffffffffffffff8211171561204757612046611ff0565b5b80604052505050565b600061205a611cb4565b9050612066828261201f565b919050565b600067ffffffffffffffff82111561208657612085611ff0565b5b61208f82611dd2565b9050602081019050919050565b82818337600083830152505050565b60006120be6120b98461206b565b612050565b9050828152602081018484840111156120da576120d9611feb565b5b6120e584828561209c565b509392505050565b600082601f83011261210257612101611fe6565b5b81356121128482602086016120ab565b91505092915050565b60006020828403121561213157612130611cbe565b5b600082013567ffffffffffffffff81111561214f5761214e611cc3565b5b61215b848285016120ed565b91505092915050565b60006020828403121561217a57612179611cbe565b5b600061218884828501611f14565b91505092915050565b61219a81611d4d565b81146121a557600080fd5b50565b6000813590506121b781612191565b92915050565b600080604083850312156121d4576121d3611cbe565b5b60006121e285828601611f14565b92505060206121f3858286016121a8565b9150509250929050565b600067ffffffffffffffff82111561221857612217611ff0565b5b61222182611dd2565b9050602081019050919050565b600061224161223c846121fd565b612050565b90508281526020810184848401111561225d5761225c611feb565b5b61226884828561209c565b509392505050565b600082601f83011261228557612284611fe6565b5b813561229584826020860161222e565b91505092915050565b600080600080608085870312156122b8576122b7611cbe565b5b60006122c687828801611f14565b94505060206122d787828801611f14565b93505060406122e887828801611e5f565b925050606085013567ffffffffffffffff81111561230957612308611cc3565b5b61231587828801612270565b91505092959194509250565b6000806040838503121561233857612337611cbe565b5b600061234685828601611f14565b925050602061235785828601611f14565b9150509250929050565b7f4e487b7100000000000000000000000000000000000000000000000000000000600052602260045260246000fd5b600060028204905060018216806123a857607f821691505b6020821081036123bb576123ba612361565b5b50919050565b7f4552433732313a20617070726f76656420717565727920666f72206e6f6e657860008201527f697374656e7420746f6b656e0000000000000000000000000000000000000000602082015250565b600061241d602c83611d8e565b9150612428826123c1565b604082019050919050565b6000602082019050818103600083015261244c81612410565b9050919050565b7f4552433732313a20617070726f76616c20746f2063757272656e74206f776e6560008201527f7200000000000000000000000000000000000000000000000000000000000000602082015250565b60006124af602183611d8e565b91506124ba82612453565b604082019050919050565b600060208201905081810360008301526124de816124a2565b9050919050565b7f4552433732313a20617070726f76652063616c6c6572206973206e6f74206f7760008201527f6e6572206e6f7220617070726f76656420666f7220616c6c0000000000000000602082015250565b6000612541603883611d8e565b915061254c826124e5565b604082019050919050565b6000602082019050818103600083015261257081612534565b9050919050565b7f5265656e7472616e637947756172643a207265656e7472616e742063616c6c00600082015250565b60006125ad601f83611d8e565b91506125b882612577565b602082019050919050565b600060208201905081810360008301526125dc816125a0565b9050919050565b7f4e487b7100000000000000000000000000000000000000000000000000000000600052601160045260246000fd5b600061261d82611e3e565b91507fffffffffffffffffffffffffffffffffffffffffffffffffffffffffffffffff820361264f5761264e6125e3565b5b600182019050919050565b7f4552433732313a207472616e736665722063616c6c6572206973206e6f74206f60008201527f776e6572206e6f7220617070726f766564000000000000000000000000000000602082015250565b60006126b6603183611d8e565b91506126c18261265a565b604082019050919050565b600060208201905081810360008301526126e5816126a9565b9050919050565b7f4f776e61626c653a2063616c6c6572206973206e6f7420746865206f776e6572600082015250565b6000612722602083611d8e565b915061272d826126ec565b602082019050919050565b6000602082019050818103600083015261275181612715565b9050919050565b7f4552433732313a206f776e657220717565727920666f72206e6f6e657869737460008201527f656e7420746f6b656e0000000000000000000000000000000000000000000000602082015250565b60006127b4602983611d8e565b91506127bf82612758565b604082019050919050565b600060208201905081810360008301526127e3816127a7565b9050919050565b7f4552433732313a2062616c616e636520717565727920666f7220746865207a6560008201527f726f206164647265737300000000000000000000000000000000000000000000602082015250565b6000612846602a83611d8e565b9150612851826127ea565b604082019050919050565b6000602082019050818103600083015261287581612839565b9050919050565b7f4552433732314d657461646174613a2055524920717565727920666f72206e6f60008201527f6e6578697374656e7420746f6b656e0000000000000000000000000000000000602082015250565b60006128d8602f83611d8e565b91506128e38261287c565b604082019050919050565b60006020820190508181036000830152612907816128cb565b9050919050565b600081905092915050565b600061292482611d83565b61292e818561290e565b935061293e818560208601611d9f565b80840191505092915050565b60006129568285612919565b91506129628284612919565b91508190509392505050565b7f4f776e61626c653a206e6577206f776e657220697320746865207a65726f206160008201527f6464726573730000000000000000000000000000000000000000000000000000602082015250565b60006129ca602683611d8e565b91506129d58261296e565b604082019050919050565b600060208201905081810360008301526129f9816129bd565b9050919050565b7f4552433732313a206f70657261746f7220717565727920666f72206e6f6e657860008201527f697374656e7420746f6b656e0000000000000000000000000000000000000000602082015250565b6000612a5c602c83611d8e565b9150612a6782612a00565b604082019050919050565b60006020820190508181036000830152612a8b81612a4f565b9050919050565b7f4552433732313a207472616e736665722066726f6d20696e636f72726563742060008201527f6f776e6572000000000000000000000000000000000000000000000000000000602082015250565b6000612aee602583611d8e565b9150612af982612a92565b604082019050919050565b60006020820190508181036000830152612b1d81612ae1565b9050919050565b7f4552433732313a207472616e7366657220746f20746865207a65726f2061646460008201527f7265737300000000000000000000000000000000000000000000000000000000602082015250565b6000612b80602483611d8e565b9150612b8b82612b24565b604082019050919050565b60006020820190508181036000830152612baf81612b73565b9050919050565b6000612bc182611e3e565b9150612bcc83611e3e565b925082821015612bdf57612bde6125e3565b5b828203905092915050565b6000612bf582611e3e565b9150612c0083611e3e565b9250827fffffffffffffffffffffffffffffffffffffffffffffffffffffffffffffffff03821115612c3557612c346125e3565b5b828201905092915050565b7f4552433732313a20617070726f766520746f2063616c6c657200000000000000600082015250565b6000612c76601983611d8e565b9150612c8182612c40565b602082019050919050565b60006020820190508181036000830152612ca581612c69565b9050919050565b7f4552433732313a207472616e7366657220746f206e6f6e20455243373231526560008201527f63656976657220696d706c656d656e7465720000000000000000000000000000602082015250565b6000612d08603283611d8e565b9150612d1382612cac565b604082019050919050565b60006020820190508181036000830152612d3781612cfb565b9050919050565b7f4e487b7100000000000000000000000000000000000000000000000000000000600052601260045260246000fd5b6000612d7882611e3e565b9150612d8383611e3e565b925082612d9357612d92612d3e565b5b828204905092915050565b6000612da982611e3e565b9150612db483611e3e565b925082612dc457612dc3612d3e565b5b828206905092915050565b7f4e487b7100000000000000000000000000000000000000000000000000000000600052603260045260246000fd5b600081519050919050565b600082825260208201905092915050565b6000612e2582612dfe565b612e2f8185612e09565b9350612e3f818560208601611d9f565b612e4881611dd2565b840191505092915050565b6000608082019050612e686000830187611ed3565b612e756020830186611ed3565b612e826040830185611f69565b8181036060830152612e948184612e1a565b905095945050505050565b600081519050612eae81611cf4565b92915050565b600060208284031215612eca57612ec9611cbe565b5b6000612ed884828501612e9f565b91505092915050565b7f4552433732313a206d696e7420746f20746865207a65726f2061646472657373600082015250565b6000612f17602083611d8e565b9150612f2282612ee1565b602082019050919050565b60006020820190508181036000830152612f4681612f0a565b9050919050565b7f4552433732313a20746f6b656e20616c7265616479206d696e74656400000000600082015250565b6000612f83601c83611d8e565b9150612f8e82612f4d565b602082019050919050565b60006020820190508181036000830152612fb281612f76565b905091905056fea26469706673582212207c7b55bf7445fd277a6cb7033831178a3f8f04c200dac5e80aaa60a7df18ff2664736f6c634300080d0033a264697066735822122093548679a1b7ab51750c8e182670ef8fe0f5178b64c6de0958732feb6e7108ef64736f6c634300080d0033",
  "linkReferences": {},
  "deployedLinkReferences": {}
}