{
  "_format": "hh-sol-artifact-1",
  "contractName": "PaymentSplitter",
  "sourceName": "@openzeppelin/contracts/finance/PaymentSplitter.sol",
  "abi": [
    {
      "inputs": [
        {
          "internalType": "address[]",
          "name": "payees",
          "type": "address[]"
        },
        {
          "internalType": "uint256[]",
          "name": "shares_",
          "type": "uint256[]"
        }
      ],
      "stateMutability": "payable",
      "type": "constructor"
    },
    {
      "anonymous": false,
      "inputs": [
        {
          "indexed": true,
          "internalType": "contract IERC20",
          "name": "token",
          "type": "address"
        },
        {
          "indexed": false,
          "internalType": "address",
          "name": "to",
          "type": "address"
        },
        {
          "indexed": false,
          "internalType": "uint256",
          "name": "amount",
          "type": "uint256"
        }
      ],
      "name": "ERC20PaymentReleased",
      "type": "event"
    },
    {
      "anonymous": false,
      "inputs": [
        {
          "indexed": false,
          "internalType": "address",
          "name": "account",
          "type": "address"
        },
        {
          "indexed": false,
          "internalType": "uint256",
          "name": "shares",
          "type": "uint256"
        }
      ],
      "name": "PayeeAdded",
      "type": "event"
    },
    {
      "anonymous": false,
      "inputs": [
        {
          "indexed": false,
          "internalType": "address",
          "name": "from",
          "type": "address"
        },
        {
          "indexed": false,
          "internalType": "uint256",
          "name": "amount",
          "type": "uint256"
        }
      ],
      "name": "PaymentReceived",
      "type": "event"
    },
    {
      "anonymous": false,
      "inputs": [
        {
          "indexed": false,
          "internalType": "address",
          "name": "to",
          "type": "address"
        },
        {
          "indexed": false,
          "internalType": "uint256",
          "name": "amount",
          "type": "uint256"
        }
      ],
      "name": "PaymentReleased",
      "type": "event"
    },
    {
      "inputs": [
        {
          "internalType": "uint256",
          "name": "index",
          "type": "uint256"
        }
      ],
      "name": "payee",
      "outputs": [
        {
          "internalType": "address",
          "name": "",
          "type": "address"
        }
      ],
      "stateMutability": "view",
      "type": "function"
    },
    {
      "inputs": [
        {
          "internalType": "address payable",
          "name": "account",
          "type": "address"
        }
      ],
      "name": "release",
      "outputs": [],
      "stateMutability": "nonpayable",
      "type": "function"
    },
    {
      "inputs": [
        {
          "internalType": "contract IERC20",
          "name": "token",
          "type": "address"
        },
        {
          "internalType": "address",
          "name": "account",
          "type": "address"
        }
      ],
      "name": "release",
      "outputs": [],
      "stateMutability": "nonpayable",
      "type": "function"
    },
    {
      "inputs": [
        {
          "internalType": "contract IERC20",
          "name": "token",
          "type": "address"
        },
        {
          "internalType": "address",
          "name": "account",
          "type": "address"
        }
      ],
      "name": "released",
      "outputs": [
        {
          "internalType": "uint256",
          "name": "",
          "type": "uint256"
        }
      ],
      "stateMutability": "view",
      "type": "function"
    },
    {
      "inputs": [
        {
          "internalType": "address",
          "name": "account",
          "type": "address"
        }
      ],
      "name": "released",
      "outputs": [
        {
          "internalType": "uint256",
          "name": "",
          "type": "uint256"
        }
      ],
      "stateMutability": "view",
      "type": "function"
    },
    {
      "inputs": [
        {
          "internalType": "address",
          "name": "account",
          "type": "address"
        }
      ],
      "name": "shares",
      "outputs": [
        {
          "internalType": "uint256",
          "name": "",
          "type": "uint256"
        }
      ],
      "stateMutability": "view",
      "type": "function"
    },
    {
      "inputs": [
        {
          "internalType": "contract IERC20",
          "name": "token",
          "type": "address"
        }
      ],
      "name": "totalReleased",
      "outputs": [
        {
          "internalType": "uint256",
          "name": "",
          "type": "uint256"
        }
      ],
      "stateMutability": "view",
      "type": "function"
    },
    {
      "inputs": [],
      "name": "totalReleased",
      "outputs": [
        {
          "internalType": "uint256",
          "name": "",
          "type": "uint256"
        }
      ],
      "stateMutability": "view",
      "type": "function"
    },
    {
      "inputs": [],
      "name": "totalShares",
      "outputs": [
        {
          "internalType": "uint256",
          "name": "",
          "type": "uint256"
        }
      ],
      "stateMutability": "view",
      "type": "function"
    },
    {
      "stateMutability": "payable",
      "type": "receive"
    }
  ],
  "bytecode": "0x6080604052604051620022de380380620022de833981810160405281019062000029919062000667565b805182511462000070576040517f08c379a0000000000000000000000000000000000000000000000000000000008152600401620000679062000773565b60405180910390fd5b6000825111620000b7576040517f08c379a0000000000000000000000000000000000000000000000000000000008152600401620000ae90620007e5565b60405180910390fd5b60005b8251811015620001265762000110838281518110620000de57620000dd62000807565b5b6020026020010151838381518110620000fc57620000fb62000807565b5b60200260200101516200012f60201b60201c565b80806200011d9062000865565b915050620000ba565b50505062000b00565b600073ffffffffffffffffffffffffffffffffffffffff168273ffffffffffffffffffffffffffffffffffffffff1603620001a1576040517f08c379a0000000000000000000000000000000000000000000000000000000008152600401620001989062000928565b60405180910390fd5b60008111620001e7576040517f08c379a0000000000000000000000000000000000000000000000000000000008152600401620001de906200099a565b60405180910390fd5b6000600260008473ffffffffffffffffffffffffffffffffffffffff1673ffffffffffffffffffffffffffffffffffffffff16815260200190815260200160002054146200026c576040517f08c379a0000000000000000000000000000000000000000000000000000000008152600401620002639062000a32565b60405180910390fd5b6004829080600181540180825580915050600190039060005260206000200160009091909190916101000a81548173ffffffffffffffffffffffffffffffffffffffff021916908373ffffffffffffffffffffffffffffffffffffffff16021790555080600260008473ffffffffffffffffffffffffffffffffffffffff1673ffffffffffffffffffffffffffffffffffffffff168152602001908152602001600020819055508060005462000323919062000a54565b6000819055507f40c340f65e17194d14ddddb073d3c9f888e3cb52b5aae0c6c7706b4fbc905fac82826040516200035c92919062000ad3565b60405180910390a15050565b6000604051905090565b600080fd5b600080fd5b600080fd5b6000601f19601f8301169050919050565b7f4e487b7100000000000000000000000000000000000000000000000000000000600052604160045260246000fd5b620003cc8262000381565b810181811067ffffffffffffffff82111715620003ee57620003ed62000392565b5b80604052505050565b60006200040362000368565b9050620004118282620003c1565b919050565b600067ffffffffffffffff82111562000434576200043362000392565b5b602082029050602081019050919050565b600080fd5b600073ffffffffffffffffffffffffffffffffffffffff82169050919050565b600062000477826200044a565b9050919050565b62000489816200046a565b81146200049557600080fd5b50565b600081519050620004a9816200047e565b92915050565b6000620004c6620004c08462000416565b620003f7565b90508083825260208201905060208402830185811115620004ec57620004eb62000445565b5b835b8181101562000519578062000504888262000498565b845260208401935050602081019050620004ee565b5050509392505050565b600082601f8301126200053b576200053a6200037c565b5b81516200054d848260208601620004af565b91505092915050565b600067ffffffffffffffff82111562000574576200057362000392565b5b602082029050602081019050919050565b6000819050919050565b6200059a8162000585565b8114620005a657600080fd5b50565b600081519050620005ba816200058f565b92915050565b6000620005d7620005d18462000556565b620003f7565b90508083825260208201905060208402830185811115620005fd57620005fc62000445565b5b835b818110156200062a5780620006158882620005a9565b845260208401935050602081019050620005ff565b5050509392505050565b600082601f8301126200064c576200064b6200037c565b5b81516200065e848260208601620005c0565b91505092915050565b6000806040838503121562000681576200068062000372565b5b600083015167ffffffffffffffff811115620006a257620006a162000377565b5b620006b08582860162000523565b925050602083015167ffffffffffffffff811115620006d457620006d362000377565b5b620006e28582860162000634565b9150509250929050565b600082825260208201905092915050565b7f5061796d656e7453706c69747465723a2070617965657320616e64207368617260008201527f6573206c656e677468206d69736d617463680000000000000000000000000000602082015250565b60006200075b603283620006ec565b91506200076882620006fd565b604082019050919050565b600060208201905081810360008301526200078e816200074c565b9050919050565b7f5061796d656e7453706c69747465723a206e6f20706179656573000000000000600082015250565b6000620007cd601a83620006ec565b9150620007da8262000795565b602082019050919050565b600060208201905081810360008301526200080081620007be565b9050919050565b7f4e487b7100000000000000000000000000000000000000000000000000000000600052603260045260246000fd5b7f4e487b7100000000000000000000000000000000000000000000000000000000600052601160045260246000fd5b6000620008728262000585565b91507fffffffffffffffffffffffffffffffffffffffffffffffffffffffffffffffff8203620008a757620008a662000836565b5b600182019050919050565b7f5061796d656e7453706c69747465723a206163636f756e74206973207468652060008201527f7a65726f20616464726573730000000000000000000000000000000000000000602082015250565b600062000910602c83620006ec565b91506200091d82620008b2565b604082019050919050565b60006020820190508181036000830152620009438162000901565b9050919050565b7f5061796d656e7453706c69747465723a20736861726573206172652030000000600082015250565b600062000982601d83620006ec565b91506200098f826200094a565b602082019050919050565b60006020820190508181036000830152620009b58162000973565b9050919050565b7f5061796d656e7453706c69747465723a206163636f756e7420616c726561647960008201527f2068617320736861726573000000000000000000000000000000000000000000602082015250565b600062000a1a602b83620006ec565b915062000a2782620009bc565b604082019050919050565b6000602082019050818103600083015262000a4d8162000a0b565b9050919050565b600062000a618262000585565b915062000a6e8362000585565b9250827fffffffffffffffffffffffffffffffffffffffffffffffffffffffffffffffff0382111562000aa65762000aa562000836565b5b828201905092915050565b62000abc816200046a565b82525050565b62000acd8162000585565b82525050565b600060408201905062000aea600083018562000ab1565b62000af9602083018462000ac2565b9392505050565b6117ce8062000b106000396000f3fe60806040526004361061008a5760003560e01c80638b83209b116100595780638b83209b146101905780639852595c146101cd578063ce7c2ac21461020a578063d79779b214610247578063e33b7de314610284576100d1565b806319165587146100d65780633a98ef39146100ff578063406072a91461012a57806348b7504414610167576100d1565b366100d1577f6ef95f06320e7a25a04a175ca677b7052bdd97131872c2192525a629f51be7706100b86102af565b346040516100c7929190610d95565b60405180910390a1005b600080fd5b3480156100e257600080fd5b506100fd60048036038101906100f89190610e01565b6102b7565b005b34801561010b57600080fd5b50610114610461565b6040516101219190610e2e565b60405180910390f35b34801561013657600080fd5b50610151600480360381019061014c9190610eb3565b61046a565b60405161015e9190610e2e565b60405180910390f35b34801561017357600080fd5b5061018e60048036038101906101899190610eb3565b6104f1565b005b34801561019c57600080fd5b506101b760048036038101906101b29190610f1f565b6107a9565b6040516101c49190610f4c565b60405180910390f35b3480156101d957600080fd5b506101f460048036038101906101ef9190610f67565b6107f1565b6040516102019190610e2e565b60405180910390f35b34801561021657600080fd5b50610231600480360381019061022c9190610f67565b61083a565b60405161023e9190610e2e565b60405180910390f35b34801561025357600080fd5b5061026e60048036038101906102699190610f94565b610883565b60405161027b9190610e2e565b60405180910390f35b34801561029057600080fd5b506102996108cc565b6040516102a69190610e2e565b60405180910390f35b600033905090565b6000600260008373ffffffffffffffffffffffffffffffffffffffff1673ffffffffffffffffffffffffffffffffffffffff1681526020019081526020016000205411610339576040517f08c379a000000000000000000000000000000000000000000000000000000000815260040161033090611044565b60405180910390fd5b60006103436108cc565b4761034e9190611093565b905060006103658383610360866107f1565b6108d6565b9050600081036103aa576040517f08c379a00000000000000000000000000000000000000000000000000000000081526004016103a19061115b565b60405180910390fd5b80600360008573ffffffffffffffffffffffffffffffffffffffff1673ffffffffffffffffffffffffffffffffffffffff16815260200190815260200160002060008282546103f99190611093565b9250508190555080600160008282546104129190611093565b925050819055506104238382610944565b7fdf20fd1e76bc69d672e4814fafb2c449bba3a5369d8359adf9e05e6fde87b05683826040516104549291906111da565b60405180910390a1505050565b60008054905090565b6000600660008473ffffffffffffffffffffffffffffffffffffffff1673ffffffffffffffffffffffffffffffffffffffff16815260200190815260200160002060008373ffffffffffffffffffffffffffffffffffffffff1673ffffffffffffffffffffffffffffffffffffffff16815260200190815260200160002054905092915050565b6000600260008373ffffffffffffffffffffffffffffffffffffffff1673ffffffffffffffffffffffffffffffffffffffff1681526020019081526020016000205411610573576040517f08c379a000000000000000000000000000000000000000000000000000000000815260040161056a90611044565b60405180910390fd5b600061057e83610883565b8373ffffffffffffffffffffffffffffffffffffffff166370a08231306040518263ffffffff1660e01b81526004016105b79190610f4c565b602060405180830381865afa1580156105d4573d6000803e3d6000fd5b505050506040513d601f19601f820116820180604052508101906105f89190611218565b6106029190611093565b9050600061061a8383610615878761046a565b6108d6565b90506000810361065f576040517f08c379a00000000000000000000000000000000000000000000000000000000081526004016106569061115b565b60405180910390fd5b80600660008673ffffffffffffffffffffffffffffffffffffffff1673ffffffffffffffffffffffffffffffffffffffff16815260200190815260200160002060008573ffffffffffffffffffffffffffffffffffffffff1673ffffffffffffffffffffffffffffffffffffffff16815260200190815260200160002060008282546106eb9190611093565b9250508190555080600560008673ffffffffffffffffffffffffffffffffffffffff1673ffffffffffffffffffffffffffffffffffffffff16815260200190815260200160002060008282546107419190611093565b92505081905550610753848483610a38565b8373ffffffffffffffffffffffffffffffffffffffff167f3be5b7a71e84ed12875d241991c70855ac5817d847039e17a9d895c1ceb0f18a848360405161079b929190610d95565b60405180910390a250505050565b6000600482815481106107bf576107be611245565b5b9060005260206000200160009054906101000a900473ffffffffffffffffffffffffffffffffffffffff169050919050565b6000600360008373ffffffffffffffffffffffffffffffffffffffff1673ffffffffffffffffffffffffffffffffffffffff168152602001908152602001600020549050919050565b6000600260008373ffffffffffffffffffffffffffffffffffffffff1673ffffffffffffffffffffffffffffffffffffffff168152602001908152602001600020549050919050565b6000600560008373ffffffffffffffffffffffffffffffffffffffff1673ffffffffffffffffffffffffffffffffffffffff168152602001908152602001600020549050919050565b6000600154905090565b600081600054600260008773ffffffffffffffffffffffffffffffffffffffff1673ffffffffffffffffffffffffffffffffffffffff16815260200190815260200160002054856109279190611274565b61093191906112fd565b61093b919061132e565b90509392505050565b80471015610987576040517f08c379a000000000000000000000000000000000000000000000000000000000815260040161097e906113ae565b60405180910390fd5b60008273ffffffffffffffffffffffffffffffffffffffff16826040516109ad906113ff565b60006040518083038185875af1925050503d80600081146109ea576040519150601f19603f3d011682016040523d82523d6000602084013e6109ef565b606091505b5050905080610a33576040517f08c379a0000000000000000000000000000000000000000000000000000000008152600401610a2a90611486565b60405180910390fd5b505050565b610ab98363a9059cbb60e01b8484604051602401610a57929190610d95565b604051602081830303815290604052907bffffffffffffffffffffffffffffffffffffffffffffffffffffffff19166020820180517bffffffffffffffffffffffffffffffffffffffffffffffffffffffff8381831617835250505050610abe565b505050565b6000610b20826040518060400160405280602081526020017f5361666545524332303a206c6f772d6c6576656c2063616c6c206661696c65648152508573ffffffffffffffffffffffffffffffffffffffff16610b859092919063ffffffff16565b9050600081511115610b805780806020019051810190610b4091906114de565b610b7f576040517f08c379a0000000000000000000000000000000000000000000000000000000008152600401610b769061157d565b60405180910390fd5b5b505050565b6060610b948484600085610b9d565b90509392505050565b606082471015610be2576040517f08c379a0000000000000000000000000000000000000000000000000000000008152600401610bd99061160f565b60405180910390fd5b610beb85610cb1565b610c2a576040517f08c379a0000000000000000000000000000000000000000000000000000000008152600401610c219061167b565b60405180910390fd5b6000808673ffffffffffffffffffffffffffffffffffffffff168587604051610c53919061170a565b60006040518083038185875af1925050503d8060008114610c90576040519150601f19603f3d011682016040523d82523d6000602084013e610c95565b606091505b5091509150610ca5828286610cd4565b92505050949350505050565b6000808273ffffffffffffffffffffffffffffffffffffffff163b119050919050565b60608315610ce457829050610d34565b600083511115610cf75782518084602001fd5b816040517f08c379a0000000000000000000000000000000000000000000000000000000008152600401610d2b9190611776565b60405180910390fd5b9392505050565b600073ffffffffffffffffffffffffffffffffffffffff82169050919050565b6000610d6682610d3b565b9050919050565b610d7681610d5b565b82525050565b6000819050919050565b610d8f81610d7c565b82525050565b6000604082019050610daa6000830185610d6d565b610db76020830184610d86565b9392505050565b600080fd5b6000610dce82610d3b565b9050919050565b610dde81610dc3565b8114610de957600080fd5b50565b600081359050610dfb81610dd5565b92915050565b600060208284031215610e1757610e16610dbe565b5b6000610e2584828501610dec565b91505092915050565b6000602082019050610e436000830184610d86565b92915050565b6000610e5482610d5b565b9050919050565b610e6481610e49565b8114610e6f57600080fd5b50565b600081359050610e8181610e5b565b92915050565b610e9081610d5b565b8114610e9b57600080fd5b50565b600081359050610ead81610e87565b92915050565b60008060408385031215610eca57610ec9610dbe565b5b6000610ed885828601610e72565b9250506020610ee985828601610e9e565b9150509250929050565b610efc81610d7c565b8114610f0757600080fd5b50565b600081359050610f1981610ef3565b92915050565b600060208284031215610f3557610f34610dbe565b5b6000610f4384828501610f0a565b91505092915050565b6000602082019050610f616000830184610d6d565b92915050565b600060208284031215610f7d57610f7c610dbe565b5b6000610f8b84828501610e9e565b91505092915050565b600060208284031215610faa57610fa9610dbe565b5b6000610fb884828501610e72565b91505092915050565b600082825260208201905092915050565b7f5061796d656e7453706c69747465723a206163636f756e7420686173206e6f2060008201527f7368617265730000000000000000000000000000000000000000000000000000602082015250565b600061102e602683610fc1565b915061103982610fd2565b604082019050919050565b6000602082019050818103600083015261105d81611021565b9050919050565b7f4e487b7100000000000000000000000000000000000000000000000000000000600052601160045260246000fd5b600061109e82610d7c565b91506110a983610d7c565b9250827fffffffffffffffffffffffffffffffffffffffffffffffffffffffffffffffff038211156110de576110dd611064565b5b828201905092915050565b7f5061796d656e7453706c69747465723a206163636f756e74206973206e6f742060008201527f647565207061796d656e74000000000000000000000000000000000000000000602082015250565b6000611145602b83610fc1565b9150611150826110e9565b604082019050919050565b6000602082019050818103600083015261117481611138565b9050919050565b6000819050919050565b60006111a061119b61119684610d3b565b61117b565b610d3b565b9050919050565b60006111b282611185565b9050919050565b60006111c4826111a7565b9050919050565b6111d4816111b9565b82525050565b60006040820190506111ef60008301856111cb565b6111fc6020830184610d86565b9392505050565b60008151905061121281610ef3565b92915050565b60006020828403121561122e5761122d610dbe565b5b600061123c84828501611203565b91505092915050565b7f4e487b7100000000000000000000000000000000000000000000000000000000600052603260045260246000fd5b600061127f82610d7c565b915061128a83610d7c565b9250817fffffffffffffffffffffffffffffffffffffffffffffffffffffffffffffffff04831182151516156112c3576112c2611064565b5b828202905092915050565b7f4e487b7100000000000000000000000000000000000000000000000000000000600052601260045260246000fd5b600061130882610d7c565b915061131383610d7c565b925082611323576113226112ce565b5b828204905092915050565b600061133982610d7c565b915061134483610d7c565b92508282101561135757611356611064565b5b828203905092915050565b7f416464726573733a20696e73756666696369656e742062616c616e6365000000600082015250565b6000611398601d83610fc1565b91506113a382611362565b602082019050919050565b600060208201905081810360008301526113c78161138b565b9050919050565b600081905092915050565b50565b60006113e96000836113ce565b91506113f4826113d9565b600082019050919050565b600061140a826113dc565b9150819050919050565b7f416464726573733a20756e61626c6520746f2073656e642076616c75652c207260008201527f6563697069656e74206d61792068617665207265766572746564000000000000602082015250565b6000611470603a83610fc1565b915061147b82611414565b604082019050919050565b6000602082019050818103600083015261149f81611463565b9050919050565b60008115159050919050565b6114bb816114a6565b81146114c657600080fd5b50565b6000815190506114d8816114b2565b92915050565b6000602082840312156114f4576114f3610dbe565b5b6000611502848285016114c9565b91505092915050565b7f5361666545524332303a204552433230206f7065726174696f6e20646964206e60008201527f6f74207375636365656400000000000000000000000000000000000000000000602082015250565b6000611567602a83610fc1565b91506115728261150b565b604082019050919050565b600060208201905081810360008301526115968161155a565b9050919050565b7f416464726573733a20696e73756666696369656e742062616c616e636520666f60008201527f722063616c6c0000000000000000000000000000000000000000000000000000602082015250565b60006115f9602683610fc1565b91506116048261159d565b604082019050919050565b60006020820190508181036000830152611628816115ec565b9050919050565b7f416464726573733a2063616c6c20746f206e6f6e2d636f6e7472616374000000600082015250565b6000611665601d83610fc1565b91506116708261162f565b602082019050919050565b6000602082019050818103600083015261169481611658565b9050919050565b600081519050919050565b60005b838110156116c45780820151818401526020810190506116a9565b838111156116d3576000848401525b50505050565b60006116e48261169b565b6116ee81856113ce565b93506116fe8185602086016116a6565b80840191505092915050565b600061171682846116d9565b915081905092915050565b600081519050919050565b6000601f19601f8301169050919050565b600061174882611721565b6117528185610fc1565b93506117628185602086016116a6565b61176b8161172c565b840191505092915050565b60006020820190508181036000830152611790818461173d565b90509291505056fea264697066735822122020992f072cfb0269de02c00ad59297d502977ba7cd274072acca942061ceff6964736f6c634300080d0033",
  "linkReferences": {},
  "deployedLinkReferences": {}
}