{
  "_format": "hh-sol-artifact-1",
  "contractName": "Marketplace",
  "sourceName": "contracts/Marketplace.sol",
  "abi": [
    {
      "inputs": [
        {
          "internalType": "uint256",
          "name": "_feePercent",
          "type": "uint256"
        }
      ],
      "stateMutability": "nonpayable",
      "type": "constructor"
    },
    {
      "anonymous": false,
      "inputs": [
        {
          "indexed": false,
          "internalType": "uint256",
          "name": "itemId",
          "type": "uint256"
        },
        {
          "indexed": true,
          "internalType": "address",
          "name": "nft",
          "type": "address"
        },
        {
          "indexed": false,
          "internalType": "uint256",
          "name": "tokenId",
          "type": "uint256"
        },
        {
          "indexed": false,
          "internalType": "uint256",
          "name": "price",
          "type": "uint256"
        },
        {
          "indexed": true,
          "internalType": "address",
          "name": "seller",
          "type": "address"
        },
        {
          "indexed": true,
          "internalType": "address",
          "name": "buyer",
          "type": "address"
        }
      ],
      "name": "Bought",
      "type": "event"
    },
    {
      "anonymous": false,
      "inputs": [
        {
          "indexed": false,
          "internalType": "uint256",
          "name": "collectionId",
          "type": "uint256"
        },
        {
          "indexed": true,
          "internalType": "address",
          "name": "owner",
          "type": "address"
        },
        {
          "indexed": true,
          "internalType": "address",
          "name": "collectionAddress",
          "type": "address"
        }
      ],
      "name": "Collections",
      "type": "event"
    },
    {
      "anonymous": false,
      "inputs": [
        {
          "indexed": false,
          "internalType": "uint256",
          "name": "itemId",
          "type": "uint256"
        },
        {
          "indexed": true,
          "internalType": "address",
          "name": "nft",
          "type": "address"
        },
        {
          "indexed": false,
          "internalType": "uint256",
          "name": "tokenId",
          "type": "uint256"
        },
        {
          "indexed": false,
          "internalType": "uint256",
          "name": "price",
          "type": "uint256"
        },
        {
          "indexed": true,
          "internalType": "address",
          "name": "seller",
          "type": "address"
        }
      ],
      "name": "Offered",
      "type": "event"
    },
    {
      "inputs": [
        {
          "internalType": "address",
          "name": "_collectionAddress",
          "type": "address"
        }
      ],
      "name": "addCollection",
      "outputs": [],
      "stateMutability": "nonpayable",
      "type": "function"
    },
    {
      "inputs": [],
      "name": "collectionCount",
      "outputs": [
        {
          "internalType": "uint256",
          "name": "",
          "type": "uint256"
        }
      ],
      "stateMutability": "view",
      "type": "function"
    },
    {
      "inputs": [
        {
          "internalType": "uint256",
          "name": "",
          "type": "uint256"
        }
      ],
      "name": "collections",
      "outputs": [
        {
          "internalType": "uint256",
          "name": "collectionId",
          "type": "uint256"
        },
        {
          "internalType": "address payable",
          "name": "owner",
          "type": "address"
        },
        {
          "internalType": "address",
          "name": "collectionAddress",
          "type": "address"
        }
      ],
      "stateMutability": "view",
      "type": "function"
    },
    {
      "inputs": [],
      "name": "feeAccount",
      "outputs": [
        {
          "internalType": "address payable",
          "name": "",
          "type": "address"
        }
      ],
      "stateMutability": "view",
      "type": "function"
    },
    {
      "inputs": [],
      "name": "feePercent",
      "outputs": [
        {
          "internalType": "uint256",
          "name": "",
          "type": "uint256"
        }
      ],
      "stateMutability": "view",
      "type": "function"
    },
    {
      "inputs": [
        {
          "internalType": "uint256",
          "name": "_itemId",
          "type": "uint256"
        }
      ],
      "name": "getTotalPrice",
      "outputs": [
        {
          "internalType": "uint256",
          "name": "",
          "type": "uint256"
        }
      ],
      "stateMutability": "view",
      "type": "function"
    },
    {
      "inputs": [],
      "name": "itemCount",
      "outputs": [
        {
          "internalType": "uint256",
          "name": "",
          "type": "uint256"
        }
      ],
      "stateMutability": "view",
      "type": "function"
    },
    {
      "inputs": [
        {
          "internalType": "uint256",
          "name": "",
          "type": "uint256"
        }
      ],
      "name": "items",
      "outputs": [
        {
          "internalType": "uint256",
          "name": "itemId",
          "type": "uint256"
        },
        {
          "internalType": "contract IERC721",
          "name": "nft",
          "type": "address"
        },
        {
          "internalType": "uint256",
          "name": "tokenId",
          "type": "uint256"
        },
        {
          "internalType": "uint256",
          "name": "price",
          "type": "uint256"
        },
        {
          "internalType": "address payable",
          "name": "seller",
          "type": "address"
        },
        {
          "internalType": "bool",
          "name": "sold",
          "type": "bool"
        },
        {
          "internalType": "string",
          "name": "uri",
          "type": "string"
        }
      ],
      "stateMutability": "view",
      "type": "function"
    },
    {
      "inputs": [
        {
          "internalType": "contract IERC721",
          "name": "_nft",
          "type": "address"
        },
        {
          "internalType": "uint256",
          "name": "_tokenId",
          "type": "uint256"
        },
        {
          "internalType": "uint256",
          "name": "_price",
          "type": "uint256"
        },
        {
          "internalType": "string",
          "name": "_uri",
          "type": "string"
        }
      ],
      "name": "makeItem",
      "outputs": [],
      "stateMutability": "nonpayable",
      "type": "function"
    },
    {
      "inputs": [
        {
          "internalType": "uint256",
          "name": "_itemId",
          "type": "uint256"
        }
      ],
      "name": "purchaseItem",
      "outputs": [],
      "stateMutability": "payable",
      "type": "function"
    }
  ],
  "bytecode": "0x60c06040523480156200001157600080fd5b5060405162001932380380620019328339818101604052810190620000379190620000c2565b60016000819055503373ffffffffffffffffffffffffffffffffffffffff1660808173ffffffffffffffffffffffffffffffffffffffff16815250508060a0818152505050620000f4565b600080fd5b6000819050919050565b6200009c8162000087565b8114620000a857600080fd5b50565b600081519050620000bc8162000091565b92915050565b600060208284031215620000db57620000da62000082565b5b6000620000eb84828501620000ab565b91505092915050565b60805160a05161180a620001286000396000818161029b01526105aa01526000818161027101526107cf015261180a6000f3fe6080604052600436106100915760003560e01c8063ca7dd37511610059578063ca7dd37514610183578063d38ea5bf146101c0578063d57f966b146101dc578063e400843714610207578063fdbda0ec1461023057610091565b806365e17c9d146100965780636bfb0d01146100c15780637fd6f15c146100ec578063a174e77a14610117578063bfb231d214610140575b600080fd5b3480156100a257600080fd5b506100ab61026f565b6040516100b89190610e1d565b60405180910390f35b3480156100cd57600080fd5b506100d6610293565b6040516100e39190610e51565b60405180910390f35b3480156100f857600080fd5b50610101610299565b60405161010e9190610e51565b60405180910390f35b34801561012357600080fd5b5061013e60048036038101906101399190610ebe565b6102bd565b005b34801561014c57600080fd5b5061016760048036038101906101629190610f17565b61048d565b60405161017a9796959493929190611057565b60405180910390f35b34801561018f57600080fd5b506101aa60048036038101906101a59190610f17565b6105a4565b6040516101b79190610e51565b60405180910390f35b6101da60048036038101906101d59190610f17565b610607565b005b3480156101e857600080fd5b506101f16109d4565b6040516101fe9190610e51565b60405180910390f35b34801561021357600080fd5b5061022e60048036038101906102299190611240565b6109da565b005b34801561023c57600080fd5b5061025760048036038101906102529190610f17565b610ccf565b604051610266939291906112d2565b60405180910390f35b7f000000000000000000000000000000000000000000000000000000000000000081565b60015481565b7f000000000000000000000000000000000000000000000000000000000000000081565b600260005403610302576040517f08c379a00000000000000000000000000000000000000000000000000000000081526004016102f990611355565b60405180910390fd5b60026000819055506002600081548092919061031d906113a4565b9190505550604051806060016040528060025481526020013373ffffffffffffffffffffffffffffffffffffffff1681526020018273ffffffffffffffffffffffffffffffffffffffff168152506004600060025481526020019081526020016000206000820151816000015560208201518160010160006101000a81548173ffffffffffffffffffffffffffffffffffffffff021916908373ffffffffffffffffffffffffffffffffffffffff16021790555060408201518160020160006101000a81548173ffffffffffffffffffffffffffffffffffffffff021916908373ffffffffffffffffffffffffffffffffffffffff1602179055509050508073ffffffffffffffffffffffffffffffffffffffff163373ffffffffffffffffffffffffffffffffffffffff167f722469bb0a593776a7ea888977115522bbd6f749d2b0da5379a55f207c82cfaa60025460405161047a9190610e51565b60405180910390a3600160008190555050565b60036020528060005260406000206000915090508060000154908060010160009054906101000a900473ffffffffffffffffffffffffffffffffffffffff16908060020154908060030154908060040160009054906101000a900473ffffffffffffffffffffffffffffffffffffffff16908060040160149054906101000a900460ff16908060050180546105219061141b565b80601f016020809104026020016040519081016040528092919081815260200182805461054d9061141b565b801561059a5780601f1061056f5761010080835404028352916020019161059a565b820191906000526020600020905b81548152906001019060200180831161057d57829003601f168201915b5050505050905087565b600060647f000000000000000000000000000000000000000000000000000000000000000060646105d5919061144c565b60036000858152602001908152602001600020600301546105f691906114a2565b610600919061152b565b9050919050565b60026000540361064c576040517f08c379a000000000000000000000000000000000000000000000000000000000815260040161064390611355565b60405180910390fd5b6002600081905550600061065f826105a4565b9050600060036000848152602001908152602001600020905060008311801561068a57506001548311155b6106c9576040517f08c379a00000000000000000000000000000000000000000000000000000000081526004016106c0906115a8565b60405180910390fd5b8134101561070c576040517f08c379a00000000000000000000000000000000000000000000000000000000081526004016107039061163a565b60405180910390fd5b8060040160149054906101000a900460ff161561075e576040517f08c379a0000000000000000000000000000000000000000000000000000000008152600401610755906116a6565b60405180910390fd5b8060040160009054906101000a900473ffffffffffffffffffffffffffffffffffffffff1673ffffffffffffffffffffffffffffffffffffffff166108fc82600301549081150290604051600060405180830381858888f193505050501580156107cc573d6000803e3d6000fd5b507f000000000000000000000000000000000000000000000000000000000000000073ffffffffffffffffffffffffffffffffffffffff166108fc82600301548461081791906116c6565b9081150290604051600060405180830381858888f19350505050158015610842573d6000803e3d6000fd5b5060018160040160146101000a81548160ff0219169083151502179055508060010160009054906101000a900473ffffffffffffffffffffffffffffffffffffffff1673ffffffffffffffffffffffffffffffffffffffff166323b872dd303384600201546040518463ffffffff1660e01b81526004016108c5939291906116fa565b600060405180830381600087803b1580156108df57600080fd5b505af11580156108f3573d6000803e3d6000fd5b505050503373ffffffffffffffffffffffffffffffffffffffff168160040160009054906101000a900473ffffffffffffffffffffffffffffffffffffffff1673ffffffffffffffffffffffffffffffffffffffff168260010160009054906101000a900473ffffffffffffffffffffffffffffffffffffffff1673ffffffffffffffffffffffffffffffffffffffff167f8b4c9c8a607d67b321582dd8461041b1dc2ceeca70c8b7f37f8e02095cf2e76d86856002015486600301546040516109bf93929190611731565b60405180910390a45050600160008190555050565b60025481565b600260005403610a1f576040517f08c379a0000000000000000000000000000000000000000000000000000000008152600401610a1690611355565b60405180910390fd5b600260008190555060008211610a6a576040517f08c379a0000000000000000000000000000000000000000000000000000000008152600401610a61906117b4565b60405180910390fd5b60016000815480929190610a7d906113a4565b91905055508373ffffffffffffffffffffffffffffffffffffffff166323b872dd3330866040518463ffffffff1660e01b8152600401610abf939291906116fa565b600060405180830381600087803b158015610ad957600080fd5b505af1158015610aed573d6000803e3d6000fd5b505050506040518060e0016040528060015481526020018573ffffffffffffffffffffffffffffffffffffffff1681526020018481526020018381526020013373ffffffffffffffffffffffffffffffffffffffff168152602001600015158152602001828152506003600060015481526020019081526020016000206000820151816000015560208201518160010160006101000a81548173ffffffffffffffffffffffffffffffffffffffff021916908373ffffffffffffffffffffffffffffffffffffffff160217905550604082015181600201556060820151816003015560808201518160040160006101000a81548173ffffffffffffffffffffffffffffffffffffffff021916908373ffffffffffffffffffffffffffffffffffffffff16021790555060a08201518160040160146101000a81548160ff02191690831515021790555060c0820151816005019080519060200190610c52929190610d39565b509050503373ffffffffffffffffffffffffffffffffffffffff168473ffffffffffffffffffffffffffffffffffffffff167f655a0cf9c8db81512be9a76dc1c5ae5380b8816ce6ad659cd61b715e2999d59a6001548686604051610cb993929190611731565b60405180910390a3600160008190555050505050565b60046020528060005260406000206000915090508060000154908060010160009054906101000a900473ffffffffffffffffffffffffffffffffffffffff16908060020160009054906101000a900473ffffffffffffffffffffffffffffffffffffffff16905083565b828054610d459061141b565b90600052602060002090601f016020900481019282610d675760008555610dae565b82601f10610d8057805160ff1916838001178555610dae565b82800160010185558215610dae579182015b82811115610dad578251825591602001919060010190610d92565b5b509050610dbb9190610dbf565b5090565b5b80821115610dd8576000816000905550600101610dc0565b5090565b600073ffffffffffffffffffffffffffffffffffffffff82169050919050565b6000610e0782610ddc565b9050919050565b610e1781610dfc565b82525050565b6000602082019050610e326000830184610e0e565b92915050565b6000819050919050565b610e4b81610e38565b82525050565b6000602082019050610e666000830184610e42565b92915050565b6000604051905090565b600080fd5b600080fd5b6000610e8b82610ddc565b9050919050565b610e9b81610e80565b8114610ea657600080fd5b50565b600081359050610eb881610e92565b92915050565b600060208284031215610ed457610ed3610e76565b5b6000610ee284828501610ea9565b91505092915050565b610ef481610e38565b8114610eff57600080fd5b50565b600081359050610f1181610eeb565b92915050565b600060208284031215610f2d57610f2c610e76565b5b6000610f3b84828501610f02565b91505092915050565b6000819050919050565b6000610f69610f64610f5f84610ddc565b610f44565b610ddc565b9050919050565b6000610f7b82610f4e565b9050919050565b6000610f8d82610f70565b9050919050565b610f9d81610f82565b82525050565b60008115159050919050565b610fb881610fa3565b82525050565b600081519050919050565b600082825260208201905092915050565b60005b83811015610ff8578082015181840152602081019050610fdd565b83811115611007576000848401525b50505050565b6000601f19601f8301169050919050565b600061102982610fbe565b6110338185610fc9565b9350611043818560208601610fda565b61104c8161100d565b840191505092915050565b600060e08201905061106c600083018a610e42565b6110796020830189610f94565b6110866040830188610e42565b6110936060830187610e42565b6110a06080830186610e0e565b6110ad60a0830185610faf565b81810360c08301526110bf818461101e565b905098975050505050505050565b60006110d882610e80565b9050919050565b6110e8816110cd565b81146110f357600080fd5b50565b600081359050611105816110df565b92915050565b600080fd5b600080fd5b7f4e487b7100000000000000000000000000000000000000000000000000000000600052604160045260246000fd5b61114d8261100d565b810181811067ffffffffffffffff8211171561116c5761116b611115565b5b80604052505050565b600061117f610e6c565b905061118b8282611144565b919050565b600067ffffffffffffffff8211156111ab576111aa611115565b5b6111b48261100d565b9050602081019050919050565b82818337600083830152505050565b60006111e36111de84611190565b611175565b9050828152602081018484840111156111ff576111fe611110565b5b61120a8482856111c1565b509392505050565b600082601f8301126112275761122661110b565b5b81356112378482602086016111d0565b91505092915050565b6000806000806080858703121561125a57611259610e76565b5b6000611268878288016110f6565b945050602061127987828801610f02565b935050604061128a87828801610f02565b925050606085013567ffffffffffffffff8111156112ab576112aa610e7b565b5b6112b787828801611212565b91505092959194509250565b6112cc81610e80565b82525050565b60006060820190506112e76000830186610e42565b6112f46020830185610e0e565b61130160408301846112c3565b949350505050565b7f5265656e7472616e637947756172643a207265656e7472616e742063616c6c00600082015250565b600061133f601f83610fc9565b915061134a82611309565b602082019050919050565b6000602082019050818103600083015261136e81611332565b9050919050565b7f4e487b7100000000000000000000000000000000000000000000000000000000600052601160045260246000fd5b60006113af82610e38565b91507fffffffffffffffffffffffffffffffffffffffffffffffffffffffffffffffff82036113e1576113e0611375565b5b600182019050919050565b7f4e487b7100000000000000000000000000000000000000000000000000000000600052602260045260246000fd5b6000600282049050600182168061143357607f821691505b602082108103611446576114456113ec565b5b50919050565b600061145782610e38565b915061146283610e38565b9250827fffffffffffffffffffffffffffffffffffffffffffffffffffffffffffffffff0382111561149757611496611375565b5b828201905092915050565b60006114ad82610e38565b91506114b883610e38565b9250817fffffffffffffffffffffffffffffffffffffffffffffffffffffffffffffffff04831182151516156114f1576114f0611375565b5b828202905092915050565b7f4e487b7100000000000000000000000000000000000000000000000000000000600052601260045260246000fd5b600061153682610e38565b915061154183610e38565b925082611551576115506114fc565b5b828204905092915050565b7f6974656d20646f65736e74206578697374730000000000000000000000000000600082015250565b6000611592601283610fc9565b915061159d8261155c565b602082019050919050565b600060208201905081810360008301526115c181611585565b9050919050565b7f6e6f7420656e6f75676820657468657220746f20636f766572206974656d207060008201527f7269636520616e64206d61726b65742066656500000000000000000000000000602082015250565b6000611624603383610fc9565b915061162f826115c8565b604082019050919050565b6000602082019050818103600083015261165381611617565b9050919050565b7f6974656d20616c726561647920736f6c64000000000000000000000000000000600082015250565b6000611690601183610fc9565b915061169b8261165a565b602082019050919050565b600060208201905081810360008301526116bf81611683565b9050919050565b60006116d182610e38565b91506116dc83610e38565b9250828210156116ef576116ee611375565b5b828203905092915050565b600060608201905061170f60008301866112c3565b61171c60208301856112c3565b6117296040830184610e42565b949350505050565b60006060820190506117466000830186610e42565b6117536020830185610e42565b6117606040830184610e42565b949350505050565b7f7072696365206d7573742062652067726561746572207468616e207a65726f00600082015250565b600061179e601f83610fc9565b91506117a982611768565b602082019050919050565b600060208201905081810360008301526117cd81611791565b905091905056fea2646970667358221220feaf20b48dc7aa7af6c70fd606b87fd9636ad290b9057555738b58a235c7473d64736f6c634300080d0033",
  "linkReferences": {},
  "deployedLinkReferences": {}
}