{
  "_format": "hh-sol-artifact-1",
  "contractName": "Marketplace",
  "sourceName": "contracts/Marketplace.sol",
  "abi": [
    {
      "inputs": [
        {
          "internalType": "uint256",
          "name": "_feePercent",
          "type": "uint256"
        }
      ],
      "stateMutability": "nonpayable",
      "type": "constructor"
    },
    {
      "anonymous": false,
      "inputs": [
        {
          "indexed": false,
          "internalType": "uint256",
          "name": "itemId",
          "type": "uint256"
        },
        {
          "indexed": true,
          "internalType": "address",
          "name": "nft",
          "type": "address"
        },
        {
          "indexed": false,
          "internalType": "uint256",
          "name": "tokenId",
          "type": "uint256"
        },
        {
          "indexed": false,
          "internalType": "uint256",
          "name": "price",
          "type": "uint256"
        },
        {
          "indexed": true,
          "internalType": "address",
          "name": "seller",
          "type": "address"
        },
        {
          "indexed": true,
          "internalType": "address",
          "name": "buyer",
          "type": "address"
        }
      ],
      "name": "Bought",
      "type": "event"
    },
    {
      "anonymous": false,
      "inputs": [
        {
          "indexed": false,
          "internalType": "uint256",
          "name": "collectionId",
          "type": "uint256"
        },
        {
          "indexed": true,
          "internalType": "address",
          "name": "owner",
          "type": "address"
        },
        {
          "indexed": true,
          "internalType": "address",
          "name": "collectionAddress",
          "type": "address"
        },
        {
          "indexed": false,
          "internalType": "bool",
          "name": "isSFT",
          "type": "bool"
        },
        {
          "indexed": false,
          "internalType": "string",
          "name": "uri",
          "type": "string"
        }
      ],
      "name": "Collections",
      "type": "event"
    },
    {
      "anonymous": false,
      "inputs": [
        {
          "indexed": false,
          "internalType": "uint256",
          "name": "itemId",
          "type": "uint256"
        },
        {
          "indexed": true,
          "internalType": "address",
          "name": "nft",
          "type": "address"
        },
        {
          "indexed": false,
          "internalType": "uint256",
          "name": "collectionId",
          "type": "uint256"
        },
        {
          "indexed": false,
          "internalType": "uint256",
          "name": "tokenId",
          "type": "uint256"
        },
        {
          "indexed": false,
          "internalType": "uint256",
          "name": "price",
          "type": "uint256"
        },
        {
          "indexed": true,
          "internalType": "address",
          "name": "seller",
          "type": "address"
        }
      ],
      "name": "Offered",
      "type": "event"
    },
    {
      "inputs": [
        {
          "internalType": "address",
          "name": "_collectionAddress",
          "type": "address"
        },
        {
          "internalType": "string",
          "name": "_uri",
          "type": "string"
        },
        {
          "internalType": "bool",
          "name": "_isSFT",
          "type": "bool"
        }
      ],
      "name": "addCollection",
      "outputs": [],
      "stateMutability": "nonpayable",
      "type": "function"
    },
    {
      "inputs": [
        {
          "internalType": "uint256",
          "name": "_itemId",
          "type": "uint256"
        },
        {
          "internalType": "uint256",
          "name": "_newPrice",
          "type": "uint256"
        }
      ],
      "name": "changePrice",
      "outputs": [],
      "stateMutability": "payable",
      "type": "function"
    },
    {
      "inputs": [],
      "name": "collectionCount",
      "outputs": [
        {
          "internalType": "uint256",
          "name": "",
          "type": "uint256"
        }
      ],
      "stateMutability": "view",
      "type": "function"
    },
    {
      "inputs": [
        {
          "internalType": "uint256",
          "name": "",
          "type": "uint256"
        }
      ],
      "name": "collections",
      "outputs": [
        {
          "internalType": "uint256",
          "name": "collectionId",
          "type": "uint256"
        },
        {
          "internalType": "address payable",
          "name": "owner",
          "type": "address"
        },
        {
          "internalType": "address",
          "name": "collectionAddress",
          "type": "address"
        },
        {
          "internalType": "bool",
          "name": "sft",
          "type": "bool"
        },
        {
          "internalType": "string",
          "name": "uri",
          "type": "string"
        }
      ],
      "stateMutability": "view",
      "type": "function"
    },
    {
      "inputs": [
        {
          "internalType": "address",
          "name": "",
          "type": "address"
        },
        {
          "internalType": "uint256",
          "name": "",
          "type": "uint256"
        }
      ],
      "name": "collectionsByArtist",
      "outputs": [
        {
          "internalType": "address",
          "name": "",
          "type": "address"
        }
      ],
      "stateMutability": "view",
      "type": "function"
    },
    {
      "inputs": [],
      "name": "feeAccount",
      "outputs": [
        {
          "internalType": "address payable",
          "name": "",
          "type": "address"
        }
      ],
      "stateMutability": "view",
      "type": "function"
    },
    {
      "inputs": [],
      "name": "feePercent",
      "outputs": [
        {
          "internalType": "uint256",
          "name": "",
          "type": "uint256"
        }
      ],
      "stateMutability": "view",
      "type": "function"
    },
    {
      "inputs": [
        {
          "internalType": "uint16",
          "name": "_id",
          "type": "uint16"
        }
      ],
      "name": "getCollection",
      "outputs": [
        {
          "internalType": "address",
          "name": "",
          "type": "address"
        }
      ],
      "stateMutability": "view",
      "type": "function"
    },
    {
      "inputs": [],
      "name": "getCollectionId",
      "outputs": [
        {
          "internalType": "uint256",
          "name": "",
          "type": "uint256"
        }
      ],
      "stateMutability": "view",
      "type": "function"
    },
    {
      "inputs": [
        {
          "internalType": "uint256",
          "name": "_itemId",
          "type": "uint256"
        }
      ],
      "name": "getTotalPrice",
      "outputs": [
        {
          "internalType": "uint256",
          "name": "",
          "type": "uint256"
        }
      ],
      "stateMutability": "view",
      "type": "function"
    },
    {
      "inputs": [],
      "name": "itemCount",
      "outputs": [
        {
          "internalType": "uint256",
          "name": "",
          "type": "uint256"
        }
      ],
      "stateMutability": "view",
      "type": "function"
    },
    {
      "inputs": [
        {
          "internalType": "uint256",
          "name": "",
          "type": "uint256"
        }
      ],
      "name": "items",
      "outputs": [
        {
          "internalType": "uint256",
          "name": "itemId",
          "type": "uint256"
        },
        {
          "internalType": "contract NFT",
          "name": "nft",
          "type": "address"
        },
        {
          "internalType": "uint256",
          "name": "tokenId",
          "type": "uint256"
        },
        {
          "internalType": "uint256",
          "name": "collectionId",
          "type": "uint256"
        },
        {
          "internalType": "uint256",
          "name": "price",
          "type": "uint256"
        },
        {
          "internalType": "address payable",
          "name": "owner",
          "type": "address"
        },
        {
          "internalType": "bool",
          "name": "sold",
          "type": "bool"
        },
        {
          "internalType": "string",
          "name": "uri",
          "type": "string"
        }
      ],
      "stateMutability": "view",
      "type": "function"
    },
    {
      "inputs": [
        {
          "internalType": "contract NFT",
          "name": "_nft",
          "type": "address"
        },
        {
          "internalType": "uint256",
          "name": "_collectionId",
          "type": "uint256"
        },
        {
          "internalType": "uint256",
          "name": "_tokenId",
          "type": "uint256"
        },
        {
          "internalType": "uint256",
          "name": "_price",
          "type": "uint256"
        },
        {
          "internalType": "string",
          "name": "_uri",
          "type": "string"
        }
      ],
      "name": "makeItem",
      "outputs": [],
      "stateMutability": "nonpayable",
      "type": "function"
    },
    {
      "inputs": [
        {
          "internalType": "address",
          "name": "",
          "type": "address"
        },
        {
          "internalType": "address",
          "name": "",
          "type": "address"
        },
        {
          "internalType": "uint256",
          "name": "",
          "type": "uint256"
        },
        {
          "internalType": "bytes",
          "name": "",
          "type": "bytes"
        }
      ],
      "name": "onERC721Received",
      "outputs": [
        {
          "internalType": "bytes4",
          "name": "",
          "type": "bytes4"
        }
      ],
      "stateMutability": "nonpayable",
      "type": "function"
    },
    {
      "inputs": [
        {
          "internalType": "uint256",
          "name": "_itemId",
          "type": "uint256"
        }
      ],
      "name": "purchaseItem",
      "outputs": [],
      "stateMutability": "payable",
      "type": "function"
    },
    {
      "inputs": [],
      "name": "rate",
      "outputs": [
        {
          "internalType": "uint256",
          "name": "",
          "type": "uint256"
        }
      ],
      "stateMutability": "view",
      "type": "function"
    },
    {
      "inputs": [
        {
          "internalType": "uint256",
          "name": "_itemId",
          "type": "uint256"
        }
      ],
      "name": "removeFromMarketplace",
      "outputs": [],
      "stateMutability": "payable",
      "type": "function"
    },
    {
      "inputs": [
        {
          "internalType": "uint256",
          "name": "_itemId",
          "type": "uint256"
        },
        {
          "internalType": "uint256",
          "name": "_price",
          "type": "uint256"
        }
      ],
      "name": "sellItem",
      "outputs": [],
      "stateMutability": "payable",
      "type": "function"
    }
  ],
  "bytecode": "0x60c0604052670de0b6b3a76400006003553480156200001d57600080fd5b5060405162002b8838038062002b888339818101604052810190620000439190620000ce565b60016000819055503373ffffffffffffffffffffffffffffffffffffffff1660808173ffffffffffffffffffffffffffffffffffffffff16815250508060a081815250505062000100565b600080fd5b6000819050919050565b620000a88162000093565b8114620000b457600080fd5b50565b600081519050620000c8816200009d565b92915050565b600060208284031215620000e757620000e66200008e565b5b6000620000f784828501620000b7565b91505092915050565b60805160a051612a5462000134600039600081816107ed01526114540152600081816107b901526116790152612a546000f3fe6080604052600436106101095760003560e01c8063a61630f111610095578063ca7dd37511610064578063ca7dd37514610349578063d38ea5bf14610386578063d57f966b146103a2578063d6fa98f5146103cd578063fdbda0ec1461040a57610109565b8063a61630f1146102a4578063ab38cb56146102cd578063b3de019c146102e9578063bfb231d21461030557610109565b806365e17c9d116100dc57806365e17c9d146101cf5780636bfb0d01146101fa5780637c8e7bfe146102255780637fd6f15c1461025057806399be08ea1461027b57610109565b806309ee43761461010e578063150b7a021461014b5780632c4e722e146101885780632d923561146101b3575b600080fd5b34801561011a57600080fd5b5061013560048036038101906101309190611b11565b61044b565b6040516101429190611b7f565b60405180910390f35b34801561015757600080fd5b50610172600480360381019061016d9190611d42565b61048f565b60405161017f9190611e00565b60405180910390f35b34801561019457600080fd5b5061019d6104a3565b6040516101aa9190611e2a565b60405180910390f35b6101cd60048036038101906101c89190611e45565b6104a9565b005b3480156101db57600080fd5b506101e46107b7565b6040516101f19190611ea6565b60405180910390f35b34801561020657600080fd5b5061020f6107db565b60405161021c9190611e2a565b60405180910390f35b34801561023157600080fd5b5061023a6107e1565b6040516102479190611e2a565b60405180910390f35b34801561025c57600080fd5b506102656107eb565b6040516102729190611e2a565b60405180910390f35b34801561028757600080fd5b506102a2600480360381019061029d9190611f9a565b61080f565b005b3480156102b057600080fd5b506102cb60048036038101906102c69190612047565b610ad0565b005b6102e760048036038101906102e291906120de565b610e81565b005b61030360048036038101906102fe9190611e45565b6110da565b005b34801561031157600080fd5b5061032c600480360381019061032791906120de565b611331565b604051610340989796959493929190612201565b60405180910390f35b34801561035557600080fd5b50610370600480360381019061036b91906120de565b61144e565b60405161037d9190611e2a565b60405180910390f35b6103a0600480360381019061039b91906120de565b6114b1565b005b3480156103ae57600080fd5b506103b76118c1565b6040516103c49190611e2a565b60405180910390f35b3480156103d957600080fd5b506103f460048036038101906103ef9190612286565b6118c7565b6040516104019190611b7f565b60405180910390f35b34801561041657600080fd5b50610431600480360381019061042c91906120de565b611915565b6040516104429594939291906122c6565b60405180910390f35b6000600560008361ffff16815260200190815260200160002060020160009054906101000a900473ffffffffffffffffffffffffffffffffffffffff169050919050565b600063150b7a0260e01b9050949350505050565b60035481565b6002600054036104ee576040517f08c379a00000000000000000000000000000000000000000000000000000000081526004016104e59061236c565b60405180910390fd5b600260008190555060006004600084815260200190815260200160002090503373ffffffffffffffffffffffffffffffffffffffff168160050160009054906101000a900473ffffffffffffffffffffffffffffffffffffffff1673ffffffffffffffffffffffffffffffffffffffff161461059f576040517f08c379a0000000000000000000000000000000000000000000000000000000008152600401610596906123d8565b60405180910390fd5b6000831180156105b157506001548311155b6105f0576040517f08c379a00000000000000000000000000000000000000000000000000000000081526004016105e790612444565b60405180910390fd5b8060050160149054906101000a900460ff16610641576040517f08c379a0000000000000000000000000000000000000000000000000000000008152600401610638906124b0565b60405180910390fd5b60008160050160146101000a81548160ff0219169083151502179055506003548261066c91906124ff565b81600401819055508060010160009054906101000a900473ffffffffffffffffffffffffffffffffffffffff1673ffffffffffffffffffffffffffffffffffffffff166323b872dd333084600201546040518463ffffffff1660e01b81526004016106d993929190612559565b600060405180830381600087803b1580156106f357600080fd5b505af1158015610707573d6000803e3d6000fd5b505050503373ffffffffffffffffffffffffffffffffffffffff168160010160009054906101000a900473ffffffffffffffffffffffffffffffffffffffff1673ffffffffffffffffffffffffffffffffffffffff167f8a7207dec41e68d1fbb358baac1c6ead9b1741d156d9bb551ae56d77c4a04e9383600001548460030154856002015486600401546040516107a29493929190612590565b60405180910390a35060016000819055505050565b7f000000000000000000000000000000000000000000000000000000000000000081565b60015481565b6000600254905090565b7f000000000000000000000000000000000000000000000000000000000000000081565b600260005403610854576040517f08c379a000000000000000000000000000000000000000000000000000000000815260040161084b9061236c565b60405180910390fd5b6002600081905550600660003373ffffffffffffffffffffffffffffffffffffffff1673ffffffffffffffffffffffffffffffffffffffff168152602001908152602001600020839080600181540180825580915050600190039060005260206000200160009091909190916101000a81548173ffffffffffffffffffffffffffffffffffffffff021916908373ffffffffffffffffffffffffffffffffffffffff1602179055506002600081548092919061090f906125d5565b91905055506040518060a0016040528060025481526020013373ffffffffffffffffffffffffffffffffffffffff1681526020018473ffffffffffffffffffffffffffffffffffffffff1681526020018215158152602001838152506005600060025481526020019081526020016000206000820151816000015560208201518160010160006101000a81548173ffffffffffffffffffffffffffffffffffffffff021916908373ffffffffffffffffffffffffffffffffffffffff16021790555060408201518160020160006101000a81548173ffffffffffffffffffffffffffffffffffffffff021916908373ffffffffffffffffffffffffffffffffffffffff16021790555060608201518160020160146101000a81548160ff0219169083151502179055506080820151816003019080519060200190610a54929190611a20565b509050508273ffffffffffffffffffffffffffffffffffffffff163373ffffffffffffffffffffffffffffffffffffffff167fd1d750a35b22bdfce91243b18bbd1f334e3f5028231afbf95fca42ef623cf1336002548486604051610abb9392919061261d565b60405180910390a36001600081905550505050565b600260005403610b15576040517f08c379a0000000000000000000000000000000000000000000000000000000008152600401610b0c9061236c565b60405180910390fd5b600260008190555060008211610b60576040517f08c379a0000000000000000000000000000000000000000000000000000000008152600401610b57906126a7565b60405180910390fd5b3373ffffffffffffffffffffffffffffffffffffffff166005600086815260200190815260200160002060010160009054906101000a900473ffffffffffffffffffffffffffffffffffffffff1673ffffffffffffffffffffffffffffffffffffffff1614610c04576040517f08c379a0000000000000000000000000000000000000000000000000000000008152600401610bfb90612713565b60405180910390fd5b60016000815480929190610c17906125d5565b9190505550600060035483610c2c91906124ff565b90508573ffffffffffffffffffffffffffffffffffffffff16631249c58b6040518163ffffffff1660e01b8152600401600060405180830381600087803b158015610c7657600080fd5b505af1158015610c8a573d6000803e3d6000fd5b5050505060405180610100016040528060015481526020018773ffffffffffffffffffffffffffffffffffffffff1681526020018581526020018681526020018281526020013373ffffffffffffffffffffffffffffffffffffffff168152602001600015158152602001838152506004600060015481526020019081526020016000206000820151816000015560208201518160010160006101000a81548173ffffffffffffffffffffffffffffffffffffffff021916908373ffffffffffffffffffffffffffffffffffffffff16021790555060408201518160020155606082015181600301556080820151816004015560a08201518160050160006101000a81548173ffffffffffffffffffffffffffffffffffffffff021916908373ffffffffffffffffffffffffffffffffffffffff16021790555060c08201518160050160146101000a81548160ff02191690831515021790555060e0820151816006019080519060200190610e00929190611a20565b509050503373ffffffffffffffffffffffffffffffffffffffff168673ffffffffffffffffffffffffffffffffffffffff167f8a7207dec41e68d1fbb358baac1c6ead9b1741d156d9bb551ae56d77c4a04e93600154888886604051610e699493929190612590565b60405180910390a35060016000819055505050505050565b600260005403610ec6576040517f08c379a0000000000000000000000000000000000000000000000000000000008152600401610ebd9061236c565b60405180910390fd5b600260008190555060006004600083815260200190815260200160002090503373ffffffffffffffffffffffffffffffffffffffff168160050160009054906101000a900473ffffffffffffffffffffffffffffffffffffffff1673ffffffffffffffffffffffffffffffffffffffff1614610f77576040517f08c379a0000000000000000000000000000000000000000000000000000000008152600401610f6e906123d8565b60405180910390fd5b600082118015610f8957506001548211155b610fc8576040517f08c379a0000000000000000000000000000000000000000000000000000000008152600401610fbf90612444565b60405180910390fd5b8060050160149054906101000a900460ff161561101a576040517f08c379a00000000000000000000000000000000000000000000000000000000081526004016110119061277f565b60405180910390fd5b60018160050160146101000a81548160ff0219169083151502179055508060010160009054906101000a900473ffffffffffffffffffffffffffffffffffffffff1673ffffffffffffffffffffffffffffffffffffffff166323b872dd303384600201546040518463ffffffff1660e01b815260040161109c93929190612559565b600060405180830381600087803b1580156110b657600080fd5b505af11580156110ca573d6000803e3d6000fd5b5050505050600160008190555050565b60026000540361111f576040517f08c379a00000000000000000000000000000000000000000000000000000000081526004016111169061236c565b60405180910390fd5b600260008190555060006004600084815260200190815260200160002090503373ffffffffffffffffffffffffffffffffffffffff168160050160009054906101000a900473ffffffffffffffffffffffffffffffffffffffff1673ffffffffffffffffffffffffffffffffffffffff16146111d0576040517f08c379a00000000000000000000000000000000000000000000000000000000081526004016111c7906123d8565b60405180910390fd5b6000831180156111e257506001548311155b611221576040517f08c379a000000000000000000000000000000000000000000000000000000000815260040161121890612444565b60405180910390fd5b8060050160149054906101000a900460ff1615611273576040517f08c379a000000000000000000000000000000000000000000000000000000000815260040161126a9061277f565b60405180910390fd5b6003548261128191906124ff565b81600401819055503373ffffffffffffffffffffffffffffffffffffffff168160010160009054906101000a900473ffffffffffffffffffffffffffffffffffffffff1673ffffffffffffffffffffffffffffffffffffffff167f8a7207dec41e68d1fbb358baac1c6ead9b1741d156d9bb551ae56d77c4a04e938360000154846003015485600201548760405161131c9493929190612590565b60405180910390a35060016000819055505050565b60046020528060005260406000206000915090508060000154908060010160009054906101000a900473ffffffffffffffffffffffffffffffffffffffff16908060020154908060030154908060040154908060050160009054906101000a900473ffffffffffffffffffffffffffffffffffffffff16908060050160149054906101000a900460ff16908060060180546113cb906127ce565b80601f01602080910402602001604051908101604052809291908181526020018280546113f7906127ce565b80156114445780601f1061141957610100808354040283529160200191611444565b820191906000526020600020905b81548152906001019060200180831161142757829003601f168201915b5050505050905088565b600060647f0000000000000000000000000000000000000000000000000000000000000000606461147f91906127ff565b60046000858152602001908152602001600020600401546114a091906124ff565b6114aa9190612884565b9050919050565b6002600054036114f6576040517f08c379a00000000000000000000000000000000000000000000000000000000081526004016114ed9061236c565b60405180910390fd5b600260008190555060006115098261144e565b9050600060046000848152602001908152602001600020905060008311801561153457506001548311155b611573576040517f08c379a000000000000000000000000000000000000000000000000000000000815260040161156a90612444565b60405180910390fd5b813410156115b6576040517f08c379a00000000000000000000000000000000000000000000000000000000081526004016115ad90612927565b60405180910390fd5b8060050160149054906101000a900460ff1615611608576040517f08c379a00000000000000000000000000000000000000000000000000000000081526004016115ff90612993565b60405180910390fd5b8060050160009054906101000a900473ffffffffffffffffffffffffffffffffffffffff1673ffffffffffffffffffffffffffffffffffffffff166108fc82600401549081150290604051600060405180830381858888f19350505050158015611676573d6000803e3d6000fd5b507f000000000000000000000000000000000000000000000000000000000000000073ffffffffffffffffffffffffffffffffffffffff166108fc8260040154846116c191906129b3565b9081150290604051600060405180830381858888f193505050501580156116ec573d6000803e3d6000fd5b5060018160050160146101000a81548160ff0219169083151502179055508060010160009054906101000a900473ffffffffffffffffffffffffffffffffffffffff1673ffffffffffffffffffffffffffffffffffffffff166323b872dd303384600201546040518463ffffffff1660e01b815260040161176f93929190612559565b600060405180830381600087803b15801561178957600080fd5b505af115801561179d573d6000803e3d6000fd5b50505050338160050160006101000a81548173ffffffffffffffffffffffffffffffffffffffff021916908373ffffffffffffffffffffffffffffffffffffffff1602179055503373ffffffffffffffffffffffffffffffffffffffff168160050160009054906101000a900473ffffffffffffffffffffffffffffffffffffffff1673ffffffffffffffffffffffffffffffffffffffff168260010160009054906101000a900473ffffffffffffffffffffffffffffffffffffffff1673ffffffffffffffffffffffffffffffffffffffff167f8b4c9c8a607d67b321582dd8461041b1dc2ceeca70c8b7f37f8e02095cf2e76d86856002015486600401546040516118ac939291906129e7565b60405180910390a45050600160008190555050565b60025481565b600660205281600052604060002081815481106118e357600080fd5b906000526020600020016000915091509054906101000a900473ffffffffffffffffffffffffffffffffffffffff1681565b60056020528060005260406000206000915090508060000154908060010160009054906101000a900473ffffffffffffffffffffffffffffffffffffffff16908060020160009054906101000a900473ffffffffffffffffffffffffffffffffffffffff16908060020160149054906101000a900460ff169080600301805461199d906127ce565b80601f01602080910402602001604051908101604052809291908181526020018280546119c9906127ce565b8015611a165780601f106119eb57610100808354040283529160200191611a16565b820191906000526020600020905b8154815290600101906020018083116119f957829003601f168201915b5050505050905085565b828054611a2c906127ce565b90600052602060002090601f016020900481019282611a4e5760008555611a95565b82601f10611a6757805160ff1916838001178555611a95565b82800160010185558215611a95579182015b82811115611a94578251825591602001919060010190611a79565b5b509050611aa29190611aa6565b5090565b5b80821115611abf576000816000905550600101611aa7565b5090565b6000604051905090565b600080fd5b600080fd5b600061ffff82169050919050565b611aee81611ad7565b8114611af957600080fd5b50565b600081359050611b0b81611ae5565b92915050565b600060208284031215611b2757611b26611acd565b5b6000611b3584828501611afc565b91505092915050565b600073ffffffffffffffffffffffffffffffffffffffff82169050919050565b6000611b6982611b3e565b9050919050565b611b7981611b5e565b82525050565b6000602082019050611b946000830184611b70565b92915050565b611ba381611b5e565b8114611bae57600080fd5b50565b600081359050611bc081611b9a565b92915050565b6000819050919050565b611bd981611bc6565b8114611be457600080fd5b50565b600081359050611bf681611bd0565b92915050565b600080fd5b600080fd5b6000601f19601f8301169050919050565b7f4e487b7100000000000000000000000000000000000000000000000000000000600052604160045260246000fd5b611c4f82611c06565b810181811067ffffffffffffffff82111715611c6e57611c6d611c17565b5b80604052505050565b6000611c81611ac3565b9050611c8d8282611c46565b919050565b600067ffffffffffffffff821115611cad57611cac611c17565b5b611cb682611c06565b9050602081019050919050565b82818337600083830152505050565b6000611ce5611ce084611c92565b611c77565b905082815260208101848484011115611d0157611d00611c01565b5b611d0c848285611cc3565b509392505050565b600082601f830112611d2957611d28611bfc565b5b8135611d39848260208601611cd2565b91505092915050565b60008060008060808587031215611d5c57611d5b611acd565b5b6000611d6a87828801611bb1565b9450506020611d7b87828801611bb1565b9350506040611d8c87828801611be7565b925050606085013567ffffffffffffffff811115611dad57611dac611ad2565b5b611db987828801611d14565b91505092959194509250565b60007fffffffff0000000000000000000000000000000000000000000000000000000082169050919050565b611dfa81611dc5565b82525050565b6000602082019050611e156000830184611df1565b92915050565b611e2481611bc6565b82525050565b6000602082019050611e3f6000830184611e1b565b92915050565b60008060408385031215611e5c57611e5b611acd565b5b6000611e6a85828601611be7565b9250506020611e7b85828601611be7565b9150509250929050565b6000611e9082611b3e565b9050919050565b611ea081611e85565b82525050565b6000602082019050611ebb6000830184611e97565b92915050565b600067ffffffffffffffff821115611edc57611edb611c17565b5b611ee582611c06565b9050602081019050919050565b6000611f05611f0084611ec1565b611c77565b905082815260208101848484011115611f2157611f20611c01565b5b611f2c848285611cc3565b509392505050565b600082601f830112611f4957611f48611bfc565b5b8135611f59848260208601611ef2565b91505092915050565b60008115159050919050565b611f7781611f62565b8114611f8257600080fd5b50565b600081359050611f9481611f6e565b92915050565b600080600060608486031215611fb357611fb2611acd565b5b6000611fc186828701611bb1565b935050602084013567ffffffffffffffff811115611fe257611fe1611ad2565b5b611fee86828701611f34565b9250506040611fff86828701611f85565b9150509250925092565b600061201482611b5e565b9050919050565b61202481612009565b811461202f57600080fd5b50565b6000813590506120418161201b565b92915050565b600080600080600060a0868803121561206357612062611acd565b5b600061207188828901612032565b955050602061208288828901611be7565b945050604061209388828901611be7565b93505060606120a488828901611be7565b925050608086013567ffffffffffffffff8111156120c5576120c4611ad2565b5b6120d188828901611f34565b9150509295509295909350565b6000602082840312156120f4576120f3611acd565b5b600061210284828501611be7565b91505092915050565b6000819050919050565b600061213061212b61212684611b3e565b61210b565b611b3e565b9050919050565b600061214282612115565b9050919050565b600061215482612137565b9050919050565b61216481612149565b82525050565b61217381611f62565b82525050565b600081519050919050565b600082825260208201905092915050565b60005b838110156121b3578082015181840152602081019050612198565b838111156121c2576000848401525b50505050565b60006121d382612179565b6121dd8185612184565b93506121ed818560208601612195565b6121f681611c06565b840191505092915050565b600061010082019050612217600083018b611e1b565b612224602083018a61215b565b6122316040830189611e1b565b61223e6060830188611e1b565b61224b6080830187611e1b565b61225860a0830186611e97565b61226560c083018561216a565b81810360e083015261227781846121c8565b90509998505050505050505050565b6000806040838503121561229d5761229c611acd565b5b60006122ab85828601611bb1565b92505060206122bc85828601611be7565b9150509250929050565b600060a0820190506122db6000830188611e1b565b6122e86020830187611e97565b6122f56040830186611b70565b612302606083018561216a565b818103608083015261231481846121c8565b90509695505050505050565b7f5265656e7472616e637947756172643a207265656e7472616e742063616c6c00600082015250565b6000612356601f83612184565b915061236182612320565b602082019050919050565b6000602082019050818103600083015261238581612349565b9050919050565b7f596f7520617265206e6f7420746865206f776e6572206f6620746865204e4654600082015250565b60006123c2602083612184565b91506123cd8261238c565b602082019050919050565b600060208201905081810360008301526123f1816123b5565b9050919050565b7f6974656d20646f65736e74206578697374730000000000000000000000000000600082015250565b600061242e601283612184565b9150612439826123f8565b602082019050919050565b6000602082019050818103600083015261245d81612421565b9050919050565b7f6974656d20616c7265616479206f6e20746865206d61726b6574706c61636500600082015250565b600061249a601f83612184565b91506124a582612464565b602082019050919050565b600060208201905081810360008301526124c98161248d565b9050919050565b7f4e487b7100000000000000000000000000000000000000000000000000000000600052601160045260246000fd5b600061250a82611bc6565b915061251583611bc6565b9250817fffffffffffffffffffffffffffffffffffffffffffffffffffffffffffffffff048311821515161561254e5761254d6124d0565b5b828202905092915050565b600060608201905061256e6000830186611b70565b61257b6020830185611b70565b6125886040830184611e1b565b949350505050565b60006080820190506125a56000830187611e1b565b6125b26020830186611e1b565b6125bf6040830185611e1b565b6125cc6060830184611e1b565b95945050505050565b60006125e082611bc6565b91507fffffffffffffffffffffffffffffffffffffffffffffffffffffffffffffffff8203612612576126116124d0565b5b600182019050919050565b60006060820190506126326000830186611e1b565b61263f602083018561216a565b818103604083015261265181846121c8565b9050949350505050565b7f7072696365206d7573742062652067726561746572207468616e207a65726f00600082015250565b6000612691601f83612184565b915061269c8261265b565b602082019050919050565b600060208201905081810360008301526126c081612684565b9050919050565b7f796f7520617265206e6f742074686520636f6c6c656374696f6e206f776e6572600082015250565b60006126fd602083612184565b9150612708826126c7565b602082019050919050565b6000602082019050818103600083015261272c816126f0565b9050919050565b7f6974656d206e6f74206f6e20746865206d61726b6574706c6163650000000000600082015250565b6000612769601b83612184565b915061277482612733565b602082019050919050565b600060208201905081810360008301526127988161275c565b9050919050565b7f4e487b7100000000000000000000000000000000000000000000000000000000600052602260045260246000fd5b600060028204905060018216806127e657607f821691505b6020821081036127f9576127f861279f565b5b50919050565b600061280a82611bc6565b915061281583611bc6565b9250827fffffffffffffffffffffffffffffffffffffffffffffffffffffffffffffffff0382111561284a576128496124d0565b5b828201905092915050565b7f4e487b7100000000000000000000000000000000000000000000000000000000600052601260045260246000fd5b600061288f82611bc6565b915061289a83611bc6565b9250826128aa576128a9612855565b5b828204905092915050565b7f6e6f7420656e6f75676820657468657220746f20636f766572206974656d207060008201527f7269636520616e64206d61726b65742066656500000000000000000000000000602082015250565b6000612911603383612184565b915061291c826128b5565b604082019050919050565b6000602082019050818103600083015261294081612904565b9050919050565b7f6974656d20616c726561647920736f6c64000000000000000000000000000000600082015250565b600061297d601183612184565b915061298882612947565b602082019050919050565b600060208201905081810360008301526129ac81612970565b9050919050565b60006129be82611bc6565b91506129c983611bc6565b9250828210156129dc576129db6124d0565b5b828203905092915050565b60006060820190506129fc6000830186611e1b565b612a096020830185611e1b565b612a166040830184611e1b565b94935050505056fea2646970667358221220010169f5bc9e79a16a45c328b784b62a2b52611a2b6e8a17cbae37a2ddbdf68064736f6c634300080d0033",
  "linkReferences": {},
  "deployedLinkReferences": {}
}