{
  "_format": "hh-sol-artifact-1",
  "contractName": "Marketplace",
  "sourceName": "contracts/Marketplace.sol",
  "abi": [
    {
      "inputs": [
        {
          "internalType": "uint256",
          "name": "_feePercent",
          "type": "uint256"
        }
      ],
      "stateMutability": "nonpayable",
      "type": "constructor"
    },
    {
      "anonymous": false,
      "inputs": [
        {
          "indexed": false,
          "internalType": "uint256",
          "name": "itemId",
          "type": "uint256"
        },
        {
          "indexed": true,
          "internalType": "address",
          "name": "nft",
          "type": "address"
        },
        {
          "indexed": false,
          "internalType": "uint256",
          "name": "tokenId",
          "type": "uint256"
        },
        {
          "indexed": false,
          "internalType": "uint256",
          "name": "price",
          "type": "uint256"
        },
        {
          "indexed": true,
          "internalType": "address",
          "name": "seller",
          "type": "address"
        },
        {
          "indexed": true,
          "internalType": "address",
          "name": "buyer",
          "type": "address"
        }
      ],
      "name": "Bought",
      "type": "event"
    },
    {
      "anonymous": false,
      "inputs": [
        {
          "indexed": false,
          "internalType": "uint256",
          "name": "collectionId",
          "type": "uint256"
        },
        {
          "indexed": true,
          "internalType": "address",
          "name": "owner",
          "type": "address"
        },
        {
          "indexed": true,
          "internalType": "address",
          "name": "collectionAddress",
          "type": "address"
        },
        {
          "indexed": false,
          "internalType": "bool",
          "name": "isSFT",
          "type": "bool"
        },
        {
          "indexed": false,
          "internalType": "string",
          "name": "uri",
          "type": "string"
        }
      ],
      "name": "Collections",
      "type": "event"
    },
    {
      "anonymous": false,
      "inputs": [
        {
          "indexed": false,
          "internalType": "uint256",
          "name": "itemId",
          "type": "uint256"
        },
        {
          "indexed": true,
          "internalType": "address",
          "name": "nft",
          "type": "address"
        },
        {
          "indexed": false,
          "internalType": "uint256",
          "name": "collectionId",
          "type": "uint256"
        },
        {
          "indexed": false,
          "internalType": "uint256",
          "name": "tokenId",
          "type": "uint256"
        },
        {
          "indexed": false,
          "internalType": "uint256",
          "name": "price",
          "type": "uint256"
        },
        {
          "indexed": true,
          "internalType": "address",
          "name": "seller",
          "type": "address"
        }
      ],
      "name": "Offered",
      "type": "event"
    },
    {
      "inputs": [
        {
          "internalType": "address",
          "name": "_collectionAddress",
          "type": "address"
        },
        {
          "internalType": "string",
          "name": "_uri",
          "type": "string"
        },
        {
          "internalType": "bool",
          "name": "_isSFT",
          "type": "bool"
        }
      ],
      "name": "addCollection",
      "outputs": [],
      "stateMutability": "nonpayable",
      "type": "function"
    },
    {
      "inputs": [
        {
          "internalType": "uint256",
          "name": "_itemId",
          "type": "uint256"
        },
        {
          "internalType": "uint256",
          "name": "_newPrice",
          "type": "uint256"
        }
      ],
      "name": "changePrice",
      "outputs": [],
      "stateMutability": "payable",
      "type": "function"
    },
    {
      "inputs": [],
      "name": "collectionCount",
      "outputs": [
        {
          "internalType": "uint256",
          "name": "",
          "type": "uint256"
        }
      ],
      "stateMutability": "view",
      "type": "function"
    },
    {
      "inputs": [
        {
          "internalType": "uint256",
          "name": "",
          "type": "uint256"
        }
      ],
      "name": "collections",
      "outputs": [
        {
          "internalType": "uint256",
          "name": "collectionId",
          "type": "uint256"
        },
        {
          "internalType": "address payable",
          "name": "owner",
          "type": "address"
        },
        {
          "internalType": "address",
          "name": "collectionAddress",
          "type": "address"
        },
        {
          "internalType": "bool",
          "name": "sft",
          "type": "bool"
        },
        {
          "internalType": "string",
          "name": "uri",
          "type": "string"
        }
      ],
      "stateMutability": "view",
      "type": "function"
    },
    {
      "inputs": [
        {
          "internalType": "address",
          "name": "",
          "type": "address"
        },
        {
          "internalType": "uint256",
          "name": "",
          "type": "uint256"
        }
      ],
      "name": "collectionsByArtist",
      "outputs": [
        {
          "internalType": "address",
          "name": "",
          "type": "address"
        }
      ],
      "stateMutability": "view",
      "type": "function"
    },
    {
      "inputs": [],
      "name": "feeAccount",
      "outputs": [
        {
          "internalType": "address payable",
          "name": "",
          "type": "address"
        }
      ],
      "stateMutability": "view",
      "type": "function"
    },
    {
      "inputs": [],
      "name": "feePercent",
      "outputs": [
        {
          "internalType": "uint256",
          "name": "",
          "type": "uint256"
        }
      ],
      "stateMutability": "view",
      "type": "function"
    },
    {
      "inputs": [
        {
          "internalType": "uint256",
          "name": "_id",
          "type": "uint256"
        }
      ],
      "name": "getCollection",
      "outputs": [
        {
          "internalType": "address",
          "name": "",
          "type": "address"
        }
      ],
      "stateMutability": "view",
      "type": "function"
    },
    {
      "inputs": [],
      "name": "getCollectionId",
      "outputs": [
        {
          "internalType": "uint256",
          "name": "",
          "type": "uint256"
        }
      ],
      "stateMutability": "view",
      "type": "function"
    },
    {
      "inputs": [
        {
          "internalType": "uint256",
          "name": "_itemId",
          "type": "uint256"
        }
      ],
      "name": "getTotalPrice",
      "outputs": [
        {
          "internalType": "uint256",
          "name": "",
          "type": "uint256"
        }
      ],
      "stateMutability": "view",
      "type": "function"
    },
    {
      "inputs": [],
      "name": "itemCount",
      "outputs": [
        {
          "internalType": "uint256",
          "name": "",
          "type": "uint256"
        }
      ],
      "stateMutability": "view",
      "type": "function"
    },
    {
      "inputs": [
        {
          "internalType": "uint256",
          "name": "",
          "type": "uint256"
        }
      ],
      "name": "items",
      "outputs": [
        {
          "internalType": "uint256",
          "name": "itemId",
          "type": "uint256"
        },
        {
          "internalType": "uint256",
          "name": "tokenId",
          "type": "uint256"
        },
        {
          "internalType": "uint256",
          "name": "collectionId",
          "type": "uint256"
        },
        {
          "internalType": "uint256",
          "name": "price",
          "type": "uint256"
        },
        {
          "internalType": "uint256",
          "name": "amount",
          "type": "uint256"
        },
        {
          "internalType": "contract NFT",
          "name": "nft",
          "type": "address"
        },
        {
          "internalType": "address payable",
          "name": "owner",
          "type": "address"
        },
        {
          "internalType": "bool",
          "name": "sold",
          "type": "bool"
        },
        {
          "internalType": "bool",
          "name": "isSFT",
          "type": "bool"
        },
        {
          "internalType": "string",
          "name": "uri",
          "type": "string"
        }
      ],
      "stateMutability": "view",
      "type": "function"
    },
    {
      "inputs": [
        {
          "internalType": "uint256",
          "name": "_tokenId",
          "type": "uint256"
        },
        {
          "internalType": "uint256",
          "name": "_collectionId",
          "type": "uint256"
        },
        {
          "internalType": "uint256",
          "name": "_price",
          "type": "uint256"
        },
        {
          "internalType": "contract NFT",
          "name": "_nft",
          "type": "address"
        },
        {
          "internalType": "string",
          "name": "_uri",
          "type": "string"
        }
      ],
      "name": "makeItem",
      "outputs": [],
      "stateMutability": "nonpayable",
      "type": "function"
    },
    {
      "inputs": [
        {
          "internalType": "uint256",
          "name": "_tokenId",
          "type": "uint256"
        },
        {
          "internalType": "uint256",
          "name": "_collectionId",
          "type": "uint256"
        },
        {
          "internalType": "uint16",
          "name": "_amount",
          "type": "uint16"
        },
        {
          "internalType": "uint256",
          "name": "_price",
          "type": "uint256"
        },
        {
          "internalType": "contract NFT",
          "name": "_nft",
          "type": "address"
        },
        {
          "internalType": "string",
          "name": "_uri",
          "type": "string"
        }
      ],
      "name": "makeItemSFT",
      "outputs": [],
      "stateMutability": "nonpayable",
      "type": "function"
    },
    {
      "inputs": [
        {
          "internalType": "address",
          "name": "",
          "type": "address"
        },
        {
          "internalType": "address",
          "name": "",
          "type": "address"
        },
        {
          "internalType": "uint256",
          "name": "",
          "type": "uint256"
        },
        {
          "internalType": "bytes",
          "name": "",
          "type": "bytes"
        }
      ],
      "name": "onERC721Received",
      "outputs": [
        {
          "internalType": "bytes4",
          "name": "",
          "type": "bytes4"
        }
      ],
      "stateMutability": "nonpayable",
      "type": "function"
    },
    {
      "inputs": [
        {
          "internalType": "uint256",
          "name": "_itemId",
          "type": "uint256"
        }
      ],
      "name": "purchaseItem",
      "outputs": [],
      "stateMutability": "payable",
      "type": "function"
    },
    {
      "inputs": [],
      "name": "rate",
      "outputs": [
        {
          "internalType": "uint256",
          "name": "",
          "type": "uint256"
        }
      ],
      "stateMutability": "view",
      "type": "function"
    },
    {
      "inputs": [
        {
          "internalType": "uint256",
          "name": "_itemId",
          "type": "uint256"
        }
      ],
      "name": "removeFromMarketplace",
      "outputs": [],
      "stateMutability": "payable",
      "type": "function"
    },
    {
      "inputs": [
        {
          "internalType": "uint256",
          "name": "_itemId",
          "type": "uint256"
        },
        {
          "internalType": "uint256",
          "name": "_price",
          "type": "uint256"
        }
      ],
      "name": "sellItem",
      "outputs": [],
      "stateMutability": "payable",
      "type": "function"
    }
  ],
  "bytecode": "0x60c0604052670de0b6b3a76400006003553480156200001d57600080fd5b506040516200303a3803806200303a8339818101604052810190620000439190620000ce565b60016000819055503373ffffffffffffffffffffffffffffffffffffffff1660808173ffffffffffffffffffffffffffffffffffffffff16815250508060a081815250505062000100565b600080fd5b6000819050919050565b620000a88162000093565b8114620000b457600080fd5b50565b600081519050620000c8816200009d565b92915050565b600060208284031215620000e757620000e66200008e565b5b6000620000f784828501620000b7565b91505092915050565b60805160a051612f066200013460003960008181610bb0015261186c015260008181610b7c0152611a910152612f066000f3fe6080604052600436106101145760003560e01c806399be08ea116100a0578063ca7dd37511610064578063ca7dd3751461037f578063d38ea5bf146103bc578063d57f966b146103d8578063d6fa98f514610403578063fdbda0ec1461044057610114565b806399be08ea146102af578063ab38cb56146102d8578063ac23c08c146102f4578063b3de019c1461031d578063bfb231d21461033957610114565b80635a1f3c28116100e75780635a1f3c28146101c657806365e17c9d146102035780636bfb0d011461022e5780637c8e7bfe146102595780637fd6f15c1461028457610114565b8063150b7a02146101195780632c4e722e146101565780632d923561146101815780633eb12c021461019d575b600080fd5b34801561012557600080fd5b50610140600480360381019061013b91906120c9565b610481565b60405161014d9190612187565b60405180910390f35b34801561016257600080fd5b5061016b610495565b60405161017891906121b1565b60405180910390f35b61019b600480360381019061019691906121cc565b61049b565b005b3480156101a957600080fd5b506101c460048036038101906101bf9190612325565b6107a9565b005b3480156101d257600080fd5b506101ed60048036038101906101e891906123ce565b610b3a565b6040516101fa919061240a565b60405180910390f35b34801561020f57600080fd5b50610218610b7a565b6040516102259190612446565b60405180910390f35b34801561023a57600080fd5b50610243610b9e565b60405161025091906121b1565b60405180910390f35b34801561026557600080fd5b5061026e610ba4565b60405161027b91906121b1565b60405180910390f35b34801561029057600080fd5b50610299610bae565b6040516102a691906121b1565b60405180910390f35b3480156102bb57600080fd5b506102d660048036038101906102d19190612499565b610bd2565b005b6102f260048036038101906102ed91906123ce565b610e93565b005b34801561030057600080fd5b5061031b60048036038101906103169190612508565b6110ec565b005b610337600480360381019061033291906121cc565b6114d9565b005b34801561034557600080fd5b50610360600480360381019061035b91906123ce565b611730565b6040516103769a99989796959493929190612695565b60405180910390f35b34801561038b57600080fd5b506103a660048036038101906103a191906123ce565b611866565b6040516103b391906121b1565b60405180910390f35b6103d660048036038101906103d191906123ce565b6118c9565b005b3480156103e457600080fd5b506103ed611cd9565b6040516103fa91906121b1565b60405180910390f35b34801561040f57600080fd5b5061042a60048036038101906104259190612738565b611cdf565b604051610437919061240a565b60405180910390f35b34801561044c57600080fd5b50610467600480360381019061046291906123ce565b611d2d565b604051610478959493929190612778565b60405180910390f35b600063150b7a0260e01b9050949350505050565b60035481565b6002600054036104e0576040517f08c379a00000000000000000000000000000000000000000000000000000000081526004016104d79061281e565b60405180910390fd5b600260008190555060006004600084815260200190815260200160002090503373ffffffffffffffffffffffffffffffffffffffff168160060160009054906101000a900473ffffffffffffffffffffffffffffffffffffffff1673ffffffffffffffffffffffffffffffffffffffff1614610591576040517f08c379a00000000000000000000000000000000000000000000000000000000081526004016105889061288a565b60405180910390fd5b6000831180156105a357506001548311155b6105e2576040517f08c379a00000000000000000000000000000000000000000000000000000000081526004016105d9906128f6565b60405180910390fd5b8060060160149054906101000a900460ff16610633576040517f08c379a000000000000000000000000000000000000000000000000000000000815260040161062a90612962565b60405180910390fd5b60008160060160146101000a81548160ff0219169083151502179055506003548261065e91906129b1565b81600301819055508060050160009054906101000a900473ffffffffffffffffffffffffffffffffffffffff1673ffffffffffffffffffffffffffffffffffffffff166323b872dd333084600101546040518463ffffffff1660e01b81526004016106cb93929190612a0b565b600060405180830381600087803b1580156106e557600080fd5b505af11580156106f9573d6000803e3d6000fd5b505050503373ffffffffffffffffffffffffffffffffffffffff168160050160009054906101000a900473ffffffffffffffffffffffffffffffffffffffff1673ffffffffffffffffffffffffffffffffffffffff167f8a7207dec41e68d1fbb358baac1c6ead9b1741d156d9bb551ae56d77c4a04e9383600001548460020154856001015486600301546040516107949493929190612a42565b60405180910390a35060016000819055505050565b6002600054036107ee576040517f08c379a00000000000000000000000000000000000000000000000000000000081526004016107e59061281e565b60405180910390fd5b600260008190555060008311610839576040517f08c379a000000000000000000000000000000000000000000000000000000000815260040161083090612ad3565b60405180910390fd5b3373ffffffffffffffffffffffffffffffffffffffff166005600087815260200190815260200160002060010160009054906101000a900473ffffffffffffffffffffffffffffffffffffffff1673ffffffffffffffffffffffffffffffffffffffff16146108dd576040517f08c379a00000000000000000000000000000000000000000000000000000000081526004016108d490612b3f565b60405180910390fd5b600160008154809291906108f090612b5f565b919050555060006003548461090591906129b1565b905060405180610140016040528060015481526020018881526020018781526020018281526020018661ffff1681526020018473ffffffffffffffffffffffffffffffffffffffff1681526020013373ffffffffffffffffffffffffffffffffffffffff16815260200160001515815260200160011515815260200183815250600460006001548152602001908152602001600020600082015181600001556020820151816001015560408201518160020155606082015181600301556080820151816004015560a08201518160050160006101000a81548173ffffffffffffffffffffffffffffffffffffffff021916908373ffffffffffffffffffffffffffffffffffffffff16021790555060c08201518160060160006101000a81548173ffffffffffffffffffffffffffffffffffffffff021916908373ffffffffffffffffffffffffffffffffffffffff16021790555060e08201518160060160146101000a81548160ff0219169083151502179055506101008201518160060160156101000a81548160ff021916908315150217905550610120820151816007019080519060200190610ab8929190611e38565b509050503373ffffffffffffffffffffffffffffffffffffffff168373ffffffffffffffffffffffffffffffffffffffff167f8a7207dec41e68d1fbb358baac1c6ead9b1741d156d9bb551ae56d77c4a04e93600154898b86604051610b219493929190612a42565b60405180910390a3506001600081905550505050505050565b60006005600083815260200190815260200160002060020160009054906101000a900473ffffffffffffffffffffffffffffffffffffffff169050919050565b7f000000000000000000000000000000000000000000000000000000000000000081565b60015481565b6000600254905090565b7f000000000000000000000000000000000000000000000000000000000000000081565b600260005403610c17576040517f08c379a0000000000000000000000000000000000000000000000000000000008152600401610c0e9061281e565b60405180910390fd5b6002600081905550600660003373ffffffffffffffffffffffffffffffffffffffff1673ffffffffffffffffffffffffffffffffffffffff168152602001908152602001600020839080600181540180825580915050600190039060005260206000200160009091909190916101000a81548173ffffffffffffffffffffffffffffffffffffffff021916908373ffffffffffffffffffffffffffffffffffffffff16021790555060026000815480929190610cd290612b5f565b91905055506040518060a0016040528060025481526020013373ffffffffffffffffffffffffffffffffffffffff1681526020018473ffffffffffffffffffffffffffffffffffffffff1681526020018215158152602001838152506005600060025481526020019081526020016000206000820151816000015560208201518160010160006101000a81548173ffffffffffffffffffffffffffffffffffffffff021916908373ffffffffffffffffffffffffffffffffffffffff16021790555060408201518160020160006101000a81548173ffffffffffffffffffffffffffffffffffffffff021916908373ffffffffffffffffffffffffffffffffffffffff16021790555060608201518160020160146101000a81548160ff0219169083151502179055506080820151816003019080519060200190610e17929190611e38565b509050508273ffffffffffffffffffffffffffffffffffffffff163373ffffffffffffffffffffffffffffffffffffffff167fd1d750a35b22bdfce91243b18bbd1f334e3f5028231afbf95fca42ef623cf1336002548486604051610e7e93929190612ba7565b60405180910390a36001600081905550505050565b600260005403610ed8576040517f08c379a0000000000000000000000000000000000000000000000000000000008152600401610ecf9061281e565b60405180910390fd5b600260008190555060006004600083815260200190815260200160002090503373ffffffffffffffffffffffffffffffffffffffff168160060160009054906101000a900473ffffffffffffffffffffffffffffffffffffffff1673ffffffffffffffffffffffffffffffffffffffff1614610f89576040517f08c379a0000000000000000000000000000000000000000000000000000000008152600401610f809061288a565b60405180910390fd5b600082118015610f9b57506001548211155b610fda576040517f08c379a0000000000000000000000000000000000000000000000000000000008152600401610fd1906128f6565b60405180910390fd5b8060060160149054906101000a900460ff161561102c576040517f08c379a000000000000000000000000000000000000000000000000000000000815260040161102390612c31565b60405180910390fd5b60018160060160146101000a81548160ff0219169083151502179055508060050160009054906101000a900473ffffffffffffffffffffffffffffffffffffffff1673ffffffffffffffffffffffffffffffffffffffff166323b872dd303384600101546040518463ffffffff1660e01b81526004016110ae93929190612a0b565b600060405180830381600087803b1580156110c857600080fd5b505af11580156110dc573d6000803e3d6000fd5b5050505050600160008190555050565b600260005403611131576040517f08c379a00000000000000000000000000000000000000000000000000000000081526004016111289061281e565b60405180910390fd5b60026000819055506000831161117c576040517f08c379a000000000000000000000000000000000000000000000000000000000815260040161117390612ad3565b60405180910390fd5b3373ffffffffffffffffffffffffffffffffffffffff166005600086815260200190815260200160002060010160009054906101000a900473ffffffffffffffffffffffffffffffffffffffff1673ffffffffffffffffffffffffffffffffffffffff1614611220576040517f08c379a000000000000000000000000000000000000000000000000000000000815260040161121790612b3f565b60405180910390fd5b6001600081548092919061123390612b5f565b919050555060006003548461124891906129b1565b90508273ffffffffffffffffffffffffffffffffffffffff16631249c58b6040518163ffffffff1660e01b8152600401600060405180830381600087803b15801561129257600080fd5b505af11580156112a6573d6000803e3d6000fd5b505050506040518061014001604052806001548152602001878152602001868152602001828152602001600181526020018473ffffffffffffffffffffffffffffffffffffffff1681526020013373ffffffffffffffffffffffffffffffffffffffff16815260200160001515815260200160001515815260200183815250600460006001548152602001908152602001600020600082015181600001556020820151816001015560408201518160020155606082015181600301556080820151816004015560a08201518160050160006101000a81548173ffffffffffffffffffffffffffffffffffffffff021916908373ffffffffffffffffffffffffffffffffffffffff16021790555060c08201518160060160006101000a81548173ffffffffffffffffffffffffffffffffffffffff021916908373ffffffffffffffffffffffffffffffffffffffff16021790555060e08201518160060160146101000a81548160ff0219169083151502179055506101008201518160060160156101000a81548160ff021916908315150217905550610120820151816007019080519060200190611458929190611e38565b509050503373ffffffffffffffffffffffffffffffffffffffff168373ffffffffffffffffffffffffffffffffffffffff167f8a7207dec41e68d1fbb358baac1c6ead9b1741d156d9bb551ae56d77c4a04e93600154888a866040516114c19493929190612a42565b60405180910390a35060016000819055505050505050565b60026000540361151e576040517f08c379a00000000000000000000000000000000000000000000000000000000081526004016115159061281e565b60405180910390fd5b600260008190555060006004600084815260200190815260200160002090503373ffffffffffffffffffffffffffffffffffffffff168160060160009054906101000a900473ffffffffffffffffffffffffffffffffffffffff1673ffffffffffffffffffffffffffffffffffffffff16146115cf576040517f08c379a00000000000000000000000000000000000000000000000000000000081526004016115c69061288a565b60405180910390fd5b6000831180156115e157506001548311155b611620576040517f08c379a0000000000000000000000000000000000000000000000000000000008152600401611617906128f6565b60405180910390fd5b8060060160149054906101000a900460ff1615611672576040517f08c379a000000000000000000000000000000000000000000000000000000000815260040161166990612c31565b60405180910390fd5b6003548261168091906129b1565b81600301819055503373ffffffffffffffffffffffffffffffffffffffff168160050160009054906101000a900473ffffffffffffffffffffffffffffffffffffffff1673ffffffffffffffffffffffffffffffffffffffff167f8a7207dec41e68d1fbb358baac1c6ead9b1741d156d9bb551ae56d77c4a04e938360000154846002015485600101548760405161171b9493929190612a42565b60405180910390a35060016000819055505050565b60046020528060005260406000206000915090508060000154908060010154908060020154908060030154908060040154908060050160009054906101000a900473ffffffffffffffffffffffffffffffffffffffff16908060060160009054906101000a900473ffffffffffffffffffffffffffffffffffffffff16908060060160149054906101000a900460ff16908060060160159054906101000a900460ff16908060070180546117e390612c80565b80601f016020809104026020016040519081016040528092919081815260200182805461180f90612c80565b801561185c5780601f106118315761010080835404028352916020019161185c565b820191906000526020600020905b81548152906001019060200180831161183f57829003601f168201915b505050505090508a565b600060647f000000000000000000000000000000000000000000000000000000000000000060646118979190612cb1565b60046000858152602001908152602001600020600301546118b891906129b1565b6118c29190612d36565b9050919050565b60026000540361190e576040517f08c379a00000000000000000000000000000000000000000000000000000000081526004016119059061281e565b60405180910390fd5b6002600081905550600061192182611866565b9050600060046000848152602001908152602001600020905060008311801561194c57506001548311155b61198b576040517f08c379a0000000000000000000000000000000000000000000000000000000008152600401611982906128f6565b60405180910390fd5b813410156119ce576040517f08c379a00000000000000000000000000000000000000000000000000000000081526004016119c590612dd9565b60405180910390fd5b8060060160149054906101000a900460ff1615611a20576040517f08c379a0000000000000000000000000000000000000000000000000000000008152600401611a1790612e45565b60405180910390fd5b8060060160009054906101000a900473ffffffffffffffffffffffffffffffffffffffff1673ffffffffffffffffffffffffffffffffffffffff166108fc82600301549081150290604051600060405180830381858888f19350505050158015611a8e573d6000803e3d6000fd5b507f000000000000000000000000000000000000000000000000000000000000000073ffffffffffffffffffffffffffffffffffffffff166108fc826003015484611ad99190612e65565b9081150290604051600060405180830381858888f19350505050158015611b04573d6000803e3d6000fd5b5060018160060160146101000a81548160ff0219169083151502179055508060050160009054906101000a900473ffffffffffffffffffffffffffffffffffffffff1673ffffffffffffffffffffffffffffffffffffffff166323b872dd303384600101546040518463ffffffff1660e01b8152600401611b8793929190612a0b565b600060405180830381600087803b158015611ba157600080fd5b505af1158015611bb5573d6000803e3d6000fd5b50505050338160060160006101000a81548173ffffffffffffffffffffffffffffffffffffffff021916908373ffffffffffffffffffffffffffffffffffffffff1602179055503373ffffffffffffffffffffffffffffffffffffffff168160060160009054906101000a900473ffffffffffffffffffffffffffffffffffffffff1673ffffffffffffffffffffffffffffffffffffffff168260050160009054906101000a900473ffffffffffffffffffffffffffffffffffffffff1673ffffffffffffffffffffffffffffffffffffffff167f8b4c9c8a607d67b321582dd8461041b1dc2ceeca70c8b7f37f8e02095cf2e76d8685600101548660030154604051611cc493929190612e99565b60405180910390a45050600160008190555050565b60025481565b60066020528160005260406000208181548110611cfb57600080fd5b906000526020600020016000915091509054906101000a900473ffffffffffffffffffffffffffffffffffffffff1681565b60056020528060005260406000206000915090508060000154908060010160009054906101000a900473ffffffffffffffffffffffffffffffffffffffff16908060020160009054906101000a900473ffffffffffffffffffffffffffffffffffffffff16908060020160149054906101000a900460ff1690806003018054611db590612c80565b80601f0160208091040260200160405190810160405280929190818152602001828054611de190612c80565b8015611e2e5780601f10611e0357610100808354040283529160200191611e2e565b820191906000526020600020905b815481529060010190602001808311611e1157829003601f168201915b5050505050905085565b828054611e4490612c80565b90600052602060002090601f016020900481019282611e665760008555611ead565b82601f10611e7f57805160ff1916838001178555611ead565b82800160010185558215611ead579182015b82811115611eac578251825591602001919060010190611e91565b5b509050611eba9190611ebe565b5090565b5b80821115611ed7576000816000905550600101611ebf565b5090565b6000604051905090565b600080fd5b600080fd5b600073ffffffffffffffffffffffffffffffffffffffff82169050919050565b6000611f1a82611eef565b9050919050565b611f2a81611f0f565b8114611f3557600080fd5b50565b600081359050611f4781611f21565b92915050565b6000819050919050565b611f6081611f4d565b8114611f6b57600080fd5b50565b600081359050611f7d81611f57565b92915050565b600080fd5b600080fd5b6000601f19601f8301169050919050565b7f4e487b7100000000000000000000000000000000000000000000000000000000600052604160045260246000fd5b611fd682611f8d565b810181811067ffffffffffffffff82111715611ff557611ff4611f9e565b5b80604052505050565b6000612008611edb565b90506120148282611fcd565b919050565b600067ffffffffffffffff82111561203457612033611f9e565b5b61203d82611f8d565b9050602081019050919050565b82818337600083830152505050565b600061206c61206784612019565b611ffe565b90508281526020810184848401111561208857612087611f88565b5b61209384828561204a565b509392505050565b600082601f8301126120b0576120af611f83565b5b81356120c0848260208601612059565b91505092915050565b600080600080608085870312156120e3576120e2611ee5565b5b60006120f187828801611f38565b945050602061210287828801611f38565b935050604061211387828801611f6e565b925050606085013567ffffffffffffffff81111561213457612133611eea565b5b6121408782880161209b565b91505092959194509250565b60007fffffffff0000000000000000000000000000000000000000000000000000000082169050919050565b6121818161214c565b82525050565b600060208201905061219c6000830184612178565b92915050565b6121ab81611f4d565b82525050565b60006020820190506121c660008301846121a2565b92915050565b600080604083850312156121e3576121e2611ee5565b5b60006121f185828601611f6e565b925050602061220285828601611f6e565b9150509250929050565b600061ffff82169050919050565b6122238161220c565b811461222e57600080fd5b50565b6000813590506122408161221a565b92915050565b600061225182611f0f565b9050919050565b61226181612246565b811461226c57600080fd5b50565b60008135905061227e81612258565b92915050565b600067ffffffffffffffff82111561229f5761229e611f9e565b5b6122a882611f8d565b9050602081019050919050565b60006122c86122c384612284565b611ffe565b9050828152602081018484840111156122e4576122e3611f88565b5b6122ef84828561204a565b509392505050565b600082601f83011261230c5761230b611f83565b5b813561231c8482602086016122b5565b91505092915050565b60008060008060008060c0878903121561234257612341611ee5565b5b600061235089828a01611f6e565b965050602061236189828a01611f6e565b955050604061237289828a01612231565b945050606061238389828a01611f6e565b935050608061239489828a0161226f565b92505060a087013567ffffffffffffffff8111156123b5576123b4611eea565b5b6123c189828a016122f7565b9150509295509295509295565b6000602082840312156123e4576123e3611ee5565b5b60006123f284828501611f6e565b91505092915050565b61240481611f0f565b82525050565b600060208201905061241f60008301846123fb565b92915050565b600061243082611eef565b9050919050565b61244081612425565b82525050565b600060208201905061245b6000830184612437565b92915050565b60008115159050919050565b61247681612461565b811461248157600080fd5b50565b6000813590506124938161246d565b92915050565b6000806000606084860312156124b2576124b1611ee5565b5b60006124c086828701611f38565b935050602084013567ffffffffffffffff8111156124e1576124e0611eea565b5b6124ed868287016122f7565b92505060406124fe86828701612484565b9150509250925092565b600080600080600060a0868803121561252457612523611ee5565b5b600061253288828901611f6e565b955050602061254388828901611f6e565b945050604061255488828901611f6e565b93505060606125658882890161226f565b925050608086013567ffffffffffffffff81111561258657612585611eea565b5b612592888289016122f7565b9150509295509295909350565b6000819050919050565b60006125c46125bf6125ba84611eef565b61259f565b611eef565b9050919050565b60006125d6826125a9565b9050919050565b60006125e8826125cb565b9050919050565b6125f8816125dd565b82525050565b61260781612461565b82525050565b600081519050919050565b600082825260208201905092915050565b60005b8381101561264757808201518184015260208101905061262c565b83811115612656576000848401525b50505050565b60006126678261260d565b6126718185612618565b9350612681818560208601612629565b61268a81611f8d565b840191505092915050565b6000610140820190506126ab600083018d6121a2565b6126b8602083018c6121a2565b6126c5604083018b6121a2565b6126d2606083018a6121a2565b6126df60808301896121a2565b6126ec60a08301886125ef565b6126f960c0830187612437565b61270660e08301866125fe565b6127146101008301856125fe565b818103610120830152612727818461265c565b90509b9a5050505050505050505050565b6000806040838503121561274f5761274e611ee5565b5b600061275d85828601611f38565b925050602061276e85828601611f6e565b9150509250929050565b600060a08201905061278d60008301886121a2565b61279a6020830187612437565b6127a760408301866123fb565b6127b460608301856125fe565b81810360808301526127c6818461265c565b90509695505050505050565b7f5265656e7472616e637947756172643a207265656e7472616e742063616c6c00600082015250565b6000612808601f83612618565b9150612813826127d2565b602082019050919050565b60006020820190508181036000830152612837816127fb565b9050919050565b7f596f7520617265206e6f7420746865206f776e6572206f6620746865204e4654600082015250565b6000612874602083612618565b915061287f8261283e565b602082019050919050565b600060208201905081810360008301526128a381612867565b9050919050565b7f6974656d20646f65736e74206578697374730000000000000000000000000000600082015250565b60006128e0601283612618565b91506128eb826128aa565b602082019050919050565b6000602082019050818103600083015261290f816128d3565b9050919050565b7f6974656d20616c7265616479206f6e20746865206d61726b6574706c61636500600082015250565b600061294c601f83612618565b915061295782612916565b602082019050919050565b6000602082019050818103600083015261297b8161293f565b9050919050565b7f4e487b7100000000000000000000000000000000000000000000000000000000600052601160045260246000fd5b60006129bc82611f4d565b91506129c783611f4d565b9250817fffffffffffffffffffffffffffffffffffffffffffffffffffffffffffffffff0483118215151615612a00576129ff612982565b5b828202905092915050565b6000606082019050612a2060008301866123fb565b612a2d60208301856123fb565b612a3a60408301846121a2565b949350505050565b6000608082019050612a5760008301876121a2565b612a6460208301866121a2565b612a7160408301856121a2565b612a7e60608301846121a2565b95945050505050565b7f7072696365206d7573742062652067726561746572207468616e207a65726f00600082015250565b6000612abd601f83612618565b9150612ac882612a87565b602082019050919050565b60006020820190508181036000830152612aec81612ab0565b9050919050565b7f796f7520617265206e6f742074686520636f6c6c656374696f6e206f776e6572600082015250565b6000612b29602083612618565b9150612b3482612af3565b602082019050919050565b60006020820190508181036000830152612b5881612b1c565b9050919050565b6000612b6a82611f4d565b91507fffffffffffffffffffffffffffffffffffffffffffffffffffffffffffffffff8203612b9c57612b9b612982565b5b600182019050919050565b6000606082019050612bbc60008301866121a2565b612bc960208301856125fe565b8181036040830152612bdb818461265c565b9050949350505050565b7f6974656d206e6f74206f6e20746865206d61726b6574706c6163650000000000600082015250565b6000612c1b601b83612618565b9150612c2682612be5565b602082019050919050565b60006020820190508181036000830152612c4a81612c0e565b9050919050565b7f4e487b7100000000000000000000000000000000000000000000000000000000600052602260045260246000fd5b60006002820490506001821680612c9857607f821691505b602082108103612cab57612caa612c51565b5b50919050565b6000612cbc82611f4d565b9150612cc783611f4d565b9250827fffffffffffffffffffffffffffffffffffffffffffffffffffffffffffffffff03821115612cfc57612cfb612982565b5b828201905092915050565b7f4e487b7100000000000000000000000000000000000000000000000000000000600052601260045260246000fd5b6000612d4182611f4d565b9150612d4c83611f4d565b925082612d5c57612d5b612d07565b5b828204905092915050565b7f6e6f7420656e6f75676820657468657220746f20636f766572206974656d207060008201527f7269636520616e64206d61726b65742066656500000000000000000000000000602082015250565b6000612dc3603383612618565b9150612dce82612d67565b604082019050919050565b60006020820190508181036000830152612df281612db6565b9050919050565b7f6974656d20616c726561647920736f6c64000000000000000000000000000000600082015250565b6000612e2f601183612618565b9150612e3a82612df9565b602082019050919050565b60006020820190508181036000830152612e5e81612e22565b9050919050565b6000612e7082611f4d565b9150612e7b83611f4d565b925082821015612e8e57612e8d612982565b5b828203905092915050565b6000606082019050612eae60008301866121a2565b612ebb60208301856121a2565b612ec860408301846121a2565b94935050505056fea2646970667358221220a1d3a1529ce08ff66464d074b89e3a2efa71bb639bdae329e71328b0713d779164736f6c634300080d0033",
  "linkReferences": {},
  "deployedLinkReferences": {}
}